{
	"RealEstateToken.sol": {
		"RealEstateToken": {
			"abi": [
				{
					"inputs": [
						{
							"internalType": "string",
							"name": "_name",
							"type": "string"
						},
						{
							"internalType": "string",
							"name": "_symbol",
							"type": "string"
						},
						{
							"internalType": "uint256",
							"name": "_initialSupply",
							"type": "uint256"
						},
						{
							"internalType": "uint256",
							"name": "_sharePrice",
							"type": "uint256"
						},
						{
							"internalType": "uint256",
							"name": "_totalShares",
							"type": "uint256"
						}
					],
					"stateMutability": "nonpayable",
					"type": "constructor"
				},
				{
					"inputs": [
						{
							"internalType": "address",
							"name": "spender",
							"type": "address"
						},
						{
							"internalType": "uint256",
							"name": "allowance",
							"type": "uint256"
						},
						{
							"internalType": "uint256",
							"name": "needed",
							"type": "uint256"
						}
					],
					"name": "ERC20InsufficientAllowance",
					"type": "error"
				},
				{
					"inputs": [
						{
							"internalType": "address",
							"name": "sender",
							"type": "address"
						},
						{
							"internalType": "uint256",
							"name": "balance",
							"type": "uint256"
						},
						{
							"internalType": "uint256",
							"name": "needed",
							"type": "uint256"
						}
					],
					"name": "ERC20InsufficientBalance",
					"type": "error"
				},
				{
					"inputs": [
						{
							"internalType": "address",
							"name": "approver",
							"type": "address"
						}
					],
					"name": "ERC20InvalidApprover",
					"type": "error"
				},
				{
					"inputs": [
						{
							"internalType": "address",
							"name": "receiver",
							"type": "address"
						}
					],
					"name": "ERC20InvalidReceiver",
					"type": "error"
				},
				{
					"inputs": [
						{
							"internalType": "address",
							"name": "sender",
							"type": "address"
						}
					],
					"name": "ERC20InvalidSender",
					"type": "error"
				},
				{
					"inputs": [
						{
							"internalType": "address",
							"name": "spender",
							"type": "address"
						}
					],
					"name": "ERC20InvalidSpender",
					"type": "error"
				},
				{
					"anonymous": false,
					"inputs": [
						{
							"indexed": true,
							"internalType": "address",
							"name": "owner",
							"type": "address"
						},
						{
							"indexed": true,
							"internalType": "address",
							"name": "spender",
							"type": "address"
						},
						{
							"indexed": false,
							"internalType": "uint256",
							"name": "value",
							"type": "uint256"
						}
					],
					"name": "Approval",
					"type": "event"
				},
				{
					"anonymous": false,
					"inputs": [
						{
							"indexed": true,
							"internalType": "address",
							"name": "propertyOwner",
							"type": "address"
						},
						{
							"indexed": false,
							"internalType": "uint256",
							"name": "propertyId",
							"type": "uint256"
						},
						{
							"indexed": true,
							"internalType": "address",
							"name": "highestBidder",
							"type": "address"
						},
						{
							"indexed": false,
							"internalType": "uint256",
							"name": "highestBid",
							"type": "uint256"
						}
					],
					"name": "AuctionEnded",
					"type": "event"
				},
				{
					"anonymous": false,
					"inputs": [
						{
							"indexed": true,
							"internalType": "address",
							"name": "propertyOwner",
							"type": "address"
						},
						{
							"indexed": false,
							"internalType": "uint256",
							"name": "propertyId",
							"type": "uint256"
						}
					],
					"name": "PropertyAuctionStarted",
					"type": "event"
				},
				{
					"anonymous": false,
					"inputs": [
						{
							"indexed": false,
							"internalType": "uint256",
							"name": "propertyId",
							"type": "uint256"
						},
						{
							"indexed": true,
							"internalType": "address",
							"name": "previousOwner",
							"type": "address"
						},
						{
							"indexed": true,
							"internalType": "address",
							"name": "newOwner",
							"type": "address"
						}
					],
					"name": "PropertyOwnershipTransferred",
					"type": "event"
				},
				{
					"anonymous": false,
					"inputs": [
						{
							"indexed": true,
							"internalType": "address",
							"name": "from",
							"type": "address"
						},
						{
							"indexed": true,
							"internalType": "address",
							"name": "to",
							"type": "address"
						},
						{
							"indexed": false,
							"internalType": "uint256",
							"name": "value",
							"type": "uint256"
						}
					],
					"name": "Transfer",
					"type": "event"
				},
				{
					"inputs": [
						{
							"internalType": "uint256",
							"name": "_listPrice",
							"type": "uint256"
						},
						{
							"internalType": "uint256",
							"name": "_estimatedPrice",
							"type": "uint256"
						},
						{
							"internalType": "uint256",
							"name": "_initialShares",
							"type": "uint256"
						},
						{
							"internalType": "bool",
							"name": "_isPublic",
							"type": "bool"
						}
					],
					"name": "addProperty",
					"outputs": [],
					"stateMutability": "nonpayable",
					"type": "function"
				},
				{
					"inputs": [
						{
							"internalType": "address",
							"name": "owner",
							"type": "address"
						},
						{
							"internalType": "address",
							"name": "spender",
							"type": "address"
						}
					],
					"name": "allowance",
					"outputs": [
						{
							"internalType": "uint256",
							"name": "",
							"type": "uint256"
						}
					],
					"stateMutability": "view",
					"type": "function"
				},
				{
					"inputs": [
						{
							"internalType": "address",
							"name": "spender",
							"type": "address"
						},
						{
							"internalType": "uint256",
							"name": "value",
							"type": "uint256"
						}
					],
					"name": "approve",
					"outputs": [
						{
							"internalType": "bool",
							"name": "",
							"type": "bool"
						}
					],
					"stateMutability": "nonpayable",
					"type": "function"
				},
				{
					"inputs": [
						{
							"internalType": "uint256",
							"name": "",
							"type": "uint256"
						}
					],
					"name": "auctions",
					"outputs": [
						{
							"internalType": "uint256",
							"name": "propertyId",
							"type": "uint256"
						},
						{
							"internalType": "address",
							"name": "highestBidder",
							"type": "address"
						},
						{
							"internalType": "uint256",
							"name": "highestBid",
							"type": "uint256"
						},
						{
							"internalType": "bool",
							"name": "ended",
							"type": "bool"
						}
					],
					"stateMutability": "view",
					"type": "function"
				},
				{
					"inputs": [
						{
							"internalType": "address",
							"name": "account",
							"type": "address"
						}
					],
					"name": "balanceOf",
					"outputs": [
						{
							"internalType": "uint256",
							"name": "",
							"type": "uint256"
						}
					],
					"stateMutability": "view",
					"type": "function"
				},
				{
					"inputs": [
						{
							"internalType": "uint256",
							"name": "_propertyId",
							"type": "uint256"
						},
						{
							"internalType": "uint256",
							"name": "_numShares",
							"type": "uint256"
						}
					],
					"name": "buyShares",
					"outputs": [],
					"stateMutability": "payable",
					"type": "function"
				},
				{
					"inputs": [],
					"name": "decimals",
					"outputs": [
						{
							"internalType": "uint8",
							"name": "",
							"type": "uint8"
						}
					],
					"stateMutability": "view",
					"type": "function"
				},
				{
					"inputs": [
						{
							"internalType": "uint256",
							"name": "_auctionId",
							"type": "uint256"
						}
					],
					"name": "endAuction",
					"outputs": [],
					"stateMutability": "nonpayable",
					"type": "function"
				},
				{
					"inputs": [
						{
							"internalType": "uint256",
							"name": "_propertyId",
							"type": "uint256"
						}
					],
					"name": "getPropertyEstimatedPrice",
					"outputs": [
						{
							"internalType": "uint256",
							"name": "",
							"type": "uint256"
						}
					],
					"stateMutability": "view",
					"type": "function"
				},
				{
					"inputs": [
						{
							"internalType": "uint256",
							"name": "_propertyId",
							"type": "uint256"
						}
					],
					"name": "getPropertyListPrice",
					"outputs": [
						{
							"internalType": "uint256",
							"name": "",
							"type": "uint256"
						}
					],
					"stateMutability": "view",
					"type": "function"
				},
				{
					"inputs": [
						{
							"internalType": "uint256",
							"name": "_propertyId",
							"type": "uint256"
						}
					],
					"name": "getPropertyOwner",
					"outputs": [
						{
							"internalType": "address",
							"name": "",
							"type": "address"
						}
					],
					"stateMutability": "view",
					"type": "function"
				},
				{
					"inputs": [
						{
							"internalType": "uint256",
							"name": "_propertyId",
							"type": "uint256"
						}
					],
					"name": "getPropertySharesAvailable",
					"outputs": [
						{
							"internalType": "uint256",
							"name": "",
							"type": "uint256"
						}
					],
					"stateMutability": "view",
					"type": "function"
				},
				{
					"inputs": [
						{
							"internalType": "uint256",
							"name": "_propertyId",
							"type": "uint256"
						}
					],
					"name": "isPropertyAuctioned",
					"outputs": [
						{
							"internalType": "bool",
							"name": "",
							"type": "bool"
						}
					],
					"stateMutability": "view",
					"type": "function"
				},
				{
					"inputs": [
						{
							"internalType": "uint256",
							"name": "_propertyId",
							"type": "uint256"
						}
					],
					"name": "isPropertyPublic",
					"outputs": [
						{
							"internalType": "bool",
							"name": "",
							"type": "bool"
						}
					],
					"stateMutability": "view",
					"type": "function"
				},
				{
					"inputs": [],
					"name": "name",
					"outputs": [
						{
							"internalType": "string",
							"name": "",
							"type": "string"
						}
					],
					"stateMutability": "view",
					"type": "function"
				},
				{
					"inputs": [],
					"name": "owner",
					"outputs": [
						{
							"internalType": "address",
							"name": "",
							"type": "address"
						}
					],
					"stateMutability": "view",
					"type": "function"
				},
				{
					"inputs": [
						{
							"internalType": "uint256",
							"name": "_auctionId",
							"type": "uint256"
						}
					],
					"name": "placeBid",
					"outputs": [],
					"stateMutability": "payable",
					"type": "function"
				},
				{
					"inputs": [
						{
							"internalType": "uint256",
							"name": "",
							"type": "uint256"
						}
					],
					"name": "properties",
					"outputs": [
						{
							"internalType": "address",
							"name": "owner",
							"type": "address"
						},
						{
							"internalType": "uint256",
							"name": "sharesAvailable",
							"type": "uint256"
						},
						{
							"internalType": "uint256",
							"name": "listPrice",
							"type": "uint256"
						},
						{
							"internalType": "uint256",
							"name": "estimatedPrice",
							"type": "uint256"
						},
						{
							"internalType": "bool",
							"name": "isPublic",
							"type": "bool"
						},
						{
							"internalType": "bool",
							"name": "isAuctioned",
							"type": "bool"
						}
					],
					"stateMutability": "view",
					"type": "function"
				},
				{
					"inputs": [
						{
							"internalType": "uint256",
							"name": "_newPrice",
							"type": "uint256"
						}
					],
					"name": "setSharePrice",
					"outputs": [],
					"stateMutability": "nonpayable",
					"type": "function"
				},
				{
					"inputs": [],
					"name": "sharePrice",
					"outputs": [
						{
							"internalType": "uint256",
							"name": "",
							"type": "uint256"
						}
					],
					"stateMutability": "view",
					"type": "function"
				},
				{
					"inputs": [
						{
							"internalType": "uint256",
							"name": "_propertyId",
							"type": "uint256"
						}
					],
					"name": "startAuction",
					"outputs": [],
					"stateMutability": "nonpayable",
					"type": "function"
				},
				{
					"inputs": [],
					"name": "symbol",
					"outputs": [
						{
							"internalType": "string",
							"name": "",
							"type": "string"
						}
					],
					"stateMutability": "view",
					"type": "function"
				},
				{
					"inputs": [],
					"name": "totalAuctions",
					"outputs": [
						{
							"internalType": "uint256",
							"name": "",
							"type": "uint256"
						}
					],
					"stateMutability": "view",
					"type": "function"
				},
				{
					"inputs": [],
					"name": "totalProperties",
					"outputs": [
						{
							"internalType": "uint256",
							"name": "",
							"type": "uint256"
						}
					],
					"stateMutability": "view",
					"type": "function"
				},
				{
					"inputs": [],
					"name": "totalShares",
					"outputs": [
						{
							"internalType": "uint256",
							"name": "",
							"type": "uint256"
						}
					],
					"stateMutability": "view",
					"type": "function"
				},
				{
					"inputs": [],
					"name": "totalSupply",
					"outputs": [
						{
							"internalType": "uint256",
							"name": "",
							"type": "uint256"
						}
					],
					"stateMutability": "view",
					"type": "function"
				},
				{
					"inputs": [
						{
							"internalType": "address",
							"name": "to",
							"type": "address"
						},
						{
							"internalType": "uint256",
							"name": "value",
							"type": "uint256"
						}
					],
					"name": "transfer",
					"outputs": [
						{
							"internalType": "bool",
							"name": "",
							"type": "bool"
						}
					],
					"stateMutability": "nonpayable",
					"type": "function"
				},
				{
					"inputs": [
						{
							"internalType": "address",
							"name": "from",
							"type": "address"
						},
						{
							"internalType": "address",
							"name": "to",
							"type": "address"
						},
						{
							"internalType": "uint256",
							"name": "value",
							"type": "uint256"
						}
					],
					"name": "transferFrom",
					"outputs": [
						{
							"internalType": "bool",
							"name": "",
							"type": "bool"
						}
					],
					"stateMutability": "nonpayable",
					"type": "function"
				},
				{
					"inputs": [
						{
							"internalType": "uint256",
							"name": "_propertyId",
							"type": "uint256"
						},
						{
							"internalType": "uint256",
							"name": "_newListPrice",
							"type": "uint256"
						},
						{
							"internalType": "uint256",
							"name": "_newEstimatedPrice",
							"type": "uint256"
						}
					],
					"name": "updatePropertyDetails",
					"outputs": [],
					"stateMutability": "nonpayable",
					"type": "function"
				}
			],
			"devdoc": {
				"errors": {
					"ERC20InsufficientAllowance(address,uint256,uint256)": [
						{
							"details": "Indicates a failure with the `spender`’s `allowance`. Used in transfers.",
							"params": {
								"allowance": "Amount of tokens a `spender` is allowed to operate with.",
								"needed": "Minimum amount required to perform a transfer.",
								"spender": "Address that may be allowed to operate on tokens without being their owner."
							}
						}
					],
					"ERC20InsufficientBalance(address,uint256,uint256)": [
						{
							"details": "Indicates an error related to the current `balance` of a `sender`. Used in transfers.",
							"params": {
								"balance": "Current balance for the interacting account.",
								"needed": "Minimum amount required to perform a transfer.",
								"sender": "Address whose tokens are being transferred."
							}
						}
					],
					"ERC20InvalidApprover(address)": [
						{
							"details": "Indicates a failure with the `approver` of a token to be approved. Used in approvals.",
							"params": {
								"approver": "Address initiating an approval operation."
							}
						}
					],
					"ERC20InvalidReceiver(address)": [
						{
							"details": "Indicates a failure with the token `receiver`. Used in transfers.",
							"params": {
								"receiver": "Address to which tokens are being transferred."
							}
						}
					],
					"ERC20InvalidSender(address)": [
						{
							"details": "Indicates a failure with the token `sender`. Used in transfers.",
							"params": {
								"sender": "Address whose tokens are being transferred."
							}
						}
					],
					"ERC20InvalidSpender(address)": [
						{
							"details": "Indicates a failure with the `spender` to be approved. Used in approvals.",
							"params": {
								"spender": "Address that may be allowed to operate on tokens without being their owner."
							}
						}
					]
				},
				"events": {
					"Approval(address,address,uint256)": {
						"details": "Emitted when the allowance of a `spender` for an `owner` is set by a call to {approve}. `value` is the new allowance."
					},
					"Transfer(address,address,uint256)": {
						"details": "Emitted when `value` tokens are moved from one account (`from`) to another (`to`). Note that `value` may be zero."
					}
				},
				"kind": "dev",
				"methods": {
					"allowance(address,address)": {
						"details": "See {IERC20-allowance}."
					},
					"approve(address,uint256)": {
						"details": "See {IERC20-approve}. NOTE: If `value` is the maximum `uint256`, the allowance is not updated on `transferFrom`. This is semantically equivalent to an infinite approval. Requirements: - `spender` cannot be the zero address."
					},
					"balanceOf(address)": {
						"details": "See {IERC20-balanceOf}."
					},
					"decimals()": {
						"details": "Returns the number of decimals used to get its user representation. For example, if `decimals` equals `2`, a balance of `505` tokens should be displayed to a user as `5.05` (`505 / 10 ** 2`). Tokens usually opt for a value of 18, imitating the relationship between Ether and Wei. This is the default value returned by this function, unless it's overridden. NOTE: This information is only used for _display_ purposes: it in no way affects any of the arithmetic of the contract, including {IERC20-balanceOf} and {IERC20-transfer}."
					},
					"name()": {
						"details": "Returns the name of the token."
					},
					"symbol()": {
						"details": "Returns the symbol of the token, usually a shorter version of the name."
					},
					"totalSupply()": {
						"details": "See {IERC20-totalSupply}."
					},
					"transfer(address,uint256)": {
						"details": "See {IERC20-transfer}. Requirements: - `to` cannot be the zero address. - the caller must have a balance of at least `value`."
					},
					"transferFrom(address,address,uint256)": {
						"details": "See {IERC20-transferFrom}. Emits an {Approval} event indicating the updated allowance. This is not required by the EIP. See the note at the beginning of {ERC20}. NOTE: Does not update the allowance if the current allowance is the maximum `uint256`. Requirements: - `from` and `to` cannot be the zero address. - `from` must have a balance of at least `value`. - the caller must have allowance for ``from``'s tokens of at least `value`."
					}
				},
				"version": 1
			},
			"evm": {
				"assembly": "    /* \"RealEstateToken.sol\":120:6497  contract RealEstateToken is ERC20 {... */\n  mstore(0x40, 0x80)\n    /* \"RealEstateToken.sol\":1162:1513  constructor(string memory _name, string memory _symbol, uint256 _initialSupply, uint256 _sharePrice, uint256 _totalShares) ERC20(_name, _symbol) {... */\n  callvalue\n  dup1\n  iszero\n  tag_1\n  jumpi\n  0x00\n  dup1\n  revert\ntag_1:\n  pop\n  mload(0x40)\n  sub(codesize, bytecodeSize)\n  dup1\n  bytecodeSize\n  dup4\n  codecopy\n  dup2\n  dup2\n  add\n  0x40\n  mstore\n  dup2\n  add\n  swap1\n  tag_2\n  swap2\n  swap1\n  tag_3\n  jump\t// in\ntag_2:\n    /* \"RealEstateToken.sol\":1291:1296  _name */\n  dup5\n    /* \"RealEstateToken.sol\":1298:1305  _symbol */\n  dup5\n    /* \"@openzeppelin/contracts/token/ERC20/ERC20.sol\":1970:1975  name_ */\n  dup2\n    /* \"@openzeppelin/contracts/token/ERC20/ERC20.sol\":1962:1967  _name */\n  0x03\n    /* \"@openzeppelin/contracts/token/ERC20/ERC20.sol\":1962:1975  _name = name_ */\n  swap1\n  dup2\n  tag_7\n  swap2\n  swap1\n  tag_8\n  jump\t// in\ntag_7:\n  pop\n    /* \"@openzeppelin/contracts/token/ERC20/ERC20.sol\":1995:2002  symbol_ */\n  dup1\n    /* \"@openzeppelin/contracts/token/ERC20/ERC20.sol\":1985:1992  _symbol */\n  0x04\n    /* \"@openzeppelin/contracts/token/ERC20/ERC20.sol\":1985:2002  _symbol = symbol_ */\n  swap1\n  dup2\n  tag_9\n  swap2\n  swap1\n  tag_8\n  jump\t// in\ntag_9:\n  pop\n    /* \"@openzeppelin/contracts/token/ERC20/ERC20.sol\":1896:2009  constructor(string memory name_, string memory symbol_) {... */\n  pop\n  pop\n    /* \"RealEstateToken.sol\":1326:1336  msg.sender */\n  caller\n    /* \"RealEstateToken.sol\":1318:1323  owner */\n  0x05\n  0x00\n    /* \"RealEstateToken.sol\":1318:1336  owner = msg.sender */\n  0x0100\n  exp\n  dup2\n  sload\n  dup2\n  0xffffffffffffffffffffffffffffffffffffffff\n  mul\n  not\n  and\n  swap1\n  dup4\n  0xffffffffffffffffffffffffffffffffffffffff\n  and\n  mul\n  or\n  swap1\n  sstore\n  pop\n    /* \"RealEstateToken.sol\":1361:1373  _totalShares */\n  dup1\n    /* \"RealEstateToken.sol\":1347:1358  totalShares */\n  0x06\n    /* \"RealEstateToken.sol\":1347:1373  totalShares = _totalShares */\n  dup2\n  swap1\n  sstore\n  pop\n    /* \"RealEstateToken.sol\":1397:1408  _sharePrice */\n  dup2\n    /* \"RealEstateToken.sol\":1384:1394  sharePrice */\n  0x07\n    /* \"RealEstateToken.sol\":1384:1408  sharePrice = _sharePrice */\n  dup2\n  swap1\n  sstore\n  pop\n    /* \"RealEstateToken.sol\":1437:1438  0 */\n  0x00\n    /* \"RealEstateToken.sol\":1419:1434  totalProperties */\n  0x08\n    /* \"RealEstateToken.sol\":1419:1438  totalProperties = 0 */\n  dup2\n  swap1\n  sstore\n  pop\n    /* \"RealEstateToken.sol\":1465:1466  0 */\n  0x00\n    /* \"RealEstateToken.sol\":1449:1462  totalAuctions */\n  0x09\n    /* \"RealEstateToken.sol\":1449:1466  totalAuctions = 0 */\n  dup2\n  swap1\n  sstore\n  pop\n    /* \"RealEstateToken.sol\":1477:1505  _mint(owner, _initialSupply) */\n  tag_11\n    /* \"RealEstateToken.sol\":1483:1488  owner */\n  0x05\n  0x00\n  swap1\n  sload\n  swap1\n  0x0100\n  exp\n  swap1\n  div\n  0xffffffffffffffffffffffffffffffffffffffff\n  and\n    /* \"RealEstateToken.sol\":1490:1504  _initialSupply */\n  dup5\n    /* \"RealEstateToken.sol\":1477:1482  _mint */\n  shl(0x20, tag_12)\n    /* \"RealEstateToken.sol\":1477:1505  _mint(owner, _initialSupply) */\n  0x20\n  shr\n  jump\t// in\ntag_11:\n    /* \"RealEstateToken.sol\":1162:1513  constructor(string memory _name, string memory _symbol, uint256 _initialSupply, uint256 _sharePrice, uint256 _totalShares) ERC20(_name, _symbol) {... */\n  pop\n  pop\n  pop\n  pop\n  pop\n    /* \"RealEstateToken.sol\":120:6497  contract RealEstateToken is ERC20 {... */\n  jump(tag_13)\n    /* \"@openzeppelin/contracts/token/ERC20/ERC20.sol\":7721:7929  function _mint(address account, uint256 value) internal {... */\ntag_12:\n    /* \"@openzeppelin/contracts/token/ERC20/ERC20.sol\":7810:7811  0 */\n  0x00\n    /* \"@openzeppelin/contracts/token/ERC20/ERC20.sol\":7791:7812  account == address(0) */\n  0xffffffffffffffffffffffffffffffffffffffff\n  and\n    /* \"@openzeppelin/contracts/token/ERC20/ERC20.sol\":7791:7798  account */\n  dup3\n    /* \"@openzeppelin/contracts/token/ERC20/ERC20.sol\":7791:7812  account == address(0) */\n  0xffffffffffffffffffffffffffffffffffffffff\n  and\n  sub\n    /* \"@openzeppelin/contracts/token/ERC20/ERC20.sol\":7787:7878  if (account == address(0)) {... */\n  tag_15\n  jumpi\n    /* \"@openzeppelin/contracts/token/ERC20/ERC20.sol\":7864:7865  0 */\n  0x00\n    /* \"@openzeppelin/contracts/token/ERC20/ERC20.sol\":7835:7867  ERC20InvalidReceiver(address(0)) */\n  mload(0x40)\n  0xec442f0500000000000000000000000000000000000000000000000000000000\n  dup2\n  mstore\n  0x04\n  add\n  tag_16\n  swap2\n  swap1\n  tag_17\n  jump\t// in\ntag_16:\n  mload(0x40)\n  dup1\n  swap2\n  sub\n  swap1\n  revert\n    /* \"@openzeppelin/contracts/token/ERC20/ERC20.sol\":7787:7878  if (account == address(0)) {... */\ntag_15:\n    /* \"@openzeppelin/contracts/token/ERC20/ERC20.sol\":7887:7922  _update(address(0), account, value) */\n  tag_18\n    /* \"@openzeppelin/contracts/token/ERC20/ERC20.sol\":7903:7904  0 */\n  0x00\n    /* \"@openzeppelin/contracts/token/ERC20/ERC20.sol\":7907:7914  account */\n  dup4\n    /* \"@openzeppelin/contracts/token/ERC20/ERC20.sol\":7916:7921  value */\n  dup4\n    /* \"@openzeppelin/contracts/token/ERC20/ERC20.sol\":7887:7894  _update */\n  shl(0x20, tag_19)\n    /* \"@openzeppelin/contracts/token/ERC20/ERC20.sol\":7887:7922  _update(address(0), account, value) */\n  0x20\n  shr\n  jump\t// in\ntag_18:\n    /* \"@openzeppelin/contracts/token/ERC20/ERC20.sol\":7721:7929  function _mint(address account, uint256 value) internal {... */\n  pop\n  pop\n  jump\t// out\n    /* \"@openzeppelin/contracts/token/ERC20/ERC20.sol\":6271:7378  function _update(address from, address to, uint256 value) internal virtual {... */\ntag_19:\n    /* \"@openzeppelin/contracts/token/ERC20/ERC20.sol\":6376:6377  0 */\n  0x00\n    /* \"@openzeppelin/contracts/token/ERC20/ERC20.sol\":6360:6378  from == address(0) */\n  0xffffffffffffffffffffffffffffffffffffffff\n  and\n    /* \"@openzeppelin/contracts/token/ERC20/ERC20.sol\":6360:6364  from */\n  dup4\n    /* \"@openzeppelin/contracts/token/ERC20/ERC20.sol\":6360:6378  from == address(0) */\n  0xffffffffffffffffffffffffffffffffffffffff\n  and\n  sub\n    /* \"@openzeppelin/contracts/token/ERC20/ERC20.sol\":6356:6896  if (from == address(0)) {... */\n  tag_21\n  jumpi\n    /* \"@openzeppelin/contracts/token/ERC20/ERC20.sol\":6512:6517  value */\n  dup1\n    /* \"@openzeppelin/contracts/token/ERC20/ERC20.sol\":6496:6508  _totalSupply */\n  0x02\n  0x00\n    /* \"@openzeppelin/contracts/token/ERC20/ERC20.sol\":6496:6517  _totalSupply += value */\n  dup3\n  dup3\n  sload\n  tag_22\n  swap2\n  swap1\n  tag_23\n  jump\t// in\ntag_22:\n  swap3\n  pop\n  pop\n  dup2\n  swap1\n  sstore\n  pop\n    /* \"@openzeppelin/contracts/token/ERC20/ERC20.sol\":6356:6896  if (from == address(0)) {... */\n  jump(tag_24)\ntag_21:\n    /* \"@openzeppelin/contracts/token/ERC20/ERC20.sol\":6548:6567  uint256 fromBalance */\n  0x00\n    /* \"@openzeppelin/contracts/token/ERC20/ERC20.sol\":6570:6579  _balances */\n  dup1\n    /* \"@openzeppelin/contracts/token/ERC20/ERC20.sol\":6570:6585  _balances[from] */\n  0x00\n    /* \"@openzeppelin/contracts/token/ERC20/ERC20.sol\":6580:6584  from */\n  dup6\n    /* \"@openzeppelin/contracts/token/ERC20/ERC20.sol\":6570:6585  _balances[from] */\n  0xffffffffffffffffffffffffffffffffffffffff\n  and\n  0xffffffffffffffffffffffffffffffffffffffff\n  and\n  dup2\n  mstore\n  0x20\n  add\n  swap1\n  dup2\n  mstore\n  0x20\n  add\n  0x00\n  keccak256\n  sload\n    /* \"@openzeppelin/contracts/token/ERC20/ERC20.sol\":6548:6585  uint256 fromBalance = _balances[from] */\n  swap1\n  pop\n    /* \"@openzeppelin/contracts/token/ERC20/ERC20.sol\":6617:6622  value */\n  dup2\n    /* \"@openzeppelin/contracts/token/ERC20/ERC20.sol\":6603:6614  fromBalance */\n  dup2\n    /* \"@openzeppelin/contracts/token/ERC20/ERC20.sol\":6603:6622  fromBalance < value */\n  lt\n    /* \"@openzeppelin/contracts/token/ERC20/ERC20.sol\":6599:6714  if (fromBalance < value) {... */\n  iszero\n  tag_25\n  jumpi\n    /* \"@openzeppelin/contracts/token/ERC20/ERC20.sol\":6674:6678  from */\n  dup4\n    /* \"@openzeppelin/contracts/token/ERC20/ERC20.sol\":6680:6691  fromBalance */\n  dup2\n    /* \"@openzeppelin/contracts/token/ERC20/ERC20.sol\":6693:6698  value */\n  dup4\n    /* \"@openzeppelin/contracts/token/ERC20/ERC20.sol\":6649:6699  ERC20InsufficientBalance(from, fromBalance, value) */\n  mload(0x40)\n  0xe450d38c00000000000000000000000000000000000000000000000000000000\n  dup2\n  mstore\n  0x04\n  add\n  tag_26\n  swap4\n  swap3\n  swap2\n  swap1\n  tag_27\n  jump\t// in\ntag_26:\n  mload(0x40)\n  dup1\n  swap2\n  sub\n  swap1\n  revert\n    /* \"@openzeppelin/contracts/token/ERC20/ERC20.sol\":6599:6714  if (fromBalance < value) {... */\ntag_25:\n    /* \"@openzeppelin/contracts/token/ERC20/ERC20.sol\":6866:6871  value */\n  dup2\n    /* \"@openzeppelin/contracts/token/ERC20/ERC20.sol\":6852:6863  fromBalance */\n  dup2\n    /* \"@openzeppelin/contracts/token/ERC20/ERC20.sol\":6852:6871  fromBalance - value */\n  sub\n    /* \"@openzeppelin/contracts/token/ERC20/ERC20.sol\":6834:6843  _balances */\n  0x00\n    /* \"@openzeppelin/contracts/token/ERC20/ERC20.sol\":6834:6849  _balances[from] */\n  dup1\n    /* \"@openzeppelin/contracts/token/ERC20/ERC20.sol\":6844:6848  from */\n  dup7\n    /* \"@openzeppelin/contracts/token/ERC20/ERC20.sol\":6834:6849  _balances[from] */\n  0xffffffffffffffffffffffffffffffffffffffff\n  and\n  0xffffffffffffffffffffffffffffffffffffffff\n  and\n  dup2\n  mstore\n  0x20\n  add\n  swap1\n  dup2\n  mstore\n  0x20\n  add\n  0x00\n  keccak256\n    /* \"@openzeppelin/contracts/token/ERC20/ERC20.sol\":6834:6871  _balances[from] = fromBalance - value */\n  dup2\n  swap1\n  sstore\n  pop\n    /* \"@openzeppelin/contracts/token/ERC20/ERC20.sol\":6534:6896  {... */\n  pop\n    /* \"@openzeppelin/contracts/token/ERC20/ERC20.sol\":6356:6896  if (from == address(0)) {... */\ntag_24:\n    /* \"@openzeppelin/contracts/token/ERC20/ERC20.sol\":6924:6925  0 */\n  0x00\n    /* \"@openzeppelin/contracts/token/ERC20/ERC20.sol\":6910:6926  to == address(0) */\n  0xffffffffffffffffffffffffffffffffffffffff\n  and\n    /* \"@openzeppelin/contracts/token/ERC20/ERC20.sol\":6910:6912  to */\n  dup3\n    /* \"@openzeppelin/contracts/token/ERC20/ERC20.sol\":6910:6926  to == address(0) */\n  0xffffffffffffffffffffffffffffffffffffffff\n  and\n  sub\n    /* \"@openzeppelin/contracts/token/ERC20/ERC20.sol\":6906:7331  if (to == address(0)) {... */\n  tag_28\n  jumpi\n    /* \"@openzeppelin/contracts/token/ERC20/ERC20.sol\":7089:7094  value */\n  dup1\n    /* \"@openzeppelin/contracts/token/ERC20/ERC20.sol\":7073:7085  _totalSupply */\n  0x02\n  0x00\n    /* \"@openzeppelin/contracts/token/ERC20/ERC20.sol\":7073:7094  _totalSupply -= value */\n  dup3\n  dup3\n  sload\n  sub\n  swap3\n  pop\n  pop\n  dup2\n  swap1\n  sstore\n  pop\n    /* \"@openzeppelin/contracts/token/ERC20/ERC20.sol\":6906:7331  if (to == address(0)) {... */\n  jump(tag_29)\ntag_28:\n    /* \"@openzeppelin/contracts/token/ERC20/ERC20.sol\":7301:7306  value */\n  dup1\n    /* \"@openzeppelin/contracts/token/ERC20/ERC20.sol\":7284:7293  _balances */\n  0x00\n    /* \"@openzeppelin/contracts/token/ERC20/ERC20.sol\":7284:7297  _balances[to] */\n  dup1\n    /* \"@openzeppelin/contracts/token/ERC20/ERC20.sol\":7294:7296  to */\n  dup5\n    /* \"@openzeppelin/contracts/token/ERC20/ERC20.sol\":7284:7297  _balances[to] */\n  0xffffffffffffffffffffffffffffffffffffffff\n  and\n  0xffffffffffffffffffffffffffffffffffffffff\n  and\n  dup2\n  mstore\n  0x20\n  add\n  swap1\n  dup2\n  mstore\n  0x20\n  add\n  0x00\n  keccak256\n  0x00\n    /* \"@openzeppelin/contracts/token/ERC20/ERC20.sol\":7284:7306  _balances[to] += value */\n  dup3\n  dup3\n  sload\n  add\n  swap3\n  pop\n  pop\n  dup2\n  swap1\n  sstore\n  pop\n    /* \"@openzeppelin/contracts/token/ERC20/ERC20.sol\":6906:7331  if (to == address(0)) {... */\ntag_29:\n    /* \"@openzeppelin/contracts/token/ERC20/ERC20.sol\":7361:7363  to */\n  dup2\n    /* \"@openzeppelin/contracts/token/ERC20/ERC20.sol\":7346:7371  Transfer(from, to, value) */\n  0xffffffffffffffffffffffffffffffffffffffff\n  and\n    /* \"@openzeppelin/contracts/token/ERC20/ERC20.sol\":7355:7359  from */\n  dup4\n    /* \"@openzeppelin/contracts/token/ERC20/ERC20.sol\":7346:7371  Transfer(from, to, value) */\n  0xffffffffffffffffffffffffffffffffffffffff\n  and\n  0xddf252ad1be2c89b69c2b068fc378daa952ba7f163c4a11628f55a4df523b3ef\n    /* \"@openzeppelin/contracts/token/ERC20/ERC20.sol\":7365:7370  value */\n  dup4\n    /* \"@openzeppelin/contracts/token/ERC20/ERC20.sol\":7346:7371  Transfer(from, to, value) */\n  mload(0x40)\n  tag_30\n  swap2\n  swap1\n  tag_31\n  jump\t// in\ntag_30:\n  mload(0x40)\n  dup1\n  swap2\n  sub\n  swap1\n  log3\n    /* \"@openzeppelin/contracts/token/ERC20/ERC20.sol\":6271:7378  function _update(address from, address to, uint256 value) internal virtual {... */\n  pop\n  pop\n  pop\n  jump\t// out\n    /* \"#utility.yul\":7:82   */\ntag_32:\n    /* \"#utility.yul\":40:46   */\n  0x00\n    /* \"#utility.yul\":73:75   */\n  0x40\n    /* \"#utility.yul\":67:76   */\n  mload\n    /* \"#utility.yul\":57:76   */\n  swap1\n  pop\n    /* \"#utility.yul\":7:82   */\n  swap1\n  jump\t// out\n    /* \"#utility.yul\":88:205   */\ntag_33:\n    /* \"#utility.yul\":197:198   */\n  0x00\n    /* \"#utility.yul\":194:195   */\n  dup1\n    /* \"#utility.yul\":187:199   */\n  revert\n    /* \"#utility.yul\":211:328   */\ntag_34:\n    /* \"#utility.yul\":320:321   */\n  0x00\n    /* \"#utility.yul\":317:318   */\n  dup1\n    /* \"#utility.yul\":310:322   */\n  revert\n    /* \"#utility.yul\":334:451   */\ntag_35:\n    /* \"#utility.yul\":443:444   */\n  0x00\n    /* \"#utility.yul\":440:441   */\n  dup1\n    /* \"#utility.yul\":433:445   */\n  revert\n    /* \"#utility.yul\":457:574   */\ntag_36:\n    /* \"#utility.yul\":566:567   */\n  0x00\n    /* \"#utility.yul\":563:564   */\n  dup1\n    /* \"#utility.yul\":556:568   */\n  revert\n    /* \"#utility.yul\":580:682   */\ntag_37:\n    /* \"#utility.yul\":621:627   */\n  0x00\n    /* \"#utility.yul\":672:674   */\n  0x1f\n    /* \"#utility.yul\":668:675   */\n  not\n    /* \"#utility.yul\":663:665   */\n  0x1f\n    /* \"#utility.yul\":656:661   */\n  dup4\n    /* \"#utility.yul\":652:666   */\n  add\n    /* \"#utility.yul\":648:676   */\n  and\n    /* \"#utility.yul\":638:676   */\n  swap1\n  pop\n    /* \"#utility.yul\":580:682   */\n  swap2\n  swap1\n  pop\n  jump\t// out\n    /* \"#utility.yul\":688:868   */\ntag_38:\n    /* \"#utility.yul\":736:813   */\n  0x4e487b7100000000000000000000000000000000000000000000000000000000\n    /* \"#utility.yul\":733:734   */\n  0x00\n    /* \"#utility.yul\":726:814   */\n  mstore\n    /* \"#utility.yul\":833:837   */\n  0x41\n    /* \"#utility.yul\":830:831   */\n  0x04\n    /* \"#utility.yul\":823:838   */\n  mstore\n    /* \"#utility.yul\":857:861   */\n  0x24\n    /* \"#utility.yul\":854:855   */\n  0x00\n    /* \"#utility.yul\":847:862   */\n  revert\n    /* \"#utility.yul\":874:1155   */\ntag_39:\n    /* \"#utility.yul\":957:984   */\n  tag_80\n    /* \"#utility.yul\":979:983   */\n  dup3\n    /* \"#utility.yul\":957:984   */\n  tag_37\n  jump\t// in\ntag_80:\n    /* \"#utility.yul\":949:955   */\n  dup2\n    /* \"#utility.yul\":945:985   */\n  add\n    /* \"#utility.yul\":1087:1093   */\n  dup2\n    /* \"#utility.yul\":1075:1085   */\n  dup2\n    /* \"#utility.yul\":1072:1094   */\n  lt\n    /* \"#utility.yul\":1051:1069   */\n  0xffffffffffffffff\n    /* \"#utility.yul\":1039:1049   */\n  dup3\n    /* \"#utility.yul\":1036:1070   */\n  gt\n    /* \"#utility.yul\":1033:1095   */\n  or\n    /* \"#utility.yul\":1030:1118   */\n  iszero\n  tag_81\n  jumpi\n    /* \"#utility.yul\":1098:1116   */\n  tag_82\n  tag_38\n  jump\t// in\ntag_82:\n    /* \"#utility.yul\":1030:1118   */\ntag_81:\n    /* \"#utility.yul\":1138:1148   */\n  dup1\n    /* \"#utility.yul\":1134:1136   */\n  0x40\n    /* \"#utility.yul\":1127:1149   */\n  mstore\n    /* \"#utility.yul\":917:1155   */\n  pop\n    /* \"#utility.yul\":874:1155   */\n  pop\n  pop\n  jump\t// out\n    /* \"#utility.yul\":1161:1290   */\ntag_40:\n    /* \"#utility.yul\":1195:1201   */\n  0x00\n    /* \"#utility.yul\":1222:1242   */\n  tag_84\n  tag_32\n  jump\t// in\ntag_84:\n    /* \"#utility.yul\":1212:1242   */\n  swap1\n  pop\n    /* \"#utility.yul\":1251:1284   */\n  tag_85\n    /* \"#utility.yul\":1279:1283   */\n  dup3\n    /* \"#utility.yul\":1271:1277   */\n  dup3\n    /* \"#utility.yul\":1251:1284   */\n  tag_39\n  jump\t// in\ntag_85:\n    /* \"#utility.yul\":1161:1290   */\n  swap2\n  swap1\n  pop\n  jump\t// out\n    /* \"#utility.yul\":1296:1604   */\ntag_41:\n    /* \"#utility.yul\":1358:1362   */\n  0x00\n    /* \"#utility.yul\":1448:1466   */\n  0xffffffffffffffff\n    /* \"#utility.yul\":1440:1446   */\n  dup3\n    /* \"#utility.yul\":1437:1467   */\n  gt\n    /* \"#utility.yul\":1434:1490   */\n  iszero\n  tag_87\n  jumpi\n    /* \"#utility.yul\":1470:1488   */\n  tag_88\n  tag_38\n  jump\t// in\ntag_88:\n    /* \"#utility.yul\":1434:1490   */\ntag_87:\n    /* \"#utility.yul\":1508:1537   */\n  tag_89\n    /* \"#utility.yul\":1530:1536   */\n  dup3\n    /* \"#utility.yul\":1508:1537   */\n  tag_37\n  jump\t// in\ntag_89:\n    /* \"#utility.yul\":1500:1537   */\n  swap1\n  pop\n    /* \"#utility.yul\":1592:1596   */\n  0x20\n    /* \"#utility.yul\":1586:1590   */\n  dup2\n    /* \"#utility.yul\":1582:1597   */\n  add\n    /* \"#utility.yul\":1574:1597   */\n  swap1\n  pop\n    /* \"#utility.yul\":1296:1604   */\n  swap2\n  swap1\n  pop\n  jump\t// out\n    /* \"#utility.yul\":1610:1856   */\ntag_42:\n    /* \"#utility.yul\":1691:1692   */\n  0x00\n    /* \"#utility.yul\":1701:1814   */\ntag_91:\n    /* \"#utility.yul\":1715:1721   */\n  dup4\n    /* \"#utility.yul\":1712:1713   */\n  dup2\n    /* \"#utility.yul\":1709:1722   */\n  lt\n    /* \"#utility.yul\":1701:1814   */\n  iszero\n  tag_93\n  jumpi\n    /* \"#utility.yul\":1800:1801   */\n  dup1\n    /* \"#utility.yul\":1795:1798   */\n  dup3\n    /* \"#utility.yul\":1791:1802   */\n  add\n    /* \"#utility.yul\":1785:1803   */\n  mload\n    /* \"#utility.yul\":1781:1782   */\n  dup2\n    /* \"#utility.yul\":1776:1779   */\n  dup5\n    /* \"#utility.yul\":1772:1783   */\n  add\n    /* \"#utility.yul\":1765:1804   */\n  mstore\n    /* \"#utility.yul\":1737:1739   */\n  0x20\n    /* \"#utility.yul\":1734:1735   */\n  dup2\n    /* \"#utility.yul\":1730:1740   */\n  add\n    /* \"#utility.yul\":1725:1740   */\n  swap1\n  pop\n    /* \"#utility.yul\":1701:1814   */\n  jump(tag_91)\ntag_93:\n    /* \"#utility.yul\":1848:1849   */\n  0x00\n    /* \"#utility.yul\":1839:1845   */\n  dup5\n    /* \"#utility.yul\":1834:1837   */\n  dup5\n    /* \"#utility.yul\":1830:1846   */\n  add\n    /* \"#utility.yul\":1823:1850   */\n  mstore\n    /* \"#utility.yul\":1672:1856   */\n  pop\n    /* \"#utility.yul\":1610:1856   */\n  pop\n  pop\n  pop\n  jump\t// out\n    /* \"#utility.yul\":1862:2296   */\ntag_43:\n    /* \"#utility.yul\":1951:1956   */\n  0x00\n    /* \"#utility.yul\":1976:2042   */\n  tag_95\n    /* \"#utility.yul\":1992:2041   */\n  tag_96\n    /* \"#utility.yul\":2034:2040   */\n  dup5\n    /* \"#utility.yul\":1992:2041   */\n  tag_41\n  jump\t// in\ntag_96:\n    /* \"#utility.yul\":1976:2042   */\n  tag_40\n  jump\t// in\ntag_95:\n    /* \"#utility.yul\":1967:2042   */\n  swap1\n  pop\n    /* \"#utility.yul\":2065:2071   */\n  dup3\n    /* \"#utility.yul\":2058:2063   */\n  dup2\n    /* \"#utility.yul\":2051:2072   */\n  mstore\n    /* \"#utility.yul\":2103:2107   */\n  0x20\n    /* \"#utility.yul\":2096:2101   */\n  dup2\n    /* \"#utility.yul\":2092:2108   */\n  add\n    /* \"#utility.yul\":2141:2144   */\n  dup5\n    /* \"#utility.yul\":2132:2138   */\n  dup5\n    /* \"#utility.yul\":2127:2130   */\n  dup5\n    /* \"#utility.yul\":2123:2139   */\n  add\n    /* \"#utility.yul\":2120:2145   */\n  gt\n    /* \"#utility.yul\":2117:2229   */\n  iszero\n  tag_97\n  jumpi\n    /* \"#utility.yul\":2148:2227   */\n  tag_98\n  tag_36\n  jump\t// in\ntag_98:\n    /* \"#utility.yul\":2117:2229   */\ntag_97:\n    /* \"#utility.yul\":2238:2290   */\n  tag_99\n    /* \"#utility.yul\":2283:2289   */\n  dup5\n    /* \"#utility.yul\":2278:2281   */\n  dup3\n    /* \"#utility.yul\":2273:2276   */\n  dup6\n    /* \"#utility.yul\":2238:2290   */\n  tag_42\n  jump\t// in\ntag_99:\n    /* \"#utility.yul\":1957:2296   */\n  pop\n    /* \"#utility.yul\":1862:2296   */\n  swap4\n  swap3\n  pop\n  pop\n  pop\n  jump\t// out\n    /* \"#utility.yul\":2316:2671   */\ntag_44:\n    /* \"#utility.yul\":2383:2388   */\n  0x00\n    /* \"#utility.yul\":2432:2435   */\n  dup3\n    /* \"#utility.yul\":2425:2429   */\n  0x1f\n    /* \"#utility.yul\":2417:2423   */\n  dup4\n    /* \"#utility.yul\":2413:2430   */\n  add\n    /* \"#utility.yul\":2409:2436   */\n  slt\n    /* \"#utility.yul\":2399:2521   */\n  tag_101\n  jumpi\n    /* \"#utility.yul\":2440:2519   */\n  tag_102\n  tag_35\n  jump\t// in\ntag_102:\n    /* \"#utility.yul\":2399:2521   */\ntag_101:\n    /* \"#utility.yul\":2550:2556   */\n  dup2\n    /* \"#utility.yul\":2544:2557   */\n  mload\n    /* \"#utility.yul\":2575:2665   */\n  tag_103\n    /* \"#utility.yul\":2661:2664   */\n  dup5\n    /* \"#utility.yul\":2653:2659   */\n  dup3\n    /* \"#utility.yul\":2646:2650   */\n  0x20\n    /* \"#utility.yul\":2638:2644   */\n  dup7\n    /* \"#utility.yul\":2634:2651   */\n  add\n    /* \"#utility.yul\":2575:2665   */\n  tag_43\n  jump\t// in\ntag_103:\n    /* \"#utility.yul\":2566:2665   */\n  swap2\n  pop\n    /* \"#utility.yul\":2389:2671   */\n  pop\n    /* \"#utility.yul\":2316:2671   */\n  swap3\n  swap2\n  pop\n  pop\n  jump\t// out\n    /* \"#utility.yul\":2677:2754   */\ntag_45:\n    /* \"#utility.yul\":2714:2721   */\n  0x00\n    /* \"#utility.yul\":2743:2748   */\n  dup2\n    /* \"#utility.yul\":2732:2748   */\n  swap1\n  pop\n    /* \"#utility.yul\":2677:2754   */\n  swap2\n  swap1\n  pop\n  jump\t// out\n    /* \"#utility.yul\":2760:2882   */\ntag_46:\n    /* \"#utility.yul\":2833:2857   */\n  tag_106\n    /* \"#utility.yul\":2851:2856   */\n  dup2\n    /* \"#utility.yul\":2833:2857   */\n  tag_45\n  jump\t// in\ntag_106:\n    /* \"#utility.yul\":2826:2831   */\n  dup2\n    /* \"#utility.yul\":2823:2858   */\n  eq\n    /* \"#utility.yul\":2813:2876   */\n  tag_107\n  jumpi\n    /* \"#utility.yul\":2872:2873   */\n  0x00\n    /* \"#utility.yul\":2869:2870   */\n  dup1\n    /* \"#utility.yul\":2862:2874   */\n  revert\n    /* \"#utility.yul\":2813:2876   */\ntag_107:\n    /* \"#utility.yul\":2760:2882   */\n  pop\n  jump\t// out\n    /* \"#utility.yul\":2888:3031   */\ntag_47:\n    /* \"#utility.yul\":2945:2950   */\n  0x00\n    /* \"#utility.yul\":2976:2982   */\n  dup2\n    /* \"#utility.yul\":2970:2983   */\n  mload\n    /* \"#utility.yul\":2961:2983   */\n  swap1\n  pop\n    /* \"#utility.yul\":2992:3025   */\n  tag_109\n    /* \"#utility.yul\":3019:3024   */\n  dup2\n    /* \"#utility.yul\":2992:3025   */\n  tag_46\n  jump\t// in\ntag_109:\n    /* \"#utility.yul\":2888:3031   */\n  swap3\n  swap2\n  pop\n  pop\n  jump\t// out\n    /* \"#utility.yul\":3037:4360   */\ntag_3:\n    /* \"#utility.yul\":3163:3169   */\n  0x00\n    /* \"#utility.yul\":3171:3177   */\n  dup1\n    /* \"#utility.yul\":3179:3185   */\n  0x00\n    /* \"#utility.yul\":3187:3193   */\n  dup1\n    /* \"#utility.yul\":3195:3201   */\n  0x00\n    /* \"#utility.yul\":3244:3247   */\n  0xa0\n    /* \"#utility.yul\":3232:3241   */\n  dup7\n    /* \"#utility.yul\":3223:3230   */\n  dup9\n    /* \"#utility.yul\":3219:3242   */\n  sub\n    /* \"#utility.yul\":3215:3248   */\n  slt\n    /* \"#utility.yul\":3212:3332   */\n  iszero\n  tag_111\n  jumpi\n    /* \"#utility.yul\":3251:3330   */\n  tag_112\n  tag_33\n  jump\t// in\ntag_112:\n    /* \"#utility.yul\":3212:3332   */\ntag_111:\n    /* \"#utility.yul\":3392:3393   */\n  0x00\n    /* \"#utility.yul\":3381:3390   */\n  dup7\n    /* \"#utility.yul\":3377:3394   */\n  add\n    /* \"#utility.yul\":3371:3395   */\n  mload\n    /* \"#utility.yul\":3422:3440   */\n  0xffffffffffffffff\n    /* \"#utility.yul\":3414:3420   */\n  dup2\n    /* \"#utility.yul\":3411:3441   */\n  gt\n    /* \"#utility.yul\":3408:3525   */\n  iszero\n  tag_113\n  jumpi\n    /* \"#utility.yul\":3444:3523   */\n  tag_114\n  tag_34\n  jump\t// in\ntag_114:\n    /* \"#utility.yul\":3408:3525   */\ntag_113:\n    /* \"#utility.yul\":3549:3623   */\n  tag_115\n    /* \"#utility.yul\":3615:3622   */\n  dup9\n    /* \"#utility.yul\":3606:3612   */\n  dup3\n    /* \"#utility.yul\":3595:3604   */\n  dup10\n    /* \"#utility.yul\":3591:3613   */\n  add\n    /* \"#utility.yul\":3549:3623   */\n  tag_44\n  jump\t// in\ntag_115:\n    /* \"#utility.yul\":3539:3623   */\n  swap6\n  pop\n    /* \"#utility.yul\":3342:3633   */\n  pop\n    /* \"#utility.yul\":3693:3695   */\n  0x20\n    /* \"#utility.yul\":3682:3691   */\n  dup7\n    /* \"#utility.yul\":3678:3696   */\n  add\n    /* \"#utility.yul\":3672:3697   */\n  mload\n    /* \"#utility.yul\":3724:3742   */\n  0xffffffffffffffff\n    /* \"#utility.yul\":3716:3722   */\n  dup2\n    /* \"#utility.yul\":3713:3743   */\n  gt\n    /* \"#utility.yul\":3710:3827   */\n  iszero\n  tag_116\n  jumpi\n    /* \"#utility.yul\":3746:3825   */\n  tag_117\n  tag_34\n  jump\t// in\ntag_117:\n    /* \"#utility.yul\":3710:3827   */\ntag_116:\n    /* \"#utility.yul\":3851:3925   */\n  tag_118\n    /* \"#utility.yul\":3917:3924   */\n  dup9\n    /* \"#utility.yul\":3908:3914   */\n  dup3\n    /* \"#utility.yul\":3897:3906   */\n  dup10\n    /* \"#utility.yul\":3893:3915   */\n  add\n    /* \"#utility.yul\":3851:3925   */\n  tag_44\n  jump\t// in\ntag_118:\n    /* \"#utility.yul\":3841:3925   */\n  swap5\n  pop\n    /* \"#utility.yul\":3643:3935   */\n  pop\n    /* \"#utility.yul\":3974:3976   */\n  0x40\n    /* \"#utility.yul\":4000:4064   */\n  tag_119\n    /* \"#utility.yul\":4056:4063   */\n  dup9\n    /* \"#utility.yul\":4047:4053   */\n  dup3\n    /* \"#utility.yul\":4036:4045   */\n  dup10\n    /* \"#utility.yul\":4032:4054   */\n  add\n    /* \"#utility.yul\":4000:4064   */\n  tag_47\n  jump\t// in\ntag_119:\n    /* \"#utility.yul\":3990:4064   */\n  swap4\n  pop\n    /* \"#utility.yul\":3945:4074   */\n  pop\n    /* \"#utility.yul\":4113:4115   */\n  0x60\n    /* \"#utility.yul\":4139:4203   */\n  tag_120\n    /* \"#utility.yul\":4195:4202   */\n  dup9\n    /* \"#utility.yul\":4186:4192   */\n  dup3\n    /* \"#utility.yul\":4175:4184   */\n  dup10\n    /* \"#utility.yul\":4171:4193   */\n  add\n    /* \"#utility.yul\":4139:4203   */\n  tag_47\n  jump\t// in\ntag_120:\n    /* \"#utility.yul\":4129:4203   */\n  swap3\n  pop\n    /* \"#utility.yul\":4084:4213   */\n  pop\n    /* \"#utility.yul\":4252:4255   */\n  0x80\n    /* \"#utility.yul\":4279:4343   */\n  tag_121\n    /* \"#utility.yul\":4335:4342   */\n  dup9\n    /* \"#utility.yul\":4326:4332   */\n  dup3\n    /* \"#utility.yul\":4315:4324   */\n  dup10\n    /* \"#utility.yul\":4311:4333   */\n  add\n    /* \"#utility.yul\":4279:4343   */\n  tag_47\n  jump\t// in\ntag_121:\n    /* \"#utility.yul\":4269:4343   */\n  swap2\n  pop\n    /* \"#utility.yul\":4223:4353   */\n  pop\n    /* \"#utility.yul\":3037:4360   */\n  swap3\n  swap6\n  pop\n  swap3\n  swap6\n  swap1\n  swap4\n  pop\n  jump\t// out\n    /* \"#utility.yul\":4366:4465   */\ntag_48:\n    /* \"#utility.yul\":4418:4424   */\n  0x00\n    /* \"#utility.yul\":4452:4457   */\n  dup2\n    /* \"#utility.yul\":4446:4458   */\n  mload\n    /* \"#utility.yul\":4436:4458   */\n  swap1\n  pop\n    /* \"#utility.yul\":4366:4465   */\n  swap2\n  swap1\n  pop\n  jump\t// out\n    /* \"#utility.yul\":4471:4651   */\ntag_49:\n    /* \"#utility.yul\":4519:4596   */\n  0x4e487b7100000000000000000000000000000000000000000000000000000000\n    /* \"#utility.yul\":4516:4517   */\n  0x00\n    /* \"#utility.yul\":4509:4597   */\n  mstore\n    /* \"#utility.yul\":4616:4620   */\n  0x22\n    /* \"#utility.yul\":4613:4614   */\n  0x04\n    /* \"#utility.yul\":4606:4621   */\n  mstore\n    /* \"#utility.yul\":4640:4644   */\n  0x24\n    /* \"#utility.yul\":4637:4638   */\n  0x00\n    /* \"#utility.yul\":4630:4645   */\n  revert\n    /* \"#utility.yul\":4657:4977   */\ntag_50:\n    /* \"#utility.yul\":4701:4707   */\n  0x00\n    /* \"#utility.yul\":4738:4739   */\n  0x02\n    /* \"#utility.yul\":4732:4736   */\n  dup3\n    /* \"#utility.yul\":4728:4740   */\n  div\n    /* \"#utility.yul\":4718:4740   */\n  swap1\n  pop\n    /* \"#utility.yul\":4785:4786   */\n  0x01\n    /* \"#utility.yul\":4779:4783   */\n  dup3\n    /* \"#utility.yul\":4775:4787   */\n  and\n    /* \"#utility.yul\":4806:4824   */\n  dup1\n    /* \"#utility.yul\":4796:4877   */\n  tag_125\n  jumpi\n    /* \"#utility.yul\":4862:4866   */\n  0x7f\n    /* \"#utility.yul\":4854:4860   */\n  dup3\n    /* \"#utility.yul\":4850:4867   */\n  and\n    /* \"#utility.yul\":4840:4867   */\n  swap2\n  pop\n    /* \"#utility.yul\":4796:4877   */\ntag_125:\n    /* \"#utility.yul\":4924:4926   */\n  0x20\n    /* \"#utility.yul\":4916:4922   */\n  dup3\n    /* \"#utility.yul\":4913:4927   */\n  lt\n    /* \"#utility.yul\":4893:4911   */\n  dup2\n    /* \"#utility.yul\":4890:4928   */\n  sub\n    /* \"#utility.yul\":4887:4971   */\n  tag_126\n  jumpi\n    /* \"#utility.yul\":4943:4961   */\n  tag_127\n  tag_49\n  jump\t// in\ntag_127:\n    /* \"#utility.yul\":4887:4971   */\ntag_126:\n    /* \"#utility.yul\":4708:4977   */\n  pop\n    /* \"#utility.yul\":4657:4977   */\n  swap2\n  swap1\n  pop\n  jump\t// out\n    /* \"#utility.yul\":4983:5124   */\ntag_51:\n    /* \"#utility.yul\":5032:5036   */\n  0x00\n    /* \"#utility.yul\":5055:5058   */\n  dup2\n    /* \"#utility.yul\":5047:5058   */\n  swap1\n  pop\n    /* \"#utility.yul\":5078:5081   */\n  dup2\n    /* \"#utility.yul\":5075:5076   */\n  0x00\n    /* \"#utility.yul\":5068:5082   */\n  mstore\n    /* \"#utility.yul\":5112:5116   */\n  0x20\n    /* \"#utility.yul\":5109:5110   */\n  0x00\n    /* \"#utility.yul\":5099:5117   */\n  keccak256\n    /* \"#utility.yul\":5091:5117   */\n  swap1\n  pop\n    /* \"#utility.yul\":4983:5124   */\n  swap2\n  swap1\n  pop\n  jump\t// out\n    /* \"#utility.yul\":5130:5223   */\ntag_52:\n    /* \"#utility.yul\":5167:5173   */\n  0x00\n    /* \"#utility.yul\":5214:5216   */\n  0x20\n    /* \"#utility.yul\":5209:5211   */\n  0x1f\n    /* \"#utility.yul\":5202:5207   */\n  dup4\n    /* \"#utility.yul\":5198:5212   */\n  add\n    /* \"#utility.yul\":5194:5217   */\n  div\n    /* \"#utility.yul\":5184:5217   */\n  swap1\n  pop\n    /* \"#utility.yul\":5130:5223   */\n  swap2\n  swap1\n  pop\n  jump\t// out\n    /* \"#utility.yul\":5229:5336   */\ntag_53:\n    /* \"#utility.yul\":5273:5281   */\n  0x00\n    /* \"#utility.yul\":5323:5328   */\n  dup3\n    /* \"#utility.yul\":5317:5321   */\n  dup3\n    /* \"#utility.yul\":5313:5329   */\n  shl\n    /* \"#utility.yul\":5292:5329   */\n  swap1\n  pop\n    /* \"#utility.yul\":5229:5336   */\n  swap3\n  swap2\n  pop\n  pop\n  jump\t// out\n    /* \"#utility.yul\":5342:5735   */\ntag_54:\n    /* \"#utility.yul\":5411:5417   */\n  0x00\n    /* \"#utility.yul\":5461:5462   */\n  0x08\n    /* \"#utility.yul\":5449:5459   */\n  dup4\n    /* \"#utility.yul\":5445:5463   */\n  mul\n    /* \"#utility.yul\":5484:5581   */\n  tag_132\n    /* \"#utility.yul\":5514:5580   */\n  0xffffffffffffffffffffffffffffffffffffffffffffffffffffffffffffffff\n    /* \"#utility.yul\":5503:5512   */\n  dup3\n    /* \"#utility.yul\":5484:5581   */\n  tag_53\n  jump\t// in\ntag_132:\n    /* \"#utility.yul\":5602:5641   */\n  tag_133\n    /* \"#utility.yul\":5632:5640   */\n  dup7\n    /* \"#utility.yul\":5621:5630   */\n  dup4\n    /* \"#utility.yul\":5602:5641   */\n  tag_53\n  jump\t// in\ntag_133:\n    /* \"#utility.yul\":5590:5641   */\n  swap6\n  pop\n    /* \"#utility.yul\":5674:5678   */\n  dup1\n    /* \"#utility.yul\":5670:5679   */\n  not\n    /* \"#utility.yul\":5663:5668   */\n  dup5\n    /* \"#utility.yul\":5659:5680   */\n  and\n    /* \"#utility.yul\":5650:5680   */\n  swap4\n  pop\n    /* \"#utility.yul\":5723:5727   */\n  dup1\n    /* \"#utility.yul\":5713:5721   */\n  dup7\n    /* \"#utility.yul\":5709:5728   */\n  and\n    /* \"#utility.yul\":5702:5707   */\n  dup5\n    /* \"#utility.yul\":5699:5729   */\n  or\n    /* \"#utility.yul\":5689:5729   */\n  swap3\n  pop\n    /* \"#utility.yul\":5418:5735   */\n  pop\n  pop\n    /* \"#utility.yul\":5342:5735   */\n  swap4\n  swap3\n  pop\n  pop\n  pop\n  jump\t// out\n    /* \"#utility.yul\":5741:5801   */\ntag_55:\n    /* \"#utility.yul\":5769:5772   */\n  0x00\n    /* \"#utility.yul\":5790:5795   */\n  dup2\n    /* \"#utility.yul\":5783:5795   */\n  swap1\n  pop\n    /* \"#utility.yul\":5741:5801   */\n  swap2\n  swap1\n  pop\n  jump\t// out\n    /* \"#utility.yul\":5807:5949   */\ntag_56:\n    /* \"#utility.yul\":5857:5866   */\n  0x00\n    /* \"#utility.yul\":5890:5943   */\n  tag_136\n    /* \"#utility.yul\":5908:5942   */\n  tag_137\n    /* \"#utility.yul\":5917:5941   */\n  tag_138\n    /* \"#utility.yul\":5935:5940   */\n  dup5\n    /* \"#utility.yul\":5917:5941   */\n  tag_45\n  jump\t// in\ntag_138:\n    /* \"#utility.yul\":5908:5942   */\n  tag_55\n  jump\t// in\ntag_137:\n    /* \"#utility.yul\":5890:5943   */\n  tag_45\n  jump\t// in\ntag_136:\n    /* \"#utility.yul\":5877:5943   */\n  swap1\n  pop\n    /* \"#utility.yul\":5807:5949   */\n  swap2\n  swap1\n  pop\n  jump\t// out\n    /* \"#utility.yul\":5955:6030   */\ntag_57:\n    /* \"#utility.yul\":5998:6001   */\n  0x00\n    /* \"#utility.yul\":6019:6024   */\n  dup2\n    /* \"#utility.yul\":6012:6024   */\n  swap1\n  pop\n    /* \"#utility.yul\":5955:6030   */\n  swap2\n  swap1\n  pop\n  jump\t// out\n    /* \"#utility.yul\":6036:6305   */\ntag_58:\n    /* \"#utility.yul\":6146:6185   */\n  tag_141\n    /* \"#utility.yul\":6177:6184   */\n  dup4\n    /* \"#utility.yul\":6146:6185   */\n  tag_56\n  jump\t// in\ntag_141:\n    /* \"#utility.yul\":6207:6298   */\n  tag_142\n    /* \"#utility.yul\":6256:6297   */\n  tag_143\n    /* \"#utility.yul\":6280:6296   */\n  dup3\n    /* \"#utility.yul\":6256:6297   */\n  tag_57\n  jump\t// in\ntag_143:\n    /* \"#utility.yul\":6248:6254   */\n  dup5\n    /* \"#utility.yul\":6241:6245   */\n  dup5\n    /* \"#utility.yul\":6235:6246   */\n  sload\n    /* \"#utility.yul\":6207:6298   */\n  tag_54\n  jump\t// in\ntag_142:\n    /* \"#utility.yul\":6201:6205   */\n  dup3\n    /* \"#utility.yul\":6194:6299   */\n  sstore\n    /* \"#utility.yul\":6112:6305   */\n  pop\n    /* \"#utility.yul\":6036:6305   */\n  pop\n  pop\n  pop\n  jump\t// out\n    /* \"#utility.yul\":6311:6384   */\ntag_59:\n    /* \"#utility.yul\":6356:6359   */\n  0x00\n    /* \"#utility.yul\":6311:6384   */\n  swap1\n  jump\t// out\n    /* \"#utility.yul\":6390:6579   */\ntag_60:\n    /* \"#utility.yul\":6467:6499   */\n  tag_146\n  tag_59\n  jump\t// in\ntag_146:\n    /* \"#utility.yul\":6508:6573   */\n  tag_147\n    /* \"#utility.yul\":6566:6572   */\n  dup2\n    /* \"#utility.yul\":6558:6564   */\n  dup5\n    /* \"#utility.yul\":6552:6556   */\n  dup5\n    /* \"#utility.yul\":6508:6573   */\n  tag_58\n  jump\t// in\ntag_147:\n    /* \"#utility.yul\":6443:6579   */\n  pop\n    /* \"#utility.yul\":6390:6579   */\n  pop\n  pop\n  jump\t// out\n    /* \"#utility.yul\":6585:6771   */\ntag_61:\n    /* \"#utility.yul\":6645:6765   */\ntag_149:\n    /* \"#utility.yul\":6662:6665   */\n  dup2\n    /* \"#utility.yul\":6655:6660   */\n  dup2\n    /* \"#utility.yul\":6652:6666   */\n  lt\n    /* \"#utility.yul\":6645:6765   */\n  iszero\n  tag_151\n  jumpi\n    /* \"#utility.yul\":6716:6755   */\n  tag_152\n    /* \"#utility.yul\":6753:6754   */\n  0x00\n    /* \"#utility.yul\":6746:6751   */\n  dup3\n    /* \"#utility.yul\":6716:6755   */\n  tag_60\n  jump\t// in\ntag_152:\n    /* \"#utility.yul\":6689:6690   */\n  0x01\n    /* \"#utility.yul\":6682:6687   */\n  dup2\n    /* \"#utility.yul\":6678:6691   */\n  add\n    /* \"#utility.yul\":6669:6691   */\n  swap1\n  pop\n    /* \"#utility.yul\":6645:6765   */\n  jump(tag_149)\ntag_151:\n    /* \"#utility.yul\":6585:6771   */\n  pop\n  pop\n  jump\t// out\n    /* \"#utility.yul\":6777:7320   */\ntag_62:\n    /* \"#utility.yul\":6878:6880   */\n  0x1f\n    /* \"#utility.yul\":6873:6876   */\n  dup3\n    /* \"#utility.yul\":6870:6881   */\n  gt\n    /* \"#utility.yul\":6867:7313   */\n  iszero\n  tag_154\n  jumpi\n    /* \"#utility.yul\":6912:6950   */\n  tag_155\n    /* \"#utility.yul\":6944:6949   */\n  dup2\n    /* \"#utility.yul\":6912:6950   */\n  tag_51\n  jump\t// in\ntag_155:\n    /* \"#utility.yul\":6996:7025   */\n  tag_156\n    /* \"#utility.yul\":7014:7024   */\n  dup5\n    /* \"#utility.yul\":6996:7025   */\n  tag_52\n  jump\t// in\ntag_156:\n    /* \"#utility.yul\":6986:6994   */\n  dup2\n    /* \"#utility.yul\":6982:7026   */\n  add\n    /* \"#utility.yul\":7179:7181   */\n  0x20\n    /* \"#utility.yul\":7167:7177   */\n  dup6\n    /* \"#utility.yul\":7164:7182   */\n  lt\n    /* \"#utility.yul\":7161:7210   */\n  iszero\n  tag_157\n  jumpi\n    /* \"#utility.yul\":7200:7208   */\n  dup2\n    /* \"#utility.yul\":7185:7208   */\n  swap1\n  pop\n    /* \"#utility.yul\":7161:7210   */\ntag_157:\n    /* \"#utility.yul\":7223:7303   */\n  tag_158\n    /* \"#utility.yul\":7279:7301   */\n  tag_159\n    /* \"#utility.yul\":7297:7300   */\n  dup6\n    /* \"#utility.yul\":7279:7301   */\n  tag_52\n  jump\t// in\ntag_159:\n    /* \"#utility.yul\":7269:7277   */\n  dup4\n    /* \"#utility.yul\":7265:7302   */\n  add\n    /* \"#utility.yul\":7252:7263   */\n  dup3\n    /* \"#utility.yul\":7223:7303   */\n  tag_61\n  jump\t// in\ntag_158:\n    /* \"#utility.yul\":6882:7313   */\n  pop\n  pop\n    /* \"#utility.yul\":6867:7313   */\ntag_154:\n    /* \"#utility.yul\":6777:7320   */\n  pop\n  pop\n  pop\n  jump\t// out\n    /* \"#utility.yul\":7326:7443   */\ntag_63:\n    /* \"#utility.yul\":7380:7388   */\n  0x00\n    /* \"#utility.yul\":7430:7435   */\n  dup3\n    /* \"#utility.yul\":7424:7428   */\n  dup3\n    /* \"#utility.yul\":7420:7436   */\n  shr\n    /* \"#utility.yul\":7399:7436   */\n  swap1\n  pop\n    /* \"#utility.yul\":7326:7443   */\n  swap3\n  swap2\n  pop\n  pop\n  jump\t// out\n    /* \"#utility.yul\":7449:7618   */\ntag_64:\n    /* \"#utility.yul\":7493:7499   */\n  0x00\n    /* \"#utility.yul\":7526:7577   */\n  tag_162\n    /* \"#utility.yul\":7574:7575   */\n  0x00\n    /* \"#utility.yul\":7570:7576   */\n  not\n    /* \"#utility.yul\":7562:7567   */\n  dup5\n    /* \"#utility.yul\":7559:7560   */\n  0x08\n    /* \"#utility.yul\":7555:7568   */\n  mul\n    /* \"#utility.yul\":7526:7577   */\n  tag_63\n  jump\t// in\ntag_162:\n    /* \"#utility.yul\":7522:7578   */\n  not\n    /* \"#utility.yul\":7607:7611   */\n  dup1\n    /* \"#utility.yul\":7601:7605   */\n  dup4\n    /* \"#utility.yul\":7597:7612   */\n  and\n    /* \"#utility.yul\":7587:7612   */\n  swap2\n  pop\n    /* \"#utility.yul\":7500:7618   */\n  pop\n    /* \"#utility.yul\":7449:7618   */\n  swap3\n  swap2\n  pop\n  pop\n  jump\t// out\n    /* \"#utility.yul\":7623:7918   */\ntag_65:\n    /* \"#utility.yul\":7699:7703   */\n  0x00\n    /* \"#utility.yul\":7845:7874   */\n  tag_164\n    /* \"#utility.yul\":7870:7873   */\n  dup4\n    /* \"#utility.yul\":7864:7868   */\n  dup4\n    /* \"#utility.yul\":7845:7874   */\n  tag_64\n  jump\t// in\ntag_164:\n    /* \"#utility.yul\":7837:7874   */\n  swap2\n  pop\n    /* \"#utility.yul\":7907:7910   */\n  dup3\n    /* \"#utility.yul\":7904:7905   */\n  0x02\n    /* \"#utility.yul\":7900:7911   */\n  mul\n    /* \"#utility.yul\":7894:7898   */\n  dup3\n    /* \"#utility.yul\":7891:7912   */\n  or\n    /* \"#utility.yul\":7883:7912   */\n  swap1\n  pop\n    /* \"#utility.yul\":7623:7918   */\n  swap3\n  swap2\n  pop\n  pop\n  jump\t// out\n    /* \"#utility.yul\":7923:9318   */\ntag_8:\n    /* \"#utility.yul\":8040:8077   */\n  tag_166\n    /* \"#utility.yul\":8073:8076   */\n  dup3\n    /* \"#utility.yul\":8040:8077   */\n  tag_48\n  jump\t// in\ntag_166:\n    /* \"#utility.yul\":8142:8160   */\n  0xffffffffffffffff\n    /* \"#utility.yul\":8134:8140   */\n  dup2\n    /* \"#utility.yul\":8131:8161   */\n  gt\n    /* \"#utility.yul\":8128:8184   */\n  iszero\n  tag_167\n  jumpi\n    /* \"#utility.yul\":8164:8182   */\n  tag_168\n  tag_38\n  jump\t// in\ntag_168:\n    /* \"#utility.yul\":8128:8184   */\ntag_167:\n    /* \"#utility.yul\":8208:8246   */\n  tag_169\n    /* \"#utility.yul\":8240:8244   */\n  dup3\n    /* \"#utility.yul\":8234:8245   */\n  sload\n    /* \"#utility.yul\":8208:8246   */\n  tag_50\n  jump\t// in\ntag_169:\n    /* \"#utility.yul\":8293:8360   */\n  tag_170\n    /* \"#utility.yul\":8353:8359   */\n  dup3\n    /* \"#utility.yul\":8345:8351   */\n  dup3\n    /* \"#utility.yul\":8339:8343   */\n  dup6\n    /* \"#utility.yul\":8293:8360   */\n  tag_62\n  jump\t// in\ntag_170:\n    /* \"#utility.yul\":8387:8388   */\n  0x00\n    /* \"#utility.yul\":8411:8415   */\n  0x20\n    /* \"#utility.yul\":8398:8415   */\n  swap1\n  pop\n    /* \"#utility.yul\":8443:8445   */\n  0x1f\n    /* \"#utility.yul\":8435:8441   */\n  dup4\n    /* \"#utility.yul\":8432:8446   */\n  gt\n    /* \"#utility.yul\":8460:8461   */\n  0x01\n    /* \"#utility.yul\":8455:9073   */\n  dup2\n  eq\n  tag_172\n  jumpi\n    /* \"#utility.yul\":9117:9118   */\n  0x00\n    /* \"#utility.yul\":9134:9140   */\n  dup5\n    /* \"#utility.yul\":9131:9208   */\n  iszero\n  tag_173\n  jumpi\n    /* \"#utility.yul\":9183:9192   */\n  dup3\n    /* \"#utility.yul\":9178:9181   */\n  dup8\n    /* \"#utility.yul\":9174:9193   */\n  add\n    /* \"#utility.yul\":9168:9194   */\n  mload\n    /* \"#utility.yul\":9159:9194   */\n  swap1\n  pop\n    /* \"#utility.yul\":9131:9208   */\ntag_173:\n    /* \"#utility.yul\":9234:9301   */\n  tag_174\n    /* \"#utility.yul\":9294:9300   */\n  dup6\n    /* \"#utility.yul\":9287:9292   */\n  dup3\n    /* \"#utility.yul\":9234:9301   */\n  tag_65\n  jump\t// in\ntag_174:\n    /* \"#utility.yul\":9228:9232   */\n  dup7\n    /* \"#utility.yul\":9221:9302   */\n  sstore\n    /* \"#utility.yul\":9090:9312   */\n  pop\n    /* \"#utility.yul\":8425:9312   */\n  jump(tag_171)\n    /* \"#utility.yul\":8455:9073   */\ntag_172:\n    /* \"#utility.yul\":8507:8511   */\n  0x1f\n    /* \"#utility.yul\":8503:8512   */\n  not\n    /* \"#utility.yul\":8495:8501   */\n  dup5\n    /* \"#utility.yul\":8491:8513   */\n  and\n    /* \"#utility.yul\":8541:8578   */\n  tag_175\n    /* \"#utility.yul\":8573:8577   */\n  dup7\n    /* \"#utility.yul\":8541:8578   */\n  tag_51\n  jump\t// in\ntag_175:\n    /* \"#utility.yul\":8600:8601   */\n  0x00\n    /* \"#utility.yul\":8614:8822   */\ntag_176:\n    /* \"#utility.yul\":8628:8635   */\n  dup3\n    /* \"#utility.yul\":8625:8626   */\n  dup2\n    /* \"#utility.yul\":8622:8636   */\n  lt\n    /* \"#utility.yul\":8614:8822   */\n  iszero\n  tag_178\n  jumpi\n    /* \"#utility.yul\":8707:8716   */\n  dup5\n    /* \"#utility.yul\":8702:8705   */\n  dup10\n    /* \"#utility.yul\":8698:8717   */\n  add\n    /* \"#utility.yul\":8692:8718   */\n  mload\n    /* \"#utility.yul\":8684:8690   */\n  dup3\n    /* \"#utility.yul\":8677:8719   */\n  sstore\n    /* \"#utility.yul\":8758:8759   */\n  0x01\n    /* \"#utility.yul\":8750:8756   */\n  dup3\n    /* \"#utility.yul\":8746:8760   */\n  add\n    /* \"#utility.yul\":8736:8760   */\n  swap2\n  pop\n    /* \"#utility.yul\":8805:8807   */\n  0x20\n    /* \"#utility.yul\":8794:8803   */\n  dup6\n    /* \"#utility.yul\":8790:8808   */\n  add\n    /* \"#utility.yul\":8777:8808   */\n  swap5\n  pop\n    /* \"#utility.yul\":8651:8655   */\n  0x20\n    /* \"#utility.yul\":8648:8649   */\n  dup2\n    /* \"#utility.yul\":8644:8656   */\n  add\n    /* \"#utility.yul\":8639:8656   */\n  swap1\n  pop\n    /* \"#utility.yul\":8614:8822   */\n  jump(tag_176)\ntag_178:\n    /* \"#utility.yul\":8850:8856   */\n  dup7\n    /* \"#utility.yul\":8841:8848   */\n  dup4\n    /* \"#utility.yul\":8838:8857   */\n  lt\n    /* \"#utility.yul\":8835:9014   */\n  iszero\n  tag_179\n  jumpi\n    /* \"#utility.yul\":8908:8917   */\n  dup5\n    /* \"#utility.yul\":8903:8906   */\n  dup10\n    /* \"#utility.yul\":8899:8918   */\n  add\n    /* \"#utility.yul\":8893:8919   */\n  mload\n    /* \"#utility.yul\":8951:8999   */\n  tag_180\n    /* \"#utility.yul\":8993:8997   */\n  0x1f\n    /* \"#utility.yul\":8985:8991   */\n  dup10\n    /* \"#utility.yul\":8981:8998   */\n  and\n    /* \"#utility.yul\":8970:8979   */\n  dup3\n    /* \"#utility.yul\":8951:8999   */\n  tag_64\n  jump\t// in\ntag_180:\n    /* \"#utility.yul\":8943:8949   */\n  dup4\n    /* \"#utility.yul\":8936:9000   */\n  sstore\n    /* \"#utility.yul\":8858:9014   */\n  pop\n    /* \"#utility.yul\":8835:9014   */\ntag_179:\n    /* \"#utility.yul\":9060:9061   */\n  0x01\n    /* \"#utility.yul\":9056:9057   */\n  0x02\n    /* \"#utility.yul\":9048:9054   */\n  dup9\n    /* \"#utility.yul\":9044:9058   */\n  mul\n    /* \"#utility.yul\":9040:9062   */\n  add\n    /* \"#utility.yul\":9034:9038   */\n  dup9\n    /* \"#utility.yul\":9027:9063   */\n  sstore\n    /* \"#utility.yul\":8462:9073   */\n  pop\n  pop\n  pop\n    /* \"#utility.yul\":8425:9312   */\ntag_171:\n  pop\n    /* \"#utility.yul\":8015:9318   */\n  pop\n  pop\n  pop\n    /* \"#utility.yul\":7923:9318   */\n  pop\n  pop\n  jump\t// out\n    /* \"#utility.yul\":9324:9450   */\ntag_66:\n    /* \"#utility.yul\":9361:9368   */\n  0x00\n    /* \"#utility.yul\":9401:9443   */\n  0xffffffffffffffffffffffffffffffffffffffff\n    /* \"#utility.yul\":9394:9399   */\n  dup3\n    /* \"#utility.yul\":9390:9444   */\n  and\n    /* \"#utility.yul\":9379:9444   */\n  swap1\n  pop\n    /* \"#utility.yul\":9324:9450   */\n  swap2\n  swap1\n  pop\n  jump\t// out\n    /* \"#utility.yul\":9456:9552   */\ntag_67:\n    /* \"#utility.yul\":9493:9500   */\n  0x00\n    /* \"#utility.yul\":9522:9546   */\n  tag_183\n    /* \"#utility.yul\":9540:9545   */\n  dup3\n    /* \"#utility.yul\":9522:9546   */\n  tag_66\n  jump\t// in\ntag_183:\n    /* \"#utility.yul\":9511:9546   */\n  swap1\n  pop\n    /* \"#utility.yul\":9456:9552   */\n  swap2\n  swap1\n  pop\n  jump\t// out\n    /* \"#utility.yul\":9558:9676   */\ntag_68:\n    /* \"#utility.yul\":9645:9669   */\n  tag_185\n    /* \"#utility.yul\":9663:9668   */\n  dup2\n    /* \"#utility.yul\":9645:9669   */\n  tag_67\n  jump\t// in\ntag_185:\n    /* \"#utility.yul\":9640:9643   */\n  dup3\n    /* \"#utility.yul\":9633:9670   */\n  mstore\n    /* \"#utility.yul\":9558:9676   */\n  pop\n  pop\n  jump\t// out\n    /* \"#utility.yul\":9682:9904   */\ntag_17:\n    /* \"#utility.yul\":9775:9779   */\n  0x00\n    /* \"#utility.yul\":9813:9815   */\n  0x20\n    /* \"#utility.yul\":9802:9811   */\n  dup3\n    /* \"#utility.yul\":9798:9816   */\n  add\n    /* \"#utility.yul\":9790:9816   */\n  swap1\n  pop\n    /* \"#utility.yul\":9826:9897   */\n  tag_187\n    /* \"#utility.yul\":9894:9895   */\n  0x00\n    /* \"#utility.yul\":9883:9892   */\n  dup4\n    /* \"#utility.yul\":9879:9896   */\n  add\n    /* \"#utility.yul\":9870:9876   */\n  dup5\n    /* \"#utility.yul\":9826:9897   */\n  tag_68\n  jump\t// in\ntag_187:\n    /* \"#utility.yul\":9682:9904   */\n  swap3\n  swap2\n  pop\n  pop\n  jump\t// out\n    /* \"#utility.yul\":9910:10090   */\ntag_69:\n    /* \"#utility.yul\":9958:10035   */\n  0x4e487b7100000000000000000000000000000000000000000000000000000000\n    /* \"#utility.yul\":9955:9956   */\n  0x00\n    /* \"#utility.yul\":9948:10036   */\n  mstore\n    /* \"#utility.yul\":10055:10059   */\n  0x11\n    /* \"#utility.yul\":10052:10053   */\n  0x04\n    /* \"#utility.yul\":10045:10060   */\n  mstore\n    /* \"#utility.yul\":10079:10083   */\n  0x24\n    /* \"#utility.yul\":10076:10077   */\n  0x00\n    /* \"#utility.yul\":10069:10084   */\n  revert\n    /* \"#utility.yul\":10096:10287   */\ntag_23:\n    /* \"#utility.yul\":10136:10139   */\n  0x00\n    /* \"#utility.yul\":10155:10175   */\n  tag_190\n    /* \"#utility.yul\":10173:10174   */\n  dup3\n    /* \"#utility.yul\":10155:10175   */\n  tag_45\n  jump\t// in\ntag_190:\n    /* \"#utility.yul\":10150:10175   */\n  swap2\n  pop\n    /* \"#utility.yul\":10189:10209   */\n  tag_191\n    /* \"#utility.yul\":10207:10208   */\n  dup4\n    /* \"#utility.yul\":10189:10209   */\n  tag_45\n  jump\t// in\ntag_191:\n    /* \"#utility.yul\":10184:10209   */\n  swap3\n  pop\n    /* \"#utility.yul\":10232:10233   */\n  dup3\n    /* \"#utility.yul\":10229:10230   */\n  dup3\n    /* \"#utility.yul\":10225:10234   */\n  add\n    /* \"#utility.yul\":10218:10234   */\n  swap1\n  pop\n    /* \"#utility.yul\":10253:10256   */\n  dup1\n    /* \"#utility.yul\":10250:10251   */\n  dup3\n    /* \"#utility.yul\":10247:10257   */\n  gt\n    /* \"#utility.yul\":10244:10280   */\n  iszero\n  tag_192\n  jumpi\n    /* \"#utility.yul\":10260:10278   */\n  tag_193\n  tag_69\n  jump\t// in\ntag_193:\n    /* \"#utility.yul\":10244:10280   */\ntag_192:\n    /* \"#utility.yul\":10096:10287   */\n  swap3\n  swap2\n  pop\n  pop\n  jump\t// out\n    /* \"#utility.yul\":10293:10411   */\ntag_70:\n    /* \"#utility.yul\":10380:10404   */\n  tag_195\n    /* \"#utility.yul\":10398:10403   */\n  dup2\n    /* \"#utility.yul\":10380:10404   */\n  tag_45\n  jump\t// in\ntag_195:\n    /* \"#utility.yul\":10375:10378   */\n  dup3\n    /* \"#utility.yul\":10368:10405   */\n  mstore\n    /* \"#utility.yul\":10293:10411   */\n  pop\n  pop\n  jump\t// out\n    /* \"#utility.yul\":10417:10859   */\ntag_27:\n    /* \"#utility.yul\":10566:10570   */\n  0x00\n    /* \"#utility.yul\":10604:10606   */\n  0x60\n    /* \"#utility.yul\":10593:10602   */\n  dup3\n    /* \"#utility.yul\":10589:10607   */\n  add\n    /* \"#utility.yul\":10581:10607   */\n  swap1\n  pop\n    /* \"#utility.yul\":10617:10688   */\n  tag_197\n    /* \"#utility.yul\":10685:10686   */\n  0x00\n    /* \"#utility.yul\":10674:10683   */\n  dup4\n    /* \"#utility.yul\":10670:10687   */\n  add\n    /* \"#utility.yul\":10661:10667   */\n  dup7\n    /* \"#utility.yul\":10617:10688   */\n  tag_68\n  jump\t// in\ntag_197:\n    /* \"#utility.yul\":10698:10770   */\n  tag_198\n    /* \"#utility.yul\":10766:10768   */\n  0x20\n    /* \"#utility.yul\":10755:10764   */\n  dup4\n    /* \"#utility.yul\":10751:10769   */\n  add\n    /* \"#utility.yul\":10742:10748   */\n  dup6\n    /* \"#utility.yul\":10698:10770   */\n  tag_70\n  jump\t// in\ntag_198:\n    /* \"#utility.yul\":10780:10852   */\n  tag_199\n    /* \"#utility.yul\":10848:10850   */\n  0x40\n    /* \"#utility.yul\":10837:10846   */\n  dup4\n    /* \"#utility.yul\":10833:10851   */\n  add\n    /* \"#utility.yul\":10824:10830   */\n  dup5\n    /* \"#utility.yul\":10780:10852   */\n  tag_70\n  jump\t// in\ntag_199:\n    /* \"#utility.yul\":10417:10859   */\n  swap5\n  swap4\n  pop\n  pop\n  pop\n  pop\n  jump\t// out\n    /* \"#utility.yul\":10865:11087   */\ntag_31:\n    /* \"#utility.yul\":10958:10962   */\n  0x00\n    /* \"#utility.yul\":10996:10998   */\n  0x20\n    /* \"#utility.yul\":10985:10994   */\n  dup3\n    /* \"#utility.yul\":10981:10999   */\n  add\n    /* \"#utility.yul\":10973:10999   */\n  swap1\n  pop\n    /* \"#utility.yul\":11009:11080   */\n  tag_201\n    /* \"#utility.yul\":11077:11078   */\n  0x00\n    /* \"#utility.yul\":11066:11075   */\n  dup4\n    /* \"#utility.yul\":11062:11079   */\n  add\n    /* \"#utility.yul\":11053:11059   */\n  dup5\n    /* \"#utility.yul\":11009:11080   */\n  tag_70\n  jump\t// in\ntag_201:\n    /* \"#utility.yul\":10865:11087   */\n  swap3\n  swap2\n  pop\n  pop\n  jump\t// out\n    /* \"RealEstateToken.sol\":120:6497  contract RealEstateToken is ERC20 {... */\ntag_13:\n  dataSize(sub_0)\n  dup1\n  dataOffset(sub_0)\n  0x00\n  codecopy\n  0x00\n  return\nstop\n\nsub_0: assembly {\n        /* \"RealEstateToken.sol\":120:6497  contract RealEstateToken is ERC20 {... */\n      mstore(0x40, 0x80)\n      jumpi(tag_1, lt(calldatasize, 0x04))\n      shr(0xe0, calldataload(0x00))\n      dup1\n      0x70a08231\n      gt\n      tag_31\n      jumpi\n      dup1\n      0xa9059cbb\n      gt\n      tag_32\n      jumpi\n      dup1\n      0xc8a39541\n      gt\n      tag_33\n      jumpi\n      dup1\n      0xc8a39541\n      eq\n      tag_27\n      jumpi\n      dup1\n      0xdd62ed3e\n      eq\n      tag_28\n      jumpi\n      dup1\n      0xe34fc531\n      eq\n      tag_29\n      jumpi\n      dup1\n      0xf7b10808\n      eq\n      tag_30\n      jumpi\n      jump(tag_1)\n    tag_33:\n      dup1\n      0xa9059cbb\n      eq\n      tag_23\n      jumpi\n      dup1\n      0xb9a2de3a\n      eq\n      tag_24\n      jumpi\n      dup1\n      0xbeebc5da\n      eq\n      tag_25\n      jumpi\n      dup1\n      0xc0afbe89\n      eq\n      tag_26\n      jumpi\n      jump(tag_1)\n    tag_32:\n      dup1\n      0x890b7775\n      gt\n      tag_34\n      jumpi\n      dup1\n      0x890b7775\n      eq\n      tag_19\n      jumpi\n      dup1\n      0x8da5cb5b\n      eq\n      tag_20\n      jumpi\n      dup1\n      0x95d89b41\n      eq\n      tag_21\n      jumpi\n      dup1\n      0x9979ef45\n      eq\n      tag_22\n      jumpi\n      jump(tag_1)\n    tag_34:\n      dup1\n      0x70a08231\n      eq\n      tag_16\n      jumpi\n      dup1\n      0x808d3315\n      eq\n      tag_17\n      jumpi\n      dup1\n      0x87269729\n      eq\n      tag_18\n      jumpi\n      jump(tag_1)\n    tag_31:\n      dup1\n      0x18160ddd\n      gt\n      tag_35\n      jumpi\n      dup1\n      0x2f2d28ba\n      gt\n      tag_36\n      jumpi\n      dup1\n      0x2f2d28ba\n      eq\n      tag_12\n      jumpi\n      dup1\n      0x313ce567\n      eq\n      tag_13\n      jumpi\n      dup1\n      0x3a98ef39\n      eq\n      tag_14\n      jumpi\n      dup1\n      0x571a26a0\n      eq\n      tag_15\n      jumpi\n      jump(tag_1)\n    tag_36:\n      dup1\n      0x18160ddd\n      eq\n      tag_9\n      jumpi\n      dup1\n      0x1fd5419d\n      eq\n      tag_10\n      jumpi\n      dup1\n      0x23b872dd\n      eq\n      tag_11\n      jumpi\n      jump(tag_1)\n    tag_35:\n      dup1\n      0x0b3bce20\n      gt\n      tag_37\n      jumpi\n      dup1\n      0x0b3bce20\n      eq\n      tag_5\n      jumpi\n      dup1\n      0x0fc57e6c\n      eq\n      tag_6\n      jumpi\n      dup1\n      0x16002f4a\n      eq\n      tag_7\n      jumpi\n      dup1\n      0x16b60249\n      eq\n      tag_8\n      jumpi\n      jump(tag_1)\n    tag_37:\n      dup1\n      0x065de74c\n      eq\n      tag_2\n      jumpi\n      dup1\n      0x06fdde03\n      eq\n      tag_3\n      jumpi\n      dup1\n      0x095ea7b3\n      eq\n      tag_4\n      jumpi\n    tag_1:\n      0x00\n      dup1\n      revert\n        /* \"RealEstateToken.sol\":2713:3335  function startAuction(uint256 _propertyId) public {... */\n    tag_2:\n      callvalue\n      dup1\n      iszero\n      tag_38\n      jumpi\n      0x00\n      dup1\n      revert\n    tag_38:\n      pop\n      tag_39\n      0x04\n      dup1\n      calldatasize\n      sub\n      dup2\n      add\n      swap1\n      tag_40\n      swap2\n      swap1\n      tag_41\n      jump\t// in\n    tag_40:\n      tag_42\n      jump\t// in\n    tag_39:\n      stop\n        /* \"@openzeppelin/contracts/token/ERC20/ERC20.sol\":2074:2163  function name() public view virtual returns (string memory) {... */\n    tag_3:\n      callvalue\n      dup1\n      iszero\n      tag_43\n      jumpi\n      0x00\n      dup1\n      revert\n    tag_43:\n      pop\n      tag_44\n      tag_45\n      jump\t// in\n    tag_44:\n      mload(0x40)\n      tag_46\n      swap2\n      swap1\n      tag_47\n      jump\t// in\n    tag_46:\n      mload(0x40)\n      dup1\n      swap2\n      sub\n      swap1\n      return\n        /* \"@openzeppelin/contracts/token/ERC20/ERC20.sol\":4293:4479  function approve(address spender, uint256 value) public virtual returns (bool) {... */\n    tag_4:\n      callvalue\n      dup1\n      iszero\n      tag_48\n      jumpi\n      0x00\n      dup1\n      revert\n    tag_48:\n      pop\n      tag_49\n      0x04\n      dup1\n      calldatasize\n      sub\n      dup2\n      add\n      swap1\n      tag_50\n      swap2\n      swap1\n      tag_51\n      jump\t// in\n    tag_50:\n      tag_52\n      jump\t// in\n    tag_49:\n      mload(0x40)\n      tag_53\n      swap2\n      swap1\n      tag_54\n      jump\t// in\n    tag_53:\n      mload(0x40)\n      dup1\n      swap2\n      sub\n      swap1\n      return\n        /* \"RealEstateToken.sol\":253:283  uint256 public totalProperties */\n    tag_5:\n      callvalue\n      dup1\n      iszero\n      tag_55\n      jumpi\n      0x00\n      dup1\n      revert\n    tag_55:\n      pop\n      tag_56\n      tag_57\n      jump\t// in\n    tag_56:\n      mload(0x40)\n      tag_58\n      swap2\n      swap1\n      tag_59\n      jump\t// in\n    tag_58:\n      mload(0x40)\n      dup1\n      swap2\n      sub\n      swap1\n      return\n        /* \"RealEstateToken.sol\":6137:6261  function isPropertyPublic(uint256 _propertyId) public view returns (bool) {... */\n    tag_6:\n      callvalue\n      dup1\n      iszero\n      tag_60\n      jumpi\n      0x00\n      dup1\n      revert\n    tag_60:\n      pop\n      tag_61\n      0x04\n      dup1\n      calldatasize\n      sub\n      dup2\n      add\n      swap1\n      tag_62\n      swap2\n      swap1\n      tag_41\n      jump\t// in\n    tag_62:\n      tag_63\n      jump\t// in\n    tag_61:\n      mload(0x40)\n      tag_64\n      swap2\n      swap1\n      tag_54\n      jump\t// in\n    tag_64:\n      mload(0x40)\n      dup1\n      swap2\n      sub\n      swap1\n      return\n        /* \"RealEstateToken.sol\":290:318  uint256 public totalAuctions */\n    tag_7:\n      callvalue\n      dup1\n      iszero\n      tag_65\n      jumpi\n      0x00\n      dup1\n      revert\n    tag_65:\n      pop\n      tag_66\n      tag_67\n      jump\t// in\n    tag_66:\n      mload(0x40)\n      tag_68\n      swap2\n      swap1\n      tag_59\n      jump\t// in\n    tag_68:\n      mload(0x40)\n      dup1\n      swap2\n      sub\n      swap1\n      return\n        /* \"RealEstateToken.sol\":1651:1751  function setSharePrice(uint256 _newPrice) public onlyOwner {... */\n    tag_8:\n      callvalue\n      dup1\n      iszero\n      tag_69\n      jumpi\n      0x00\n      dup1\n      revert\n    tag_69:\n      pop\n      tag_70\n      0x04\n      dup1\n      calldatasize\n      sub\n      dup2\n      add\n      swap1\n      tag_71\n      swap2\n      swap1\n      tag_41\n      jump\t// in\n    tag_71:\n      tag_72\n      jump\t// in\n    tag_70:\n      stop\n        /* \"@openzeppelin/contracts/token/ERC20/ERC20.sol\":3144:3241  function totalSupply() public view virtual returns (uint256) {... */\n    tag_9:\n      callvalue\n      dup1\n      iszero\n      tag_73\n      jumpi\n      0x00\n      dup1\n      revert\n    tag_73:\n      pop\n      tag_74\n      tag_75\n      jump\t// in\n    tag_74:\n      mload(0x40)\n      tag_76\n      swap2\n      swap1\n      tag_59\n      jump\t// in\n    tag_76:\n      mload(0x40)\n      dup1\n      swap2\n      sub\n      swap1\n      return\n        /* \"RealEstateToken.sol\":2306:2703  function updatePropertyDetails(uint256 _propertyId, uint256 _newListPrice, uint256 _newEstimatedPrice) public onlyOwner {... */\n    tag_10:\n      callvalue\n      dup1\n      iszero\n      tag_77\n      jumpi\n      0x00\n      dup1\n      revert\n    tag_77:\n      pop\n      tag_78\n      0x04\n      dup1\n      calldatasize\n      sub\n      dup2\n      add\n      swap1\n      tag_79\n      swap2\n      swap1\n      tag_80\n      jump\t// in\n    tag_79:\n      tag_81\n      jump\t// in\n    tag_78:\n      stop\n        /* \"@openzeppelin/contracts/token/ERC20/ERC20.sol\":5039:5283  function transferFrom(address from, address to, uint256 value) public virtual returns (bool) {... */\n    tag_11:\n      callvalue\n      dup1\n      iszero\n      tag_82\n      jumpi\n      0x00\n      dup1\n      revert\n    tag_82:\n      pop\n      tag_83\n      0x04\n      dup1\n      calldatasize\n      sub\n      dup2\n      add\n      swap1\n      tag_84\n      swap2\n      swap1\n      tag_85\n      jump\t// in\n    tag_84:\n      tag_86\n      jump\t// in\n    tag_83:\n      mload(0x40)\n      tag_87\n      swap2\n      swap1\n      tag_54\n      jump\t// in\n    tag_87:\n      mload(0x40)\n      dup1\n      swap2\n      sub\n      swap1\n      return\n        /* \"RealEstateToken.sol\":5855:5987  function getPropertyListPrice(uint256 _propertyId) public view returns (uint256) {... */\n    tag_12:\n      callvalue\n      dup1\n      iszero\n      tag_88\n      jumpi\n      0x00\n      dup1\n      revert\n    tag_88:\n      pop\n      tag_89\n      0x04\n      dup1\n      calldatasize\n      sub\n      dup2\n      add\n      swap1\n      tag_90\n      swap2\n      swap1\n      tag_41\n      jump\t// in\n    tag_90:\n      tag_91\n      jump\t// in\n    tag_89:\n      mload(0x40)\n      tag_92\n      swap2\n      swap1\n      tag_59\n      jump\t// in\n    tag_92:\n      mload(0x40)\n      dup1\n      swap2\n      sub\n      swap1\n      return\n        /* \"@openzeppelin/contracts/token/ERC20/ERC20.sol\":3002:3084  function decimals() public view virtual returns (uint8) {... */\n    tag_13:\n      callvalue\n      dup1\n      iszero\n      tag_93\n      jumpi\n      0x00\n      dup1\n      revert\n    tag_93:\n      pop\n      tag_94\n      tag_95\n      jump\t// in\n    tag_94:\n      mload(0x40)\n      tag_96\n      swap2\n      swap1\n      tag_97\n      jump\t// in\n    tag_96:\n      mload(0x40)\n      dup1\n      swap2\n      sub\n      swap1\n      return\n        /* \"RealEstateToken.sol\":188:214  uint256 public totalShares */\n    tag_14:\n      callvalue\n      dup1\n      iszero\n      tag_98\n      jumpi\n      0x00\n      dup1\n      revert\n    tag_98:\n      pop\n      tag_99\n      tag_100\n      jump\t// in\n    tag_99:\n      mload(0x40)\n      tag_101\n      swap2\n      swap1\n      tag_59\n      jump\t// in\n    tag_101:\n      mload(0x40)\n      dup1\n      swap2\n      sub\n      swap1\n      return\n        /* \"RealEstateToken.sol\":1110:1153  mapping(uint256 => Auction) public auctions */\n    tag_15:\n      callvalue\n      dup1\n      iszero\n      tag_102\n      jumpi\n      0x00\n      dup1\n      revert\n    tag_102:\n      pop\n      tag_103\n      0x04\n      dup1\n      calldatasize\n      sub\n      dup2\n      add\n      swap1\n      tag_104\n      swap2\n      swap1\n      tag_41\n      jump\t// in\n    tag_104:\n      tag_105\n      jump\t// in\n    tag_103:\n      mload(0x40)\n      tag_106\n      swap5\n      swap4\n      swap3\n      swap2\n      swap1\n      tag_107\n      jump\t// in\n    tag_106:\n      mload(0x40)\n      dup1\n      swap2\n      sub\n      swap1\n      return\n        /* \"@openzeppelin/contracts/token/ERC20/ERC20.sol\":3299:3415  function balanceOf(address account) public view virtual returns (uint256) {... */\n    tag_16:\n      callvalue\n      dup1\n      iszero\n      tag_108\n      jumpi\n      0x00\n      dup1\n      revert\n    tag_108:\n      pop\n      tag_109\n      0x04\n      dup1\n      calldatasize\n      sub\n      dup2\n      add\n      swap1\n      tag_110\n      swap2\n      swap1\n      tag_111\n      jump\t// in\n    tag_110:\n      tag_112\n      jump\t// in\n    tag_109:\n      mload(0x40)\n      tag_113\n      swap2\n      swap1\n      tag_59\n      jump\t// in\n    tag_113:\n      mload(0x40)\n      dup1\n      swap2\n      sub\n      swap1\n      return\n        /* \"RealEstateToken.sol\":5707:5851  function getPropertySharesAvailable(uint256 _propertyId) public view returns (uint256) {... */\n    tag_17:\n      callvalue\n      dup1\n      iszero\n      tag_114\n      jumpi\n      0x00\n      dup1\n      revert\n    tag_114:\n      pop\n      tag_115\n      0x04\n      dup1\n      calldatasize\n      sub\n      dup2\n      add\n      swap1\n      tag_116\n      swap2\n      swap1\n      tag_41\n      jump\t// in\n    tag_116:\n      tag_117\n      jump\t// in\n    tag_115:\n      mload(0x40)\n      tag_118\n      swap2\n      swap1\n      tag_59\n      jump\t// in\n    tag_118:\n      mload(0x40)\n      dup1\n      swap2\n      sub\n      swap1\n      return\n        /* \"RealEstateToken.sol\":221:246  uint256 public sharePrice */\n    tag_18:\n      callvalue\n      dup1\n      iszero\n      tag_119\n      jumpi\n      0x00\n      dup1\n      revert\n    tag_119:\n      pop\n      tag_120\n      tag_121\n      jump\t// in\n    tag_120:\n      mload(0x40)\n      tag_122\n      swap2\n      swap1\n      tag_59\n      jump\t// in\n    tag_122:\n      mload(0x40)\n      dup1\n      swap2\n      sub\n      swap1\n      return\n        /* \"RealEstateToken.sol\":5991:6133  function getPropertyEstimatedPrice(uint256 _propertyId) public view returns (uint256) {... */\n    tag_19:\n      callvalue\n      dup1\n      iszero\n      tag_123\n      jumpi\n      0x00\n      dup1\n      revert\n    tag_123:\n      pop\n      tag_124\n      0x04\n      dup1\n      calldatasize\n      sub\n      dup2\n      add\n      swap1\n      tag_125\n      swap2\n      swap1\n      tag_41\n      jump\t// in\n    tag_125:\n      tag_126\n      jump\t// in\n    tag_124:\n      mload(0x40)\n      tag_127\n      swap2\n      swap1\n      tag_59\n      jump\t// in\n    tag_127:\n      mload(0x40)\n      dup1\n      swap2\n      sub\n      swap1\n      return\n        /* \"RealEstateToken.sol\":161:181  address public owner */\n    tag_20:\n      callvalue\n      dup1\n      iszero\n      tag_128\n      jumpi\n      0x00\n      dup1\n      revert\n    tag_128:\n      pop\n      tag_129\n      tag_130\n      jump\t// in\n    tag_129:\n      mload(0x40)\n      tag_131\n      swap2\n      swap1\n      tag_132\n      jump\t// in\n    tag_131:\n      mload(0x40)\n      dup1\n      swap2\n      sub\n      swap1\n      return\n        /* \"@openzeppelin/contracts/token/ERC20/ERC20.sol\":2276:2369  function symbol() public view virtual returns (string memory) {... */\n    tag_21:\n      callvalue\n      dup1\n      iszero\n      tag_133\n      jumpi\n      0x00\n      dup1\n      revert\n    tag_133:\n      pop\n      tag_134\n      tag_135\n      jump\t// in\n    tag_134:\n      mload(0x40)\n      tag_136\n      swap2\n      swap1\n      tag_47\n      jump\t// in\n    tag_136:\n      mload(0x40)\n      dup1\n      swap2\n      sub\n      swap1\n      return\n        /* \"RealEstateToken.sol\":3343:3884  function placeBid(uint256 _auctionId) external payable {... */\n    tag_22:\n      tag_137\n      0x04\n      dup1\n      calldatasize\n      sub\n      dup2\n      add\n      swap1\n      tag_138\n      swap2\n      swap1\n      tag_41\n      jump\t// in\n    tag_138:\n      tag_139\n      jump\t// in\n    tag_137:\n      stop\n        /* \"@openzeppelin/contracts/token/ERC20/ERC20.sol\":3610:3788  function transfer(address to, uint256 value) public virtual returns (bool) {... */\n    tag_23:\n      callvalue\n      dup1\n      iszero\n      tag_140\n      jumpi\n      0x00\n      dup1\n      revert\n    tag_140:\n      pop\n      tag_141\n      0x04\n      dup1\n      calldatasize\n      sub\n      dup2\n      add\n      swap1\n      tag_142\n      swap2\n      swap1\n      tag_51\n      jump\t// in\n    tag_142:\n      tag_143\n      jump\t// in\n    tag_141:\n      mload(0x40)\n      tag_144\n      swap2\n      swap1\n      tag_54\n      jump\t// in\n    tag_144:\n      mload(0x40)\n      dup1\n      swap2\n      sub\n      swap1\n      return\n        /* \"RealEstateToken.sol\":3892:4905  function endAuction(uint256 _auctionId) public {... */\n    tag_24:\n      callvalue\n      dup1\n      iszero\n      tag_145\n      jumpi\n      0x00\n      dup1\n      revert\n    tag_145:\n      pop\n      tag_146\n      0x04\n      dup1\n      calldatasize\n      sub\n      dup2\n      add\n      swap1\n      tag_147\n      swap2\n      swap1\n      tag_41\n      jump\t// in\n    tag_147:\n      tag_148\n      jump\t// in\n    tag_146:\n      stop\n        /* \"RealEstateToken.sol\":4923:5575  function buyShares(uint256 _propertyId, uint256 _numShares) external payable {... */\n    tag_25:\n      tag_149\n      0x04\n      dup1\n      calldatasize\n      sub\n      dup2\n      add\n      swap1\n      tag_150\n      swap2\n      swap1\n      tag_151\n      jump\t// in\n    tag_150:\n      tag_152\n      jump\t// in\n    tag_149:\n      stop\n        /* \"RealEstateToken.sol\":6265:6395  function isPropertyAuctioned(uint256 _propertyId) public view returns (bool) {... */\n    tag_26:\n      callvalue\n      dup1\n      iszero\n      tag_153\n      jumpi\n      0x00\n      dup1\n      revert\n    tag_153:\n      pop\n      tag_154\n      0x04\n      dup1\n      calldatasize\n      sub\n      dup2\n      add\n      swap1\n      tag_155\n      swap2\n      swap1\n      tag_41\n      jump\t// in\n    tag_155:\n      tag_156\n      jump\t// in\n    tag_154:\n      mload(0x40)\n      tag_157\n      swap2\n      swap1\n      tag_54\n      jump\t// in\n    tag_157:\n      mload(0x40)\n      dup1\n      swap2\n      sub\n      swap1\n      return\n        /* \"RealEstateToken.sol\":1755:2230  function addProperty(uint256 _listPrice, uint256 _estimatedPrice, uint256 _initialShares, bool _isPublic) public onlyOwner {... */\n    tag_27:\n      callvalue\n      dup1\n      iszero\n      tag_158\n      jumpi\n      0x00\n      dup1\n      revert\n    tag_158:\n      pop\n      tag_159\n      0x04\n      dup1\n      calldatasize\n      sub\n      dup2\n      add\n      swap1\n      tag_160\n      swap2\n      swap1\n      tag_161\n      jump\t// in\n    tag_160:\n      tag_162\n      jump\t// in\n    tag_159:\n      stop\n        /* \"@openzeppelin/contracts/token/ERC20/ERC20.sol\":3846:3986  function allowance(address owner, address spender) public view virtual returns (uint256) {... */\n    tag_28:\n      callvalue\n      dup1\n      iszero\n      tag_163\n      jumpi\n      0x00\n      dup1\n      revert\n    tag_163:\n      pop\n      tag_164\n      0x04\n      dup1\n      calldatasize\n      sub\n      dup2\n      add\n      swap1\n      tag_165\n      swap2\n      swap1\n      tag_166\n      jump\t// in\n    tag_165:\n      tag_167\n      jump\t// in\n    tag_164:\n      mload(0x40)\n      tag_168\n      swap2\n      swap1\n      tag_59\n      jump\t// in\n    tag_168:\n      mload(0x40)\n      dup1\n      swap2\n      sub\n      swap1\n      return\n        /* \"RealEstateToken.sol\":5579:5703  function getPropertyOwner(uint256 _propertyId) public view returns (address) {... */\n    tag_29:\n      callvalue\n      dup1\n      iszero\n      tag_169\n      jumpi\n      0x00\n      dup1\n      revert\n    tag_169:\n      pop\n      tag_170\n      0x04\n      dup1\n      calldatasize\n      sub\n      dup2\n      add\n      swap1\n      tag_171\n      swap2\n      swap1\n      tag_41\n      jump\t// in\n    tag_171:\n      tag_172\n      jump\t// in\n    tag_170:\n      mload(0x40)\n      tag_173\n      swap2\n      swap1\n      tag_132\n      jump\t// in\n    tag_173:\n      mload(0x40)\n      dup1\n      swap2\n      sub\n      swap1\n      return\n        /* \"RealEstateToken.sol\":1057:1103  mapping(uint256 => Property) public properties */\n    tag_30:\n      callvalue\n      dup1\n      iszero\n      tag_174\n      jumpi\n      0x00\n      dup1\n      revert\n    tag_174:\n      pop\n      tag_175\n      0x04\n      dup1\n      calldatasize\n      sub\n      dup2\n      add\n      swap1\n      tag_176\n      swap2\n      swap1\n      tag_41\n      jump\t// in\n    tag_176:\n      tag_177\n      jump\t// in\n    tag_175:\n      mload(0x40)\n      tag_178\n      swap7\n      swap6\n      swap5\n      swap4\n      swap3\n      swap2\n      swap1\n      tag_179\n      jump\t// in\n    tag_178:\n      mload(0x40)\n      dup1\n      swap2\n      sub\n      swap1\n      return\n        /* \"RealEstateToken.sol\":2713:3335  function startAuction(uint256 _propertyId) public {... */\n    tag_42:\n        /* \"RealEstateToken.sol\":2815:2825  msg.sender */\n      caller\n        /* \"RealEstateToken.sol\":2782:2825  properties[_propertyId].owner == msg.sender */\n      0xffffffffffffffffffffffffffffffffffffffff\n      and\n        /* \"RealEstateToken.sol\":2782:2792  properties */\n      0x0a\n        /* \"RealEstateToken.sol\":2782:2805  properties[_propertyId] */\n      0x00\n        /* \"RealEstateToken.sol\":2793:2804  _propertyId */\n      dup4\n        /* \"RealEstateToken.sol\":2782:2805  properties[_propertyId] */\n      dup2\n      mstore\n      0x20\n      add\n      swap1\n      dup2\n      mstore\n      0x20\n      add\n      0x00\n      keccak256\n        /* \"RealEstateToken.sol\":2782:2811  properties[_propertyId].owner */\n      0x00\n      add\n      0x00\n      swap1\n      sload\n      swap1\n      0x0100\n      exp\n      swap1\n      div\n      0xffffffffffffffffffffffffffffffffffffffff\n      and\n        /* \"RealEstateToken.sol\":2782:2825  properties[_propertyId].owner == msg.sender */\n      0xffffffffffffffffffffffffffffffffffffffff\n      and\n      eq\n        /* \"RealEstateToken.sol\":2774:2874  require(properties[_propertyId].owner == msg.sender, \"Only the property owner can start an auction\") */\n      tag_181\n      jumpi\n      mload(0x40)\n      0x08c379a000000000000000000000000000000000000000000000000000000000\n      dup2\n      mstore\n      0x04\n      add\n      tag_182\n      swap1\n      tag_183\n      jump\t// in\n    tag_182:\n      mload(0x40)\n      dup1\n      swap2\n      sub\n      swap1\n      revert\n    tag_181:\n        /* \"RealEstateToken.sol\":2894:2904  properties */\n      0x0a\n        /* \"RealEstateToken.sol\":2894:2917  properties[_propertyId] */\n      0x00\n        /* \"RealEstateToken.sol\":2905:2916  _propertyId */\n      dup3\n        /* \"RealEstateToken.sol\":2894:2917  properties[_propertyId] */\n      dup2\n      mstore\n      0x20\n      add\n      swap1\n      dup2\n      mstore\n      0x20\n      add\n      0x00\n      keccak256\n        /* \"RealEstateToken.sol\":2894:2929  properties[_propertyId].isAuctioned */\n      0x05\n      add\n      0x01\n      swap1\n      sload\n      swap1\n      0x0100\n      exp\n      swap1\n      div\n      0xff\n      and\n        /* \"RealEstateToken.sol\":2893:2929  !properties[_propertyId].isAuctioned */\n      iszero\n        /* \"RealEstateToken.sol\":2885:2979  require(!properties[_propertyId].isAuctioned, \"Auction for this property has already started\") */\n      tag_184\n      jumpi\n      mload(0x40)\n      0x08c379a000000000000000000000000000000000000000000000000000000000\n      dup2\n      mstore\n      0x04\n      add\n      tag_185\n      swap1\n      tag_186\n      jump\t// in\n    tag_185:\n      mload(0x40)\n      dup1\n      swap2\n      sub\n      swap1\n      revert\n    tag_184:\n        /* \"RealEstateToken.sol\":2992:3005  totalAuctions */\n      0x09\n      0x00\n        /* \"RealEstateToken.sol\":2992:3007  totalAuctions++ */\n      dup2\n      sload\n      dup1\n      swap3\n      swap2\n      swap1\n      tag_187\n      swap1\n      tag_188\n      jump\t// in\n    tag_187:\n      swap2\n      swap1\n      pop\n      sstore\n      pop\n        /* \"RealEstateToken.sol\":3044:3197  Auction({... */\n      mload(0x40)\n      dup1\n      0x80\n      add\n      0x40\n      mstore\n      dup1\n        /* \"RealEstateToken.sol\":3079:3090  _propertyId */\n      dup3\n        /* \"RealEstateToken.sol\":3044:3197  Auction({... */\n      dup2\n      mstore\n      0x20\n      add\n        /* \"RealEstateToken.sol\":3128:3129  0 */\n      0x00\n        /* \"RealEstateToken.sol\":3044:3197  Auction({... */\n      0xffffffffffffffffffffffffffffffffffffffff\n      and\n      dup2\n      mstore\n      0x20\n      add\n        /* \"RealEstateToken.sol\":3157:3158  0 */\n      0x00\n        /* \"RealEstateToken.sol\":3044:3197  Auction({... */\n      dup2\n      mstore\n      0x20\n      add\n        /* \"RealEstateToken.sol\":3180:3185  false */\n      0x00\n        /* \"RealEstateToken.sol\":3044:3197  Auction({... */\n      iszero\n      iszero\n      dup2\n      mstore\n      pop\n        /* \"RealEstateToken.sol\":3018:3026  auctions */\n      0x0b\n        /* \"RealEstateToken.sol\":3018:3041  auctions[totalAuctions] */\n      0x00\n        /* \"RealEstateToken.sol\":3027:3040  totalAuctions */\n      sload(0x09)\n        /* \"RealEstateToken.sol\":3018:3041  auctions[totalAuctions] */\n      dup2\n      mstore\n      0x20\n      add\n      swap1\n      dup2\n      mstore\n      0x20\n      add\n      0x00\n      keccak256\n        /* \"RealEstateToken.sol\":3018:3197  auctions[totalAuctions] = Auction({... */\n      0x00\n      dup3\n      add\n      mload\n      dup2\n      0x00\n      add\n      sstore\n      0x20\n      dup3\n      add\n      mload\n      dup2\n      0x01\n      add\n      exp(0x0100, 0x00)\n      dup2\n      sload\n      dup2\n      0xffffffffffffffffffffffffffffffffffffffff\n      mul\n      not\n      and\n      swap1\n      dup4\n      0xffffffffffffffffffffffffffffffffffffffff\n      and\n      mul\n      or\n      swap1\n      sstore\n      pop\n      0x40\n      dup3\n      add\n      mload\n      dup2\n      0x02\n      add\n      sstore\n      0x60\n      dup3\n      add\n      mload\n      dup2\n      0x03\n      add\n      exp(0x0100, 0x00)\n      dup2\n      sload\n      dup2\n      0xff\n      mul\n      not\n      and\n      swap1\n      dup4\n      iszero\n      iszero\n      mul\n      or\n      swap1\n      sstore\n      pop\n      swap1\n      pop\n      pop\n        /* \"RealEstateToken.sol\":3248:3252  true */\n      0x01\n        /* \"RealEstateToken.sol\":3210:3220  properties */\n      0x0a\n        /* \"RealEstateToken.sol\":3210:3233  properties[_propertyId] */\n      0x00\n        /* \"RealEstateToken.sol\":3221:3232  _propertyId */\n      dup4\n        /* \"RealEstateToken.sol\":3210:3233  properties[_propertyId] */\n      dup2\n      mstore\n      0x20\n      add\n      swap1\n      dup2\n      mstore\n      0x20\n      add\n      0x00\n      keccak256\n        /* \"RealEstateToken.sol\":3210:3245  properties[_propertyId].isAuctioned */\n      0x05\n      add\n      0x01\n        /* \"RealEstateToken.sol\":3210:3252  properties[_propertyId].isAuctioned = true */\n      0x0100\n      exp\n      dup2\n      sload\n      dup2\n      0xff\n      mul\n      not\n      and\n      swap1\n      dup4\n      iszero\n      iszero\n      mul\n      or\n      swap1\n      sstore\n      pop\n        /* \"RealEstateToken.sol\":3301:3311  msg.sender */\n      caller\n        /* \"RealEstateToken.sol\":3278:3325  PropertyAuctionStarted(msg.sender, _propertyId) */\n      0xffffffffffffffffffffffffffffffffffffffff\n      and\n      0x03b328b90a88eecc6ce6d1031bb1c779dd4e5e28e810018ca19f8ccd27691380\n        /* \"RealEstateToken.sol\":3313:3324  _propertyId */\n      dup3\n        /* \"RealEstateToken.sol\":3278:3325  PropertyAuctionStarted(msg.sender, _propertyId) */\n      mload(0x40)\n      tag_189\n      swap2\n      swap1\n      tag_59\n      jump\t// in\n    tag_189:\n      mload(0x40)\n      dup1\n      swap2\n      sub\n      swap1\n      log2\n        /* \"RealEstateToken.sol\":2713:3335  function startAuction(uint256 _propertyId) public {... */\n      pop\n      jump\t// out\n        /* \"@openzeppelin/contracts/token/ERC20/ERC20.sol\":2074:2163  function name() public view virtual returns (string memory) {... */\n    tag_45:\n        /* \"@openzeppelin/contracts/token/ERC20/ERC20.sol\":2119:2132  string memory */\n      0x60\n        /* \"@openzeppelin/contracts/token/ERC20/ERC20.sol\":2151:2156  _name */\n      0x03\n        /* \"@openzeppelin/contracts/token/ERC20/ERC20.sol\":2144:2156  return _name */\n      dup1\n      sload\n      tag_191\n      swap1\n      tag_192\n      jump\t// in\n    tag_191:\n      dup1\n      0x1f\n      add\n      0x20\n      dup1\n      swap2\n      div\n      mul\n      0x20\n      add\n      mload(0x40)\n      swap1\n      dup2\n      add\n      0x40\n      mstore\n      dup1\n      swap3\n      swap2\n      swap1\n      dup2\n      dup2\n      mstore\n      0x20\n      add\n      dup3\n      dup1\n      sload\n      tag_193\n      swap1\n      tag_192\n      jump\t// in\n    tag_193:\n      dup1\n      iszero\n      tag_194\n      jumpi\n      dup1\n      0x1f\n      lt\n      tag_195\n      jumpi\n      0x0100\n      dup1\n      dup4\n      sload\n      div\n      mul\n      dup4\n      mstore\n      swap2\n      0x20\n      add\n      swap2\n      jump(tag_194)\n    tag_195:\n      dup3\n      add\n      swap2\n      swap1\n      0x00\n      mstore\n      keccak256(0x00, 0x20)\n      swap1\n    tag_196:\n      dup2\n      sload\n      dup2\n      mstore\n      swap1\n      0x01\n      add\n      swap1\n      0x20\n      add\n      dup1\n      dup4\n      gt\n      tag_196\n      jumpi\n      dup3\n      swap1\n      sub\n      0x1f\n      and\n      dup3\n      add\n      swap2\n    tag_194:\n      pop\n      pop\n      pop\n      pop\n      pop\n      swap1\n      pop\n        /* \"@openzeppelin/contracts/token/ERC20/ERC20.sol\":2074:2163  function name() public view virtual returns (string memory) {... */\n      swap1\n      jump\t// out\n        /* \"@openzeppelin/contracts/token/ERC20/ERC20.sol\":4293:4479  function approve(address spender, uint256 value) public virtual returns (bool) {... */\n    tag_52:\n        /* \"@openzeppelin/contracts/token/ERC20/ERC20.sol\":4366:4370  bool */\n      0x00\n        /* \"@openzeppelin/contracts/token/ERC20/ERC20.sol\":4382:4395  address owner */\n      dup1\n        /* \"@openzeppelin/contracts/token/ERC20/ERC20.sol\":4398:4410  _msgSender() */\n      tag_198\n        /* \"@openzeppelin/contracts/token/ERC20/ERC20.sol\":4398:4408  _msgSender */\n      tag_199\n        /* \"@openzeppelin/contracts/token/ERC20/ERC20.sol\":4398:4410  _msgSender() */\n      jump\t// in\n    tag_198:\n        /* \"@openzeppelin/contracts/token/ERC20/ERC20.sol\":4382:4410  address owner = _msgSender() */\n      swap1\n      pop\n        /* \"@openzeppelin/contracts/token/ERC20/ERC20.sol\":4420:4451  _approve(owner, spender, value) */\n      tag_200\n        /* \"@openzeppelin/contracts/token/ERC20/ERC20.sol\":4429:4434  owner */\n      dup2\n        /* \"@openzeppelin/contracts/token/ERC20/ERC20.sol\":4436:4443  spender */\n      dup6\n        /* \"@openzeppelin/contracts/token/ERC20/ERC20.sol\":4445:4450  value */\n      dup6\n        /* \"@openzeppelin/contracts/token/ERC20/ERC20.sol\":4420:4428  _approve */\n      tag_201\n        /* \"@openzeppelin/contracts/token/ERC20/ERC20.sol\":4420:4451  _approve(owner, spender, value) */\n      jump\t// in\n    tag_200:\n        /* \"@openzeppelin/contracts/token/ERC20/ERC20.sol\":4468:4472  true */\n      0x01\n        /* \"@openzeppelin/contracts/token/ERC20/ERC20.sol\":4461:4472  return true */\n      swap2\n      pop\n      pop\n        /* \"@openzeppelin/contracts/token/ERC20/ERC20.sol\":4293:4479  function approve(address spender, uint256 value) public virtual returns (bool) {... */\n      swap3\n      swap2\n      pop\n      pop\n      jump\t// out\n        /* \"RealEstateToken.sol\":253:283  uint256 public totalProperties */\n    tag_57:\n      sload(0x08)\n      dup2\n      jump\t// out\n        /* \"RealEstateToken.sol\":6137:6261  function isPropertyPublic(uint256 _propertyId) public view returns (bool) {... */\n    tag_63:\n        /* \"RealEstateToken.sol\":6205:6209  bool */\n      0x00\n        /* \"RealEstateToken.sol\":6225:6235  properties */\n      0x0a\n        /* \"RealEstateToken.sol\":6225:6248  properties[_propertyId] */\n      0x00\n        /* \"RealEstateToken.sol\":6236:6247  _propertyId */\n      dup4\n        /* \"RealEstateToken.sol\":6225:6248  properties[_propertyId] */\n      dup2\n      mstore\n      0x20\n      add\n      swap1\n      dup2\n      mstore\n      0x20\n      add\n      0x00\n      keccak256\n        /* \"RealEstateToken.sol\":6225:6257  properties[_propertyId].isPublic */\n      0x05\n      add\n      0x00\n      swap1\n      sload\n      swap1\n      0x0100\n      exp\n      swap1\n      div\n      0xff\n      and\n        /* \"RealEstateToken.sol\":6218:6257  return properties[_propertyId].isPublic */\n      swap1\n      pop\n        /* \"RealEstateToken.sol\":6137:6261  function isPropertyPublic(uint256 _propertyId) public view returns (bool) {... */\n      swap2\n      swap1\n      pop\n      jump\t// out\n        /* \"RealEstateToken.sol\":290:318  uint256 public totalAuctions */\n    tag_67:\n      sload(0x09)\n      dup2\n      jump\t// out\n        /* \"RealEstateToken.sol\":1651:1751  function setSharePrice(uint256 _newPrice) public onlyOwner {... */\n    tag_72:\n        /* \"RealEstateToken.sol\":1575:1580  owner */\n      0x05\n      0x00\n      swap1\n      sload\n      swap1\n      0x0100\n      exp\n      swap1\n      div\n      0xffffffffffffffffffffffffffffffffffffffff\n      and\n        /* \"RealEstateToken.sol\":1561:1580  msg.sender == owner */\n      0xffffffffffffffffffffffffffffffffffffffff\n      and\n        /* \"RealEstateToken.sol\":1561:1571  msg.sender */\n      caller\n        /* \"RealEstateToken.sol\":1561:1580  msg.sender == owner */\n      0xffffffffffffffffffffffffffffffffffffffff\n      and\n      eq\n        /* \"RealEstateToken.sol\":1553:1623  require(msg.sender == owner, \"Only the owner can perform this action\") */\n      tag_204\n      jumpi\n      mload(0x40)\n      0x08c379a000000000000000000000000000000000000000000000000000000000\n      dup2\n      mstore\n      0x04\n      add\n      tag_205\n      swap1\n      tag_206\n      jump\t// in\n    tag_205:\n      mload(0x40)\n      dup1\n      swap2\n      sub\n      swap1\n      revert\n    tag_204:\n        /* \"RealEstateToken.sol\":1734:1743  _newPrice */\n      dup1\n        /* \"RealEstateToken.sol\":1721:1731  sharePrice */\n      0x07\n        /* \"RealEstateToken.sol\":1721:1743  sharePrice = _newPrice */\n      dup2\n      swap1\n      sstore\n      pop\n        /* \"RealEstateToken.sol\":1651:1751  function setSharePrice(uint256 _newPrice) public onlyOwner {... */\n      pop\n      jump\t// out\n        /* \"@openzeppelin/contracts/token/ERC20/ERC20.sol\":3144:3241  function totalSupply() public view virtual returns (uint256) {... */\n    tag_75:\n        /* \"@openzeppelin/contracts/token/ERC20/ERC20.sol\":3196:3203  uint256 */\n      0x00\n        /* \"@openzeppelin/contracts/token/ERC20/ERC20.sol\":3222:3234  _totalSupply */\n      sload(0x02)\n        /* \"@openzeppelin/contracts/token/ERC20/ERC20.sol\":3215:3234  return _totalSupply */\n      swap1\n      pop\n        /* \"@openzeppelin/contracts/token/ERC20/ERC20.sol\":3144:3241  function totalSupply() public view virtual returns (uint256) {... */\n      swap1\n      jump\t// out\n        /* \"RealEstateToken.sol\":2306:2703  function updatePropertyDetails(uint256 _propertyId, uint256 _newListPrice, uint256 _newEstimatedPrice) public onlyOwner {... */\n    tag_81:\n        /* \"RealEstateToken.sol\":1575:1580  owner */\n      0x05\n      0x00\n      swap1\n      sload\n      swap1\n      0x0100\n      exp\n      swap1\n      div\n      0xffffffffffffffffffffffffffffffffffffffff\n      and\n        /* \"RealEstateToken.sol\":1561:1580  msg.sender == owner */\n      0xffffffffffffffffffffffffffffffffffffffff\n      and\n        /* \"RealEstateToken.sol\":1561:1571  msg.sender */\n      caller\n        /* \"RealEstateToken.sol\":1561:1580  msg.sender == owner */\n      0xffffffffffffffffffffffffffffffffffffffff\n      and\n      eq\n        /* \"RealEstateToken.sol\":1553:1623  require(msg.sender == owner, \"Only the owner can perform this action\") */\n      tag_210\n      jumpi\n      mload(0x40)\n      0x08c379a000000000000000000000000000000000000000000000000000000000\n      dup2\n      mstore\n      0x04\n      add\n      tag_211\n      swap1\n      tag_206\n      jump\t// in\n    tag_211:\n      mload(0x40)\n      dup1\n      swap2\n      sub\n      swap1\n      revert\n    tag_210:\n        /* \"RealEstateToken.sol\":2541:2554  _newListPrice */\n      dup2\n        /* \"RealEstateToken.sol\":2505:2515  properties */\n      0x0a\n        /* \"RealEstateToken.sol\":2505:2528  properties[_propertyId] */\n      0x00\n        /* \"RealEstateToken.sol\":2516:2527  _propertyId */\n      dup6\n        /* \"RealEstateToken.sol\":2505:2528  properties[_propertyId] */\n      dup2\n      mstore\n      0x20\n      add\n      swap1\n      dup2\n      mstore\n      0x20\n      add\n      0x00\n      keccak256\n        /* \"RealEstateToken.sol\":2505:2538  properties[_propertyId].listPrice */\n      0x02\n      add\n        /* \"RealEstateToken.sol\":2505:2554  properties[_propertyId].listPrice = _newListPrice */\n      dup2\n      swap1\n      sstore\n      pop\n        /* \"RealEstateToken.sol\":2606:2624  _newEstimatedPrice */\n      dup1\n        /* \"RealEstateToken.sol\":2565:2575  properties */\n      0x0a\n        /* \"RealEstateToken.sol\":2565:2588  properties[_propertyId] */\n      0x00\n        /* \"RealEstateToken.sol\":2576:2587  _propertyId */\n      dup6\n        /* \"RealEstateToken.sol\":2565:2588  properties[_propertyId] */\n      dup2\n      mstore\n      0x20\n      add\n      swap1\n      dup2\n      mstore\n      0x20\n      add\n      0x00\n      keccak256\n        /* \"RealEstateToken.sol\":2565:2603  properties[_propertyId].estimatedPrice */\n      0x03\n      add\n        /* \"RealEstateToken.sol\":2565:2624  properties[_propertyId].estimatedPrice = _newEstimatedPrice */\n      dup2\n      swap1\n      sstore\n      pop\n        /* \"RealEstateToken.sol\":2306:2703  function updatePropertyDetails(uint256 _propertyId, uint256 _newListPrice, uint256 _newEstimatedPrice) public onlyOwner {... */\n      pop\n      pop\n      pop\n      jump\t// out\n        /* \"@openzeppelin/contracts/token/ERC20/ERC20.sol\":5039:5283  function transferFrom(address from, address to, uint256 value) public virtual returns (bool) {... */\n    tag_86:\n        /* \"@openzeppelin/contracts/token/ERC20/ERC20.sol\":5126:5130  bool */\n      0x00\n        /* \"@openzeppelin/contracts/token/ERC20/ERC20.sol\":5142:5157  address spender */\n      dup1\n        /* \"@openzeppelin/contracts/token/ERC20/ERC20.sol\":5160:5172  _msgSender() */\n      tag_214\n        /* \"@openzeppelin/contracts/token/ERC20/ERC20.sol\":5160:5170  _msgSender */\n      tag_199\n        /* \"@openzeppelin/contracts/token/ERC20/ERC20.sol\":5160:5172  _msgSender() */\n      jump\t// in\n    tag_214:\n        /* \"@openzeppelin/contracts/token/ERC20/ERC20.sol\":5142:5172  address spender = _msgSender() */\n      swap1\n      pop\n        /* \"@openzeppelin/contracts/token/ERC20/ERC20.sol\":5182:5219  _spendAllowance(from, spender, value) */\n      tag_215\n        /* \"@openzeppelin/contracts/token/ERC20/ERC20.sol\":5198:5202  from */\n      dup6\n        /* \"@openzeppelin/contracts/token/ERC20/ERC20.sol\":5204:5211  spender */\n      dup3\n        /* \"@openzeppelin/contracts/token/ERC20/ERC20.sol\":5213:5218  value */\n      dup6\n        /* \"@openzeppelin/contracts/token/ERC20/ERC20.sol\":5182:5197  _spendAllowance */\n      tag_216\n        /* \"@openzeppelin/contracts/token/ERC20/ERC20.sol\":5182:5219  _spendAllowance(from, spender, value) */\n      jump\t// in\n    tag_215:\n        /* \"@openzeppelin/contracts/token/ERC20/ERC20.sol\":5229:5255  _transfer(from, to, value) */\n      tag_217\n        /* \"@openzeppelin/contracts/token/ERC20/ERC20.sol\":5239:5243  from */\n      dup6\n        /* \"@openzeppelin/contracts/token/ERC20/ERC20.sol\":5245:5247  to */\n      dup6\n        /* \"@openzeppelin/contracts/token/ERC20/ERC20.sol\":5249:5254  value */\n      dup6\n        /* \"@openzeppelin/contracts/token/ERC20/ERC20.sol\":5229:5238  _transfer */\n      tag_218\n        /* \"@openzeppelin/contracts/token/ERC20/ERC20.sol\":5229:5255  _transfer(from, to, value) */\n      jump\t// in\n    tag_217:\n        /* \"@openzeppelin/contracts/token/ERC20/ERC20.sol\":5272:5276  true */\n      0x01\n        /* \"@openzeppelin/contracts/token/ERC20/ERC20.sol\":5265:5276  return true */\n      swap2\n      pop\n      pop\n        /* \"@openzeppelin/contracts/token/ERC20/ERC20.sol\":5039:5283  function transferFrom(address from, address to, uint256 value) public virtual returns (bool) {... */\n      swap4\n      swap3\n      pop\n      pop\n      pop\n      jump\t// out\n        /* \"RealEstateToken.sol\":5855:5987  function getPropertyListPrice(uint256 _propertyId) public view returns (uint256) {... */\n    tag_91:\n        /* \"RealEstateToken.sol\":5927:5934  uint256 */\n      0x00\n        /* \"RealEstateToken.sol\":5950:5960  properties */\n      0x0a\n        /* \"RealEstateToken.sol\":5950:5973  properties[_propertyId] */\n      0x00\n        /* \"RealEstateToken.sol\":5961:5972  _propertyId */\n      dup4\n        /* \"RealEstateToken.sol\":5950:5973  properties[_propertyId] */\n      dup2\n      mstore\n      0x20\n      add\n      swap1\n      dup2\n      mstore\n      0x20\n      add\n      0x00\n      keccak256\n        /* \"RealEstateToken.sol\":5950:5983  properties[_propertyId].listPrice */\n      0x02\n      add\n      sload\n        /* \"RealEstateToken.sol\":5943:5983  return properties[_propertyId].listPrice */\n      swap1\n      pop\n        /* \"RealEstateToken.sol\":5855:5987  function getPropertyListPrice(uint256 _propertyId) public view returns (uint256) {... */\n      swap2\n      swap1\n      pop\n      jump\t// out\n        /* \"@openzeppelin/contracts/token/ERC20/ERC20.sol\":3002:3084  function decimals() public view virtual returns (uint8) {... */\n    tag_95:\n        /* \"@openzeppelin/contracts/token/ERC20/ERC20.sol\":3051:3056  uint8 */\n      0x00\n        /* \"@openzeppelin/contracts/token/ERC20/ERC20.sol\":3075:3077  18 */\n      0x12\n        /* \"@openzeppelin/contracts/token/ERC20/ERC20.sol\":3068:3077  return 18 */\n      swap1\n      pop\n        /* \"@openzeppelin/contracts/token/ERC20/ERC20.sol\":3002:3084  function decimals() public view virtual returns (uint8) {... */\n      swap1\n      jump\t// out\n        /* \"RealEstateToken.sol\":188:214  uint256 public totalShares */\n    tag_100:\n      sload(0x06)\n      dup2\n      jump\t// out\n        /* \"RealEstateToken.sol\":1110:1153  mapping(uint256 => Auction) public auctions */\n    tag_105:\n      mstore(0x20, 0x0b)\n      dup1\n      0x00\n      mstore\n      keccak256(0x00, 0x40)\n      0x00\n      swap2\n      pop\n      swap1\n      pop\n      dup1\n      0x00\n      add\n      sload\n      swap1\n      dup1\n      0x01\n      add\n      0x00\n      swap1\n      sload\n      swap1\n      0x0100\n      exp\n      swap1\n      div\n      0xffffffffffffffffffffffffffffffffffffffff\n      and\n      swap1\n      dup1\n      0x02\n      add\n      sload\n      swap1\n      dup1\n      0x03\n      add\n      0x00\n      swap1\n      sload\n      swap1\n      0x0100\n      exp\n      swap1\n      div\n      0xff\n      and\n      swap1\n      pop\n      dup5\n      jump\t// out\n        /* \"@openzeppelin/contracts/token/ERC20/ERC20.sol\":3299:3415  function balanceOf(address account) public view virtual returns (uint256) {... */\n    tag_112:\n        /* \"@openzeppelin/contracts/token/ERC20/ERC20.sol\":3364:3371  uint256 */\n      0x00\n        /* \"@openzeppelin/contracts/token/ERC20/ERC20.sol\":3390:3399  _balances */\n      dup1\n        /* \"@openzeppelin/contracts/token/ERC20/ERC20.sol\":3390:3408  _balances[account] */\n      0x00\n        /* \"@openzeppelin/contracts/token/ERC20/ERC20.sol\":3400:3407  account */\n      dup4\n        /* \"@openzeppelin/contracts/token/ERC20/ERC20.sol\":3390:3408  _balances[account] */\n      0xffffffffffffffffffffffffffffffffffffffff\n      and\n      0xffffffffffffffffffffffffffffffffffffffff\n      and\n      dup2\n      mstore\n      0x20\n      add\n      swap1\n      dup2\n      mstore\n      0x20\n      add\n      0x00\n      keccak256\n      sload\n        /* \"@openzeppelin/contracts/token/ERC20/ERC20.sol\":3383:3408  return _balances[account] */\n      swap1\n      pop\n        /* \"@openzeppelin/contracts/token/ERC20/ERC20.sol\":3299:3415  function balanceOf(address account) public view virtual returns (uint256) {... */\n      swap2\n      swap1\n      pop\n      jump\t// out\n        /* \"RealEstateToken.sol\":5707:5851  function getPropertySharesAvailable(uint256 _propertyId) public view returns (uint256) {... */\n    tag_117:\n        /* \"RealEstateToken.sol\":5785:5792  uint256 */\n      0x00\n        /* \"RealEstateToken.sol\":5808:5818  properties */\n      0x0a\n        /* \"RealEstateToken.sol\":5808:5831  properties[_propertyId] */\n      0x00\n        /* \"RealEstateToken.sol\":5819:5830  _propertyId */\n      dup4\n        /* \"RealEstateToken.sol\":5808:5831  properties[_propertyId] */\n      dup2\n      mstore\n      0x20\n      add\n      swap1\n      dup2\n      mstore\n      0x20\n      add\n      0x00\n      keccak256\n        /* \"RealEstateToken.sol\":5808:5847  properties[_propertyId].sharesAvailable */\n      0x01\n      add\n      sload\n        /* \"RealEstateToken.sol\":5801:5847  return properties[_propertyId].sharesAvailable */\n      swap1\n      pop\n        /* \"RealEstateToken.sol\":5707:5851  function getPropertySharesAvailable(uint256 _propertyId) public view returns (uint256) {... */\n      swap2\n      swap1\n      pop\n      jump\t// out\n        /* \"RealEstateToken.sol\":221:246  uint256 public sharePrice */\n    tag_121:\n      sload(0x07)\n      dup2\n      jump\t// out\n        /* \"RealEstateToken.sol\":5991:6133  function getPropertyEstimatedPrice(uint256 _propertyId) public view returns (uint256) {... */\n    tag_126:\n        /* \"RealEstateToken.sol\":6068:6075  uint256 */\n      0x00\n        /* \"RealEstateToken.sol\":6091:6101  properties */\n      0x0a\n        /* \"RealEstateToken.sol\":6091:6114  properties[_propertyId] */\n      0x00\n        /* \"RealEstateToken.sol\":6102:6113  _propertyId */\n      dup4\n        /* \"RealEstateToken.sol\":6091:6114  properties[_propertyId] */\n      dup2\n      mstore\n      0x20\n      add\n      swap1\n      dup2\n      mstore\n      0x20\n      add\n      0x00\n      keccak256\n        /* \"RealEstateToken.sol\":6091:6129  properties[_propertyId].estimatedPrice */\n      0x03\n      add\n      sload\n        /* \"RealEstateToken.sol\":6084:6129  return properties[_propertyId].estimatedPrice */\n      swap1\n      pop\n        /* \"RealEstateToken.sol\":5991:6133  function getPropertyEstimatedPrice(uint256 _propertyId) public view returns (uint256) {... */\n      swap2\n      swap1\n      pop\n      jump\t// out\n        /* \"RealEstateToken.sol\":161:181  address public owner */\n    tag_130:\n      0x05\n      0x00\n      swap1\n      sload\n      swap1\n      0x0100\n      exp\n      swap1\n      div\n      0xffffffffffffffffffffffffffffffffffffffff\n      and\n      dup2\n      jump\t// out\n        /* \"@openzeppelin/contracts/token/ERC20/ERC20.sol\":2276:2369  function symbol() public view virtual returns (string memory) {... */\n    tag_135:\n        /* \"@openzeppelin/contracts/token/ERC20/ERC20.sol\":2323:2336  string memory */\n      0x60\n        /* \"@openzeppelin/contracts/token/ERC20/ERC20.sol\":2355:2362  _symbol */\n      0x04\n        /* \"@openzeppelin/contracts/token/ERC20/ERC20.sol\":2348:2362  return _symbol */\n      dup1\n      sload\n      tag_225\n      swap1\n      tag_192\n      jump\t// in\n    tag_225:\n      dup1\n      0x1f\n      add\n      0x20\n      dup1\n      swap2\n      div\n      mul\n      0x20\n      add\n      mload(0x40)\n      swap1\n      dup2\n      add\n      0x40\n      mstore\n      dup1\n      swap3\n      swap2\n      swap1\n      dup2\n      dup2\n      mstore\n      0x20\n      add\n      dup3\n      dup1\n      sload\n      tag_226\n      swap1\n      tag_192\n      jump\t// in\n    tag_226:\n      dup1\n      iszero\n      tag_227\n      jumpi\n      dup1\n      0x1f\n      lt\n      tag_228\n      jumpi\n      0x0100\n      dup1\n      dup4\n      sload\n      div\n      mul\n      dup4\n      mstore\n      swap2\n      0x20\n      add\n      swap2\n      jump(tag_227)\n    tag_228:\n      dup3\n      add\n      swap2\n      swap1\n      0x00\n      mstore\n      keccak256(0x00, 0x20)\n      swap1\n    tag_229:\n      dup2\n      sload\n      dup2\n      mstore\n      swap1\n      0x01\n      add\n      swap1\n      0x20\n      add\n      dup1\n      dup4\n      gt\n      tag_229\n      jumpi\n      dup3\n      swap1\n      sub\n      0x1f\n      and\n      dup3\n      add\n      swap2\n    tag_227:\n      pop\n      pop\n      pop\n      pop\n      pop\n      swap1\n      pop\n        /* \"@openzeppelin/contracts/token/ERC20/ERC20.sol\":2276:2369  function symbol() public view virtual returns (string memory) {... */\n      swap1\n      jump\t// out\n        /* \"RealEstateToken.sol\":3343:3884  function placeBid(uint256 _auctionId) external payable {... */\n    tag_139:\n        /* \"RealEstateToken.sol\":3418:3426  auctions */\n      0x0b\n        /* \"RealEstateToken.sol\":3418:3438  auctions[_auctionId] */\n      0x00\n        /* \"RealEstateToken.sol\":3427:3437  _auctionId */\n      dup3\n        /* \"RealEstateToken.sol\":3418:3438  auctions[_auctionId] */\n      dup2\n      mstore\n      0x20\n      add\n      swap1\n      dup2\n      mstore\n      0x20\n      add\n      0x00\n      keccak256\n        /* \"RealEstateToken.sol\":3418:3444  auctions[_auctionId].ended */\n      0x03\n      add\n      0x00\n      swap1\n      sload\n      swap1\n      0x0100\n      exp\n      swap1\n      div\n      0xff\n      and\n        /* \"RealEstateToken.sol\":3417:3444  !auctions[_auctionId].ended */\n      iszero\n        /* \"RealEstateToken.sol\":3409:3470  require(!auctions[_auctionId].ended, \"Auction already ended\") */\n      tag_231\n      jumpi\n      mload(0x40)\n      0x08c379a000000000000000000000000000000000000000000000000000000000\n      dup2\n      mstore\n      0x04\n      add\n      tag_232\n      swap1\n      tag_233\n      jump\t// in\n    tag_232:\n      mload(0x40)\n      dup1\n      swap2\n      sub\n      swap1\n      revert\n    tag_231:\n        /* \"RealEstateToken.sol\":3501:3509  auctions */\n      0x0b\n        /* \"RealEstateToken.sol\":3501:3521  auctions[_auctionId] */\n      0x00\n        /* \"RealEstateToken.sol\":3510:3520  _auctionId */\n      dup3\n        /* \"RealEstateToken.sol\":3501:3521  auctions[_auctionId] */\n      dup2\n      mstore\n      0x20\n      add\n      swap1\n      dup2\n      mstore\n      0x20\n      add\n      0x00\n      keccak256\n        /* \"RealEstateToken.sol\":3501:3532  auctions[_auctionId].highestBid */\n      0x02\n      add\n      sload\n        /* \"RealEstateToken.sol\":3489:3498  msg.value */\n      callvalue\n        /* \"RealEstateToken.sol\":3489:3532  msg.value > auctions[_auctionId].highestBid */\n      gt\n        /* \"RealEstateToken.sol\":3481:3584  require(msg.value > auctions[_auctionId].highestBid, \"Bid must be higher than the current highest bid\") */\n      tag_234\n      jumpi\n      mload(0x40)\n      0x08c379a000000000000000000000000000000000000000000000000000000000\n      dup2\n      mstore\n      0x04\n      add\n      tag_235\n      swap1\n      tag_236\n      jump\t// in\n    tag_235:\n      mload(0x40)\n      dup1\n      swap2\n      sub\n      swap1\n      revert\n    tag_234:\n        /* \"RealEstateToken.sol\":3647:3648  0 */\n      0x00\n        /* \"RealEstateToken.sol\":3601:3649  auctions[_auctionId].highestBidder != address(0) */\n      0xffffffffffffffffffffffffffffffffffffffff\n      and\n        /* \"RealEstateToken.sol\":3601:3609  auctions */\n      0x0b\n        /* \"RealEstateToken.sol\":3601:3621  auctions[_auctionId] */\n      0x00\n        /* \"RealEstateToken.sol\":3610:3620  _auctionId */\n      dup4\n        /* \"RealEstateToken.sol\":3601:3621  auctions[_auctionId] */\n      dup2\n      mstore\n      0x20\n      add\n      swap1\n      dup2\n      mstore\n      0x20\n      add\n      0x00\n      keccak256\n        /* \"RealEstateToken.sol\":3601:3635  auctions[_auctionId].highestBidder */\n      0x01\n      add\n      0x00\n      swap1\n      sload\n      swap1\n      0x0100\n      exp\n      swap1\n      div\n      0xffffffffffffffffffffffffffffffffffffffff\n      and\n        /* \"RealEstateToken.sol\":3601:3649  auctions[_auctionId].highestBidder != address(0) */\n      0xffffffffffffffffffffffffffffffffffffffff\n      and\n      eq\n        /* \"RealEstateToken.sol\":3597:3763  if (auctions[_auctionId].highestBidder != address(0)) {... */\n      tag_237\n      jumpi\n        /* \"RealEstateToken.sol\":3674:3682  auctions */\n      0x0b\n        /* \"RealEstateToken.sol\":3674:3694  auctions[_auctionId] */\n      0x00\n        /* \"RealEstateToken.sol\":3683:3693  _auctionId */\n      dup3\n        /* \"RealEstateToken.sol\":3674:3694  auctions[_auctionId] */\n      dup2\n      mstore\n      0x20\n      add\n      swap1\n      dup2\n      mstore\n      0x20\n      add\n      0x00\n      keccak256\n        /* \"RealEstateToken.sol\":3674:3708  auctions[_auctionId].highestBidder */\n      0x01\n      add\n      0x00\n      swap1\n      sload\n      swap1\n      0x0100\n      exp\n      swap1\n      div\n      0xffffffffffffffffffffffffffffffffffffffff\n      and\n        /* \"RealEstateToken.sol\":3666:3718  payable(auctions[_auctionId].highestBidder).transfer */\n      0xffffffffffffffffffffffffffffffffffffffff\n      and\n        /* \"RealEstateToken.sol\":3666:3751  payable(auctions[_auctionId].highestBidder).transfer(auctions[_auctionId].highestBid) */\n      0x08fc\n        /* \"RealEstateToken.sol\":3719:3727  auctions */\n      0x0b\n        /* \"RealEstateToken.sol\":3719:3739  auctions[_auctionId] */\n      0x00\n        /* \"RealEstateToken.sol\":3728:3738  _auctionId */\n      dup5\n        /* \"RealEstateToken.sol\":3719:3739  auctions[_auctionId] */\n      dup2\n      mstore\n      0x20\n      add\n      swap1\n      dup2\n      mstore\n      0x20\n      add\n      0x00\n      keccak256\n        /* \"RealEstateToken.sol\":3719:3750  auctions[_auctionId].highestBid */\n      0x02\n      add\n      sload\n        /* \"RealEstateToken.sol\":3666:3751  payable(auctions[_auctionId].highestBidder).transfer(auctions[_auctionId].highestBid) */\n      swap1\n      dup2\n      iszero\n      mul\n      swap1\n      mload(0x40)\n      0x00\n      mload(0x40)\n      dup1\n      dup4\n      sub\n      dup2\n      dup6\n      dup9\n      dup9\n      call\n      swap4\n      pop\n      pop\n      pop\n      pop\n      iszero\n      dup1\n      iszero\n      tag_239\n      jumpi\n      returndatasize\n      0x00\n      dup1\n      returndatacopy\n      revert(0x00, returndatasize)\n    tag_239:\n      pop\n        /* \"RealEstateToken.sol\":3597:3763  if (auctions[_auctionId].highestBidder != address(0)) {... */\n    tag_237:\n        /* \"RealEstateToken.sol\":3812:3822  msg.sender */\n      caller\n        /* \"RealEstateToken.sol\":3775:3783  auctions */\n      0x0b\n        /* \"RealEstateToken.sol\":3775:3795  auctions[_auctionId] */\n      0x00\n        /* \"RealEstateToken.sol\":3784:3794  _auctionId */\n      dup4\n        /* \"RealEstateToken.sol\":3775:3795  auctions[_auctionId] */\n      dup2\n      mstore\n      0x20\n      add\n      swap1\n      dup2\n      mstore\n      0x20\n      add\n      0x00\n      keccak256\n        /* \"RealEstateToken.sol\":3775:3809  auctions[_auctionId].highestBidder */\n      0x01\n      add\n      0x00\n        /* \"RealEstateToken.sol\":3775:3822  auctions[_auctionId].highestBidder = msg.sender */\n      0x0100\n      exp\n      dup2\n      sload\n      dup2\n      0xffffffffffffffffffffffffffffffffffffffff\n      mul\n      not\n      and\n      swap1\n      dup4\n      0xffffffffffffffffffffffffffffffffffffffff\n      and\n      mul\n      or\n      swap1\n      sstore\n      pop\n        /* \"RealEstateToken.sol\":3867:3876  msg.value */\n      callvalue\n        /* \"RealEstateToken.sol\":3833:3841  auctions */\n      0x0b\n        /* \"RealEstateToken.sol\":3833:3853  auctions[_auctionId] */\n      0x00\n        /* \"RealEstateToken.sol\":3842:3852  _auctionId */\n      dup4\n        /* \"RealEstateToken.sol\":3833:3853  auctions[_auctionId] */\n      dup2\n      mstore\n      0x20\n      add\n      swap1\n      dup2\n      mstore\n      0x20\n      add\n      0x00\n      keccak256\n        /* \"RealEstateToken.sol\":3833:3864  auctions[_auctionId].highestBid */\n      0x02\n      add\n        /* \"RealEstateToken.sol\":3833:3876  auctions[_auctionId].highestBid = msg.value */\n      dup2\n      swap1\n      sstore\n      pop\n        /* \"RealEstateToken.sol\":3343:3884  function placeBid(uint256 _auctionId) external payable {... */\n      pop\n      jump\t// out\n        /* \"@openzeppelin/contracts/token/ERC20/ERC20.sol\":3610:3788  function transfer(address to, uint256 value) public virtual returns (bool) {... */\n    tag_143:\n        /* \"@openzeppelin/contracts/token/ERC20/ERC20.sol\":3679:3683  bool */\n      0x00\n        /* \"@openzeppelin/contracts/token/ERC20/ERC20.sol\":3695:3708  address owner */\n      dup1\n        /* \"@openzeppelin/contracts/token/ERC20/ERC20.sol\":3711:3723  _msgSender() */\n      tag_241\n        /* \"@openzeppelin/contracts/token/ERC20/ERC20.sol\":3711:3721  _msgSender */\n      tag_199\n        /* \"@openzeppelin/contracts/token/ERC20/ERC20.sol\":3711:3723  _msgSender() */\n      jump\t// in\n    tag_241:\n        /* \"@openzeppelin/contracts/token/ERC20/ERC20.sol\":3695:3723  address owner = _msgSender() */\n      swap1\n      pop\n        /* \"@openzeppelin/contracts/token/ERC20/ERC20.sol\":3733:3760  _transfer(owner, to, value) */\n      tag_242\n        /* \"@openzeppelin/contracts/token/ERC20/ERC20.sol\":3743:3748  owner */\n      dup2\n        /* \"@openzeppelin/contracts/token/ERC20/ERC20.sol\":3750:3752  to */\n      dup6\n        /* \"@openzeppelin/contracts/token/ERC20/ERC20.sol\":3754:3759  value */\n      dup6\n        /* \"@openzeppelin/contracts/token/ERC20/ERC20.sol\":3733:3742  _transfer */\n      tag_218\n        /* \"@openzeppelin/contracts/token/ERC20/ERC20.sol\":3733:3760  _transfer(owner, to, value) */\n      jump\t// in\n    tag_242:\n        /* \"@openzeppelin/contracts/token/ERC20/ERC20.sol\":3777:3781  true */\n      0x01\n        /* \"@openzeppelin/contracts/token/ERC20/ERC20.sol\":3770:3781  return true */\n      swap2\n      pop\n      pop\n        /* \"@openzeppelin/contracts/token/ERC20/ERC20.sol\":3610:3788  function transfer(address to, uint256 value) public virtual returns (bool) {... */\n      swap3\n      swap2\n      pop\n      pop\n      jump\t// out\n        /* \"RealEstateToken.sol\":3892:4905  function endAuction(uint256 _auctionId) public {... */\n    tag_148:\n        /* \"RealEstateToken.sol\":4011:4021  msg.sender */\n      caller\n        /* \"RealEstateToken.sol\":3958:4021  properties[auctions[_auctionId].propertyId].owner == msg.sender */\n      0xffffffffffffffffffffffffffffffffffffffff\n      and\n        /* \"RealEstateToken.sol\":3958:3968  properties */\n      0x0a\n        /* \"RealEstateToken.sol\":3958:4001  properties[auctions[_auctionId].propertyId] */\n      0x00\n        /* \"RealEstateToken.sol\":3969:3977  auctions */\n      0x0b\n        /* \"RealEstateToken.sol\":3969:3989  auctions[_auctionId] */\n      0x00\n        /* \"RealEstateToken.sol\":3978:3988  _auctionId */\n      dup6\n        /* \"RealEstateToken.sol\":3969:3989  auctions[_auctionId] */\n      dup2\n      mstore\n      0x20\n      add\n      swap1\n      dup2\n      mstore\n      0x20\n      add\n      0x00\n      keccak256\n        /* \"RealEstateToken.sol\":3969:4000  auctions[_auctionId].propertyId */\n      0x00\n      add\n      sload\n        /* \"RealEstateToken.sol\":3958:4001  properties[auctions[_auctionId].propertyId] */\n      dup2\n      mstore\n      0x20\n      add\n      swap1\n      dup2\n      mstore\n      0x20\n      add\n      0x00\n      keccak256\n        /* \"RealEstateToken.sol\":3958:4007  properties[auctions[_auctionId].propertyId].owner */\n      0x00\n      add\n      0x00\n      swap1\n      sload\n      swap1\n      0x0100\n      exp\n      swap1\n      div\n      0xffffffffffffffffffffffffffffffffffffffff\n      and\n        /* \"RealEstateToken.sol\":3958:4021  properties[auctions[_auctionId].propertyId].owner == msg.sender */\n      0xffffffffffffffffffffffffffffffffffffffff\n      and\n      eq\n        /* \"RealEstateToken.sol\":3950:4069  require(properties[auctions[_auctionId].propertyId].owner == msg.sender, \"Only the property owner can end the auction\") */\n      tag_244\n      jumpi\n      mload(0x40)\n      0x08c379a000000000000000000000000000000000000000000000000000000000\n      dup2\n      mstore\n      0x04\n      add\n      tag_245\n      swap1\n      tag_246\n      jump\t// in\n    tag_245:\n      mload(0x40)\n      dup1\n      swap2\n      sub\n      swap1\n      revert\n    tag_244:\n        /* \"RealEstateToken.sol\":4089:4097  auctions */\n      0x0b\n        /* \"RealEstateToken.sol\":4089:4109  auctions[_auctionId] */\n      0x00\n        /* \"RealEstateToken.sol\":4098:4108  _auctionId */\n      dup3\n        /* \"RealEstateToken.sol\":4089:4109  auctions[_auctionId] */\n      dup2\n      mstore\n      0x20\n      add\n      swap1\n      dup2\n      mstore\n      0x20\n      add\n      0x00\n      keccak256\n        /* \"RealEstateToken.sol\":4089:4115  auctions[_auctionId].ended */\n      0x03\n      add\n      0x00\n      swap1\n      sload\n      swap1\n      0x0100\n      exp\n      swap1\n      div\n      0xff\n      and\n        /* \"RealEstateToken.sol\":4088:4115  !auctions[_auctionId].ended */\n      iszero\n        /* \"RealEstateToken.sol\":4080:4141  require(!auctions[_auctionId].ended, \"Auction already ended\") */\n      tag_247\n      jumpi\n      mload(0x40)\n      0x08c379a000000000000000000000000000000000000000000000000000000000\n      dup2\n      mstore\n      0x04\n      add\n      tag_248\n      swap1\n      tag_233\n      jump\t// in\n    tag_248:\n      mload(0x40)\n      dup1\n      swap2\n      sub\n      swap1\n      revert\n    tag_247:\n        /* \"RealEstateToken.sol\":4183:4187  true */\n      0x01\n        /* \"RealEstateToken.sol\":4154:4162  auctions */\n      0x0b\n        /* \"RealEstateToken.sol\":4154:4174  auctions[_auctionId] */\n      0x00\n        /* \"RealEstateToken.sol\":4163:4173  _auctionId */\n      dup4\n        /* \"RealEstateToken.sol\":4154:4174  auctions[_auctionId] */\n      dup2\n      mstore\n      0x20\n      add\n      swap1\n      dup2\n      mstore\n      0x20\n      add\n      0x00\n      keccak256\n        /* \"RealEstateToken.sol\":4154:4180  auctions[_auctionId].ended */\n      0x03\n      add\n      0x00\n        /* \"RealEstateToken.sol\":4154:4187  auctions[_auctionId].ended = true */\n      0x0100\n      exp\n      dup2\n      sload\n      dup2\n      0xff\n      mul\n      not\n      and\n      swap1\n      dup4\n      iszero\n      iszero\n      mul\n      or\n      swap1\n      sstore\n      pop\n        /* \"RealEstateToken.sol\":4250:4258  auctions */\n      0x0b\n        /* \"RealEstateToken.sol\":4250:4270  auctions[_auctionId] */\n      0x00\n        /* \"RealEstateToken.sol\":4259:4269  _auctionId */\n      dup3\n        /* \"RealEstateToken.sol\":4250:4270  auctions[_auctionId] */\n      dup2\n      mstore\n      0x20\n      add\n      swap1\n      dup2\n      mstore\n      0x20\n      add\n      0x00\n      keccak256\n        /* \"RealEstateToken.sol\":4250:4284  auctions[_auctionId].highestBidder */\n      0x01\n      add\n      0x00\n      swap1\n      sload\n      swap1\n      0x0100\n      exp\n      swap1\n      div\n      0xffffffffffffffffffffffffffffffffffffffff\n      and\n        /* \"RealEstateToken.sol\":4198:4208  properties */\n      0x0a\n        /* \"RealEstateToken.sol\":4198:4241  properties[auctions[_auctionId].propertyId] */\n      0x00\n        /* \"RealEstateToken.sol\":4209:4217  auctions */\n      0x0b\n        /* \"RealEstateToken.sol\":4209:4229  auctions[_auctionId] */\n      0x00\n        /* \"RealEstateToken.sol\":4218:4228  _auctionId */\n      dup6\n        /* \"RealEstateToken.sol\":4209:4229  auctions[_auctionId] */\n      dup2\n      mstore\n      0x20\n      add\n      swap1\n      dup2\n      mstore\n      0x20\n      add\n      0x00\n      keccak256\n        /* \"RealEstateToken.sol\":4209:4240  auctions[_auctionId].propertyId */\n      0x00\n      add\n      sload\n        /* \"RealEstateToken.sol\":4198:4241  properties[auctions[_auctionId].propertyId] */\n      dup2\n      mstore\n      0x20\n      add\n      swap1\n      dup2\n      mstore\n      0x20\n      add\n      0x00\n      keccak256\n        /* \"RealEstateToken.sol\":4198:4247  properties[auctions[_auctionId].propertyId].owner */\n      0x00\n      add\n      0x00\n        /* \"RealEstateToken.sol\":4198:4284  properties[auctions[_auctionId].propertyId].owner = auctions[_auctionId].highestBidder */\n      0x0100\n      exp\n      dup2\n      sload\n      dup2\n      0xffffffffffffffffffffffffffffffffffffffff\n      mul\n      not\n      and\n      swap1\n      dup4\n      0xffffffffffffffffffffffffffffffffffffffff\n      and\n      mul\n      or\n      swap1\n      sstore\n      pop\n        /* \"RealEstateToken.sol\":4353:4358  false */\n      0x00\n        /* \"RealEstateToken.sol\":4295:4305  properties */\n      0x0a\n        /* \"RealEstateToken.sol\":4295:4338  properties[auctions[_auctionId].propertyId] */\n      0x00\n        /* \"RealEstateToken.sol\":4306:4314  auctions */\n      0x0b\n        /* \"RealEstateToken.sol\":4306:4326  auctions[_auctionId] */\n      0x00\n        /* \"RealEstateToken.sol\":4315:4325  _auctionId */\n      dup6\n        /* \"RealEstateToken.sol\":4306:4326  auctions[_auctionId] */\n      dup2\n      mstore\n      0x20\n      add\n      swap1\n      dup2\n      mstore\n      0x20\n      add\n      0x00\n      keccak256\n        /* \"RealEstateToken.sol\":4306:4337  auctions[_auctionId].propertyId */\n      0x00\n      add\n      sload\n        /* \"RealEstateToken.sol\":4295:4338  properties[auctions[_auctionId].propertyId] */\n      dup2\n      mstore\n      0x20\n      add\n      swap1\n      dup2\n      mstore\n      0x20\n      add\n      0x00\n      keccak256\n        /* \"RealEstateToken.sol\":4295:4350  properties[auctions[_auctionId].propertyId].isAuctioned */\n      0x05\n      add\n      0x01\n        /* \"RealEstateToken.sol\":4295:4358  properties[auctions[_auctionId].propertyId].isAuctioned = false */\n      0x0100\n      exp\n      dup2\n      sload\n      dup2\n      0xff\n      mul\n      not\n      and\n      swap1\n      dup4\n      iszero\n      iszero\n      mul\n      or\n      swap1\n      sstore\n      pop\n        /* \"RealEstateToken.sol\":4371:4519  _transfer(owner, auctions[_auctionId].highestBidder, properties[auctions[_auctionId].propertyId].investorShares[auctions[_auctionId].highestBidder]) */\n      tag_249\n        /* \"RealEstateToken.sol\":4381:4386  owner */\n      0x05\n      0x00\n      swap1\n      sload\n      swap1\n      0x0100\n      exp\n      swap1\n      div\n      0xffffffffffffffffffffffffffffffffffffffff\n      and\n        /* \"RealEstateToken.sol\":4388:4396  auctions */\n      0x0b\n        /* \"RealEstateToken.sol\":4388:4408  auctions[_auctionId] */\n      0x00\n        /* \"RealEstateToken.sol\":4397:4407  _auctionId */\n      dup5\n        /* \"RealEstateToken.sol\":4388:4408  auctions[_auctionId] */\n      dup2\n      mstore\n      0x20\n      add\n      swap1\n      dup2\n      mstore\n      0x20\n      add\n      0x00\n      keccak256\n        /* \"RealEstateToken.sol\":4388:4422  auctions[_auctionId].highestBidder */\n      0x01\n      add\n      0x00\n      swap1\n      sload\n      swap1\n      0x0100\n      exp\n      swap1\n      div\n      0xffffffffffffffffffffffffffffffffffffffff\n      and\n        /* \"RealEstateToken.sol\":4424:4434  properties */\n      0x0a\n        /* \"RealEstateToken.sol\":4424:4467  properties[auctions[_auctionId].propertyId] */\n      0x00\n        /* \"RealEstateToken.sol\":4435:4443  auctions */\n      0x0b\n        /* \"RealEstateToken.sol\":4435:4455  auctions[_auctionId] */\n      0x00\n        /* \"RealEstateToken.sol\":4444:4454  _auctionId */\n      dup8\n        /* \"RealEstateToken.sol\":4435:4455  auctions[_auctionId] */\n      dup2\n      mstore\n      0x20\n      add\n      swap1\n      dup2\n      mstore\n      0x20\n      add\n      0x00\n      keccak256\n        /* \"RealEstateToken.sol\":4435:4466  auctions[_auctionId].propertyId */\n      0x00\n      add\n      sload\n        /* \"RealEstateToken.sol\":4424:4467  properties[auctions[_auctionId].propertyId] */\n      dup2\n      mstore\n      0x20\n      add\n      swap1\n      dup2\n      mstore\n      0x20\n      add\n      0x00\n      keccak256\n        /* \"RealEstateToken.sol\":4424:4482  properties[auctions[_auctionId].propertyId].investorShares */\n      0x04\n      add\n        /* \"RealEstateToken.sol\":4424:4518  properties[auctions[_auctionId].propertyId].investorShares[auctions[_auctionId].highestBidder] */\n      0x00\n        /* \"RealEstateToken.sol\":4483:4491  auctions */\n      0x0b\n        /* \"RealEstateToken.sol\":4483:4503  auctions[_auctionId] */\n      0x00\n        /* \"RealEstateToken.sol\":4492:4502  _auctionId */\n      dup8\n        /* \"RealEstateToken.sol\":4483:4503  auctions[_auctionId] */\n      dup2\n      mstore\n      0x20\n      add\n      swap1\n      dup2\n      mstore\n      0x20\n      add\n      0x00\n      keccak256\n        /* \"RealEstateToken.sol\":4483:4517  auctions[_auctionId].highestBidder */\n      0x01\n      add\n      0x00\n      swap1\n      sload\n      swap1\n      0x0100\n      exp\n      swap1\n      div\n      0xffffffffffffffffffffffffffffffffffffffff\n      and\n        /* \"RealEstateToken.sol\":4424:4518  properties[auctions[_auctionId].propertyId].investorShares[auctions[_auctionId].highestBidder] */\n      0xffffffffffffffffffffffffffffffffffffffff\n      and\n      0xffffffffffffffffffffffffffffffffffffffff\n      and\n      dup2\n      mstore\n      0x20\n      add\n      swap1\n      dup2\n      mstore\n      0x20\n      add\n      0x00\n      keccak256\n      sload\n        /* \"RealEstateToken.sol\":4371:4380  _transfer */\n      tag_218\n        /* \"RealEstateToken.sol\":4371:4519  _transfer(owner, auctions[_auctionId].highestBidder, properties[auctions[_auctionId].propertyId].investorShares[auctions[_auctionId].highestBidder]) */\n      jump\t// in\n    tag_249:\n        /* \"RealEstateToken.sol\":4629:4637  auctions */\n      0x0b\n        /* \"RealEstateToken.sol\":4629:4649  auctions[_auctionId] */\n      0x00\n        /* \"RealEstateToken.sol\":4638:4648  _auctionId */\n      dup3\n        /* \"RealEstateToken.sol\":4629:4649  auctions[_auctionId] */\n      dup2\n      mstore\n      0x20\n      add\n      swap1\n      dup2\n      mstore\n      0x20\n      add\n      0x00\n      keccak256\n        /* \"RealEstateToken.sol\":4629:4663  auctions[_auctionId].highestBidder */\n      0x01\n      add\n      0x00\n      swap1\n      sload\n      swap1\n      0x0100\n      exp\n      swap1\n      div\n      0xffffffffffffffffffffffffffffffffffffffff\n      and\n        /* \"RealEstateToken.sol\":4531:4720  AuctionEnded(... */\n      0xffffffffffffffffffffffffffffffffffffffff\n      and\n        /* \"RealEstateToken.sol\":4558:4568  msg.sender */\n      caller\n        /* \"RealEstateToken.sol\":4531:4720  AuctionEnded(... */\n      0xffffffffffffffffffffffffffffffffffffffff\n      and\n      0x4d31a5599cdb48031c1f03259adbd513be468c5735012719a1a9850869b558b1\n        /* \"RealEstateToken.sol\":4583:4591  auctions */\n      0x0b\n        /* \"RealEstateToken.sol\":4583:4603  auctions[_auctionId] */\n      0x00\n        /* \"RealEstateToken.sol\":4592:4602  _auctionId */\n      dup6\n        /* \"RealEstateToken.sol\":4583:4603  auctions[_auctionId] */\n      dup2\n      mstore\n      0x20\n      add\n      swap1\n      dup2\n      mstore\n      0x20\n      add\n      0x00\n      keccak256\n        /* \"RealEstateToken.sol\":4583:4614  auctions[_auctionId].propertyId */\n      0x00\n      add\n      sload\n        /* \"RealEstateToken.sol\":4678:4686  auctions */\n      0x0b\n        /* \"RealEstateToken.sol\":4678:4698  auctions[_auctionId] */\n      0x00\n        /* \"RealEstateToken.sol\":4687:4697  _auctionId */\n      dup7\n        /* \"RealEstateToken.sol\":4678:4698  auctions[_auctionId] */\n      dup2\n      mstore\n      0x20\n      add\n      swap1\n      dup2\n      mstore\n      0x20\n      add\n      0x00\n      keccak256\n        /* \"RealEstateToken.sol\":4678:4709  auctions[_auctionId].highestBid */\n      0x02\n      add\n      sload\n        /* \"RealEstateToken.sol\":4531:4720  AuctionEnded(... */\n      mload(0x40)\n      tag_250\n      swap3\n      swap2\n      swap1\n      tag_251\n      jump\t// in\n    tag_250:\n      mload(0x40)\n      dup1\n      swap2\n      sub\n      swap1\n      log3\n        /* \"RealEstateToken.sol\":4852:4860  auctions */\n      0x0b\n        /* \"RealEstateToken.sol\":4852:4872  auctions[_auctionId] */\n      0x00\n        /* \"RealEstateToken.sol\":4861:4871  _auctionId */\n      dup3\n        /* \"RealEstateToken.sol\":4852:4872  auctions[_auctionId] */\n      dup2\n      mstore\n      0x20\n      add\n      swap1\n      dup2\n      mstore\n      0x20\n      add\n      0x00\n      keccak256\n        /* \"RealEstateToken.sol\":4852:4886  auctions[_auctionId].highestBidder */\n      0x01\n      add\n      0x00\n      swap1\n      sload\n      swap1\n      0x0100\n      exp\n      swap1\n      div\n      0xffffffffffffffffffffffffffffffffffffffff\n      and\n        /* \"RealEstateToken.sol\":4738:4897  PropertyOwnershipTransferred(... */\n      0xffffffffffffffffffffffffffffffffffffffff\n      and\n        /* \"RealEstateToken.sol\":4827:4837  msg.sender */\n      caller\n        /* \"RealEstateToken.sol\":4738:4897  PropertyOwnershipTransferred(... */\n      0xffffffffffffffffffffffffffffffffffffffff\n      and\n      0xa5c64c8204a6a698b47e944c0c3e6d9699f44cf150c89378d697fbf682d5b6e4\n        /* \"RealEstateToken.sol\":4781:4789  auctions */\n      0x0b\n        /* \"RealEstateToken.sol\":4781:4801  auctions[_auctionId] */\n      0x00\n        /* \"RealEstateToken.sol\":4790:4800  _auctionId */\n      dup6\n        /* \"RealEstateToken.sol\":4781:4801  auctions[_auctionId] */\n      dup2\n      mstore\n      0x20\n      add\n      swap1\n      dup2\n      mstore\n      0x20\n      add\n      0x00\n      keccak256\n        /* \"RealEstateToken.sol\":4781:4812  auctions[_auctionId].propertyId */\n      0x00\n      add\n      sload\n        /* \"RealEstateToken.sol\":4738:4897  PropertyOwnershipTransferred(... */\n      mload(0x40)\n      tag_252\n      swap2\n      swap1\n      tag_59\n      jump\t// in\n    tag_252:\n      mload(0x40)\n      dup1\n      swap2\n      sub\n      swap1\n      log3\n        /* \"RealEstateToken.sol\":3892:4905  function endAuction(uint256 _auctionId) public {... */\n      pop\n      jump\t// out\n        /* \"RealEstateToken.sol\":4923:5575  function buyShares(uint256 _propertyId, uint256 _numShares) external payable {... */\n    tag_152:\n        /* \"RealEstateToken.sol\":5032:5033  0 */\n      0x00\n        /* \"RealEstateToken.sol\":5019:5029  _numShares */\n      dup2\n        /* \"RealEstateToken.sol\":5019:5033  _numShares > 0 */\n      gt\n        /* \"RealEstateToken.sol\":5011:5080  require(_numShares > 0, \"Number of shares must be greater than zero\") */\n      tag_254\n      jumpi\n      mload(0x40)\n      0x08c379a000000000000000000000000000000000000000000000000000000000\n      dup2\n      mstore\n      0x04\n      add\n      tag_255\n      swap1\n      tag_256\n      jump\t// in\n    tag_255:\n      mload(0x40)\n      dup1\n      swap2\n      sub\n      swap1\n      revert\n    tag_254:\n        /* \"RealEstateToken.sol\":5125:5135  sharePrice */\n      sload(0x07)\n        /* \"RealEstateToken.sol\":5112:5122  _numShares */\n      dup2\n        /* \"RealEstateToken.sol\":5112:5135  _numShares * sharePrice */\n      tag_257\n      swap2\n      swap1\n      tag_258\n      jump\t// in\n    tag_257:\n        /* \"RealEstateToken.sol\":5099:5108  msg.value */\n      callvalue\n        /* \"RealEstateToken.sol\":5099:5135  msg.value >= _numShares * sharePrice */\n      lt\n      iszero\n        /* \"RealEstateToken.sol\":5091:5158  require(msg.value >= _numShares * sharePrice, \"Insufficient funds\") */\n      tag_259\n      jumpi\n      mload(0x40)\n      0x08c379a000000000000000000000000000000000000000000000000000000000\n      dup2\n      mstore\n      0x04\n      add\n      tag_260\n      swap1\n      tag_261\n      jump\t// in\n    tag_260:\n      mload(0x40)\n      dup1\n      swap2\n      sub\n      swap1\n      revert\n    tag_259:\n        /* \"RealEstateToken.sol\":5220:5230  _numShares */\n      dup1\n        /* \"RealEstateToken.sol\":5177:5187  properties */\n      0x0a\n        /* \"RealEstateToken.sol\":5177:5200  properties[_propertyId] */\n      0x00\n        /* \"RealEstateToken.sol\":5188:5199  _propertyId */\n      dup5\n        /* \"RealEstateToken.sol\":5177:5200  properties[_propertyId] */\n      dup2\n      mstore\n      0x20\n      add\n      swap1\n      dup2\n      mstore\n      0x20\n      add\n      0x00\n      keccak256\n        /* \"RealEstateToken.sol\":5177:5216  properties[_propertyId].sharesAvailable */\n      0x01\n      add\n      sload\n        /* \"RealEstateToken.sol\":5177:5230  properties[_propertyId].sharesAvailable >= _numShares */\n      lt\n      iszero\n        /* \"RealEstateToken.sol\":5169:5262  require(properties[_propertyId].sharesAvailable >= _numShares, \"Not enough shares available\") */\n      tag_262\n      jumpi\n      mload(0x40)\n      0x08c379a000000000000000000000000000000000000000000000000000000000\n      dup2\n      mstore\n      0x04\n      add\n      tag_263\n      swap1\n      tag_264\n      jump\t// in\n    tag_263:\n      mload(0x40)\n      dup1\n      swap2\n      sub\n      swap1\n      revert\n    tag_262:\n        /* \"RealEstateToken.sol\":5275:5287  uint256 cost */\n      0x00\n        /* \"RealEstateToken.sol\":5303:5313  sharePrice */\n      sload(0x07)\n        /* \"RealEstateToken.sol\":5290:5300  _numShares */\n      dup3\n        /* \"RealEstateToken.sol\":5290:5313  _numShares * sharePrice */\n      tag_265\n      swap2\n      swap1\n      tag_258\n      jump\t// in\n    tag_265:\n        /* \"RealEstateToken.sol\":5275:5313  uint256 cost = _numShares * sharePrice */\n      swap1\n      pop\n        /* \"RealEstateToken.sol\":5378:5388  _numShares */\n      dup2\n        /* \"RealEstateToken.sol\":5324:5334  properties */\n      0x0a\n        /* \"RealEstateToken.sol\":5324:5347  properties[_propertyId] */\n      0x00\n        /* \"RealEstateToken.sol\":5335:5346  _propertyId */\n      dup6\n        /* \"RealEstateToken.sol\":5324:5347  properties[_propertyId] */\n      dup2\n      mstore\n      0x20\n      add\n      swap1\n      dup2\n      mstore\n      0x20\n      add\n      0x00\n      keccak256\n        /* \"RealEstateToken.sol\":5324:5362  properties[_propertyId].investorShares */\n      0x04\n      add\n        /* \"RealEstateToken.sol\":5324:5374  properties[_propertyId].investorShares[msg.sender] */\n      0x00\n        /* \"RealEstateToken.sol\":5363:5373  msg.sender */\n      caller\n        /* \"RealEstateToken.sol\":5324:5374  properties[_propertyId].investorShares[msg.sender] */\n      0xffffffffffffffffffffffffffffffffffffffff\n      and\n      0xffffffffffffffffffffffffffffffffffffffff\n      and\n      dup2\n      mstore\n      0x20\n      add\n      swap1\n      dup2\n      mstore\n      0x20\n      add\n      0x00\n      keccak256\n      0x00\n        /* \"RealEstateToken.sol\":5324:5388  properties[_propertyId].investorShares[msg.sender] += _numShares */\n      dup3\n      dup3\n      sload\n      tag_266\n      swap2\n      swap1\n      tag_267\n      jump\t// in\n    tag_266:\n      swap3\n      pop\n      pop\n      dup2\n      swap1\n      sstore\n      pop\n        /* \"RealEstateToken.sol\":5442:5452  _numShares */\n      dup2\n        /* \"RealEstateToken.sol\":5399:5409  properties */\n      0x0a\n        /* \"RealEstateToken.sol\":5399:5422  properties[_propertyId] */\n      0x00\n        /* \"RealEstateToken.sol\":5410:5421  _propertyId */\n      dup6\n        /* \"RealEstateToken.sol\":5399:5422  properties[_propertyId] */\n      dup2\n      mstore\n      0x20\n      add\n      swap1\n      dup2\n      mstore\n      0x20\n      add\n      0x00\n      keccak256\n        /* \"RealEstateToken.sol\":5399:5438  properties[_propertyId].sharesAvailable */\n      0x01\n      add\n      0x00\n        /* \"RealEstateToken.sol\":5399:5452  properties[_propertyId].sharesAvailable -= _numShares */\n      dup3\n      dup3\n      sload\n      tag_268\n      swap2\n      swap1\n      tag_269\n      jump\t// in\n    tag_268:\n      swap3\n      pop\n      pop\n      dup2\n      swap1\n      sstore\n      pop\n        /* \"RealEstateToken.sol\":5463:5503  _transfer(owner, msg.sender, _numShares) */\n      tag_270\n        /* \"RealEstateToken.sol\":5473:5478  owner */\n      0x05\n      0x00\n      swap1\n      sload\n      swap1\n      0x0100\n      exp\n      swap1\n      div\n      0xffffffffffffffffffffffffffffffffffffffff\n      and\n        /* \"RealEstateToken.sol\":5480:5490  msg.sender */\n      caller\n        /* \"RealEstateToken.sol\":5492:5502  _numShares */\n      dup5\n        /* \"RealEstateToken.sol\":5463:5472  _transfer */\n      tag_218\n        /* \"RealEstateToken.sol\":5463:5503  _transfer(owner, msg.sender, _numShares) */\n      jump\t// in\n    tag_270:\n        /* \"RealEstateToken.sol\":5522:5532  properties */\n      0x0a\n        /* \"RealEstateToken.sol\":5522:5545  properties[_propertyId] */\n      0x00\n        /* \"RealEstateToken.sol\":5533:5544  _propertyId */\n      dup5\n        /* \"RealEstateToken.sol\":5522:5545  properties[_propertyId] */\n      dup2\n      mstore\n      0x20\n      add\n      swap1\n      dup2\n      mstore\n      0x20\n      add\n      0x00\n      keccak256\n        /* \"RealEstateToken.sol\":5522:5551  properties[_propertyId].owner */\n      0x00\n      add\n      0x00\n      swap1\n      sload\n      swap1\n      0x0100\n      exp\n      swap1\n      div\n      0xffffffffffffffffffffffffffffffffffffffff\n      and\n        /* \"RealEstateToken.sol\":5514:5561  payable(properties[_propertyId].owner).transfer */\n      0xffffffffffffffffffffffffffffffffffffffff\n      and\n        /* \"RealEstateToken.sol\":5514:5567  payable(properties[_propertyId].owner).transfer(cost) */\n      0x08fc\n        /* \"RealEstateToken.sol\":5562:5566  cost */\n      dup3\n        /* \"RealEstateToken.sol\":5514:5567  payable(properties[_propertyId].owner).transfer(cost) */\n      swap1\n      dup2\n      iszero\n      mul\n      swap1\n      mload(0x40)\n      0x00\n      mload(0x40)\n      dup1\n      dup4\n      sub\n      dup2\n      dup6\n      dup9\n      dup9\n      call\n      swap4\n      pop\n      pop\n      pop\n      pop\n      iszero\n      dup1\n      iszero\n      tag_272\n      jumpi\n      returndatasize\n      0x00\n      dup1\n      returndatacopy\n      revert(0x00, returndatasize)\n    tag_272:\n      pop\n        /* \"RealEstateToken.sol\":5000:5575  {... */\n      pop\n        /* \"RealEstateToken.sol\":4923:5575  function buyShares(uint256 _propertyId, uint256 _numShares) external payable {... */\n      pop\n      pop\n      jump\t// out\n        /* \"RealEstateToken.sol\":6265:6395  function isPropertyAuctioned(uint256 _propertyId) public view returns (bool) {... */\n    tag_156:\n        /* \"RealEstateToken.sol\":6336:6340  bool */\n      0x00\n        /* \"RealEstateToken.sol\":6356:6366  properties */\n      0x0a\n        /* \"RealEstateToken.sol\":6356:6379  properties[_propertyId] */\n      0x00\n        /* \"RealEstateToken.sol\":6367:6378  _propertyId */\n      dup4\n        /* \"RealEstateToken.sol\":6356:6379  properties[_propertyId] */\n      dup2\n      mstore\n      0x20\n      add\n      swap1\n      dup2\n      mstore\n      0x20\n      add\n      0x00\n      keccak256\n        /* \"RealEstateToken.sol\":6356:6391  properties[_propertyId].isAuctioned */\n      0x05\n      add\n      0x01\n      swap1\n      sload\n      swap1\n      0x0100\n      exp\n      swap1\n      div\n      0xff\n      and\n        /* \"RealEstateToken.sol\":6349:6391  return properties[_propertyId].isAuctioned */\n      swap1\n      pop\n        /* \"RealEstateToken.sol\":6265:6395  function isPropertyAuctioned(uint256 _propertyId) public view returns (bool) {... */\n      swap2\n      swap1\n      pop\n      jump\t// out\n        /* \"RealEstateToken.sol\":1755:2230  function addProperty(uint256 _listPrice, uint256 _estimatedPrice, uint256 _initialShares, bool _isPublic) public onlyOwner {... */\n    tag_162:\n        /* \"RealEstateToken.sol\":1575:1580  owner */\n      0x05\n      0x00\n      swap1\n      sload\n      swap1\n      0x0100\n      exp\n      swap1\n      div\n      0xffffffffffffffffffffffffffffffffffffffff\n      and\n        /* \"RealEstateToken.sol\":1561:1580  msg.sender == owner */\n      0xffffffffffffffffffffffffffffffffffffffff\n      and\n        /* \"RealEstateToken.sol\":1561:1571  msg.sender */\n      caller\n        /* \"RealEstateToken.sol\":1561:1580  msg.sender == owner */\n      0xffffffffffffffffffffffffffffffffffffffff\n      and\n      eq\n        /* \"RealEstateToken.sol\":1553:1623  require(msg.sender == owner, \"Only the owner can perform this action\") */\n      tag_275\n      jumpi\n      mload(0x40)\n      0x08c379a000000000000000000000000000000000000000000000000000000000\n      dup2\n      mstore\n      0x04\n      add\n      tag_276\n      swap1\n      tag_206\n      jump\t// in\n    tag_276:\n      mload(0x40)\n      dup1\n      swap2\n      sub\n      swap1\n      revert\n    tag_275:\n        /* \"RealEstateToken.sol\":1885:1900  totalProperties */\n      0x08\n      0x00\n        /* \"RealEstateToken.sol\":1885:1902  totalProperties++ */\n      dup2\n      sload\n      dup1\n      swap3\n      swap2\n      swap1\n      tag_278\n      swap1\n      tag_188\n      jump\t// in\n    tag_278:\n      swap2\n      swap1\n      pop\n      sstore\n      pop\n        /* \"RealEstateToken.sol\":1911:1939  Property storage newProperty */\n      0x00\n        /* \"RealEstateToken.sol\":1942:1952  properties */\n      0x0a\n        /* \"RealEstateToken.sol\":1942:1969  properties[totalProperties] */\n      0x00\n        /* \"RealEstateToken.sol\":1953:1968  totalProperties */\n      sload(0x08)\n        /* \"RealEstateToken.sol\":1942:1969  properties[totalProperties] */\n      dup2\n      mstore\n      0x20\n      add\n      swap1\n      dup2\n      mstore\n      0x20\n      add\n      0x00\n      keccak256\n        /* \"RealEstateToken.sol\":1911:1969  Property storage newProperty = properties[totalProperties] */\n      swap1\n      pop\n        /* \"RealEstateToken.sol\":1996:2006  msg.sender */\n      caller\n        /* \"RealEstateToken.sol\":1976:1987  newProperty */\n      dup2\n        /* \"RealEstateToken.sol\":1976:1993  newProperty.owner */\n      0x00\n      add\n      0x00\n        /* \"RealEstateToken.sol\":1976:2006  newProperty.owner = msg.sender */\n      0x0100\n      exp\n      dup2\n      sload\n      dup2\n      0xffffffffffffffffffffffffffffffffffffffff\n      mul\n      not\n      and\n      swap1\n      dup4\n      0xffffffffffffffffffffffffffffffffffffffff\n      and\n      mul\n      or\n      swap1\n      sstore\n      pop\n        /* \"RealEstateToken.sol\":2043:2057  _initialShares */\n      dup3\n        /* \"RealEstateToken.sol\":2013:2024  newProperty */\n      dup2\n        /* \"RealEstateToken.sol\":2013:2040  newProperty.sharesAvailable */\n      0x01\n      add\n        /* \"RealEstateToken.sol\":2013:2057  newProperty.sharesAvailable = _initialShares */\n      dup2\n      swap1\n      sstore\n      pop\n        /* \"RealEstateToken.sol\":2088:2098  _listPrice */\n      dup5\n        /* \"RealEstateToken.sol\":2064:2075  newProperty */\n      dup2\n        /* \"RealEstateToken.sol\":2064:2085  newProperty.listPrice */\n      0x02\n      add\n        /* \"RealEstateToken.sol\":2064:2098  newProperty.listPrice = _listPrice */\n      dup2\n      swap1\n      sstore\n      pop\n        /* \"RealEstateToken.sol\":2134:2149  _estimatedPrice */\n      dup4\n        /* \"RealEstateToken.sol\":2105:2116  newProperty */\n      dup2\n        /* \"RealEstateToken.sol\":2105:2131  newProperty.estimatedPrice */\n      0x03\n      add\n        /* \"RealEstateToken.sol\":2105:2149  newProperty.estimatedPrice = _estimatedPrice */\n      dup2\n      swap1\n      sstore\n      pop\n        /* \"RealEstateToken.sol\":2179:2188  _isPublic */\n      dup2\n        /* \"RealEstateToken.sol\":2156:2167  newProperty */\n      dup2\n        /* \"RealEstateToken.sol\":2156:2176  newProperty.isPublic */\n      0x05\n      add\n      0x00\n        /* \"RealEstateToken.sol\":2156:2188  newProperty.isPublic = _isPublic */\n      0x0100\n      exp\n      dup2\n      sload\n      dup2\n      0xff\n      mul\n      not\n      and\n      swap1\n      dup4\n      iszero\n      iszero\n      mul\n      or\n      swap1\n      sstore\n      pop\n        /* \"RealEstateToken.sol\":2221:2226  false */\n      0x00\n        /* \"RealEstateToken.sol\":2195:2206  newProperty */\n      dup2\n        /* \"RealEstateToken.sol\":2195:2218  newProperty.isAuctioned */\n      0x05\n      add\n      0x01\n        /* \"RealEstateToken.sol\":2195:2226  newProperty.isAuctioned = false */\n      0x0100\n      exp\n      dup2\n      sload\n      dup2\n      0xff\n      mul\n      not\n      and\n      swap1\n      dup4\n      iszero\n      iszero\n      mul\n      or\n      swap1\n      sstore\n      pop\n        /* \"RealEstateToken.sol\":1878:2230  {... */\n      pop\n        /* \"RealEstateToken.sol\":1755:2230  function addProperty(uint256 _listPrice, uint256 _estimatedPrice, uint256 _initialShares, bool _isPublic) public onlyOwner {... */\n      pop\n      pop\n      pop\n      pop\n      jump\t// out\n        /* \"@openzeppelin/contracts/token/ERC20/ERC20.sol\":3846:3986  function allowance(address owner, address spender) public view virtual returns (uint256) {... */\n    tag_167:\n        /* \"@openzeppelin/contracts/token/ERC20/ERC20.sol\":3926:3933  uint256 */\n      0x00\n        /* \"@openzeppelin/contracts/token/ERC20/ERC20.sol\":3952:3963  _allowances */\n      0x01\n        /* \"@openzeppelin/contracts/token/ERC20/ERC20.sol\":3952:3970  _allowances[owner] */\n      0x00\n        /* \"@openzeppelin/contracts/token/ERC20/ERC20.sol\":3964:3969  owner */\n      dup5\n        /* \"@openzeppelin/contracts/token/ERC20/ERC20.sol\":3952:3970  _allowances[owner] */\n      0xffffffffffffffffffffffffffffffffffffffff\n      and\n      0xffffffffffffffffffffffffffffffffffffffff\n      and\n      dup2\n      mstore\n      0x20\n      add\n      swap1\n      dup2\n      mstore\n      0x20\n      add\n      0x00\n      keccak256\n        /* \"@openzeppelin/contracts/token/ERC20/ERC20.sol\":3952:3979  _allowances[owner][spender] */\n      0x00\n        /* \"@openzeppelin/contracts/token/ERC20/ERC20.sol\":3971:3978  spender */\n      dup4\n        /* \"@openzeppelin/contracts/token/ERC20/ERC20.sol\":3952:3979  _allowances[owner][spender] */\n      0xffffffffffffffffffffffffffffffffffffffff\n      and\n      0xffffffffffffffffffffffffffffffffffffffff\n      and\n      dup2\n      mstore\n      0x20\n      add\n      swap1\n      dup2\n      mstore\n      0x20\n      add\n      0x00\n      keccak256\n      sload\n        /* \"@openzeppelin/contracts/token/ERC20/ERC20.sol\":3945:3979  return _allowances[owner][spender] */\n      swap1\n      pop\n        /* \"@openzeppelin/contracts/token/ERC20/ERC20.sol\":3846:3986  function allowance(address owner, address spender) public view virtual returns (uint256) {... */\n      swap3\n      swap2\n      pop\n      pop\n      jump\t// out\n        /* \"RealEstateToken.sol\":5579:5703  function getPropertyOwner(uint256 _propertyId) public view returns (address) {... */\n    tag_172:\n        /* \"RealEstateToken.sol\":5647:5654  address */\n      0x00\n        /* \"RealEstateToken.sol\":5670:5680  properties */\n      0x0a\n        /* \"RealEstateToken.sol\":5670:5693  properties[_propertyId] */\n      0x00\n        /* \"RealEstateToken.sol\":5681:5692  _propertyId */\n      dup4\n        /* \"RealEstateToken.sol\":5670:5693  properties[_propertyId] */\n      dup2\n      mstore\n      0x20\n      add\n      swap1\n      dup2\n      mstore\n      0x20\n      add\n      0x00\n      keccak256\n        /* \"RealEstateToken.sol\":5670:5699  properties[_propertyId].owner */\n      0x00\n      add\n      0x00\n      swap1\n      sload\n      swap1\n      0x0100\n      exp\n      swap1\n      div\n      0xffffffffffffffffffffffffffffffffffffffff\n      and\n        /* \"RealEstateToken.sol\":5663:5699  return properties[_propertyId].owner */\n      swap1\n      pop\n        /* \"RealEstateToken.sol\":5579:5703  function getPropertyOwner(uint256 _propertyId) public view returns (address) {... */\n      swap2\n      swap1\n      pop\n      jump\t// out\n        /* \"RealEstateToken.sol\":1057:1103  mapping(uint256 => Property) public properties */\n    tag_177:\n      mstore(0x20, 0x0a)\n      dup1\n      0x00\n      mstore\n      keccak256(0x00, 0x40)\n      0x00\n      swap2\n      pop\n      swap1\n      pop\n      dup1\n      0x00\n      add\n      0x00\n      swap1\n      sload\n      swap1\n      0x0100\n      exp\n      swap1\n      div\n      0xffffffffffffffffffffffffffffffffffffffff\n      and\n      swap1\n      dup1\n      0x01\n      add\n      sload\n      swap1\n      dup1\n      0x02\n      add\n      sload\n      swap1\n      dup1\n      0x03\n      add\n      sload\n      swap1\n      dup1\n      0x05\n      add\n      0x00\n      swap1\n      sload\n      swap1\n      0x0100\n      exp\n      swap1\n      div\n      0xff\n      and\n      swap1\n      dup1\n      0x05\n      add\n      0x01\n      swap1\n      sload\n      swap1\n      0x0100\n      exp\n      swap1\n      div\n      0xff\n      and\n      swap1\n      pop\n      dup7\n      jump\t// out\n        /* \"@openzeppelin/contracts/utils/Context.sol\":656:752  function _msgSender() internal view virtual returns (address) {... */\n    tag_199:\n        /* \"@openzeppelin/contracts/utils/Context.sol\":709:716  address */\n      0x00\n        /* \"@openzeppelin/contracts/utils/Context.sol\":735:745  msg.sender */\n      caller\n        /* \"@openzeppelin/contracts/utils/Context.sol\":728:745  return msg.sender */\n      swap1\n      pop\n        /* \"@openzeppelin/contracts/utils/Context.sol\":656:752  function _msgSender() internal view virtual returns (address) {... */\n      swap1\n      jump\t// out\n        /* \"@openzeppelin/contracts/token/ERC20/ERC20.sol\":8989:9117  function _approve(address owner, address spender, uint256 value) internal {... */\n    tag_201:\n        /* \"@openzeppelin/contracts/token/ERC20/ERC20.sol\":9073:9110  _approve(owner, spender, value, true) */\n      tag_283\n        /* \"@openzeppelin/contracts/token/ERC20/ERC20.sol\":9082:9087  owner */\n      dup4\n        /* \"@openzeppelin/contracts/token/ERC20/ERC20.sol\":9089:9096  spender */\n      dup4\n        /* \"@openzeppelin/contracts/token/ERC20/ERC20.sol\":9098:9103  value */\n      dup4\n        /* \"@openzeppelin/contracts/token/ERC20/ERC20.sol\":9105:9109  true */\n      0x01\n        /* \"@openzeppelin/contracts/token/ERC20/ERC20.sol\":9073:9081  _approve */\n      tag_284\n        /* \"@openzeppelin/contracts/token/ERC20/ERC20.sol\":9073:9110  _approve(owner, spender, value, true) */\n      jump\t// in\n    tag_283:\n        /* \"@openzeppelin/contracts/token/ERC20/ERC20.sol\":8989:9117  function _approve(address owner, address spender, uint256 value) internal {... */\n      pop\n      pop\n      pop\n      jump\t// out\n        /* \"@openzeppelin/contracts/token/ERC20/ERC20.sol\":10663:11140  function _spendAllowance(address owner, address spender, uint256 value) internal virtual {... */\n    tag_216:\n        /* \"@openzeppelin/contracts/token/ERC20/ERC20.sol\":10762:10786  uint256 currentAllowance */\n      0x00\n        /* \"@openzeppelin/contracts/token/ERC20/ERC20.sol\":10789:10814  allowance(owner, spender) */\n      tag_286\n        /* \"@openzeppelin/contracts/token/ERC20/ERC20.sol\":10799:10804  owner */\n      dup5\n        /* \"@openzeppelin/contracts/token/ERC20/ERC20.sol\":10806:10813  spender */\n      dup5\n        /* \"@openzeppelin/contracts/token/ERC20/ERC20.sol\":10789:10798  allowance */\n      tag_167\n        /* \"@openzeppelin/contracts/token/ERC20/ERC20.sol\":10789:10814  allowance(owner, spender) */\n      jump\t// in\n    tag_286:\n        /* \"@openzeppelin/contracts/token/ERC20/ERC20.sol\":10762:10814  uint256 currentAllowance = allowance(owner, spender) */\n      swap1\n      pop\n        /* \"@openzeppelin/contracts/token/ERC20/ERC20.sol\":10848:10865  type(uint256).max */\n      0xffffffffffffffffffffffffffffffffffffffffffffffffffffffffffffffff\n        /* \"@openzeppelin/contracts/token/ERC20/ERC20.sol\":10828:10844  currentAllowance */\n      dup2\n        /* \"@openzeppelin/contracts/token/ERC20/ERC20.sol\":10828:10865  currentAllowance != type(uint256).max */\n      eq\n        /* \"@openzeppelin/contracts/token/ERC20/ERC20.sol\":10824:11134  if (currentAllowance != type(uint256).max) {... */\n      tag_287\n      jumpi\n        /* \"@openzeppelin/contracts/token/ERC20/ERC20.sol\":10904:10909  value */\n      dup2\n        /* \"@openzeppelin/contracts/token/ERC20/ERC20.sol\":10885:10901  currentAllowance */\n      dup2\n        /* \"@openzeppelin/contracts/token/ERC20/ERC20.sol\":10885:10909  currentAllowance < value */\n      lt\n        /* \"@openzeppelin/contracts/token/ERC20/ERC20.sol\":10881:11011  if (currentAllowance < value) {... */\n      iszero\n      tag_288\n      jumpi\n        /* \"@openzeppelin/contracts/token/ERC20/ERC20.sol\":10963:10970  spender */\n      dup3\n        /* \"@openzeppelin/contracts/token/ERC20/ERC20.sol\":10972:10988  currentAllowance */\n      dup2\n        /* \"@openzeppelin/contracts/token/ERC20/ERC20.sol\":10990:10995  value */\n      dup4\n        /* \"@openzeppelin/contracts/token/ERC20/ERC20.sol\":10936:10996  ERC20InsufficientAllowance(spender, currentAllowance, value) */\n      mload(0x40)\n      0xfb8f41b200000000000000000000000000000000000000000000000000000000\n      dup2\n      mstore\n      0x04\n      add\n      tag_289\n      swap4\n      swap3\n      swap2\n      swap1\n      tag_290\n      jump\t// in\n    tag_289:\n      mload(0x40)\n      dup1\n      swap2\n      sub\n      swap1\n      revert\n        /* \"@openzeppelin/contracts/token/ERC20/ERC20.sol\":10881:11011  if (currentAllowance < value) {... */\n    tag_288:\n        /* \"@openzeppelin/contracts/token/ERC20/ERC20.sol\":11052:11109  _approve(owner, spender, currentAllowance - value, false) */\n      tag_291\n        /* \"@openzeppelin/contracts/token/ERC20/ERC20.sol\":11061:11066  owner */\n      dup5\n        /* \"@openzeppelin/contracts/token/ERC20/ERC20.sol\":11068:11075  spender */\n      dup5\n        /* \"@openzeppelin/contracts/token/ERC20/ERC20.sol\":11096:11101  value */\n      dup5\n        /* \"@openzeppelin/contracts/token/ERC20/ERC20.sol\":11077:11093  currentAllowance */\n      dup5\n        /* \"@openzeppelin/contracts/token/ERC20/ERC20.sol\":11077:11101  currentAllowance - value */\n      sub\n        /* \"@openzeppelin/contracts/token/ERC20/ERC20.sol\":11103:11108  false */\n      0x00\n        /* \"@openzeppelin/contracts/token/ERC20/ERC20.sol\":11052:11060  _approve */\n      tag_284\n        /* \"@openzeppelin/contracts/token/ERC20/ERC20.sol\":11052:11109  _approve(owner, spender, currentAllowance - value, false) */\n      jump\t// in\n    tag_291:\n        /* \"@openzeppelin/contracts/token/ERC20/ERC20.sol\":10824:11134  if (currentAllowance != type(uint256).max) {... */\n    tag_287:\n        /* \"@openzeppelin/contracts/token/ERC20/ERC20.sol\":10752:11140  {... */\n      pop\n        /* \"@openzeppelin/contracts/token/ERC20/ERC20.sol\":10663:11140  function _spendAllowance(address owner, address spender, uint256 value) internal virtual {... */\n      pop\n      pop\n      pop\n      jump\t// out\n        /* \"@openzeppelin/contracts/token/ERC20/ERC20.sol\":5656:5956  function _transfer(address from, address to, uint256 value) internal {... */\n    tag_218:\n        /* \"@openzeppelin/contracts/token/ERC20/ERC20.sol\":5755:5756  0 */\n      0x00\n        /* \"@openzeppelin/contracts/token/ERC20/ERC20.sol\":5739:5757  from == address(0) */\n      0xffffffffffffffffffffffffffffffffffffffff\n      and\n        /* \"@openzeppelin/contracts/token/ERC20/ERC20.sol\":5739:5743  from */\n      dup4\n        /* \"@openzeppelin/contracts/token/ERC20/ERC20.sol\":5739:5757  from == address(0) */\n      0xffffffffffffffffffffffffffffffffffffffff\n      and\n      sub\n        /* \"@openzeppelin/contracts/token/ERC20/ERC20.sol\":5735:5821  if (from == address(0)) {... */\n      tag_293\n      jumpi\n        /* \"@openzeppelin/contracts/token/ERC20/ERC20.sol\":5807:5808  0 */\n      0x00\n        /* \"@openzeppelin/contracts/token/ERC20/ERC20.sol\":5780:5810  ERC20InvalidSender(address(0)) */\n      mload(0x40)\n      0x96c6fd1e00000000000000000000000000000000000000000000000000000000\n      dup2\n      mstore\n      0x04\n      add\n      tag_294\n      swap2\n      swap1\n      tag_132\n      jump\t// in\n    tag_294:\n      mload(0x40)\n      dup1\n      swap2\n      sub\n      swap1\n      revert\n        /* \"@openzeppelin/contracts/token/ERC20/ERC20.sol\":5735:5821  if (from == address(0)) {... */\n    tag_293:\n        /* \"@openzeppelin/contracts/token/ERC20/ERC20.sol\":5848:5849  0 */\n      0x00\n        /* \"@openzeppelin/contracts/token/ERC20/ERC20.sol\":5834:5850  to == address(0) */\n      0xffffffffffffffffffffffffffffffffffffffff\n      and\n        /* \"@openzeppelin/contracts/token/ERC20/ERC20.sol\":5834:5836  to */\n      dup3\n        /* \"@openzeppelin/contracts/token/ERC20/ERC20.sol\":5834:5850  to == address(0) */\n      0xffffffffffffffffffffffffffffffffffffffff\n      and\n      sub\n        /* \"@openzeppelin/contracts/token/ERC20/ERC20.sol\":5830:5916  if (to == address(0)) {... */\n      tag_295\n      jumpi\n        /* \"@openzeppelin/contracts/token/ERC20/ERC20.sol\":5902:5903  0 */\n      0x00\n        /* \"@openzeppelin/contracts/token/ERC20/ERC20.sol\":5873:5905  ERC20InvalidReceiver(address(0)) */\n      mload(0x40)\n      0xec442f0500000000000000000000000000000000000000000000000000000000\n      dup2\n      mstore\n      0x04\n      add\n      tag_296\n      swap2\n      swap1\n      tag_132\n      jump\t// in\n    tag_296:\n      mload(0x40)\n      dup1\n      swap2\n      sub\n      swap1\n      revert\n        /* \"@openzeppelin/contracts/token/ERC20/ERC20.sol\":5830:5916  if (to == address(0)) {... */\n    tag_295:\n        /* \"@openzeppelin/contracts/token/ERC20/ERC20.sol\":5925:5949  _update(from, to, value) */\n      tag_297\n        /* \"@openzeppelin/contracts/token/ERC20/ERC20.sol\":5933:5937  from */\n      dup4\n        /* \"@openzeppelin/contracts/token/ERC20/ERC20.sol\":5939:5941  to */\n      dup4\n        /* \"@openzeppelin/contracts/token/ERC20/ERC20.sol\":5943:5948  value */\n      dup4\n        /* \"@openzeppelin/contracts/token/ERC20/ERC20.sol\":5925:5932  _update */\n      tag_298\n        /* \"@openzeppelin/contracts/token/ERC20/ERC20.sol\":5925:5949  _update(from, to, value) */\n      jump\t// in\n    tag_297:\n        /* \"@openzeppelin/contracts/token/ERC20/ERC20.sol\":5656:5956  function _transfer(address from, address to, uint256 value) internal {... */\n      pop\n      pop\n      pop\n      jump\t// out\n        /* \"@openzeppelin/contracts/token/ERC20/ERC20.sol\":9949:10381  function _approve(address owner, address spender, uint256 value, bool emitEvent) internal virtual {... */\n    tag_284:\n        /* \"@openzeppelin/contracts/token/ERC20/ERC20.sol\":10078:10079  0 */\n      0x00\n        /* \"@openzeppelin/contracts/token/ERC20/ERC20.sol\":10061:10080  owner == address(0) */\n      0xffffffffffffffffffffffffffffffffffffffff\n      and\n        /* \"@openzeppelin/contracts/token/ERC20/ERC20.sol\":10061:10066  owner */\n      dup5\n        /* \"@openzeppelin/contracts/token/ERC20/ERC20.sol\":10061:10080  owner == address(0) */\n      0xffffffffffffffffffffffffffffffffffffffff\n      and\n      sub\n        /* \"@openzeppelin/contracts/token/ERC20/ERC20.sol\":10057:10146  if (owner == address(0)) {... */\n      tag_300\n      jumpi\n        /* \"@openzeppelin/contracts/token/ERC20/ERC20.sol\":10132:10133  0 */\n      0x00\n        /* \"@openzeppelin/contracts/token/ERC20/ERC20.sol\":10103:10135  ERC20InvalidApprover(address(0)) */\n      mload(0x40)\n      0xe602df0500000000000000000000000000000000000000000000000000000000\n      dup2\n      mstore\n      0x04\n      add\n      tag_301\n      swap2\n      swap1\n      tag_132\n      jump\t// in\n    tag_301:\n      mload(0x40)\n      dup1\n      swap2\n      sub\n      swap1\n      revert\n        /* \"@openzeppelin/contracts/token/ERC20/ERC20.sol\":10057:10146  if (owner == address(0)) {... */\n    tag_300:\n        /* \"@openzeppelin/contracts/token/ERC20/ERC20.sol\":10178:10179  0 */\n      0x00\n        /* \"@openzeppelin/contracts/token/ERC20/ERC20.sol\":10159:10180  spender == address(0) */\n      0xffffffffffffffffffffffffffffffffffffffff\n      and\n        /* \"@openzeppelin/contracts/token/ERC20/ERC20.sol\":10159:10166  spender */\n      dup4\n        /* \"@openzeppelin/contracts/token/ERC20/ERC20.sol\":10159:10180  spender == address(0) */\n      0xffffffffffffffffffffffffffffffffffffffff\n      and\n      sub\n        /* \"@openzeppelin/contracts/token/ERC20/ERC20.sol\":10155:10245  if (spender == address(0)) {... */\n      tag_302\n      jumpi\n        /* \"@openzeppelin/contracts/token/ERC20/ERC20.sol\":10231:10232  0 */\n      0x00\n        /* \"@openzeppelin/contracts/token/ERC20/ERC20.sol\":10203:10234  ERC20InvalidSpender(address(0)) */\n      mload(0x40)\n      0x94280d6200000000000000000000000000000000000000000000000000000000\n      dup2\n      mstore\n      0x04\n      add\n      tag_303\n      swap2\n      swap1\n      tag_132\n      jump\t// in\n    tag_303:\n      mload(0x40)\n      dup1\n      swap2\n      sub\n      swap1\n      revert\n        /* \"@openzeppelin/contracts/token/ERC20/ERC20.sol\":10155:10245  if (spender == address(0)) {... */\n    tag_302:\n        /* \"@openzeppelin/contracts/token/ERC20/ERC20.sol\":10284:10289  value */\n      dup2\n        /* \"@openzeppelin/contracts/token/ERC20/ERC20.sol\":10254:10265  _allowances */\n      0x01\n        /* \"@openzeppelin/contracts/token/ERC20/ERC20.sol\":10254:10272  _allowances[owner] */\n      0x00\n        /* \"@openzeppelin/contracts/token/ERC20/ERC20.sol\":10266:10271  owner */\n      dup7\n        /* \"@openzeppelin/contracts/token/ERC20/ERC20.sol\":10254:10272  _allowances[owner] */\n      0xffffffffffffffffffffffffffffffffffffffff\n      and\n      0xffffffffffffffffffffffffffffffffffffffff\n      and\n      dup2\n      mstore\n      0x20\n      add\n      swap1\n      dup2\n      mstore\n      0x20\n      add\n      0x00\n      keccak256\n        /* \"@openzeppelin/contracts/token/ERC20/ERC20.sol\":10254:10281  _allowances[owner][spender] */\n      0x00\n        /* \"@openzeppelin/contracts/token/ERC20/ERC20.sol\":10273:10280  spender */\n      dup6\n        /* \"@openzeppelin/contracts/token/ERC20/ERC20.sol\":10254:10281  _allowances[owner][spender] */\n      0xffffffffffffffffffffffffffffffffffffffff\n      and\n      0xffffffffffffffffffffffffffffffffffffffff\n      and\n      dup2\n      mstore\n      0x20\n      add\n      swap1\n      dup2\n      mstore\n      0x20\n      add\n      0x00\n      keccak256\n        /* \"@openzeppelin/contracts/token/ERC20/ERC20.sol\":10254:10289  _allowances[owner][spender] = value */\n      dup2\n      swap1\n      sstore\n      pop\n        /* \"@openzeppelin/contracts/token/ERC20/ERC20.sol\":10303:10312  emitEvent */\n      dup1\n        /* \"@openzeppelin/contracts/token/ERC20/ERC20.sol\":10299:10375  if (emitEvent) {... */\n      iszero\n      tag_304\n      jumpi\n        /* \"@openzeppelin/contracts/token/ERC20/ERC20.sol\":10349:10356  spender */\n      dup3\n        /* \"@openzeppelin/contracts/token/ERC20/ERC20.sol\":10333:10364  Approval(owner, spender, value) */\n      0xffffffffffffffffffffffffffffffffffffffff\n      and\n        /* \"@openzeppelin/contracts/token/ERC20/ERC20.sol\":10342:10347  owner */\n      dup5\n        /* \"@openzeppelin/contracts/token/ERC20/ERC20.sol\":10333:10364  Approval(owner, spender, value) */\n      0xffffffffffffffffffffffffffffffffffffffff\n      and\n      0x8c5be1e5ebec7d5bd14f71427d1e84f3dd0314c0f7b2291e5b200ac8c7c3b925\n        /* \"@openzeppelin/contracts/token/ERC20/ERC20.sol\":10358:10363  value */\n      dup5\n        /* \"@openzeppelin/contracts/token/ERC20/ERC20.sol\":10333:10364  Approval(owner, spender, value) */\n      mload(0x40)\n      tag_305\n      swap2\n      swap1\n      tag_59\n      jump\t// in\n    tag_305:\n      mload(0x40)\n      dup1\n      swap2\n      sub\n      swap1\n      log3\n        /* \"@openzeppelin/contracts/token/ERC20/ERC20.sol\":10299:10375  if (emitEvent) {... */\n    tag_304:\n        /* \"@openzeppelin/contracts/token/ERC20/ERC20.sol\":9949:10381  function _approve(address owner, address spender, uint256 value, bool emitEvent) internal virtual {... */\n      pop\n      pop\n      pop\n      pop\n      jump\t// out\n        /* \"@openzeppelin/contracts/token/ERC20/ERC20.sol\":6271:7378  function _update(address from, address to, uint256 value) internal virtual {... */\n    tag_298:\n        /* \"@openzeppelin/contracts/token/ERC20/ERC20.sol\":6376:6377  0 */\n      0x00\n        /* \"@openzeppelin/contracts/token/ERC20/ERC20.sol\":6360:6378  from == address(0) */\n      0xffffffffffffffffffffffffffffffffffffffff\n      and\n        /* \"@openzeppelin/contracts/token/ERC20/ERC20.sol\":6360:6364  from */\n      dup4\n        /* \"@openzeppelin/contracts/token/ERC20/ERC20.sol\":6360:6378  from == address(0) */\n      0xffffffffffffffffffffffffffffffffffffffff\n      and\n      sub\n        /* \"@openzeppelin/contracts/token/ERC20/ERC20.sol\":6356:6896  if (from == address(0)) {... */\n      tag_307\n      jumpi\n        /* \"@openzeppelin/contracts/token/ERC20/ERC20.sol\":6512:6517  value */\n      dup1\n        /* \"@openzeppelin/contracts/token/ERC20/ERC20.sol\":6496:6508  _totalSupply */\n      0x02\n      0x00\n        /* \"@openzeppelin/contracts/token/ERC20/ERC20.sol\":6496:6517  _totalSupply += value */\n      dup3\n      dup3\n      sload\n      tag_308\n      swap2\n      swap1\n      tag_267\n      jump\t// in\n    tag_308:\n      swap3\n      pop\n      pop\n      dup2\n      swap1\n      sstore\n      pop\n        /* \"@openzeppelin/contracts/token/ERC20/ERC20.sol\":6356:6896  if (from == address(0)) {... */\n      jump(tag_309)\n    tag_307:\n        /* \"@openzeppelin/contracts/token/ERC20/ERC20.sol\":6548:6567  uint256 fromBalance */\n      0x00\n        /* \"@openzeppelin/contracts/token/ERC20/ERC20.sol\":6570:6579  _balances */\n      dup1\n        /* \"@openzeppelin/contracts/token/ERC20/ERC20.sol\":6570:6585  _balances[from] */\n      0x00\n        /* \"@openzeppelin/contracts/token/ERC20/ERC20.sol\":6580:6584  from */\n      dup6\n        /* \"@openzeppelin/contracts/token/ERC20/ERC20.sol\":6570:6585  _balances[from] */\n      0xffffffffffffffffffffffffffffffffffffffff\n      and\n      0xffffffffffffffffffffffffffffffffffffffff\n      and\n      dup2\n      mstore\n      0x20\n      add\n      swap1\n      dup2\n      mstore\n      0x20\n      add\n      0x00\n      keccak256\n      sload\n        /* \"@openzeppelin/contracts/token/ERC20/ERC20.sol\":6548:6585  uint256 fromBalance = _balances[from] */\n      swap1\n      pop\n        /* \"@openzeppelin/contracts/token/ERC20/ERC20.sol\":6617:6622  value */\n      dup2\n        /* \"@openzeppelin/contracts/token/ERC20/ERC20.sol\":6603:6614  fromBalance */\n      dup2\n        /* \"@openzeppelin/contracts/token/ERC20/ERC20.sol\":6603:6622  fromBalance < value */\n      lt\n        /* \"@openzeppelin/contracts/token/ERC20/ERC20.sol\":6599:6714  if (fromBalance < value) {... */\n      iszero\n      tag_310\n      jumpi\n        /* \"@openzeppelin/contracts/token/ERC20/ERC20.sol\":6674:6678  from */\n      dup4\n        /* \"@openzeppelin/contracts/token/ERC20/ERC20.sol\":6680:6691  fromBalance */\n      dup2\n        /* \"@openzeppelin/contracts/token/ERC20/ERC20.sol\":6693:6698  value */\n      dup4\n        /* \"@openzeppelin/contracts/token/ERC20/ERC20.sol\":6649:6699  ERC20InsufficientBalance(from, fromBalance, value) */\n      mload(0x40)\n      0xe450d38c00000000000000000000000000000000000000000000000000000000\n      dup2\n      mstore\n      0x04\n      add\n      tag_311\n      swap4\n      swap3\n      swap2\n      swap1\n      tag_290\n      jump\t// in\n    tag_311:\n      mload(0x40)\n      dup1\n      swap2\n      sub\n      swap1\n      revert\n        /* \"@openzeppelin/contracts/token/ERC20/ERC20.sol\":6599:6714  if (fromBalance < value) {... */\n    tag_310:\n        /* \"@openzeppelin/contracts/token/ERC20/ERC20.sol\":6866:6871  value */\n      dup2\n        /* \"@openzeppelin/contracts/token/ERC20/ERC20.sol\":6852:6863  fromBalance */\n      dup2\n        /* \"@openzeppelin/contracts/token/ERC20/ERC20.sol\":6852:6871  fromBalance - value */\n      sub\n        /* \"@openzeppelin/contracts/token/ERC20/ERC20.sol\":6834:6843  _balances */\n      0x00\n        /* \"@openzeppelin/contracts/token/ERC20/ERC20.sol\":6834:6849  _balances[from] */\n      dup1\n        /* \"@openzeppelin/contracts/token/ERC20/ERC20.sol\":6844:6848  from */\n      dup7\n        /* \"@openzeppelin/contracts/token/ERC20/ERC20.sol\":6834:6849  _balances[from] */\n      0xffffffffffffffffffffffffffffffffffffffff\n      and\n      0xffffffffffffffffffffffffffffffffffffffff\n      and\n      dup2\n      mstore\n      0x20\n      add\n      swap1\n      dup2\n      mstore\n      0x20\n      add\n      0x00\n      keccak256\n        /* \"@openzeppelin/contracts/token/ERC20/ERC20.sol\":6834:6871  _balances[from] = fromBalance - value */\n      dup2\n      swap1\n      sstore\n      pop\n        /* \"@openzeppelin/contracts/token/ERC20/ERC20.sol\":6534:6896  {... */\n      pop\n        /* \"@openzeppelin/contracts/token/ERC20/ERC20.sol\":6356:6896  if (from == address(0)) {... */\n    tag_309:\n        /* \"@openzeppelin/contracts/token/ERC20/ERC20.sol\":6924:6925  0 */\n      0x00\n        /* \"@openzeppelin/contracts/token/ERC20/ERC20.sol\":6910:6926  to == address(0) */\n      0xffffffffffffffffffffffffffffffffffffffff\n      and\n        /* \"@openzeppelin/contracts/token/ERC20/ERC20.sol\":6910:6912  to */\n      dup3\n        /* \"@openzeppelin/contracts/token/ERC20/ERC20.sol\":6910:6926  to == address(0) */\n      0xffffffffffffffffffffffffffffffffffffffff\n      and\n      sub\n        /* \"@openzeppelin/contracts/token/ERC20/ERC20.sol\":6906:7331  if (to == address(0)) {... */\n      tag_312\n      jumpi\n        /* \"@openzeppelin/contracts/token/ERC20/ERC20.sol\":7089:7094  value */\n      dup1\n        /* \"@openzeppelin/contracts/token/ERC20/ERC20.sol\":7073:7085  _totalSupply */\n      0x02\n      0x00\n        /* \"@openzeppelin/contracts/token/ERC20/ERC20.sol\":7073:7094  _totalSupply -= value */\n      dup3\n      dup3\n      sload\n      sub\n      swap3\n      pop\n      pop\n      dup2\n      swap1\n      sstore\n      pop\n        /* \"@openzeppelin/contracts/token/ERC20/ERC20.sol\":6906:7331  if (to == address(0)) {... */\n      jump(tag_313)\n    tag_312:\n        /* \"@openzeppelin/contracts/token/ERC20/ERC20.sol\":7301:7306  value */\n      dup1\n        /* \"@openzeppelin/contracts/token/ERC20/ERC20.sol\":7284:7293  _balances */\n      0x00\n        /* \"@openzeppelin/contracts/token/ERC20/ERC20.sol\":7284:7297  _balances[to] */\n      dup1\n        /* \"@openzeppelin/contracts/token/ERC20/ERC20.sol\":7294:7296  to */\n      dup5\n        /* \"@openzeppelin/contracts/token/ERC20/ERC20.sol\":7284:7297  _balances[to] */\n      0xffffffffffffffffffffffffffffffffffffffff\n      and\n      0xffffffffffffffffffffffffffffffffffffffff\n      and\n      dup2\n      mstore\n      0x20\n      add\n      swap1\n      dup2\n      mstore\n      0x20\n      add\n      0x00\n      keccak256\n      0x00\n        /* \"@openzeppelin/contracts/token/ERC20/ERC20.sol\":7284:7306  _balances[to] += value */\n      dup3\n      dup3\n      sload\n      add\n      swap3\n      pop\n      pop\n      dup2\n      swap1\n      sstore\n      pop\n        /* \"@openzeppelin/contracts/token/ERC20/ERC20.sol\":6906:7331  if (to == address(0)) {... */\n    tag_313:\n        /* \"@openzeppelin/contracts/token/ERC20/ERC20.sol\":7361:7363  to */\n      dup2\n        /* \"@openzeppelin/contracts/token/ERC20/ERC20.sol\":7346:7371  Transfer(from, to, value) */\n      0xffffffffffffffffffffffffffffffffffffffff\n      and\n        /* \"@openzeppelin/contracts/token/ERC20/ERC20.sol\":7355:7359  from */\n      dup4\n        /* \"@openzeppelin/contracts/token/ERC20/ERC20.sol\":7346:7371  Transfer(from, to, value) */\n      0xffffffffffffffffffffffffffffffffffffffff\n      and\n      0xddf252ad1be2c89b69c2b068fc378daa952ba7f163c4a11628f55a4df523b3ef\n        /* \"@openzeppelin/contracts/token/ERC20/ERC20.sol\":7365:7370  value */\n      dup4\n        /* \"@openzeppelin/contracts/token/ERC20/ERC20.sol\":7346:7371  Transfer(from, to, value) */\n      mload(0x40)\n      tag_314\n      swap2\n      swap1\n      tag_59\n      jump\t// in\n    tag_314:\n      mload(0x40)\n      dup1\n      swap2\n      sub\n      swap1\n      log3\n        /* \"@openzeppelin/contracts/token/ERC20/ERC20.sol\":6271:7378  function _update(address from, address to, uint256 value) internal virtual {... */\n      pop\n      pop\n      pop\n      jump\t// out\n        /* \"#utility.yul\":88:205   */\n    tag_316:\n        /* \"#utility.yul\":197:198   */\n      0x00\n        /* \"#utility.yul\":194:195   */\n      dup1\n        /* \"#utility.yul\":187:199   */\n      revert\n        /* \"#utility.yul\":334:411   */\n    tag_318:\n        /* \"#utility.yul\":371:378   */\n      0x00\n        /* \"#utility.yul\":400:405   */\n      dup2\n        /* \"#utility.yul\":389:405   */\n      swap1\n      pop\n        /* \"#utility.yul\":334:411   */\n      swap2\n      swap1\n      pop\n      jump\t// out\n        /* \"#utility.yul\":417:539   */\n    tag_319:\n        /* \"#utility.yul\":490:514   */\n      tag_364\n        /* \"#utility.yul\":508:513   */\n      dup2\n        /* \"#utility.yul\":490:514   */\n      tag_318\n      jump\t// in\n    tag_364:\n        /* \"#utility.yul\":483:488   */\n      dup2\n        /* \"#utility.yul\":480:515   */\n      eq\n        /* \"#utility.yul\":470:533   */\n      tag_365\n      jumpi\n        /* \"#utility.yul\":529:530   */\n      0x00\n        /* \"#utility.yul\":526:527   */\n      dup1\n        /* \"#utility.yul\":519:531   */\n      revert\n        /* \"#utility.yul\":470:533   */\n    tag_365:\n        /* \"#utility.yul\":417:539   */\n      pop\n      jump\t// out\n        /* \"#utility.yul\":545:684   */\n    tag_320:\n        /* \"#utility.yul\":591:596   */\n      0x00\n        /* \"#utility.yul\":629:635   */\n      dup2\n        /* \"#utility.yul\":616:636   */\n      calldataload\n        /* \"#utility.yul\":607:636   */\n      swap1\n      pop\n        /* \"#utility.yul\":645:678   */\n      tag_367\n        /* \"#utility.yul\":672:677   */\n      dup2\n        /* \"#utility.yul\":645:678   */\n      tag_319\n      jump\t// in\n    tag_367:\n        /* \"#utility.yul\":545:684   */\n      swap3\n      swap2\n      pop\n      pop\n      jump\t// out\n        /* \"#utility.yul\":690:1019   */\n    tag_41:\n        /* \"#utility.yul\":749:755   */\n      0x00\n        /* \"#utility.yul\":798:800   */\n      0x20\n        /* \"#utility.yul\":786:795   */\n      dup3\n        /* \"#utility.yul\":777:784   */\n      dup5\n        /* \"#utility.yul\":773:796   */\n      sub\n        /* \"#utility.yul\":769:801   */\n      slt\n        /* \"#utility.yul\":766:885   */\n      iszero\n      tag_369\n      jumpi\n        /* \"#utility.yul\":804:883   */\n      tag_370\n      tag_316\n      jump\t// in\n    tag_370:\n        /* \"#utility.yul\":766:885   */\n    tag_369:\n        /* \"#utility.yul\":924:925   */\n      0x00\n        /* \"#utility.yul\":949:1002   */\n      tag_371\n        /* \"#utility.yul\":994:1001   */\n      dup5\n        /* \"#utility.yul\":985:991   */\n      dup3\n        /* \"#utility.yul\":974:983   */\n      dup6\n        /* \"#utility.yul\":970:992   */\n      add\n        /* \"#utility.yul\":949:1002   */\n      tag_320\n      jump\t// in\n    tag_371:\n        /* \"#utility.yul\":939:1002   */\n      swap2\n      pop\n        /* \"#utility.yul\":895:1012   */\n      pop\n        /* \"#utility.yul\":690:1019   */\n      swap3\n      swap2\n      pop\n      pop\n      jump\t// out\n        /* \"#utility.yul\":1025:1124   */\n    tag_321:\n        /* \"#utility.yul\":1077:1083   */\n      0x00\n        /* \"#utility.yul\":1111:1116   */\n      dup2\n        /* \"#utility.yul\":1105:1117   */\n      mload\n        /* \"#utility.yul\":1095:1117   */\n      swap1\n      pop\n        /* \"#utility.yul\":1025:1124   */\n      swap2\n      swap1\n      pop\n      jump\t// out\n        /* \"#utility.yul\":1130:1299   */\n    tag_322:\n        /* \"#utility.yul\":1214:1225   */\n      0x00\n        /* \"#utility.yul\":1248:1254   */\n      dup3\n        /* \"#utility.yul\":1243:1246   */\n      dup3\n        /* \"#utility.yul\":1236:1255   */\n      mstore\n        /* \"#utility.yul\":1288:1292   */\n      0x20\n        /* \"#utility.yul\":1283:1286   */\n      dup3\n        /* \"#utility.yul\":1279:1293   */\n      add\n        /* \"#utility.yul\":1264:1293   */\n      swap1\n      pop\n        /* \"#utility.yul\":1130:1299   */\n      swap3\n      swap2\n      pop\n      pop\n      jump\t// out\n        /* \"#utility.yul\":1305:1551   */\n    tag_323:\n        /* \"#utility.yul\":1386:1387   */\n      0x00\n        /* \"#utility.yul\":1396:1509   */\n    tag_375:\n        /* \"#utility.yul\":1410:1416   */\n      dup4\n        /* \"#utility.yul\":1407:1408   */\n      dup2\n        /* \"#utility.yul\":1404:1417   */\n      lt\n        /* \"#utility.yul\":1396:1509   */\n      iszero\n      tag_377\n      jumpi\n        /* \"#utility.yul\":1495:1496   */\n      dup1\n        /* \"#utility.yul\":1490:1493   */\n      dup3\n        /* \"#utility.yul\":1486:1497   */\n      add\n        /* \"#utility.yul\":1480:1498   */\n      mload\n        /* \"#utility.yul\":1476:1477   */\n      dup2\n        /* \"#utility.yul\":1471:1474   */\n      dup5\n        /* \"#utility.yul\":1467:1478   */\n      add\n        /* \"#utility.yul\":1460:1499   */\n      mstore\n        /* \"#utility.yul\":1432:1434   */\n      0x20\n        /* \"#utility.yul\":1429:1430   */\n      dup2\n        /* \"#utility.yul\":1425:1435   */\n      add\n        /* \"#utility.yul\":1420:1435   */\n      swap1\n      pop\n        /* \"#utility.yul\":1396:1509   */\n      jump(tag_375)\n    tag_377:\n        /* \"#utility.yul\":1543:1544   */\n      0x00\n        /* \"#utility.yul\":1534:1540   */\n      dup5\n        /* \"#utility.yul\":1529:1532   */\n      dup5\n        /* \"#utility.yul\":1525:1541   */\n      add\n        /* \"#utility.yul\":1518:1545   */\n      mstore\n        /* \"#utility.yul\":1367:1551   */\n      pop\n        /* \"#utility.yul\":1305:1551   */\n      pop\n      pop\n      pop\n      jump\t// out\n        /* \"#utility.yul\":1557:1659   */\n    tag_324:\n        /* \"#utility.yul\":1598:1604   */\n      0x00\n        /* \"#utility.yul\":1649:1651   */\n      0x1f\n        /* \"#utility.yul\":1645:1652   */\n      not\n        /* \"#utility.yul\":1640:1642   */\n      0x1f\n        /* \"#utility.yul\":1633:1638   */\n      dup4\n        /* \"#utility.yul\":1629:1643   */\n      add\n        /* \"#utility.yul\":1625:1653   */\n      and\n        /* \"#utility.yul\":1615:1653   */\n      swap1\n      pop\n        /* \"#utility.yul\":1557:1659   */\n      swap2\n      swap1\n      pop\n      jump\t// out\n        /* \"#utility.yul\":1665:2042   */\n    tag_325:\n        /* \"#utility.yul\":1753:1756   */\n      0x00\n        /* \"#utility.yul\":1781:1820   */\n      tag_380\n        /* \"#utility.yul\":1814:1819   */\n      dup3\n        /* \"#utility.yul\":1781:1820   */\n      tag_321\n      jump\t// in\n    tag_380:\n        /* \"#utility.yul\":1836:1907   */\n      tag_381\n        /* \"#utility.yul\":1900:1906   */\n      dup2\n        /* \"#utility.yul\":1895:1898   */\n      dup6\n        /* \"#utility.yul\":1836:1907   */\n      tag_322\n      jump\t// in\n    tag_381:\n        /* \"#utility.yul\":1829:1907   */\n      swap4\n      pop\n        /* \"#utility.yul\":1916:1981   */\n      tag_382\n        /* \"#utility.yul\":1974:1980   */\n      dup2\n        /* \"#utility.yul\":1969:1972   */\n      dup6\n        /* \"#utility.yul\":1962:1966   */\n      0x20\n        /* \"#utility.yul\":1955:1960   */\n      dup7\n        /* \"#utility.yul\":1951:1967   */\n      add\n        /* \"#utility.yul\":1916:1981   */\n      tag_323\n      jump\t// in\n    tag_382:\n        /* \"#utility.yul\":2006:2035   */\n      tag_383\n        /* \"#utility.yul\":2028:2034   */\n      dup2\n        /* \"#utility.yul\":2006:2035   */\n      tag_324\n      jump\t// in\n    tag_383:\n        /* \"#utility.yul\":2001:2004   */\n      dup5\n        /* \"#utility.yul\":1997:2036   */\n      add\n        /* \"#utility.yul\":1990:2036   */\n      swap2\n      pop\n        /* \"#utility.yul\":1757:2042   */\n      pop\n        /* \"#utility.yul\":1665:2042   */\n      swap3\n      swap2\n      pop\n      pop\n      jump\t// out\n        /* \"#utility.yul\":2048:2361   */\n    tag_47:\n        /* \"#utility.yul\":2161:2165   */\n      0x00\n        /* \"#utility.yul\":2199:2201   */\n      0x20\n        /* \"#utility.yul\":2188:2197   */\n      dup3\n        /* \"#utility.yul\":2184:2202   */\n      add\n        /* \"#utility.yul\":2176:2202   */\n      swap1\n      pop\n        /* \"#utility.yul\":2248:2257   */\n      dup2\n        /* \"#utility.yul\":2242:2246   */\n      dup2\n        /* \"#utility.yul\":2238:2258   */\n      sub\n        /* \"#utility.yul\":2234:2235   */\n      0x00\n        /* \"#utility.yul\":2223:2232   */\n      dup4\n        /* \"#utility.yul\":2219:2236   */\n      add\n        /* \"#utility.yul\":2212:2259   */\n      mstore\n        /* \"#utility.yul\":2276:2354   */\n      tag_385\n        /* \"#utility.yul\":2349:2353   */\n      dup2\n        /* \"#utility.yul\":2340:2346   */\n      dup5\n        /* \"#utility.yul\":2276:2354   */\n      tag_325\n      jump\t// in\n    tag_385:\n        /* \"#utility.yul\":2268:2354   */\n      swap1\n      pop\n        /* \"#utility.yul\":2048:2361   */\n      swap3\n      swap2\n      pop\n      pop\n      jump\t// out\n        /* \"#utility.yul\":2367:2493   */\n    tag_326:\n        /* \"#utility.yul\":2404:2411   */\n      0x00\n        /* \"#utility.yul\":2444:2486   */\n      0xffffffffffffffffffffffffffffffffffffffff\n        /* \"#utility.yul\":2437:2442   */\n      dup3\n        /* \"#utility.yul\":2433:2487   */\n      and\n        /* \"#utility.yul\":2422:2487   */\n      swap1\n      pop\n        /* \"#utility.yul\":2367:2493   */\n      swap2\n      swap1\n      pop\n      jump\t// out\n        /* \"#utility.yul\":2499:2595   */\n    tag_327:\n        /* \"#utility.yul\":2536:2543   */\n      0x00\n        /* \"#utility.yul\":2565:2589   */\n      tag_388\n        /* \"#utility.yul\":2583:2588   */\n      dup3\n        /* \"#utility.yul\":2565:2589   */\n      tag_326\n      jump\t// in\n    tag_388:\n        /* \"#utility.yul\":2554:2589   */\n      swap1\n      pop\n        /* \"#utility.yul\":2499:2595   */\n      swap2\n      swap1\n      pop\n      jump\t// out\n        /* \"#utility.yul\":2601:2723   */\n    tag_328:\n        /* \"#utility.yul\":2674:2698   */\n      tag_390\n        /* \"#utility.yul\":2692:2697   */\n      dup2\n        /* \"#utility.yul\":2674:2698   */\n      tag_327\n      jump\t// in\n    tag_390:\n        /* \"#utility.yul\":2667:2672   */\n      dup2\n        /* \"#utility.yul\":2664:2699   */\n      eq\n        /* \"#utility.yul\":2654:2717   */\n      tag_391\n      jumpi\n        /* \"#utility.yul\":2713:2714   */\n      0x00\n        /* \"#utility.yul\":2710:2711   */\n      dup1\n        /* \"#utility.yul\":2703:2715   */\n      revert\n        /* \"#utility.yul\":2654:2717   */\n    tag_391:\n        /* \"#utility.yul\":2601:2723   */\n      pop\n      jump\t// out\n        /* \"#utility.yul\":2729:2868   */\n    tag_329:\n        /* \"#utility.yul\":2775:2780   */\n      0x00\n        /* \"#utility.yul\":2813:2819   */\n      dup2\n        /* \"#utility.yul\":2800:2820   */\n      calldataload\n        /* \"#utility.yul\":2791:2820   */\n      swap1\n      pop\n        /* \"#utility.yul\":2829:2862   */\n      tag_393\n        /* \"#utility.yul\":2856:2861   */\n      dup2\n        /* \"#utility.yul\":2829:2862   */\n      tag_328\n      jump\t// in\n    tag_393:\n        /* \"#utility.yul\":2729:2868   */\n      swap3\n      swap2\n      pop\n      pop\n      jump\t// out\n        /* \"#utility.yul\":2874:3348   */\n    tag_51:\n        /* \"#utility.yul\":2942:2948   */\n      0x00\n        /* \"#utility.yul\":2950:2956   */\n      dup1\n        /* \"#utility.yul\":2999:3001   */\n      0x40\n        /* \"#utility.yul\":2987:2996   */\n      dup4\n        /* \"#utility.yul\":2978:2985   */\n      dup6\n        /* \"#utility.yul\":2974:2997   */\n      sub\n        /* \"#utility.yul\":2970:3002   */\n      slt\n        /* \"#utility.yul\":2967:3086   */\n      iszero\n      tag_395\n      jumpi\n        /* \"#utility.yul\":3005:3084   */\n      tag_396\n      tag_316\n      jump\t// in\n    tag_396:\n        /* \"#utility.yul\":2967:3086   */\n    tag_395:\n        /* \"#utility.yul\":3125:3126   */\n      0x00\n        /* \"#utility.yul\":3150:3203   */\n      tag_397\n        /* \"#utility.yul\":3195:3202   */\n      dup6\n        /* \"#utility.yul\":3186:3192   */\n      dup3\n        /* \"#utility.yul\":3175:3184   */\n      dup7\n        /* \"#utility.yul\":3171:3193   */\n      add\n        /* \"#utility.yul\":3150:3203   */\n      tag_329\n      jump\t// in\n    tag_397:\n        /* \"#utility.yul\":3140:3203   */\n      swap3\n      pop\n        /* \"#utility.yul\":3096:3213   */\n      pop\n        /* \"#utility.yul\":3252:3254   */\n      0x20\n        /* \"#utility.yul\":3278:3331   */\n      tag_398\n        /* \"#utility.yul\":3323:3330   */\n      dup6\n        /* \"#utility.yul\":3314:3320   */\n      dup3\n        /* \"#utility.yul\":3303:3312   */\n      dup7\n        /* \"#utility.yul\":3299:3321   */\n      add\n        /* \"#utility.yul\":3278:3331   */\n      tag_320\n      jump\t// in\n    tag_398:\n        /* \"#utility.yul\":3268:3331   */\n      swap2\n      pop\n        /* \"#utility.yul\":3223:3341   */\n      pop\n        /* \"#utility.yul\":2874:3348   */\n      swap3\n      pop\n      swap3\n      swap1\n      pop\n      jump\t// out\n        /* \"#utility.yul\":3354:3444   */\n    tag_330:\n        /* \"#utility.yul\":3388:3395   */\n      0x00\n        /* \"#utility.yul\":3431:3436   */\n      dup2\n        /* \"#utility.yul\":3424:3437   */\n      iszero\n        /* \"#utility.yul\":3417:3438   */\n      iszero\n        /* \"#utility.yul\":3406:3438   */\n      swap1\n      pop\n        /* \"#utility.yul\":3354:3444   */\n      swap2\n      swap1\n      pop\n      jump\t// out\n        /* \"#utility.yul\":3450:3559   */\n    tag_331:\n        /* \"#utility.yul\":3531:3552   */\n      tag_401\n        /* \"#utility.yul\":3546:3551   */\n      dup2\n        /* \"#utility.yul\":3531:3552   */\n      tag_330\n      jump\t// in\n    tag_401:\n        /* \"#utility.yul\":3526:3529   */\n      dup3\n        /* \"#utility.yul\":3519:3553   */\n      mstore\n        /* \"#utility.yul\":3450:3559   */\n      pop\n      pop\n      jump\t// out\n        /* \"#utility.yul\":3565:3775   */\n    tag_54:\n        /* \"#utility.yul\":3652:3656   */\n      0x00\n        /* \"#utility.yul\":3690:3692   */\n      0x20\n        /* \"#utility.yul\":3679:3688   */\n      dup3\n        /* \"#utility.yul\":3675:3693   */\n      add\n        /* \"#utility.yul\":3667:3693   */\n      swap1\n      pop\n        /* \"#utility.yul\":3703:3768   */\n      tag_403\n        /* \"#utility.yul\":3765:3766   */\n      0x00\n        /* \"#utility.yul\":3754:3763   */\n      dup4\n        /* \"#utility.yul\":3750:3767   */\n      add\n        /* \"#utility.yul\":3741:3747   */\n      dup5\n        /* \"#utility.yul\":3703:3768   */\n      tag_331\n      jump\t// in\n    tag_403:\n        /* \"#utility.yul\":3565:3775   */\n      swap3\n      swap2\n      pop\n      pop\n      jump\t// out\n        /* \"#utility.yul\":3781:3899   */\n    tag_332:\n        /* \"#utility.yul\":3868:3892   */\n      tag_405\n        /* \"#utility.yul\":3886:3891   */\n      dup2\n        /* \"#utility.yul\":3868:3892   */\n      tag_318\n      jump\t// in\n    tag_405:\n        /* \"#utility.yul\":3863:3866   */\n      dup3\n        /* \"#utility.yul\":3856:3893   */\n      mstore\n        /* \"#utility.yul\":3781:3899   */\n      pop\n      pop\n      jump\t// out\n        /* \"#utility.yul\":3905:4127   */\n    tag_59:\n        /* \"#utility.yul\":3998:4002   */\n      0x00\n        /* \"#utility.yul\":4036:4038   */\n      0x20\n        /* \"#utility.yul\":4025:4034   */\n      dup3\n        /* \"#utility.yul\":4021:4039   */\n      add\n        /* \"#utility.yul\":4013:4039   */\n      swap1\n      pop\n        /* \"#utility.yul\":4049:4120   */\n      tag_407\n        /* \"#utility.yul\":4117:4118   */\n      0x00\n        /* \"#utility.yul\":4106:4115   */\n      dup4\n        /* \"#utility.yul\":4102:4119   */\n      add\n        /* \"#utility.yul\":4093:4099   */\n      dup5\n        /* \"#utility.yul\":4049:4120   */\n      tag_332\n      jump\t// in\n    tag_407:\n        /* \"#utility.yul\":3905:4127   */\n      swap3\n      swap2\n      pop\n      pop\n      jump\t// out\n        /* \"#utility.yul\":4133:4752   */\n    tag_80:\n        /* \"#utility.yul\":4210:4216   */\n      0x00\n        /* \"#utility.yul\":4218:4224   */\n      dup1\n        /* \"#utility.yul\":4226:4232   */\n      0x00\n        /* \"#utility.yul\":4275:4277   */\n      0x60\n        /* \"#utility.yul\":4263:4272   */\n      dup5\n        /* \"#utility.yul\":4254:4261   */\n      dup7\n        /* \"#utility.yul\":4250:4273   */\n      sub\n        /* \"#utility.yul\":4246:4278   */\n      slt\n        /* \"#utility.yul\":4243:4362   */\n      iszero\n      tag_409\n      jumpi\n        /* \"#utility.yul\":4281:4360   */\n      tag_410\n      tag_316\n      jump\t// in\n    tag_410:\n        /* \"#utility.yul\":4243:4362   */\n    tag_409:\n        /* \"#utility.yul\":4401:4402   */\n      0x00\n        /* \"#utility.yul\":4426:4479   */\n      tag_411\n        /* \"#utility.yul\":4471:4478   */\n      dup7\n        /* \"#utility.yul\":4462:4468   */\n      dup3\n        /* \"#utility.yul\":4451:4460   */\n      dup8\n        /* \"#utility.yul\":4447:4469   */\n      add\n        /* \"#utility.yul\":4426:4479   */\n      tag_320\n      jump\t// in\n    tag_411:\n        /* \"#utility.yul\":4416:4479   */\n      swap4\n      pop\n        /* \"#utility.yul\":4372:4489   */\n      pop\n        /* \"#utility.yul\":4528:4530   */\n      0x20\n        /* \"#utility.yul\":4554:4607   */\n      tag_412\n        /* \"#utility.yul\":4599:4606   */\n      dup7\n        /* \"#utility.yul\":4590:4596   */\n      dup3\n        /* \"#utility.yul\":4579:4588   */\n      dup8\n        /* \"#utility.yul\":4575:4597   */\n      add\n        /* \"#utility.yul\":4554:4607   */\n      tag_320\n      jump\t// in\n    tag_412:\n        /* \"#utility.yul\":4544:4607   */\n      swap3\n      pop\n        /* \"#utility.yul\":4499:4617   */\n      pop\n        /* \"#utility.yul\":4656:4658   */\n      0x40\n        /* \"#utility.yul\":4682:4735   */\n      tag_413\n        /* \"#utility.yul\":4727:4734   */\n      dup7\n        /* \"#utility.yul\":4718:4724   */\n      dup3\n        /* \"#utility.yul\":4707:4716   */\n      dup8\n        /* \"#utility.yul\":4703:4725   */\n      add\n        /* \"#utility.yul\":4682:4735   */\n      tag_320\n      jump\t// in\n    tag_413:\n        /* \"#utility.yul\":4672:4735   */\n      swap2\n      pop\n        /* \"#utility.yul\":4627:4745   */\n      pop\n        /* \"#utility.yul\":4133:4752   */\n      swap3\n      pop\n      swap3\n      pop\n      swap3\n      jump\t// out\n        /* \"#utility.yul\":4758:5377   */\n    tag_85:\n        /* \"#utility.yul\":4835:4841   */\n      0x00\n        /* \"#utility.yul\":4843:4849   */\n      dup1\n        /* \"#utility.yul\":4851:4857   */\n      0x00\n        /* \"#utility.yul\":4900:4902   */\n      0x60\n        /* \"#utility.yul\":4888:4897   */\n      dup5\n        /* \"#utility.yul\":4879:4886   */\n      dup7\n        /* \"#utility.yul\":4875:4898   */\n      sub\n        /* \"#utility.yul\":4871:4903   */\n      slt\n        /* \"#utility.yul\":4868:4987   */\n      iszero\n      tag_415\n      jumpi\n        /* \"#utility.yul\":4906:4985   */\n      tag_416\n      tag_316\n      jump\t// in\n    tag_416:\n        /* \"#utility.yul\":4868:4987   */\n    tag_415:\n        /* \"#utility.yul\":5026:5027   */\n      0x00\n        /* \"#utility.yul\":5051:5104   */\n      tag_417\n        /* \"#utility.yul\":5096:5103   */\n      dup7\n        /* \"#utility.yul\":5087:5093   */\n      dup3\n        /* \"#utility.yul\":5076:5085   */\n      dup8\n        /* \"#utility.yul\":5072:5094   */\n      add\n        /* \"#utility.yul\":5051:5104   */\n      tag_329\n      jump\t// in\n    tag_417:\n        /* \"#utility.yul\":5041:5104   */\n      swap4\n      pop\n        /* \"#utility.yul\":4997:5114   */\n      pop\n        /* \"#utility.yul\":5153:5155   */\n      0x20\n        /* \"#utility.yul\":5179:5232   */\n      tag_418\n        /* \"#utility.yul\":5224:5231   */\n      dup7\n        /* \"#utility.yul\":5215:5221   */\n      dup3\n        /* \"#utility.yul\":5204:5213   */\n      dup8\n        /* \"#utility.yul\":5200:5222   */\n      add\n        /* \"#utility.yul\":5179:5232   */\n      tag_329\n      jump\t// in\n    tag_418:\n        /* \"#utility.yul\":5169:5232   */\n      swap3\n      pop\n        /* \"#utility.yul\":5124:5242   */\n      pop\n        /* \"#utility.yul\":5281:5283   */\n      0x40\n        /* \"#utility.yul\":5307:5360   */\n      tag_419\n        /* \"#utility.yul\":5352:5359   */\n      dup7\n        /* \"#utility.yul\":5343:5349   */\n      dup3\n        /* \"#utility.yul\":5332:5341   */\n      dup8\n        /* \"#utility.yul\":5328:5350   */\n      add\n        /* \"#utility.yul\":5307:5360   */\n      tag_320\n      jump\t// in\n    tag_419:\n        /* \"#utility.yul\":5297:5360   */\n      swap2\n      pop\n        /* \"#utility.yul\":5252:5370   */\n      pop\n        /* \"#utility.yul\":4758:5377   */\n      swap3\n      pop\n      swap3\n      pop\n      swap3\n      jump\t// out\n        /* \"#utility.yul\":5383:5469   */\n    tag_333:\n        /* \"#utility.yul\":5418:5425   */\n      0x00\n        /* \"#utility.yul\":5458:5462   */\n      0xff\n        /* \"#utility.yul\":5451:5456   */\n      dup3\n        /* \"#utility.yul\":5447:5463   */\n      and\n        /* \"#utility.yul\":5436:5463   */\n      swap1\n      pop\n        /* \"#utility.yul\":5383:5469   */\n      swap2\n      swap1\n      pop\n      jump\t// out\n        /* \"#utility.yul\":5475:5587   */\n    tag_334:\n        /* \"#utility.yul\":5558:5580   */\n      tag_422\n        /* \"#utility.yul\":5574:5579   */\n      dup2\n        /* \"#utility.yul\":5558:5580   */\n      tag_333\n      jump\t// in\n    tag_422:\n        /* \"#utility.yul\":5553:5556   */\n      dup3\n        /* \"#utility.yul\":5546:5581   */\n      mstore\n        /* \"#utility.yul\":5475:5587   */\n      pop\n      pop\n      jump\t// out\n        /* \"#utility.yul\":5593:5807   */\n    tag_97:\n        /* \"#utility.yul\":5682:5686   */\n      0x00\n        /* \"#utility.yul\":5720:5722   */\n      0x20\n        /* \"#utility.yul\":5709:5718   */\n      dup3\n        /* \"#utility.yul\":5705:5723   */\n      add\n        /* \"#utility.yul\":5697:5723   */\n      swap1\n      pop\n        /* \"#utility.yul\":5733:5800   */\n      tag_424\n        /* \"#utility.yul\":5797:5798   */\n      0x00\n        /* \"#utility.yul\":5786:5795   */\n      dup4\n        /* \"#utility.yul\":5782:5799   */\n      add\n        /* \"#utility.yul\":5773:5779   */\n      dup5\n        /* \"#utility.yul\":5733:5800   */\n      tag_334\n      jump\t// in\n    tag_424:\n        /* \"#utility.yul\":5593:5807   */\n      swap3\n      swap2\n      pop\n      pop\n      jump\t// out\n        /* \"#utility.yul\":5813:5931   */\n    tag_335:\n        /* \"#utility.yul\":5900:5924   */\n      tag_426\n        /* \"#utility.yul\":5918:5923   */\n      dup2\n        /* \"#utility.yul\":5900:5924   */\n      tag_327\n      jump\t// in\n    tag_426:\n        /* \"#utility.yul\":5895:5898   */\n      dup3\n        /* \"#utility.yul\":5888:5925   */\n      mstore\n        /* \"#utility.yul\":5813:5931   */\n      pop\n      pop\n      jump\t// out\n        /* \"#utility.yul\":5937:6478   */\n    tag_107:\n        /* \"#utility.yul\":6108:6112   */\n      0x00\n        /* \"#utility.yul\":6146:6149   */\n      0x80\n        /* \"#utility.yul\":6135:6144   */\n      dup3\n        /* \"#utility.yul\":6131:6150   */\n      add\n        /* \"#utility.yul\":6123:6150   */\n      swap1\n      pop\n        /* \"#utility.yul\":6160:6231   */\n      tag_428\n        /* \"#utility.yul\":6228:6229   */\n      0x00\n        /* \"#utility.yul\":6217:6226   */\n      dup4\n        /* \"#utility.yul\":6213:6230   */\n      add\n        /* \"#utility.yul\":6204:6210   */\n      dup8\n        /* \"#utility.yul\":6160:6231   */\n      tag_332\n      jump\t// in\n    tag_428:\n        /* \"#utility.yul\":6241:6313   */\n      tag_429\n        /* \"#utility.yul\":6309:6311   */\n      0x20\n        /* \"#utility.yul\":6298:6307   */\n      dup4\n        /* \"#utility.yul\":6294:6312   */\n      add\n        /* \"#utility.yul\":6285:6291   */\n      dup7\n        /* \"#utility.yul\":6241:6313   */\n      tag_335\n      jump\t// in\n    tag_429:\n        /* \"#utility.yul\":6323:6395   */\n      tag_430\n        /* \"#utility.yul\":6391:6393   */\n      0x40\n        /* \"#utility.yul\":6380:6389   */\n      dup4\n        /* \"#utility.yul\":6376:6394   */\n      add\n        /* \"#utility.yul\":6367:6373   */\n      dup6\n        /* \"#utility.yul\":6323:6395   */\n      tag_332\n      jump\t// in\n    tag_430:\n        /* \"#utility.yul\":6405:6471   */\n      tag_431\n        /* \"#utility.yul\":6467:6469   */\n      0x60\n        /* \"#utility.yul\":6456:6465   */\n      dup4\n        /* \"#utility.yul\":6452:6470   */\n      add\n        /* \"#utility.yul\":6443:6449   */\n      dup5\n        /* \"#utility.yul\":6405:6471   */\n      tag_331\n      jump\t// in\n    tag_431:\n        /* \"#utility.yul\":5937:6478   */\n      swap6\n      swap5\n      pop\n      pop\n      pop\n      pop\n      pop\n      jump\t// out\n        /* \"#utility.yul\":6484:6813   */\n    tag_111:\n        /* \"#utility.yul\":6543:6549   */\n      0x00\n        /* \"#utility.yul\":6592:6594   */\n      0x20\n        /* \"#utility.yul\":6580:6589   */\n      dup3\n        /* \"#utility.yul\":6571:6578   */\n      dup5\n        /* \"#utility.yul\":6567:6590   */\n      sub\n        /* \"#utility.yul\":6563:6595   */\n      slt\n        /* \"#utility.yul\":6560:6679   */\n      iszero\n      tag_433\n      jumpi\n        /* \"#utility.yul\":6598:6677   */\n      tag_434\n      tag_316\n      jump\t// in\n    tag_434:\n        /* \"#utility.yul\":6560:6679   */\n    tag_433:\n        /* \"#utility.yul\":6718:6719   */\n      0x00\n        /* \"#utility.yul\":6743:6796   */\n      tag_435\n        /* \"#utility.yul\":6788:6795   */\n      dup5\n        /* \"#utility.yul\":6779:6785   */\n      dup3\n        /* \"#utility.yul\":6768:6777   */\n      dup6\n        /* \"#utility.yul\":6764:6786   */\n      add\n        /* \"#utility.yul\":6743:6796   */\n      tag_329\n      jump\t// in\n    tag_435:\n        /* \"#utility.yul\":6733:6796   */\n      swap2\n      pop\n        /* \"#utility.yul\":6689:6806   */\n      pop\n        /* \"#utility.yul\":6484:6813   */\n      swap3\n      swap2\n      pop\n      pop\n      jump\t// out\n        /* \"#utility.yul\":6819:7041   */\n    tag_132:\n        /* \"#utility.yul\":6912:6916   */\n      0x00\n        /* \"#utility.yul\":6950:6952   */\n      0x20\n        /* \"#utility.yul\":6939:6948   */\n      dup3\n        /* \"#utility.yul\":6935:6953   */\n      add\n        /* \"#utility.yul\":6927:6953   */\n      swap1\n      pop\n        /* \"#utility.yul\":6963:7034   */\n      tag_437\n        /* \"#utility.yul\":7031:7032   */\n      0x00\n        /* \"#utility.yul\":7020:7029   */\n      dup4\n        /* \"#utility.yul\":7016:7033   */\n      add\n        /* \"#utility.yul\":7007:7013   */\n      dup5\n        /* \"#utility.yul\":6963:7034   */\n      tag_335\n      jump\t// in\n    tag_437:\n        /* \"#utility.yul\":6819:7041   */\n      swap3\n      swap2\n      pop\n      pop\n      jump\t// out\n        /* \"#utility.yul\":7047:7521   */\n    tag_151:\n        /* \"#utility.yul\":7115:7121   */\n      0x00\n        /* \"#utility.yul\":7123:7129   */\n      dup1\n        /* \"#utility.yul\":7172:7174   */\n      0x40\n        /* \"#utility.yul\":7160:7169   */\n      dup4\n        /* \"#utility.yul\":7151:7158   */\n      dup6\n        /* \"#utility.yul\":7147:7170   */\n      sub\n        /* \"#utility.yul\":7143:7175   */\n      slt\n        /* \"#utility.yul\":7140:7259   */\n      iszero\n      tag_439\n      jumpi\n        /* \"#utility.yul\":7178:7257   */\n      tag_440\n      tag_316\n      jump\t// in\n    tag_440:\n        /* \"#utility.yul\":7140:7259   */\n    tag_439:\n        /* \"#utility.yul\":7298:7299   */\n      0x00\n        /* \"#utility.yul\":7323:7376   */\n      tag_441\n        /* \"#utility.yul\":7368:7375   */\n      dup6\n        /* \"#utility.yul\":7359:7365   */\n      dup3\n        /* \"#utility.yul\":7348:7357   */\n      dup7\n        /* \"#utility.yul\":7344:7366   */\n      add\n        /* \"#utility.yul\":7323:7376   */\n      tag_320\n      jump\t// in\n    tag_441:\n        /* \"#utility.yul\":7313:7376   */\n      swap3\n      pop\n        /* \"#utility.yul\":7269:7386   */\n      pop\n        /* \"#utility.yul\":7425:7427   */\n      0x20\n        /* \"#utility.yul\":7451:7504   */\n      tag_442\n        /* \"#utility.yul\":7496:7503   */\n      dup6\n        /* \"#utility.yul\":7487:7493   */\n      dup3\n        /* \"#utility.yul\":7476:7485   */\n      dup7\n        /* \"#utility.yul\":7472:7494   */\n      add\n        /* \"#utility.yul\":7451:7504   */\n      tag_320\n      jump\t// in\n    tag_442:\n        /* \"#utility.yul\":7441:7504   */\n      swap2\n      pop\n        /* \"#utility.yul\":7396:7514   */\n      pop\n        /* \"#utility.yul\":7047:7521   */\n      swap3\n      pop\n      swap3\n      swap1\n      pop\n      jump\t// out\n        /* \"#utility.yul\":7527:7643   */\n    tag_336:\n        /* \"#utility.yul\":7597:7618   */\n      tag_444\n        /* \"#utility.yul\":7612:7617   */\n      dup2\n        /* \"#utility.yul\":7597:7618   */\n      tag_330\n      jump\t// in\n    tag_444:\n        /* \"#utility.yul\":7590:7595   */\n      dup2\n        /* \"#utility.yul\":7587:7619   */\n      eq\n        /* \"#utility.yul\":7577:7637   */\n      tag_445\n      jumpi\n        /* \"#utility.yul\":7633:7634   */\n      0x00\n        /* \"#utility.yul\":7630:7631   */\n      dup1\n        /* \"#utility.yul\":7623:7635   */\n      revert\n        /* \"#utility.yul\":7577:7637   */\n    tag_445:\n        /* \"#utility.yul\":7527:7643   */\n      pop\n      jump\t// out\n        /* \"#utility.yul\":7649:7782   */\n    tag_337:\n        /* \"#utility.yul\":7692:7697   */\n      0x00\n        /* \"#utility.yul\":7730:7736   */\n      dup2\n        /* \"#utility.yul\":7717:7737   */\n      calldataload\n        /* \"#utility.yul\":7708:7737   */\n      swap1\n      pop\n        /* \"#utility.yul\":7746:7776   */\n      tag_447\n        /* \"#utility.yul\":7770:7775   */\n      dup2\n        /* \"#utility.yul\":7746:7776   */\n      tag_336\n      jump\t// in\n    tag_447:\n        /* \"#utility.yul\":7649:7782   */\n      swap3\n      swap2\n      pop\n      pop\n      jump\t// out\n        /* \"#utility.yul\":7788:8547   */\n    tag_161:\n        /* \"#utility.yul\":7871:7877   */\n      0x00\n        /* \"#utility.yul\":7879:7885   */\n      dup1\n        /* \"#utility.yul\":7887:7893   */\n      0x00\n        /* \"#utility.yul\":7895:7901   */\n      dup1\n        /* \"#utility.yul\":7944:7947   */\n      0x80\n        /* \"#utility.yul\":7932:7941   */\n      dup6\n        /* \"#utility.yul\":7923:7930   */\n      dup8\n        /* \"#utility.yul\":7919:7942   */\n      sub\n        /* \"#utility.yul\":7915:7948   */\n      slt\n        /* \"#utility.yul\":7912:8032   */\n      iszero\n      tag_449\n      jumpi\n        /* \"#utility.yul\":7951:8030   */\n      tag_450\n      tag_316\n      jump\t// in\n    tag_450:\n        /* \"#utility.yul\":7912:8032   */\n    tag_449:\n        /* \"#utility.yul\":8071:8072   */\n      0x00\n        /* \"#utility.yul\":8096:8149   */\n      tag_451\n        /* \"#utility.yul\":8141:8148   */\n      dup8\n        /* \"#utility.yul\":8132:8138   */\n      dup3\n        /* \"#utility.yul\":8121:8130   */\n      dup9\n        /* \"#utility.yul\":8117:8139   */\n      add\n        /* \"#utility.yul\":8096:8149   */\n      tag_320\n      jump\t// in\n    tag_451:\n        /* \"#utility.yul\":8086:8149   */\n      swap5\n      pop\n        /* \"#utility.yul\":8042:8159   */\n      pop\n        /* \"#utility.yul\":8198:8200   */\n      0x20\n        /* \"#utility.yul\":8224:8277   */\n      tag_452\n        /* \"#utility.yul\":8269:8276   */\n      dup8\n        /* \"#utility.yul\":8260:8266   */\n      dup3\n        /* \"#utility.yul\":8249:8258   */\n      dup9\n        /* \"#utility.yul\":8245:8267   */\n      add\n        /* \"#utility.yul\":8224:8277   */\n      tag_320\n      jump\t// in\n    tag_452:\n        /* \"#utility.yul\":8214:8277   */\n      swap4\n      pop\n        /* \"#utility.yul\":8169:8287   */\n      pop\n        /* \"#utility.yul\":8326:8328   */\n      0x40\n        /* \"#utility.yul\":8352:8405   */\n      tag_453\n        /* \"#utility.yul\":8397:8404   */\n      dup8\n        /* \"#utility.yul\":8388:8394   */\n      dup3\n        /* \"#utility.yul\":8377:8386   */\n      dup9\n        /* \"#utility.yul\":8373:8395   */\n      add\n        /* \"#utility.yul\":8352:8405   */\n      tag_320\n      jump\t// in\n    tag_453:\n        /* \"#utility.yul\":8342:8405   */\n      swap3\n      pop\n        /* \"#utility.yul\":8297:8415   */\n      pop\n        /* \"#utility.yul\":8454:8456   */\n      0x60\n        /* \"#utility.yul\":8480:8530   */\n      tag_454\n        /* \"#utility.yul\":8522:8529   */\n      dup8\n        /* \"#utility.yul\":8513:8519   */\n      dup3\n        /* \"#utility.yul\":8502:8511   */\n      dup9\n        /* \"#utility.yul\":8498:8520   */\n      add\n        /* \"#utility.yul\":8480:8530   */\n      tag_337\n      jump\t// in\n    tag_454:\n        /* \"#utility.yul\":8470:8530   */\n      swap2\n      pop\n        /* \"#utility.yul\":8425:8540   */\n      pop\n        /* \"#utility.yul\":7788:8547   */\n      swap3\n      swap6\n      swap2\n      swap5\n      pop\n      swap3\n      pop\n      jump\t// out\n        /* \"#utility.yul\":8553:9027   */\n    tag_166:\n        /* \"#utility.yul\":8621:8627   */\n      0x00\n        /* \"#utility.yul\":8629:8635   */\n      dup1\n        /* \"#utility.yul\":8678:8680   */\n      0x40\n        /* \"#utility.yul\":8666:8675   */\n      dup4\n        /* \"#utility.yul\":8657:8664   */\n      dup6\n        /* \"#utility.yul\":8653:8676   */\n      sub\n        /* \"#utility.yul\":8649:8681   */\n      slt\n        /* \"#utility.yul\":8646:8765   */\n      iszero\n      tag_456\n      jumpi\n        /* \"#utility.yul\":8684:8763   */\n      tag_457\n      tag_316\n      jump\t// in\n    tag_457:\n        /* \"#utility.yul\":8646:8765   */\n    tag_456:\n        /* \"#utility.yul\":8804:8805   */\n      0x00\n        /* \"#utility.yul\":8829:8882   */\n      tag_458\n        /* \"#utility.yul\":8874:8881   */\n      dup6\n        /* \"#utility.yul\":8865:8871   */\n      dup3\n        /* \"#utility.yul\":8854:8863   */\n      dup7\n        /* \"#utility.yul\":8850:8872   */\n      add\n        /* \"#utility.yul\":8829:8882   */\n      tag_329\n      jump\t// in\n    tag_458:\n        /* \"#utility.yul\":8819:8882   */\n      swap3\n      pop\n        /* \"#utility.yul\":8775:8892   */\n      pop\n        /* \"#utility.yul\":8931:8933   */\n      0x20\n        /* \"#utility.yul\":8957:9010   */\n      tag_459\n        /* \"#utility.yul\":9002:9009   */\n      dup6\n        /* \"#utility.yul\":8993:8999   */\n      dup3\n        /* \"#utility.yul\":8982:8991   */\n      dup7\n        /* \"#utility.yul\":8978:9000   */\n      add\n        /* \"#utility.yul\":8957:9010   */\n      tag_329\n      jump\t// in\n    tag_459:\n        /* \"#utility.yul\":8947:9010   */\n      swap2\n      pop\n        /* \"#utility.yul\":8902:9020   */\n      pop\n        /* \"#utility.yul\":8553:9027   */\n      swap3\n      pop\n      swap3\n      swap1\n      pop\n      jump\t// out\n        /* \"#utility.yul\":9033:9784   */\n    tag_179:\n        /* \"#utility.yul\":9254:9258   */\n      0x00\n        /* \"#utility.yul\":9292:9295   */\n      0xc0\n        /* \"#utility.yul\":9281:9290   */\n      dup3\n        /* \"#utility.yul\":9277:9296   */\n      add\n        /* \"#utility.yul\":9269:9296   */\n      swap1\n      pop\n        /* \"#utility.yul\":9306:9377   */\n      tag_461\n        /* \"#utility.yul\":9374:9375   */\n      0x00\n        /* \"#utility.yul\":9363:9372   */\n      dup4\n        /* \"#utility.yul\":9359:9376   */\n      add\n        /* \"#utility.yul\":9350:9356   */\n      dup10\n        /* \"#utility.yul\":9306:9377   */\n      tag_335\n      jump\t// in\n    tag_461:\n        /* \"#utility.yul\":9387:9459   */\n      tag_462\n        /* \"#utility.yul\":9455:9457   */\n      0x20\n        /* \"#utility.yul\":9444:9453   */\n      dup4\n        /* \"#utility.yul\":9440:9458   */\n      add\n        /* \"#utility.yul\":9431:9437   */\n      dup9\n        /* \"#utility.yul\":9387:9459   */\n      tag_332\n      jump\t// in\n    tag_462:\n        /* \"#utility.yul\":9469:9541   */\n      tag_463\n        /* \"#utility.yul\":9537:9539   */\n      0x40\n        /* \"#utility.yul\":9526:9535   */\n      dup4\n        /* \"#utility.yul\":9522:9540   */\n      add\n        /* \"#utility.yul\":9513:9519   */\n      dup8\n        /* \"#utility.yul\":9469:9541   */\n      tag_332\n      jump\t// in\n    tag_463:\n        /* \"#utility.yul\":9551:9623   */\n      tag_464\n        /* \"#utility.yul\":9619:9621   */\n      0x60\n        /* \"#utility.yul\":9608:9617   */\n      dup4\n        /* \"#utility.yul\":9604:9622   */\n      add\n        /* \"#utility.yul\":9595:9601   */\n      dup7\n        /* \"#utility.yul\":9551:9623   */\n      tag_332\n      jump\t// in\n    tag_464:\n        /* \"#utility.yul\":9633:9700   */\n      tag_465\n        /* \"#utility.yul\":9695:9698   */\n      0x80\n        /* \"#utility.yul\":9684:9693   */\n      dup4\n        /* \"#utility.yul\":9680:9699   */\n      add\n        /* \"#utility.yul\":9671:9677   */\n      dup6\n        /* \"#utility.yul\":9633:9700   */\n      tag_331\n      jump\t// in\n    tag_465:\n        /* \"#utility.yul\":9710:9777   */\n      tag_466\n        /* \"#utility.yul\":9772:9775   */\n      0xa0\n        /* \"#utility.yul\":9761:9770   */\n      dup4\n        /* \"#utility.yul\":9757:9776   */\n      add\n        /* \"#utility.yul\":9748:9754   */\n      dup5\n        /* \"#utility.yul\":9710:9777   */\n      tag_331\n      jump\t// in\n    tag_466:\n        /* \"#utility.yul\":9033:9784   */\n      swap8\n      swap7\n      pop\n      pop\n      pop\n      pop\n      pop\n      pop\n      pop\n      jump\t// out\n        /* \"#utility.yul\":9790:10021   */\n    tag_338:\n        /* \"#utility.yul\":9930:9964   */\n      0x4f6e6c79207468652070726f7065727479206f776e65722063616e2073746172\n        /* \"#utility.yul\":9926:9927   */\n      0x00\n        /* \"#utility.yul\":9918:9924   */\n      dup3\n        /* \"#utility.yul\":9914:9928   */\n      add\n        /* \"#utility.yul\":9907:9965   */\n      mstore\n        /* \"#utility.yul\":9999:10013   */\n      0x7420616e2061756374696f6e0000000000000000000000000000000000000000\n        /* \"#utility.yul\":9994:9996   */\n      0x20\n        /* \"#utility.yul\":9986:9992   */\n      dup3\n        /* \"#utility.yul\":9982:9997   */\n      add\n        /* \"#utility.yul\":9975:10014   */\n      mstore\n        /* \"#utility.yul\":9790:10021   */\n      pop\n      jump\t// out\n        /* \"#utility.yul\":10027:10393   */\n    tag_339:\n        /* \"#utility.yul\":10169:10172   */\n      0x00\n        /* \"#utility.yul\":10190:10257   */\n      tag_469\n        /* \"#utility.yul\":10254:10256   */\n      0x2c\n        /* \"#utility.yul\":10249:10252   */\n      dup4\n        /* \"#utility.yul\":10190:10257   */\n      tag_322\n      jump\t// in\n    tag_469:\n        /* \"#utility.yul\":10183:10257   */\n      swap2\n      pop\n        /* \"#utility.yul\":10266:10359   */\n      tag_470\n        /* \"#utility.yul\":10355:10358   */\n      dup3\n        /* \"#utility.yul\":10266:10359   */\n      tag_338\n      jump\t// in\n    tag_470:\n        /* \"#utility.yul\":10384:10386   */\n      0x40\n        /* \"#utility.yul\":10379:10382   */\n      dup3\n        /* \"#utility.yul\":10375:10387   */\n      add\n        /* \"#utility.yul\":10368:10387   */\n      swap1\n      pop\n        /* \"#utility.yul\":10027:10393   */\n      swap2\n      swap1\n      pop\n      jump\t// out\n        /* \"#utility.yul\":10399:10818   */\n    tag_183:\n        /* \"#utility.yul\":10565:10569   */\n      0x00\n        /* \"#utility.yul\":10603:10605   */\n      0x20\n        /* \"#utility.yul\":10592:10601   */\n      dup3\n        /* \"#utility.yul\":10588:10606   */\n      add\n        /* \"#utility.yul\":10580:10606   */\n      swap1\n      pop\n        /* \"#utility.yul\":10652:10661   */\n      dup2\n        /* \"#utility.yul\":10646:10650   */\n      dup2\n        /* \"#utility.yul\":10642:10662   */\n      sub\n        /* \"#utility.yul\":10638:10639   */\n      0x00\n        /* \"#utility.yul\":10627:10636   */\n      dup4\n        /* \"#utility.yul\":10623:10640   */\n      add\n        /* \"#utility.yul\":10616:10663   */\n      mstore\n        /* \"#utility.yul\":10680:10811   */\n      tag_472\n        /* \"#utility.yul\":10806:10810   */\n      dup2\n        /* \"#utility.yul\":10680:10811   */\n      tag_339\n      jump\t// in\n    tag_472:\n        /* \"#utility.yul\":10672:10811   */\n      swap1\n      pop\n        /* \"#utility.yul\":10399:10818   */\n      swap2\n      swap1\n      pop\n      jump\t// out\n        /* \"#utility.yul\":10824:11056   */\n    tag_340:\n        /* \"#utility.yul\":10964:10998   */\n      0x41756374696f6e20666f7220746869732070726f70657274792068617320616c\n        /* \"#utility.yul\":10960:10961   */\n      0x00\n        /* \"#utility.yul\":10952:10958   */\n      dup3\n        /* \"#utility.yul\":10948:10962   */\n      add\n        /* \"#utility.yul\":10941:10999   */\n      mstore\n        /* \"#utility.yul\":11033:11048   */\n      0x7265616479207374617274656400000000000000000000000000000000000000\n        /* \"#utility.yul\":11028:11030   */\n      0x20\n        /* \"#utility.yul\":11020:11026   */\n      dup3\n        /* \"#utility.yul\":11016:11031   */\n      add\n        /* \"#utility.yul\":11009:11049   */\n      mstore\n        /* \"#utility.yul\":10824:11056   */\n      pop\n      jump\t// out\n        /* \"#utility.yul\":11062:11428   */\n    tag_341:\n        /* \"#utility.yul\":11204:11207   */\n      0x00\n        /* \"#utility.yul\":11225:11292   */\n      tag_475\n        /* \"#utility.yul\":11289:11291   */\n      0x2d\n        /* \"#utility.yul\":11284:11287   */\n      dup4\n        /* \"#utility.yul\":11225:11292   */\n      tag_322\n      jump\t// in\n    tag_475:\n        /* \"#utility.yul\":11218:11292   */\n      swap2\n      pop\n        /* \"#utility.yul\":11301:11394   */\n      tag_476\n        /* \"#utility.yul\":11390:11393   */\n      dup3\n        /* \"#utility.yul\":11301:11394   */\n      tag_340\n      jump\t// in\n    tag_476:\n        /* \"#utility.yul\":11419:11421   */\n      0x40\n        /* \"#utility.yul\":11414:11417   */\n      dup3\n        /* \"#utility.yul\":11410:11422   */\n      add\n        /* \"#utility.yul\":11403:11422   */\n      swap1\n      pop\n        /* \"#utility.yul\":11062:11428   */\n      swap2\n      swap1\n      pop\n      jump\t// out\n        /* \"#utility.yul\":11434:11853   */\n    tag_186:\n        /* \"#utility.yul\":11600:11604   */\n      0x00\n        /* \"#utility.yul\":11638:11640   */\n      0x20\n        /* \"#utility.yul\":11627:11636   */\n      dup3\n        /* \"#utility.yul\":11623:11641   */\n      add\n        /* \"#utility.yul\":11615:11641   */\n      swap1\n      pop\n        /* \"#utility.yul\":11687:11696   */\n      dup2\n        /* \"#utility.yul\":11681:11685   */\n      dup2\n        /* \"#utility.yul\":11677:11697   */\n      sub\n        /* \"#utility.yul\":11673:11674   */\n      0x00\n        /* \"#utility.yul\":11662:11671   */\n      dup4\n        /* \"#utility.yul\":11658:11675   */\n      add\n        /* \"#utility.yul\":11651:11698   */\n      mstore\n        /* \"#utility.yul\":11715:11846   */\n      tag_478\n        /* \"#utility.yul\":11841:11845   */\n      dup2\n        /* \"#utility.yul\":11715:11846   */\n      tag_341\n      jump\t// in\n    tag_478:\n        /* \"#utility.yul\":11707:11846   */\n      swap1\n      pop\n        /* \"#utility.yul\":11434:11853   */\n      swap2\n      swap1\n      pop\n      jump\t// out\n        /* \"#utility.yul\":11859:12039   */\n    tag_342:\n        /* \"#utility.yul\":11907:11984   */\n      0x4e487b7100000000000000000000000000000000000000000000000000000000\n        /* \"#utility.yul\":11904:11905   */\n      0x00\n        /* \"#utility.yul\":11897:11985   */\n      mstore\n        /* \"#utility.yul\":12004:12008   */\n      0x11\n        /* \"#utility.yul\":12001:12002   */\n      0x04\n        /* \"#utility.yul\":11994:12009   */\n      mstore\n        /* \"#utility.yul\":12028:12032   */\n      0x24\n        /* \"#utility.yul\":12025:12026   */\n      0x00\n        /* \"#utility.yul\":12018:12033   */\n      revert\n        /* \"#utility.yul\":12045:12278   */\n    tag_188:\n        /* \"#utility.yul\":12084:12087   */\n      0x00\n        /* \"#utility.yul\":12107:12131   */\n      tag_481\n        /* \"#utility.yul\":12125:12130   */\n      dup3\n        /* \"#utility.yul\":12107:12131   */\n      tag_318\n      jump\t// in\n    tag_481:\n        /* \"#utility.yul\":12098:12131   */\n      swap2\n      pop\n        /* \"#utility.yul\":12153:12219   */\n      0xffffffffffffffffffffffffffffffffffffffffffffffffffffffffffffffff\n        /* \"#utility.yul\":12146:12151   */\n      dup3\n        /* \"#utility.yul\":12143:12220   */\n      sub\n        /* \"#utility.yul\":12140:12243   */\n      tag_482\n      jumpi\n        /* \"#utility.yul\":12223:12241   */\n      tag_483\n      tag_342\n      jump\t// in\n    tag_483:\n        /* \"#utility.yul\":12140:12243   */\n    tag_482:\n        /* \"#utility.yul\":12270:12271   */\n      0x01\n        /* \"#utility.yul\":12263:12268   */\n      dup3\n        /* \"#utility.yul\":12259:12272   */\n      add\n        /* \"#utility.yul\":12252:12272   */\n      swap1\n      pop\n        /* \"#utility.yul\":12045:12278   */\n      swap2\n      swap1\n      pop\n      jump\t// out\n        /* \"#utility.yul\":12284:12464   */\n    tag_343:\n        /* \"#utility.yul\":12332:12409   */\n      0x4e487b7100000000000000000000000000000000000000000000000000000000\n        /* \"#utility.yul\":12329:12330   */\n      0x00\n        /* \"#utility.yul\":12322:12410   */\n      mstore\n        /* \"#utility.yul\":12429:12433   */\n      0x22\n        /* \"#utility.yul\":12426:12427   */\n      0x04\n        /* \"#utility.yul\":12419:12434   */\n      mstore\n        /* \"#utility.yul\":12453:12457   */\n      0x24\n        /* \"#utility.yul\":12450:12451   */\n      0x00\n        /* \"#utility.yul\":12443:12458   */\n      revert\n        /* \"#utility.yul\":12470:12790   */\n    tag_192:\n        /* \"#utility.yul\":12514:12520   */\n      0x00\n        /* \"#utility.yul\":12551:12552   */\n      0x02\n        /* \"#utility.yul\":12545:12549   */\n      dup3\n        /* \"#utility.yul\":12541:12553   */\n      div\n        /* \"#utility.yul\":12531:12553   */\n      swap1\n      pop\n        /* \"#utility.yul\":12598:12599   */\n      0x01\n        /* \"#utility.yul\":12592:12596   */\n      dup3\n        /* \"#utility.yul\":12588:12600   */\n      and\n        /* \"#utility.yul\":12619:12637   */\n      dup1\n        /* \"#utility.yul\":12609:12690   */\n      tag_486\n      jumpi\n        /* \"#utility.yul\":12675:12679   */\n      0x7f\n        /* \"#utility.yul\":12667:12673   */\n      dup3\n        /* \"#utility.yul\":12663:12680   */\n      and\n        /* \"#utility.yul\":12653:12680   */\n      swap2\n      pop\n        /* \"#utility.yul\":12609:12690   */\n    tag_486:\n        /* \"#utility.yul\":12737:12739   */\n      0x20\n        /* \"#utility.yul\":12729:12735   */\n      dup3\n        /* \"#utility.yul\":12726:12740   */\n      lt\n        /* \"#utility.yul\":12706:12724   */\n      dup2\n        /* \"#utility.yul\":12703:12741   */\n      sub\n        /* \"#utility.yul\":12700:12784   */\n      tag_487\n      jumpi\n        /* \"#utility.yul\":12756:12774   */\n      tag_488\n      tag_343\n      jump\t// in\n    tag_488:\n        /* \"#utility.yul\":12700:12784   */\n    tag_487:\n        /* \"#utility.yul\":12521:12790   */\n      pop\n        /* \"#utility.yul\":12470:12790   */\n      swap2\n      swap1\n      pop\n      jump\t// out\n        /* \"#utility.yul\":12796:13021   */\n    tag_344:\n        /* \"#utility.yul\":12936:12970   */\n      0x4f6e6c7920746865206f776e65722063616e20706572666f726d207468697320\n        /* \"#utility.yul\":12932:12933   */\n      0x00\n        /* \"#utility.yul\":12924:12930   */\n      dup3\n        /* \"#utility.yul\":12920:12934   */\n      add\n        /* \"#utility.yul\":12913:12971   */\n      mstore\n        /* \"#utility.yul\":13005:13013   */\n      0x616374696f6e0000000000000000000000000000000000000000000000000000\n        /* \"#utility.yul\":13000:13002   */\n      0x20\n        /* \"#utility.yul\":12992:12998   */\n      dup3\n        /* \"#utility.yul\":12988:13003   */\n      add\n        /* \"#utility.yul\":12981:13014   */\n      mstore\n        /* \"#utility.yul\":12796:13021   */\n      pop\n      jump\t// out\n        /* \"#utility.yul\":13027:13393   */\n    tag_345:\n        /* \"#utility.yul\":13169:13172   */\n      0x00\n        /* \"#utility.yul\":13190:13257   */\n      tag_491\n        /* \"#utility.yul\":13254:13256   */\n      0x26\n        /* \"#utility.yul\":13249:13252   */\n      dup4\n        /* \"#utility.yul\":13190:13257   */\n      tag_322\n      jump\t// in\n    tag_491:\n        /* \"#utility.yul\":13183:13257   */\n      swap2\n      pop\n        /* \"#utility.yul\":13266:13359   */\n      tag_492\n        /* \"#utility.yul\":13355:13358   */\n      dup3\n        /* \"#utility.yul\":13266:13359   */\n      tag_344\n      jump\t// in\n    tag_492:\n        /* \"#utility.yul\":13384:13386   */\n      0x40\n        /* \"#utility.yul\":13379:13382   */\n      dup3\n        /* \"#utility.yul\":13375:13387   */\n      add\n        /* \"#utility.yul\":13368:13387   */\n      swap1\n      pop\n        /* \"#utility.yul\":13027:13393   */\n      swap2\n      swap1\n      pop\n      jump\t// out\n        /* \"#utility.yul\":13399:13818   */\n    tag_206:\n        /* \"#utility.yul\":13565:13569   */\n      0x00\n        /* \"#utility.yul\":13603:13605   */\n      0x20\n        /* \"#utility.yul\":13592:13601   */\n      dup3\n        /* \"#utility.yul\":13588:13606   */\n      add\n        /* \"#utility.yul\":13580:13606   */\n      swap1\n      pop\n        /* \"#utility.yul\":13652:13661   */\n      dup2\n        /* \"#utility.yul\":13646:13650   */\n      dup2\n        /* \"#utility.yul\":13642:13662   */\n      sub\n        /* \"#utility.yul\":13638:13639   */\n      0x00\n        /* \"#utility.yul\":13627:13636   */\n      dup4\n        /* \"#utility.yul\":13623:13640   */\n      add\n        /* \"#utility.yul\":13616:13663   */\n      mstore\n        /* \"#utility.yul\":13680:13811   */\n      tag_494\n        /* \"#utility.yul\":13806:13810   */\n      dup2\n        /* \"#utility.yul\":13680:13811   */\n      tag_345\n      jump\t// in\n    tag_494:\n        /* \"#utility.yul\":13672:13811   */\n      swap1\n      pop\n        /* \"#utility.yul\":13399:13818   */\n      swap2\n      swap1\n      pop\n      jump\t// out\n        /* \"#utility.yul\":13824:13995   */\n    tag_346:\n        /* \"#utility.yul\":13964:13987   */\n      0x41756374696f6e20616c726561647920656e6465640000000000000000000000\n        /* \"#utility.yul\":13960:13961   */\n      0x00\n        /* \"#utility.yul\":13952:13958   */\n      dup3\n        /* \"#utility.yul\":13948:13962   */\n      add\n        /* \"#utility.yul\":13941:13988   */\n      mstore\n        /* \"#utility.yul\":13824:13995   */\n      pop\n      jump\t// out\n        /* \"#utility.yul\":14001:14367   */\n    tag_347:\n        /* \"#utility.yul\":14143:14146   */\n      0x00\n        /* \"#utility.yul\":14164:14231   */\n      tag_497\n        /* \"#utility.yul\":14228:14230   */\n      0x15\n        /* \"#utility.yul\":14223:14226   */\n      dup4\n        /* \"#utility.yul\":14164:14231   */\n      tag_322\n      jump\t// in\n    tag_497:\n        /* \"#utility.yul\":14157:14231   */\n      swap2\n      pop\n        /* \"#utility.yul\":14240:14333   */\n      tag_498\n        /* \"#utility.yul\":14329:14332   */\n      dup3\n        /* \"#utility.yul\":14240:14333   */\n      tag_346\n      jump\t// in\n    tag_498:\n        /* \"#utility.yul\":14358:14360   */\n      0x20\n        /* \"#utility.yul\":14353:14356   */\n      dup3\n        /* \"#utility.yul\":14349:14361   */\n      add\n        /* \"#utility.yul\":14342:14361   */\n      swap1\n      pop\n        /* \"#utility.yul\":14001:14367   */\n      swap2\n      swap1\n      pop\n      jump\t// out\n        /* \"#utility.yul\":14373:14792   */\n    tag_233:\n        /* \"#utility.yul\":14539:14543   */\n      0x00\n        /* \"#utility.yul\":14577:14579   */\n      0x20\n        /* \"#utility.yul\":14566:14575   */\n      dup3\n        /* \"#utility.yul\":14562:14580   */\n      add\n        /* \"#utility.yul\":14554:14580   */\n      swap1\n      pop\n        /* \"#utility.yul\":14626:14635   */\n      dup2\n        /* \"#utility.yul\":14620:14624   */\n      dup2\n        /* \"#utility.yul\":14616:14636   */\n      sub\n        /* \"#utility.yul\":14612:14613   */\n      0x00\n        /* \"#utility.yul\":14601:14610   */\n      dup4\n        /* \"#utility.yul\":14597:14614   */\n      add\n        /* \"#utility.yul\":14590:14637   */\n      mstore\n        /* \"#utility.yul\":14654:14785   */\n      tag_500\n        /* \"#utility.yul\":14780:14784   */\n      dup2\n        /* \"#utility.yul\":14654:14785   */\n      tag_347\n      jump\t// in\n    tag_500:\n        /* \"#utility.yul\":14646:14785   */\n      swap1\n      pop\n        /* \"#utility.yul\":14373:14792   */\n      swap2\n      swap1\n      pop\n      jump\t// out\n        /* \"#utility.yul\":14798:15032   */\n    tag_348:\n        /* \"#utility.yul\":14938:14972   */\n      0x426964206d75737420626520686967686572207468616e207468652063757272\n        /* \"#utility.yul\":14934:14935   */\n      0x00\n        /* \"#utility.yul\":14926:14932   */\n      dup3\n        /* \"#utility.yul\":14922:14936   */\n      add\n        /* \"#utility.yul\":14915:14973   */\n      mstore\n        /* \"#utility.yul\":15007:15024   */\n      0x656e742068696768657374206269640000000000000000000000000000000000\n        /* \"#utility.yul\":15002:15004   */\n      0x20\n        /* \"#utility.yul\":14994:15000   */\n      dup3\n        /* \"#utility.yul\":14990:15005   */\n      add\n        /* \"#utility.yul\":14983:15025   */\n      mstore\n        /* \"#utility.yul\":14798:15032   */\n      pop\n      jump\t// out\n        /* \"#utility.yul\":15038:15404   */\n    tag_349:\n        /* \"#utility.yul\":15180:15183   */\n      0x00\n        /* \"#utility.yul\":15201:15268   */\n      tag_503\n        /* \"#utility.yul\":15265:15267   */\n      0x2f\n        /* \"#utility.yul\":15260:15263   */\n      dup4\n        /* \"#utility.yul\":15201:15268   */\n      tag_322\n      jump\t// in\n    tag_503:\n        /* \"#utility.yul\":15194:15268   */\n      swap2\n      pop\n        /* \"#utility.yul\":15277:15370   */\n      tag_504\n        /* \"#utility.yul\":15366:15369   */\n      dup3\n        /* \"#utility.yul\":15277:15370   */\n      tag_348\n      jump\t// in\n    tag_504:\n        /* \"#utility.yul\":15395:15397   */\n      0x40\n        /* \"#utility.yul\":15390:15393   */\n      dup3\n        /* \"#utility.yul\":15386:15398   */\n      add\n        /* \"#utility.yul\":15379:15398   */\n      swap1\n      pop\n        /* \"#utility.yul\":15038:15404   */\n      swap2\n      swap1\n      pop\n      jump\t// out\n        /* \"#utility.yul\":15410:15829   */\n    tag_236:\n        /* \"#utility.yul\":15576:15580   */\n      0x00\n        /* \"#utility.yul\":15614:15616   */\n      0x20\n        /* \"#utility.yul\":15603:15612   */\n      dup3\n        /* \"#utility.yul\":15599:15617   */\n      add\n        /* \"#utility.yul\":15591:15617   */\n      swap1\n      pop\n        /* \"#utility.yul\":15663:15672   */\n      dup2\n        /* \"#utility.yul\":15657:15661   */\n      dup2\n        /* \"#utility.yul\":15653:15673   */\n      sub\n        /* \"#utility.yul\":15649:15650   */\n      0x00\n        /* \"#utility.yul\":15638:15647   */\n      dup4\n        /* \"#utility.yul\":15634:15651   */\n      add\n        /* \"#utility.yul\":15627:15674   */\n      mstore\n        /* \"#utility.yul\":15691:15822   */\n      tag_506\n        /* \"#utility.yul\":15817:15821   */\n      dup2\n        /* \"#utility.yul\":15691:15822   */\n      tag_349\n      jump\t// in\n    tag_506:\n        /* \"#utility.yul\":15683:15822   */\n      swap1\n      pop\n        /* \"#utility.yul\":15410:15829   */\n      swap2\n      swap1\n      pop\n      jump\t// out\n        /* \"#utility.yul\":15835:16065   */\n    tag_350:\n        /* \"#utility.yul\":15975:16009   */\n      0x4f6e6c79207468652070726f7065727479206f776e65722063616e20656e6420\n        /* \"#utility.yul\":15971:15972   */\n      0x00\n        /* \"#utility.yul\":15963:15969   */\n      dup3\n        /* \"#utility.yul\":15959:15973   */\n      add\n        /* \"#utility.yul\":15952:16010   */\n      mstore\n        /* \"#utility.yul\":16044:16057   */\n      0x7468652061756374696f6e000000000000000000000000000000000000000000\n        /* \"#utility.yul\":16039:16041   */\n      0x20\n        /* \"#utility.yul\":16031:16037   */\n      dup3\n        /* \"#utility.yul\":16027:16042   */\n      add\n        /* \"#utility.yul\":16020:16058   */\n      mstore\n        /* \"#utility.yul\":15835:16065   */\n      pop\n      jump\t// out\n        /* \"#utility.yul\":16071:16437   */\n    tag_351:\n        /* \"#utility.yul\":16213:16216   */\n      0x00\n        /* \"#utility.yul\":16234:16301   */\n      tag_509\n        /* \"#utility.yul\":16298:16300   */\n      0x2b\n        /* \"#utility.yul\":16293:16296   */\n      dup4\n        /* \"#utility.yul\":16234:16301   */\n      tag_322\n      jump\t// in\n    tag_509:\n        /* \"#utility.yul\":16227:16301   */\n      swap2\n      pop\n        /* \"#utility.yul\":16310:16403   */\n      tag_510\n        /* \"#utility.yul\":16399:16402   */\n      dup3\n        /* \"#utility.yul\":16310:16403   */\n      tag_350\n      jump\t// in\n    tag_510:\n        /* \"#utility.yul\":16428:16430   */\n      0x40\n        /* \"#utility.yul\":16423:16426   */\n      dup3\n        /* \"#utility.yul\":16419:16431   */\n      add\n        /* \"#utility.yul\":16412:16431   */\n      swap1\n      pop\n        /* \"#utility.yul\":16071:16437   */\n      swap2\n      swap1\n      pop\n      jump\t// out\n        /* \"#utility.yul\":16443:16862   */\n    tag_246:\n        /* \"#utility.yul\":16609:16613   */\n      0x00\n        /* \"#utility.yul\":16647:16649   */\n      0x20\n        /* \"#utility.yul\":16636:16645   */\n      dup3\n        /* \"#utility.yul\":16632:16650   */\n      add\n        /* \"#utility.yul\":16624:16650   */\n      swap1\n      pop\n        /* \"#utility.yul\":16696:16705   */\n      dup2\n        /* \"#utility.yul\":16690:16694   */\n      dup2\n        /* \"#utility.yul\":16686:16706   */\n      sub\n        /* \"#utility.yul\":16682:16683   */\n      0x00\n        /* \"#utility.yul\":16671:16680   */\n      dup4\n        /* \"#utility.yul\":16667:16684   */\n      add\n        /* \"#utility.yul\":16660:16707   */\n      mstore\n        /* \"#utility.yul\":16724:16855   */\n      tag_512\n        /* \"#utility.yul\":16850:16854   */\n      dup2\n        /* \"#utility.yul\":16724:16855   */\n      tag_351\n      jump\t// in\n    tag_512:\n        /* \"#utility.yul\":16716:16855   */\n      swap1\n      pop\n        /* \"#utility.yul\":16443:16862   */\n      swap2\n      swap1\n      pop\n      jump\t// out\n        /* \"#utility.yul\":16868:17200   */\n    tag_251:\n        /* \"#utility.yul\":16989:16993   */\n      0x00\n        /* \"#utility.yul\":17027:17029   */\n      0x40\n        /* \"#utility.yul\":17016:17025   */\n      dup3\n        /* \"#utility.yul\":17012:17030   */\n      add\n        /* \"#utility.yul\":17004:17030   */\n      swap1\n      pop\n        /* \"#utility.yul\":17040:17111   */\n      tag_514\n        /* \"#utility.yul\":17108:17109   */\n      0x00\n        /* \"#utility.yul\":17097:17106   */\n      dup4\n        /* \"#utility.yul\":17093:17110   */\n      add\n        /* \"#utility.yul\":17084:17090   */\n      dup6\n        /* \"#utility.yul\":17040:17111   */\n      tag_332\n      jump\t// in\n    tag_514:\n        /* \"#utility.yul\":17121:17193   */\n      tag_515\n        /* \"#utility.yul\":17189:17191   */\n      0x20\n        /* \"#utility.yul\":17178:17187   */\n      dup4\n        /* \"#utility.yul\":17174:17192   */\n      add\n        /* \"#utility.yul\":17165:17171   */\n      dup5\n        /* \"#utility.yul\":17121:17193   */\n      tag_332\n      jump\t// in\n    tag_515:\n        /* \"#utility.yul\":16868:17200   */\n      swap4\n      swap3\n      pop\n      pop\n      pop\n      jump\t// out\n        /* \"#utility.yul\":17206:17435   */\n    tag_352:\n        /* \"#utility.yul\":17346:17380   */\n      0x4e756d626572206f6620736861726573206d7573742062652067726561746572\n        /* \"#utility.yul\":17342:17343   */\n      0x00\n        /* \"#utility.yul\":17334:17340   */\n      dup3\n        /* \"#utility.yul\":17330:17344   */\n      add\n        /* \"#utility.yul\":17323:17381   */\n      mstore\n        /* \"#utility.yul\":17415:17427   */\n      0x207468616e207a65726f00000000000000000000000000000000000000000000\n        /* \"#utility.yul\":17410:17412   */\n      0x20\n        /* \"#utility.yul\":17402:17408   */\n      dup3\n        /* \"#utility.yul\":17398:17413   */\n      add\n        /* \"#utility.yul\":17391:17428   */\n      mstore\n        /* \"#utility.yul\":17206:17435   */\n      pop\n      jump\t// out\n        /* \"#utility.yul\":17441:17807   */\n    tag_353:\n        /* \"#utility.yul\":17583:17586   */\n      0x00\n        /* \"#utility.yul\":17604:17671   */\n      tag_518\n        /* \"#utility.yul\":17668:17670   */\n      0x2a\n        /* \"#utility.yul\":17663:17666   */\n      dup4\n        /* \"#utility.yul\":17604:17671   */\n      tag_322\n      jump\t// in\n    tag_518:\n        /* \"#utility.yul\":17597:17671   */\n      swap2\n      pop\n        /* \"#utility.yul\":17680:17773   */\n      tag_519\n        /* \"#utility.yul\":17769:17772   */\n      dup3\n        /* \"#utility.yul\":17680:17773   */\n      tag_352\n      jump\t// in\n    tag_519:\n        /* \"#utility.yul\":17798:17800   */\n      0x40\n        /* \"#utility.yul\":17793:17796   */\n      dup3\n        /* \"#utility.yul\":17789:17801   */\n      add\n        /* \"#utility.yul\":17782:17801   */\n      swap1\n      pop\n        /* \"#utility.yul\":17441:17807   */\n      swap2\n      swap1\n      pop\n      jump\t// out\n        /* \"#utility.yul\":17813:18232   */\n    tag_256:\n        /* \"#utility.yul\":17979:17983   */\n      0x00\n        /* \"#utility.yul\":18017:18019   */\n      0x20\n        /* \"#utility.yul\":18006:18015   */\n      dup3\n        /* \"#utility.yul\":18002:18020   */\n      add\n        /* \"#utility.yul\":17994:18020   */\n      swap1\n      pop\n        /* \"#utility.yul\":18066:18075   */\n      dup2\n        /* \"#utility.yul\":18060:18064   */\n      dup2\n        /* \"#utility.yul\":18056:18076   */\n      sub\n        /* \"#utility.yul\":18052:18053   */\n      0x00\n        /* \"#utility.yul\":18041:18050   */\n      dup4\n        /* \"#utility.yul\":18037:18054   */\n      add\n        /* \"#utility.yul\":18030:18077   */\n      mstore\n        /* \"#utility.yul\":18094:18225   */\n      tag_521\n        /* \"#utility.yul\":18220:18224   */\n      dup2\n        /* \"#utility.yul\":18094:18225   */\n      tag_353\n      jump\t// in\n    tag_521:\n        /* \"#utility.yul\":18086:18225   */\n      swap1\n      pop\n        /* \"#utility.yul\":17813:18232   */\n      swap2\n      swap1\n      pop\n      jump\t// out\n        /* \"#utility.yul\":18238:18648   */\n    tag_258:\n        /* \"#utility.yul\":18278:18285   */\n      0x00\n        /* \"#utility.yul\":18301:18321   */\n      tag_523\n        /* \"#utility.yul\":18319:18320   */\n      dup3\n        /* \"#utility.yul\":18301:18321   */\n      tag_318\n      jump\t// in\n    tag_523:\n        /* \"#utility.yul\":18296:18321   */\n      swap2\n      pop\n        /* \"#utility.yul\":18335:18355   */\n      tag_524\n        /* \"#utility.yul\":18353:18354   */\n      dup4\n        /* \"#utility.yul\":18335:18355   */\n      tag_318\n      jump\t// in\n    tag_524:\n        /* \"#utility.yul\":18330:18355   */\n      swap3\n      pop\n        /* \"#utility.yul\":18390:18391   */\n      dup3\n        /* \"#utility.yul\":18387:18388   */\n      dup3\n        /* \"#utility.yul\":18383:18392   */\n      mul\n        /* \"#utility.yul\":18412:18442   */\n      tag_525\n        /* \"#utility.yul\":18430:18441   */\n      dup2\n        /* \"#utility.yul\":18412:18442   */\n      tag_318\n      jump\t// in\n    tag_525:\n        /* \"#utility.yul\":18401:18442   */\n      swap2\n      pop\n        /* \"#utility.yul\":18591:18592   */\n      dup3\n        /* \"#utility.yul\":18582:18589   */\n      dup3\n        /* \"#utility.yul\":18578:18593   */\n      div\n        /* \"#utility.yul\":18575:18576   */\n      dup5\n        /* \"#utility.yul\":18572:18594   */\n      eq\n        /* \"#utility.yul\":18552:18553   */\n      dup4\n        /* \"#utility.yul\":18545:18554   */\n      iszero\n        /* \"#utility.yul\":18525:18608   */\n      or\n        /* \"#utility.yul\":18502:18641   */\n      tag_526\n      jumpi\n        /* \"#utility.yul\":18621:18639   */\n      tag_527\n      tag_342\n      jump\t// in\n    tag_527:\n        /* \"#utility.yul\":18502:18641   */\n    tag_526:\n        /* \"#utility.yul\":18286:18648   */\n      pop\n        /* \"#utility.yul\":18238:18648   */\n      swap3\n      swap2\n      pop\n      pop\n      jump\t// out\n        /* \"#utility.yul\":18654:18822   */\n    tag_354:\n        /* \"#utility.yul\":18794:18814   */\n      0x496e73756666696369656e742066756e64730000000000000000000000000000\n        /* \"#utility.yul\":18790:18791   */\n      0x00\n        /* \"#utility.yul\":18782:18788   */\n      dup3\n        /* \"#utility.yul\":18778:18792   */\n      add\n        /* \"#utility.yul\":18771:18815   */\n      mstore\n        /* \"#utility.yul\":18654:18822   */\n      pop\n      jump\t// out\n        /* \"#utility.yul\":18828:19194   */\n    tag_355:\n        /* \"#utility.yul\":18970:18973   */\n      0x00\n        /* \"#utility.yul\":18991:19058   */\n      tag_530\n        /* \"#utility.yul\":19055:19057   */\n      0x12\n        /* \"#utility.yul\":19050:19053   */\n      dup4\n        /* \"#utility.yul\":18991:19058   */\n      tag_322\n      jump\t// in\n    tag_530:\n        /* \"#utility.yul\":18984:19058   */\n      swap2\n      pop\n        /* \"#utility.yul\":19067:19160   */\n      tag_531\n        /* \"#utility.yul\":19156:19159   */\n      dup3\n        /* \"#utility.yul\":19067:19160   */\n      tag_354\n      jump\t// in\n    tag_531:\n        /* \"#utility.yul\":19185:19187   */\n      0x20\n        /* \"#utility.yul\":19180:19183   */\n      dup3\n        /* \"#utility.yul\":19176:19188   */\n      add\n        /* \"#utility.yul\":19169:19188   */\n      swap1\n      pop\n        /* \"#utility.yul\":18828:19194   */\n      swap2\n      swap1\n      pop\n      jump\t// out\n        /* \"#utility.yul\":19200:19619   */\n    tag_261:\n        /* \"#utility.yul\":19366:19370   */\n      0x00\n        /* \"#utility.yul\":19404:19406   */\n      0x20\n        /* \"#utility.yul\":19393:19402   */\n      dup3\n        /* \"#utility.yul\":19389:19407   */\n      add\n        /* \"#utility.yul\":19381:19407   */\n      swap1\n      pop\n        /* \"#utility.yul\":19453:19462   */\n      dup2\n        /* \"#utility.yul\":19447:19451   */\n      dup2\n        /* \"#utility.yul\":19443:19463   */\n      sub\n        /* \"#utility.yul\":19439:19440   */\n      0x00\n        /* \"#utility.yul\":19428:19437   */\n      dup4\n        /* \"#utility.yul\":19424:19441   */\n      add\n        /* \"#utility.yul\":19417:19464   */\n      mstore\n        /* \"#utility.yul\":19481:19612   */\n      tag_533\n        /* \"#utility.yul\":19607:19611   */\n      dup2\n        /* \"#utility.yul\":19481:19612   */\n      tag_355\n      jump\t// in\n    tag_533:\n        /* \"#utility.yul\":19473:19612   */\n      swap1\n      pop\n        /* \"#utility.yul\":19200:19619   */\n      swap2\n      swap1\n      pop\n      jump\t// out\n        /* \"#utility.yul\":19625:19802   */\n    tag_356:\n        /* \"#utility.yul\":19765:19794   */\n      0x4e6f7420656e6f7567682073686172657320617661696c61626c650000000000\n        /* \"#utility.yul\":19761:19762   */\n      0x00\n        /* \"#utility.yul\":19753:19759   */\n      dup3\n        /* \"#utility.yul\":19749:19763   */\n      add\n        /* \"#utility.yul\":19742:19795   */\n      mstore\n        /* \"#utility.yul\":19625:19802   */\n      pop\n      jump\t// out\n        /* \"#utility.yul\":19808:20174   */\n    tag_357:\n        /* \"#utility.yul\":19950:19953   */\n      0x00\n        /* \"#utility.yul\":19971:20038   */\n      tag_536\n        /* \"#utility.yul\":20035:20037   */\n      0x1b\n        /* \"#utility.yul\":20030:20033   */\n      dup4\n        /* \"#utility.yul\":19971:20038   */\n      tag_322\n      jump\t// in\n    tag_536:\n        /* \"#utility.yul\":19964:20038   */\n      swap2\n      pop\n        /* \"#utility.yul\":20047:20140   */\n      tag_537\n        /* \"#utility.yul\":20136:20139   */\n      dup3\n        /* \"#utility.yul\":20047:20140   */\n      tag_356\n      jump\t// in\n    tag_537:\n        /* \"#utility.yul\":20165:20167   */\n      0x20\n        /* \"#utility.yul\":20160:20163   */\n      dup3\n        /* \"#utility.yul\":20156:20168   */\n      add\n        /* \"#utility.yul\":20149:20168   */\n      swap1\n      pop\n        /* \"#utility.yul\":19808:20174   */\n      swap2\n      swap1\n      pop\n      jump\t// out\n        /* \"#utility.yul\":20180:20599   */\n    tag_264:\n        /* \"#utility.yul\":20346:20350   */\n      0x00\n        /* \"#utility.yul\":20384:20386   */\n      0x20\n        /* \"#utility.yul\":20373:20382   */\n      dup3\n        /* \"#utility.yul\":20369:20387   */\n      add\n        /* \"#utility.yul\":20361:20387   */\n      swap1\n      pop\n        /* \"#utility.yul\":20433:20442   */\n      dup2\n        /* \"#utility.yul\":20427:20431   */\n      dup2\n        /* \"#utility.yul\":20423:20443   */\n      sub\n        /* \"#utility.yul\":20419:20420   */\n      0x00\n        /* \"#utility.yul\":20408:20417   */\n      dup4\n        /* \"#utility.yul\":20404:20421   */\n      add\n        /* \"#utility.yul\":20397:20444   */\n      mstore\n        /* \"#utility.yul\":20461:20592   */\n      tag_539\n        /* \"#utility.yul\":20587:20591   */\n      dup2\n        /* \"#utility.yul\":20461:20592   */\n      tag_357\n      jump\t// in\n    tag_539:\n        /* \"#utility.yul\":20453:20592   */\n      swap1\n      pop\n        /* \"#utility.yul\":20180:20599   */\n      swap2\n      swap1\n      pop\n      jump\t// out\n        /* \"#utility.yul\":20605:20796   */\n    tag_267:\n        /* \"#utility.yul\":20645:20648   */\n      0x00\n        /* \"#utility.yul\":20664:20684   */\n      tag_541\n        /* \"#utility.yul\":20682:20683   */\n      dup3\n        /* \"#utility.yul\":20664:20684   */\n      tag_318\n      jump\t// in\n    tag_541:\n        /* \"#utility.yul\":20659:20684   */\n      swap2\n      pop\n        /* \"#utility.yul\":20698:20718   */\n      tag_542\n        /* \"#utility.yul\":20716:20717   */\n      dup4\n        /* \"#utility.yul\":20698:20718   */\n      tag_318\n      jump\t// in\n    tag_542:\n        /* \"#utility.yul\":20693:20718   */\n      swap3\n      pop\n        /* \"#utility.yul\":20741:20742   */\n      dup3\n        /* \"#utility.yul\":20738:20739   */\n      dup3\n        /* \"#utility.yul\":20734:20743   */\n      add\n        /* \"#utility.yul\":20727:20743   */\n      swap1\n      pop\n        /* \"#utility.yul\":20762:20765   */\n      dup1\n        /* \"#utility.yul\":20759:20760   */\n      dup3\n        /* \"#utility.yul\":20756:20766   */\n      gt\n        /* \"#utility.yul\":20753:20789   */\n      iszero\n      tag_543\n      jumpi\n        /* \"#utility.yul\":20769:20787   */\n      tag_544\n      tag_342\n      jump\t// in\n    tag_544:\n        /* \"#utility.yul\":20753:20789   */\n    tag_543:\n        /* \"#utility.yul\":20605:20796   */\n      swap3\n      swap2\n      pop\n      pop\n      jump\t// out\n        /* \"#utility.yul\":20802:20996   */\n    tag_269:\n        /* \"#utility.yul\":20842:20846   */\n      0x00\n        /* \"#utility.yul\":20862:20882   */\n      tag_546\n        /* \"#utility.yul\":20880:20881   */\n      dup3\n        /* \"#utility.yul\":20862:20882   */\n      tag_318\n      jump\t// in\n    tag_546:\n        /* \"#utility.yul\":20857:20882   */\n      swap2\n      pop\n        /* \"#utility.yul\":20896:20916   */\n      tag_547\n        /* \"#utility.yul\":20914:20915   */\n      dup4\n        /* \"#utility.yul\":20896:20916   */\n      tag_318\n      jump\t// in\n    tag_547:\n        /* \"#utility.yul\":20891:20916   */\n      swap3\n      pop\n        /* \"#utility.yul\":20940:20941   */\n      dup3\n        /* \"#utility.yul\":20937:20938   */\n      dup3\n        /* \"#utility.yul\":20933:20942   */\n      sub\n        /* \"#utility.yul\":20925:20942   */\n      swap1\n      pop\n        /* \"#utility.yul\":20964:20965   */\n      dup2\n        /* \"#utility.yul\":20958:20962   */\n      dup2\n        /* \"#utility.yul\":20955:20966   */\n      gt\n        /* \"#utility.yul\":20952:20989   */\n      iszero\n      tag_548\n      jumpi\n        /* \"#utility.yul\":20969:20987   */\n      tag_549\n      tag_342\n      jump\t// in\n    tag_549:\n        /* \"#utility.yul\":20952:20989   */\n    tag_548:\n        /* \"#utility.yul\":20802:20996   */\n      swap3\n      swap2\n      pop\n      pop\n      jump\t// out\n        /* \"#utility.yul\":21002:21444   */\n    tag_290:\n        /* \"#utility.yul\":21151:21155   */\n      0x00\n        /* \"#utility.yul\":21189:21191   */\n      0x60\n        /* \"#utility.yul\":21178:21187   */\n      dup3\n        /* \"#utility.yul\":21174:21192   */\n      add\n        /* \"#utility.yul\":21166:21192   */\n      swap1\n      pop\n        /* \"#utility.yul\":21202:21273   */\n      tag_551\n        /* \"#utility.yul\":21270:21271   */\n      0x00\n        /* \"#utility.yul\":21259:21268   */\n      dup4\n        /* \"#utility.yul\":21255:21272   */\n      add\n        /* \"#utility.yul\":21246:21252   */\n      dup7\n        /* \"#utility.yul\":21202:21273   */\n      tag_335\n      jump\t// in\n    tag_551:\n        /* \"#utility.yul\":21283:21355   */\n      tag_552\n        /* \"#utility.yul\":21351:21353   */\n      0x20\n        /* \"#utility.yul\":21340:21349   */\n      dup4\n        /* \"#utility.yul\":21336:21354   */\n      add\n        /* \"#utility.yul\":21327:21333   */\n      dup6\n        /* \"#utility.yul\":21283:21355   */\n      tag_332\n      jump\t// in\n    tag_552:\n        /* \"#utility.yul\":21365:21437   */\n      tag_553\n        /* \"#utility.yul\":21433:21435   */\n      0x40\n        /* \"#utility.yul\":21422:21431   */\n      dup4\n        /* \"#utility.yul\":21418:21436   */\n      add\n        /* \"#utility.yul\":21409:21415   */\n      dup5\n        /* \"#utility.yul\":21365:21437   */\n      tag_332\n      jump\t// in\n    tag_553:\n        /* \"#utility.yul\":21002:21444   */\n      swap5\n      swap4\n      pop\n      pop\n      pop\n      pop\n      jump\t// out\n\n    auxdata: 0xa264697066735822122083ca3a1e0533fd5794e3de06c1878fc025db28a56111b01e86a35f8c18cdc8cc64736f6c63430008160033\n}\n",
				"bytecode": {
					"linkReferences": {},
					"object": "608060405234801562000010575f80fd5b50604051620034d4380380620034d4833981810160405281019062000036919062000563565b8484816003908162000049919062000853565b5080600490816200005b919062000853565b5050503360055f6101000a81548173ffffffffffffffffffffffffffffffffffffffff021916908373ffffffffffffffffffffffffffffffffffffffff16021790555080600681905550816007819055505f6008819055505f600981905550620000ed60055f9054906101000a900473ffffffffffffffffffffffffffffffffffffffff1684620000f860201b60201c565b505050505062000a63565b5f73ffffffffffffffffffffffffffffffffffffffff168273ffffffffffffffffffffffffffffffffffffffff16036200016b575f6040517fec442f050000000000000000000000000000000000000000000000000000000081526004016200016291906200097a565b60405180910390fd5b6200017e5f83836200018260201b60201c565b5050565b5f73ffffffffffffffffffffffffffffffffffffffff168373ffffffffffffffffffffffffffffffffffffffff1603620001d6578060025f828254620001c99190620009c2565b92505081905550620002a7565b5f805f8573ffffffffffffffffffffffffffffffffffffffff1673ffffffffffffffffffffffffffffffffffffffff1681526020019081526020015f205490508181101562000262578381836040517fe450d38c000000000000000000000000000000000000000000000000000000008152600401620002599392919062000a0d565b60405180910390fd5b8181035f808673ffffffffffffffffffffffffffffffffffffffff1673ffffffffffffffffffffffffffffffffffffffff1681526020019081526020015f2081905550505b5f73ffffffffffffffffffffffffffffffffffffffff168273ffffffffffffffffffffffffffffffffffffffff1603620002f0578060025f82825403925050819055506200033a565b805f808473ffffffffffffffffffffffffffffffffffffffff1673ffffffffffffffffffffffffffffffffffffffff1681526020019081526020015f205f82825401925050819055505b8173ffffffffffffffffffffffffffffffffffffffff168373ffffffffffffffffffffffffffffffffffffffff167fddf252ad1be2c89b69c2b068fc378daa952ba7f163c4a11628f55a4df523b3ef8360405162000399919062000a48565b60405180910390a3505050565b5f604051905090565b5f80fd5b5f80fd5b5f80fd5b5f80fd5b5f601f19601f8301169050919050565b7f4e487b71000000000000000000000000000000000000000000000000000000005f52604160045260245ffd5b6200040782620003bf565b810181811067ffffffffffffffff82111715620004295762000428620003cf565b5b80604052505050565b5f6200043d620003a6565b90506200044b8282620003fc565b919050565b5f67ffffffffffffffff8211156200046d576200046c620003cf565b5b6200047882620003bf565b9050602081019050919050565b5f5b83811015620004a457808201518184015260208101905062000487565b5f8484015250505050565b5f620004c5620004bf8462000450565b62000432565b905082815260208101848484011115620004e457620004e3620003bb565b5b620004f184828562000485565b509392505050565b5f82601f83011262000510576200050f620003b7565b5b815162000522848260208601620004af565b91505092915050565b5f819050919050565b6200053f816200052b565b81146200054a575f80fd5b50565b5f815190506200055d8162000534565b92915050565b5f805f805f60a086880312156200057f576200057e620003af565b5b5f86015167ffffffffffffffff8111156200059f576200059e620003b3565b5b620005ad88828901620004f9565b955050602086015167ffffffffffffffff811115620005d157620005d0620003b3565b5b620005df88828901620004f9565b9450506040620005f2888289016200054d565b935050606062000605888289016200054d565b925050608062000618888289016200054d565b9150509295509295909350565b5f81519050919050565b7f4e487b71000000000000000000000000000000000000000000000000000000005f52602260045260245ffd5b5f60028204905060018216806200067457607f821691505b6020821081036200068a57620006896200062f565b5b50919050565b5f819050815f5260205f209050919050565b5f6020601f8301049050919050565b5f82821b905092915050565b5f60088302620006ee7fffffffffffffffffffffffffffffffffffffffffffffffffffffffffffffffff82620006b1565b620006fa8683620006b1565b95508019841693508086168417925050509392505050565b5f819050919050565b5f6200073b620007356200072f846200052b565b62000712565b6200052b565b9050919050565b5f819050919050565b62000756836200071b565b6200076e620007658262000742565b848454620006bd565b825550505050565b5f90565b6200078462000776565b620007918184846200074b565b505050565b5b81811015620007b857620007ac5f826200077a565b60018101905062000797565b5050565b601f8211156200080757620007d18162000690565b620007dc84620006a2565b81016020851015620007ec578190505b62000804620007fb85620006a2565b83018262000796565b50505b505050565b5f82821c905092915050565b5f620008295f19846008026200080c565b1980831691505092915050565b5f62000843838362000818565b9150826002028217905092915050565b6200085e8262000625565b67ffffffffffffffff8111156200087a5762000879620003cf565b5b6200088682546200065c565b62000893828285620007bc565b5f60209050601f831160018114620008c9575f8415620008b4578287015190505b620008c0858262000836565b8655506200092f565b601f198416620008d98662000690565b5f5b828110156200090257848901518255600182019150602085019450602081019050620008db565b868310156200092257848901516200091e601f89168262000818565b8355505b6001600288020188555050505b505050505050565b5f73ffffffffffffffffffffffffffffffffffffffff82169050919050565b5f620009628262000937565b9050919050565b620009748162000956565b82525050565b5f6020820190506200098f5f83018462000969565b92915050565b7f4e487b71000000000000000000000000000000000000000000000000000000005f52601160045260245ffd5b5f620009ce826200052b565b9150620009db836200052b565b9250828201905080821115620009f657620009f562000995565b5b92915050565b62000a07816200052b565b82525050565b5f60608201905062000a225f83018662000969565b62000a316020830185620009fc565b62000a406040830184620009fc565b949350505050565b5f60208201905062000a5d5f830184620009fc565b92915050565b612a638062000a715f395ff3fe6080604052600436106101c1575f3560e01c806370a08231116100f6578063a9059cbb11610094578063c8a3954111610063578063c8a3954114610672578063dd62ed3e1461069a578063e34fc531146106d6578063f7b1080814610712576101c1565b8063a9059cbb146105b6578063b9a2de3a146105f2578063beebc5da1461061a578063c0afbe8914610636576101c1565b8063890b7775116100d0578063890b77751461050a5780638da5cb5b1461054657806395d89b41146105705780639979ef451461059a576101c1565b806370a0823114610468578063808d3315146104a457806387269729146104e0576101c1565b806318160ddd116101635780632f2d28ba1161013d5780632f2d28ba14610399578063313ce567146103d55780633a98ef39146103ff578063571a26a014610429576101c1565b806318160ddd1461030b5780631fd5419d1461033557806323b872dd1461035d576101c1565b80630b3bce201161019f5780630b3bce20146102535780630fc57e6c1461027d57806316002f4a146102b957806316b60249146102e3576101c1565b8063065de74c146101c557806306fdde03146101ed578063095ea7b314610217575b5f80fd5b3480156101d0575f80fd5b506101eb60048036038101906101e69190611f32565b610753565b005b3480156101f8575f80fd5b506102016109b0565b60405161020e9190611fe7565b60405180910390f35b348015610222575f80fd5b5061023d60048036038101906102389190612061565b610a40565b60405161024a91906120b9565b60405180910390f35b34801561025e575f80fd5b50610267610a62565b60405161027491906120e1565b60405180910390f35b348015610288575f80fd5b506102a3600480360381019061029e9190611f32565b610a68565b6040516102b091906120b9565b60405180910390f35b3480156102c4575f80fd5b506102cd610a91565b6040516102da91906120e1565b60405180910390f35b3480156102ee575f80fd5b5061030960048036038101906103049190611f32565b610a97565b005b348015610316575f80fd5b5061031f610b30565b60405161032c91906120e1565b60405180910390f35b348015610340575f80fd5b5061035b600480360381019061035691906120fa565b610b39565b005b348015610368575f80fd5b50610383600480360381019061037e919061214a565b610bff565b60405161039091906120b9565b60405180910390f35b3480156103a4575f80fd5b506103bf60048036038101906103ba9190611f32565b610c2d565b6040516103cc91906120e1565b60405180910390f35b3480156103e0575f80fd5b506103e9610c4a565b6040516103f691906121b5565b60405180910390f35b34801561040a575f80fd5b50610413610c52565b60405161042091906120e1565b60405180910390f35b348015610434575f80fd5b5061044f600480360381019061044a9190611f32565b610c58565b60405161045f94939291906121dd565b60405180910390f35b348015610473575f80fd5b5061048e60048036038101906104899190612220565b610caf565b60405161049b91906120e1565b60405180910390f35b3480156104af575f80fd5b506104ca60048036038101906104c59190611f32565b610cf4565b6040516104d791906120e1565b60405180910390f35b3480156104eb575f80fd5b506104f4610d11565b60405161050191906120e1565b60405180910390f35b348015610515575f80fd5b50610530600480360381019061052b9190611f32565b610d17565b60405161053d91906120e1565b60405180910390f35b348015610551575f80fd5b5061055a610d34565b604051610567919061224b565b60405180910390f35b34801561057b575f80fd5b50610584610d59565b6040516105919190611fe7565b60405180910390f35b6105b460048036038101906105af9190611f32565b610de9565b005b3480156105c1575f80fd5b506105dc60048036038101906105d79190612061565b611000565b6040516105e991906120b9565b60405180910390f35b3480156105fd575f80fd5b5061061860048036038101906106139190611f32565b611022565b005b610634600480360381019061062f9190612264565b61149b565b005b348015610641575f80fd5b5061065c60048036038101906106579190611f32565b6116cb565b60405161066991906120b9565b60405180910390f35b34801561067d575f80fd5b50610698600480360381019061069391906122cc565b6116f5565b005b3480156106a5575f80fd5b506106c060048036038101906106bb9190612330565b61184b565b6040516106cd91906120e1565b60405180910390f35b3480156106e1575f80fd5b506106fc60048036038101906106f79190611f32565b6118cd565b604051610709919061224b565b60405180910390f35b34801561071d575f80fd5b5061073860048036038101906107339190611f32565b611908565b60405161074a9695949392919061236e565b60405180910390f35b3373ffffffffffffffffffffffffffffffffffffffff16600a5f8381526020019081526020015f205f015f9054906101000a900473ffffffffffffffffffffffffffffffffffffffff1673ffffffffffffffffffffffffffffffffffffffff16146107f3576040517f08c379a00000000000000000000000000000000000000000000000000000000081526004016107ea9061243d565b60405180910390fd5b600a5f8281526020019081526020015f2060050160019054906101000a900460ff1615610855576040517f08c379a000000000000000000000000000000000000000000000000000000000815260040161084c906124cb565b60405180910390fd5b60095f81548092919061086790612516565b919050555060405180608001604052808281526020015f73ffffffffffffffffffffffffffffffffffffffff1681526020015f81526020015f1515815250600b5f60095481526020019081526020015f205f820151815f01556020820151816001015f6101000a81548173ffffffffffffffffffffffffffffffffffffffff021916908373ffffffffffffffffffffffffffffffffffffffff160217905550604082015181600201556060820151816003015f6101000a81548160ff0219169083151502179055509050506001600a5f8381526020019081526020015f2060050160016101000a81548160ff0219169083151502179055503373ffffffffffffffffffffffffffffffffffffffff167f03b328b90a88eecc6ce6d1031bb1c779dd4e5e28e810018ca19f8ccd27691380826040516109a591906120e1565b60405180910390a250565b6060600380546109bf9061258a565b80601f01602080910402602001604051908101604052809291908181526020018280546109eb9061258a565b8015610a365780601f10610a0d57610100808354040283529160200191610a36565b820191905f5260205f20905b815481529060010190602001808311610a1957829003601f168201915b5050505050905090565b5f80610a4a611978565b9050610a5781858561197f565b600191505092915050565b60085481565b5f600a5f8381526020019081526020015f206005015f9054906101000a900460ff169050919050565b60095481565b60055f9054906101000a900473ffffffffffffffffffffffffffffffffffffffff1673ffffffffffffffffffffffffffffffffffffffff163373ffffffffffffffffffffffffffffffffffffffff1614610b26576040517f08c379a0000000000000000000000000000000000000000000000000000000008152600401610b1d9061262a565b60405180910390fd5b8060078190555050565b5f600254905090565b60055f9054906101000a900473ffffffffffffffffffffffffffffffffffffffff1673ffffffffffffffffffffffffffffffffffffffff163373ffffffffffffffffffffffffffffffffffffffff1614610bc8576040517f08c379a0000000000000000000000000000000000000000000000000000000008152600401610bbf9061262a565b60405180910390fd5b81600a5f8581526020019081526020015f206002018190555080600a5f8581526020019081526020015f2060030181905550505050565b5f80610c09611978565b9050610c16858285611991565b610c21858585611a23565b60019150509392505050565b5f600a5f8381526020019081526020015f20600201549050919050565b5f6012905090565b60065481565b600b602052805f5260405f205f91509050805f015490806001015f9054906101000a900473ffffffffffffffffffffffffffffffffffffffff1690806002015490806003015f9054906101000a900460ff16905084565b5f805f8373ffffffffffffffffffffffffffffffffffffffff1673ffffffffffffffffffffffffffffffffffffffff1681526020019081526020015f20549050919050565b5f600a5f8381526020019081526020015f20600101549050919050565b60075481565b5f600a5f8381526020019081526020015f20600301549050919050565b60055f9054906101000a900473ffffffffffffffffffffffffffffffffffffffff1681565b606060048054610d689061258a565b80601f0160208091040260200160405190810160405280929190818152602001828054610d949061258a565b8015610ddf5780601f10610db657610100808354040283529160200191610ddf565b820191905f5260205f20905b815481529060010190602001808311610dc257829003601f168201915b5050505050905090565b600b5f8281526020019081526020015f206003015f9054906101000a900460ff1615610e4a576040517f08c379a0000000000000000000000000000000000000000000000000000000008152600401610e4190612692565b60405180910390fd5b600b5f8281526020019081526020015f20600201543411610ea0576040517f08c379a0000000000000000000000000000000000000000000000000000000008152600401610e9790612720565b60405180910390fd5b5f73ffffffffffffffffffffffffffffffffffffffff16600b5f8381526020019081526020015f206001015f9054906101000a900473ffffffffffffffffffffffffffffffffffffffff1673ffffffffffffffffffffffffffffffffffffffff1614610f9257600b5f8281526020019081526020015f206001015f9054906101000a900473ffffffffffffffffffffffffffffffffffffffff1673ffffffffffffffffffffffffffffffffffffffff166108fc600b5f8481526020019081526020015f206002015490811502906040515f60405180830381858888f19350505050158015610f90573d5f803e3d5ffd5b505b33600b5f8381526020019081526020015f206001015f6101000a81548173ffffffffffffffffffffffffffffffffffffffff021916908373ffffffffffffffffffffffffffffffffffffffff16021790555034600b5f8381526020019081526020015f206002018190555050565b5f8061100a611978565b9050611017818585611a23565b600191505092915050565b3373ffffffffffffffffffffffffffffffffffffffff16600a5f600b5f8581526020019081526020015f205f015481526020019081526020015f205f015f9054906101000a900473ffffffffffffffffffffffffffffffffffffffff1673ffffffffffffffffffffffffffffffffffffffff16146110d5576040517f08c379a00000000000000000000000000000000000000000000000000000000081526004016110cc906127ae565b60405180910390fd5b600b5f8281526020019081526020015f206003015f9054906101000a900460ff1615611136576040517f08c379a000000000000000000000000000000000000000000000000000000000815260040161112d90612692565b60405180910390fd5b6001600b5f8381526020019081526020015f206003015f6101000a81548160ff021916908315150217905550600b5f8281526020019081526020015f206001015f9054906101000a900473ffffffffffffffffffffffffffffffffffffffff16600a5f600b5f8581526020019081526020015f205f015481526020019081526020015f205f015f6101000a81548173ffffffffffffffffffffffffffffffffffffffff021916908373ffffffffffffffffffffffffffffffffffffffff1602179055505f600a5f600b5f8581526020019081526020015f205f015481526020019081526020015f2060050160016101000a81548160ff02191690831515021790555061132c60055f9054906101000a900473ffffffffffffffffffffffffffffffffffffffff16600b5f8481526020019081526020015f206001015f9054906101000a900473ffffffffffffffffffffffffffffffffffffffff16600a5f600b5f8781526020019081526020015f205f015481526020019081526020015f206004015f600b5f8781526020019081526020015f206001015f9054906101000a900473ffffffffffffffffffffffffffffffffffffffff1673ffffffffffffffffffffffffffffffffffffffff1673ffffffffffffffffffffffffffffffffffffffff1681526020019081526020015f2054611a23565b600b5f8281526020019081526020015f206001015f9054906101000a900473ffffffffffffffffffffffffffffffffffffffff1673ffffffffffffffffffffffffffffffffffffffff163373ffffffffffffffffffffffffffffffffffffffff167f4d31a5599cdb48031c1f03259adbd513be468c5735012719a1a9850869b558b1600b5f8581526020019081526020015f205f0154600b5f8681526020019081526020015f20600201546040516113e59291906127cc565b60405180910390a3600b5f8281526020019081526020015f206001015f9054906101000a900473ffffffffffffffffffffffffffffffffffffffff1673ffffffffffffffffffffffffffffffffffffffff163373ffffffffffffffffffffffffffffffffffffffff167fa5c64c8204a6a698b47e944c0c3e6d9699f44cf150c89378d697fbf682d5b6e4600b5f8581526020019081526020015f205f015460405161149091906120e1565b60405180910390a350565b5f81116114dd576040517f08c379a00000000000000000000000000000000000000000000000000000000081526004016114d490612863565b60405180910390fd5b600754816114eb9190612881565b34101561152d576040517f08c379a00000000000000000000000000000000000000000000000000000000081526004016115249061290c565b60405180910390fd5b80600a5f8481526020019081526020015f20600101541015611584576040517f08c379a000000000000000000000000000000000000000000000000000000000815260040161157b90612974565b60405180910390fd5b5f600754826115939190612881565b905081600a5f8581526020019081526020015f206004015f3373ffffffffffffffffffffffffffffffffffffffff1673ffffffffffffffffffffffffffffffffffffffff1681526020019081526020015f205f8282546115f39190612992565b9250508190555081600a5f8581526020019081526020015f206001015f82825461161d91906129c5565b9250508190555061165060055f9054906101000a900473ffffffffffffffffffffffffffffffffffffffff163384611a23565b600a5f8481526020019081526020015f205f015f9054906101000a900473ffffffffffffffffffffffffffffffffffffffff1673ffffffffffffffffffffffffffffffffffffffff166108fc8290811502906040515f60405180830381858888f193505050501580156116c5573d5f803e3d5ffd5b50505050565b5f600a5f8381526020019081526020015f2060050160019054906101000a900460ff169050919050565b60055f9054906101000a900473ffffffffffffffffffffffffffffffffffffffff1673ffffffffffffffffffffffffffffffffffffffff163373ffffffffffffffffffffffffffffffffffffffff1614611784576040517f08c379a000000000000000000000000000000000000000000000000000000000815260040161177b9061262a565b60405180910390fd5b60085f81548092919061179690612516565b91905055505f600a5f60085481526020019081526020015f20905033815f015f6101000a81548173ffffffffffffffffffffffffffffffffffffffff021916908373ffffffffffffffffffffffffffffffffffffffff16021790555082816001018190555084816002018190555083816003018190555081816005015f6101000a81548160ff0219169083151502179055505f8160050160016101000a81548160ff0219169083151502179055505050505050565b5f60015f8473ffffffffffffffffffffffffffffffffffffffff1673ffffffffffffffffffffffffffffffffffffffff1681526020019081526020015f205f8373ffffffffffffffffffffffffffffffffffffffff1673ffffffffffffffffffffffffffffffffffffffff1681526020019081526020015f2054905092915050565b5f600a5f8381526020019081526020015f205f015f9054906101000a900473ffffffffffffffffffffffffffffffffffffffff169050919050565b600a602052805f5260405f205f91509050805f015f9054906101000a900473ffffffffffffffffffffffffffffffffffffffff1690806001015490806002015490806003015490806005015f9054906101000a900460ff16908060050160019054906101000a900460ff16905086565b5f33905090565b61198c8383836001611b13565b505050565b5f61199c848461184b565b90507fffffffffffffffffffffffffffffffffffffffffffffffffffffffffffffffff8114611a1d5781811015611a0e578281836040517ffb8f41b2000000000000000000000000000000000000000000000000000000008152600401611a05939291906129f8565b60405180910390fd5b611a1c84848484035f611b13565b5b50505050565b5f73ffffffffffffffffffffffffffffffffffffffff168373ffffffffffffffffffffffffffffffffffffffff1603611a93575f6040517f96c6fd1e000000000000000000000000000000000000000000000000000000008152600401611a8a919061224b565b60405180910390fd5b5f73ffffffffffffffffffffffffffffffffffffffff168273ffffffffffffffffffffffffffffffffffffffff1603611b03575f6040517fec442f05000000000000000000000000000000000000000000000000000000008152600401611afa919061224b565b60405180910390fd5b611b0e838383611ce2565b505050565b5f73ffffffffffffffffffffffffffffffffffffffff168473ffffffffffffffffffffffffffffffffffffffff1603611b83575f6040517fe602df05000000000000000000000000000000000000000000000000000000008152600401611b7a919061224b565b60405180910390fd5b5f73ffffffffffffffffffffffffffffffffffffffff168373ffffffffffffffffffffffffffffffffffffffff1603611bf3575f6040517f94280d62000000000000000000000000000000000000000000000000000000008152600401611bea919061224b565b60405180910390fd5b8160015f8673ffffffffffffffffffffffffffffffffffffffff1673ffffffffffffffffffffffffffffffffffffffff1681526020019081526020015f205f8573ffffffffffffffffffffffffffffffffffffffff1673ffffffffffffffffffffffffffffffffffffffff1681526020019081526020015f20819055508015611cdc578273ffffffffffffffffffffffffffffffffffffffff168473ffffffffffffffffffffffffffffffffffffffff167f8c5be1e5ebec7d5bd14f71427d1e84f3dd0314c0f7b2291e5b200ac8c7c3b92584604051611cd391906120e1565b60405180910390a35b50505050565b5f73ffffffffffffffffffffffffffffffffffffffff168373ffffffffffffffffffffffffffffffffffffffff1603611d32578060025f828254611d269190612992565b92505081905550611e00565b5f805f8573ffffffffffffffffffffffffffffffffffffffff1673ffffffffffffffffffffffffffffffffffffffff1681526020019081526020015f2054905081811015611dbb578381836040517fe450d38c000000000000000000000000000000000000000000000000000000008152600401611db2939291906129f8565b60405180910390fd5b8181035f808673ffffffffffffffffffffffffffffffffffffffff1673ffffffffffffffffffffffffffffffffffffffff1681526020019081526020015f2081905550505b5f73ffffffffffffffffffffffffffffffffffffffff168273ffffffffffffffffffffffffffffffffffffffff1603611e47578060025f8282540392505081905550611e91565b805f808473ffffffffffffffffffffffffffffffffffffffff1673ffffffffffffffffffffffffffffffffffffffff1681526020019081526020015f205f82825401925050819055505b8173ffffffffffffffffffffffffffffffffffffffff168373ffffffffffffffffffffffffffffffffffffffff167fddf252ad1be2c89b69c2b068fc378daa952ba7f163c4a11628f55a4df523b3ef83604051611eee91906120e1565b60405180910390a3505050565b5f80fd5b5f819050919050565b611f1181611eff565b8114611f1b575f80fd5b50565b5f81359050611f2c81611f08565b92915050565b5f60208284031215611f4757611f46611efb565b5b5f611f5484828501611f1e565b91505092915050565b5f81519050919050565b5f82825260208201905092915050565b5f5b83811015611f94578082015181840152602081019050611f79565b5f8484015250505050565b5f601f19601f8301169050919050565b5f611fb982611f5d565b611fc38185611f67565b9350611fd3818560208601611f77565b611fdc81611f9f565b840191505092915050565b5f6020820190508181035f830152611fff8184611faf565b905092915050565b5f73ffffffffffffffffffffffffffffffffffffffff82169050919050565b5f61203082612007565b9050919050565b61204081612026565b811461204a575f80fd5b50565b5f8135905061205b81612037565b92915050565b5f806040838503121561207757612076611efb565b5b5f6120848582860161204d565b925050602061209585828601611f1e565b9150509250929050565b5f8115159050919050565b6120b38161209f565b82525050565b5f6020820190506120cc5f8301846120aa565b92915050565b6120db81611eff565b82525050565b5f6020820190506120f45f8301846120d2565b92915050565b5f805f6060848603121561211157612110611efb565b5b5f61211e86828701611f1e565b935050602061212f86828701611f1e565b925050604061214086828701611f1e565b9150509250925092565b5f805f6060848603121561216157612160611efb565b5b5f61216e8682870161204d565b935050602061217f8682870161204d565b925050604061219086828701611f1e565b9150509250925092565b5f60ff82169050919050565b6121af8161219a565b82525050565b5f6020820190506121c85f8301846121a6565b92915050565b6121d781612026565b82525050565b5f6080820190506121f05f8301876120d2565b6121fd60208301866121ce565b61220a60408301856120d2565b61221760608301846120aa565b95945050505050565b5f6020828403121561223557612234611efb565b5b5f6122428482850161204d565b91505092915050565b5f60208201905061225e5f8301846121ce565b92915050565b5f806040838503121561227a57612279611efb565b5b5f61228785828601611f1e565b925050602061229885828601611f1e565b9150509250929050565b6122ab8161209f565b81146122b5575f80fd5b50565b5f813590506122c6816122a2565b92915050565b5f805f80608085870312156122e4576122e3611efb565b5b5f6122f187828801611f1e565b945050602061230287828801611f1e565b935050604061231387828801611f1e565b9250506060612324878288016122b8565b91505092959194509250565b5f806040838503121561234657612345611efb565b5b5f6123538582860161204d565b92505060206123648582860161204d565b9150509250929050565b5f60c0820190506123815f8301896121ce565b61238e60208301886120d2565b61239b60408301876120d2565b6123a860608301866120d2565b6123b560808301856120aa565b6123c260a08301846120aa565b979650505050505050565b7f4f6e6c79207468652070726f7065727479206f776e65722063616e20737461725f8201527f7420616e2061756374696f6e0000000000000000000000000000000000000000602082015250565b5f612427602c83611f67565b9150612432826123cd565b604082019050919050565b5f6020820190508181035f8301526124548161241b565b9050919050565b7f41756374696f6e20666f7220746869732070726f70657274792068617320616c5f8201527f7265616479207374617274656400000000000000000000000000000000000000602082015250565b5f6124b5602d83611f67565b91506124c08261245b565b604082019050919050565b5f6020820190508181035f8301526124e2816124a9565b9050919050565b7f4e487b71000000000000000000000000000000000000000000000000000000005f52601160045260245ffd5b5f61252082611eff565b91507fffffffffffffffffffffffffffffffffffffffffffffffffffffffffffffffff8203612552576125516124e9565b5b600182019050919050565b7f4e487b71000000000000000000000000000000000000000000000000000000005f52602260045260245ffd5b5f60028204905060018216806125a157607f821691505b6020821081036125b4576125b361255d565b5b50919050565b7f4f6e6c7920746865206f776e65722063616e20706572666f726d2074686973205f8201527f616374696f6e0000000000000000000000000000000000000000000000000000602082015250565b5f612614602683611f67565b915061261f826125ba565b604082019050919050565b5f6020820190508181035f83015261264181612608565b9050919050565b7f41756374696f6e20616c726561647920656e64656400000000000000000000005f82015250565b5f61267c601583611f67565b915061268782612648565b602082019050919050565b5f6020820190508181035f8301526126a981612670565b9050919050565b7f426964206d75737420626520686967686572207468616e2074686520637572725f8201527f656e742068696768657374206269640000000000000000000000000000000000602082015250565b5f61270a602f83611f67565b9150612715826126b0565b604082019050919050565b5f6020820190508181035f830152612737816126fe565b9050919050565b7f4f6e6c79207468652070726f7065727479206f776e65722063616e20656e64205f8201527f7468652061756374696f6e000000000000000000000000000000000000000000602082015250565b5f612798602b83611f67565b91506127a38261273e565b604082019050919050565b5f6020820190508181035f8301526127c58161278c565b9050919050565b5f6040820190506127df5f8301856120d2565b6127ec60208301846120d2565b9392505050565b7f4e756d626572206f6620736861726573206d75737420626520677265617465725f8201527f207468616e207a65726f00000000000000000000000000000000000000000000602082015250565b5f61284d602a83611f67565b9150612858826127f3565b604082019050919050565b5f6020820190508181035f83015261287a81612841565b9050919050565b5f61288b82611eff565b915061289683611eff565b92508282026128a481611eff565b915082820484148315176128bb576128ba6124e9565b5b5092915050565b7f496e73756666696369656e742066756e647300000000000000000000000000005f82015250565b5f6128f6601283611f67565b9150612901826128c2565b602082019050919050565b5f6020820190508181035f830152612923816128ea565b9050919050565b7f4e6f7420656e6f7567682073686172657320617661696c61626c6500000000005f82015250565b5f61295e601b83611f67565b91506129698261292a565b602082019050919050565b5f6020820190508181035f83015261298b81612952565b9050919050565b5f61299c82611eff565b91506129a783611eff565b92508282019050808211156129bf576129be6124e9565b5b92915050565b5f6129cf82611eff565b91506129da83611eff565b92508282039050818111156129f2576129f16124e9565b5b92915050565b5f606082019050612a0b5f8301866121ce565b612a1860208301856120d2565b612a2560408301846120d2565b94935050505056fea264697066735822122083ca3a1e0533fd5794e3de06c1878fc025db28a56111b01e86a35f8c18cdc8cc64736f6c63430008160033",
					"opcodes": "PUSH1 0x80 PUSH1 0x40 MSTORE CALLVALUE DUP1 ISZERO PUSH3 0x10 JUMPI PUSH0 DUP1 REVERT JUMPDEST POP PUSH1 0x40 MLOAD PUSH3 0x34D4 CODESIZE SUB DUP1 PUSH3 0x34D4 DUP4 CODECOPY DUP2 DUP2 ADD PUSH1 0x40 MSTORE DUP2 ADD SWAP1 PUSH3 0x36 SWAP2 SWAP1 PUSH3 0x563 JUMP JUMPDEST DUP5 DUP5 DUP2 PUSH1 0x3 SWAP1 DUP2 PUSH3 0x49 SWAP2 SWAP1 PUSH3 0x853 JUMP JUMPDEST POP DUP1 PUSH1 0x4 SWAP1 DUP2 PUSH3 0x5B SWAP2 SWAP1 PUSH3 0x853 JUMP JUMPDEST POP POP POP CALLER PUSH1 0x5 PUSH0 PUSH2 0x100 EXP DUP2 SLOAD DUP2 PUSH20 0xFFFFFFFFFFFFFFFFFFFFFFFFFFFFFFFFFFFFFFFF MUL NOT AND SWAP1 DUP4 PUSH20 0xFFFFFFFFFFFFFFFFFFFFFFFFFFFFFFFFFFFFFFFF AND MUL OR SWAP1 SSTORE POP DUP1 PUSH1 0x6 DUP2 SWAP1 SSTORE POP DUP2 PUSH1 0x7 DUP2 SWAP1 SSTORE POP PUSH0 PUSH1 0x8 DUP2 SWAP1 SSTORE POP PUSH0 PUSH1 0x9 DUP2 SWAP1 SSTORE POP PUSH3 0xED PUSH1 0x5 PUSH0 SWAP1 SLOAD SWAP1 PUSH2 0x100 EXP SWAP1 DIV PUSH20 0xFFFFFFFFFFFFFFFFFFFFFFFFFFFFFFFFFFFFFFFF AND DUP5 PUSH3 0xF8 PUSH1 0x20 SHL PUSH1 0x20 SHR JUMP JUMPDEST POP POP POP POP POP PUSH3 0xA63 JUMP JUMPDEST PUSH0 PUSH20 0xFFFFFFFFFFFFFFFFFFFFFFFFFFFFFFFFFFFFFFFF AND DUP3 PUSH20 0xFFFFFFFFFFFFFFFFFFFFFFFFFFFFFFFFFFFFFFFF AND SUB PUSH3 0x16B JUMPI PUSH0 PUSH1 0x40 MLOAD PUSH32 0xEC442F0500000000000000000000000000000000000000000000000000000000 DUP2 MSTORE PUSH1 0x4 ADD PUSH3 0x162 SWAP2 SWAP1 PUSH3 0x97A JUMP JUMPDEST PUSH1 0x40 MLOAD DUP1 SWAP2 SUB SWAP1 REVERT JUMPDEST PUSH3 0x17E PUSH0 DUP4 DUP4 PUSH3 0x182 PUSH1 0x20 SHL PUSH1 0x20 SHR JUMP JUMPDEST POP POP JUMP JUMPDEST PUSH0 PUSH20 0xFFFFFFFFFFFFFFFFFFFFFFFFFFFFFFFFFFFFFFFF AND DUP4 PUSH20 0xFFFFFFFFFFFFFFFFFFFFFFFFFFFFFFFFFFFFFFFF AND SUB PUSH3 0x1D6 JUMPI DUP1 PUSH1 0x2 PUSH0 DUP3 DUP3 SLOAD PUSH3 0x1C9 SWAP2 SWAP1 PUSH3 0x9C2 JUMP JUMPDEST SWAP3 POP POP DUP2 SWAP1 SSTORE POP PUSH3 0x2A7 JUMP JUMPDEST PUSH0 DUP1 PUSH0 DUP6 PUSH20 0xFFFFFFFFFFFFFFFFFFFFFFFFFFFFFFFFFFFFFFFF AND PUSH20 0xFFFFFFFFFFFFFFFFFFFFFFFFFFFFFFFFFFFFFFFF AND DUP2 MSTORE PUSH1 0x20 ADD SWAP1 DUP2 MSTORE PUSH1 0x20 ADD PUSH0 KECCAK256 SLOAD SWAP1 POP DUP2 DUP2 LT ISZERO PUSH3 0x262 JUMPI DUP4 DUP2 DUP4 PUSH1 0x40 MLOAD PUSH32 0xE450D38C00000000000000000000000000000000000000000000000000000000 DUP2 MSTORE PUSH1 0x4 ADD PUSH3 0x259 SWAP4 SWAP3 SWAP2 SWAP1 PUSH3 0xA0D JUMP JUMPDEST PUSH1 0x40 MLOAD DUP1 SWAP2 SUB SWAP1 REVERT JUMPDEST DUP2 DUP2 SUB PUSH0 DUP1 DUP7 PUSH20 0xFFFFFFFFFFFFFFFFFFFFFFFFFFFFFFFFFFFFFFFF AND PUSH20 0xFFFFFFFFFFFFFFFFFFFFFFFFFFFFFFFFFFFFFFFF AND DUP2 MSTORE PUSH1 0x20 ADD SWAP1 DUP2 MSTORE PUSH1 0x20 ADD PUSH0 KECCAK256 DUP2 SWAP1 SSTORE POP POP JUMPDEST PUSH0 PUSH20 0xFFFFFFFFFFFFFFFFFFFFFFFFFFFFFFFFFFFFFFFF AND DUP3 PUSH20 0xFFFFFFFFFFFFFFFFFFFFFFFFFFFFFFFFFFFFFFFF AND SUB PUSH3 0x2F0 JUMPI DUP1 PUSH1 0x2 PUSH0 DUP3 DUP3 SLOAD SUB SWAP3 POP POP DUP2 SWAP1 SSTORE POP PUSH3 0x33A JUMP JUMPDEST DUP1 PUSH0 DUP1 DUP5 PUSH20 0xFFFFFFFFFFFFFFFFFFFFFFFFFFFFFFFFFFFFFFFF AND PUSH20 0xFFFFFFFFFFFFFFFFFFFFFFFFFFFFFFFFFFFFFFFF AND DUP2 MSTORE PUSH1 0x20 ADD SWAP1 DUP2 MSTORE PUSH1 0x20 ADD PUSH0 KECCAK256 PUSH0 DUP3 DUP3 SLOAD ADD SWAP3 POP POP DUP2 SWAP1 SSTORE POP JUMPDEST DUP2 PUSH20 0xFFFFFFFFFFFFFFFFFFFFFFFFFFFFFFFFFFFFFFFF AND DUP4 PUSH20 0xFFFFFFFFFFFFFFFFFFFFFFFFFFFFFFFFFFFFFFFF AND PUSH32 0xDDF252AD1BE2C89B69C2B068FC378DAA952BA7F163C4A11628F55A4DF523B3EF DUP4 PUSH1 0x40 MLOAD PUSH3 0x399 SWAP2 SWAP1 PUSH3 0xA48 JUMP JUMPDEST PUSH1 0x40 MLOAD DUP1 SWAP2 SUB SWAP1 LOG3 POP POP POP JUMP JUMPDEST PUSH0 PUSH1 0x40 MLOAD SWAP1 POP SWAP1 JUMP JUMPDEST PUSH0 DUP1 REVERT JUMPDEST PUSH0 DUP1 REVERT JUMPDEST PUSH0 DUP1 REVERT JUMPDEST PUSH0 DUP1 REVERT JUMPDEST PUSH0 PUSH1 0x1F NOT PUSH1 0x1F DUP4 ADD AND SWAP1 POP SWAP2 SWAP1 POP JUMP JUMPDEST PUSH32 0x4E487B7100000000000000000000000000000000000000000000000000000000 PUSH0 MSTORE PUSH1 0x41 PUSH1 0x4 MSTORE PUSH1 0x24 PUSH0 REVERT JUMPDEST PUSH3 0x407 DUP3 PUSH3 0x3BF JUMP JUMPDEST DUP2 ADD DUP2 DUP2 LT PUSH8 0xFFFFFFFFFFFFFFFF DUP3 GT OR ISZERO PUSH3 0x429 JUMPI PUSH3 0x428 PUSH3 0x3CF JUMP JUMPDEST JUMPDEST DUP1 PUSH1 0x40 MSTORE POP POP POP JUMP JUMPDEST PUSH0 PUSH3 0x43D PUSH3 0x3A6 JUMP JUMPDEST SWAP1 POP PUSH3 0x44B DUP3 DUP3 PUSH3 0x3FC JUMP JUMPDEST SWAP2 SWAP1 POP JUMP JUMPDEST PUSH0 PUSH8 0xFFFFFFFFFFFFFFFF DUP3 GT ISZERO PUSH3 0x46D JUMPI PUSH3 0x46C PUSH3 0x3CF JUMP JUMPDEST JUMPDEST PUSH3 0x478 DUP3 PUSH3 0x3BF JUMP JUMPDEST SWAP1 POP PUSH1 0x20 DUP2 ADD SWAP1 POP SWAP2 SWAP1 POP JUMP JUMPDEST PUSH0 JUMPDEST DUP4 DUP2 LT ISZERO PUSH3 0x4A4 JUMPI DUP1 DUP3 ADD MLOAD DUP2 DUP5 ADD MSTORE PUSH1 0x20 DUP2 ADD SWAP1 POP PUSH3 0x487 JUMP JUMPDEST PUSH0 DUP5 DUP5 ADD MSTORE POP POP POP POP JUMP JUMPDEST PUSH0 PUSH3 0x4C5 PUSH3 0x4BF DUP5 PUSH3 0x450 JUMP JUMPDEST PUSH3 0x432 JUMP JUMPDEST SWAP1 POP DUP3 DUP2 MSTORE PUSH1 0x20 DUP2 ADD DUP5 DUP5 DUP5 ADD GT ISZERO PUSH3 0x4E4 JUMPI PUSH3 0x4E3 PUSH3 0x3BB JUMP JUMPDEST JUMPDEST PUSH3 0x4F1 DUP5 DUP3 DUP6 PUSH3 0x485 JUMP JUMPDEST POP SWAP4 SWAP3 POP POP POP JUMP JUMPDEST PUSH0 DUP3 PUSH1 0x1F DUP4 ADD SLT PUSH3 0x510 JUMPI PUSH3 0x50F PUSH3 0x3B7 JUMP JUMPDEST JUMPDEST DUP2 MLOAD PUSH3 0x522 DUP5 DUP3 PUSH1 0x20 DUP7 ADD PUSH3 0x4AF JUMP JUMPDEST SWAP2 POP POP SWAP3 SWAP2 POP POP JUMP JUMPDEST PUSH0 DUP2 SWAP1 POP SWAP2 SWAP1 POP JUMP JUMPDEST PUSH3 0x53F DUP2 PUSH3 0x52B JUMP JUMPDEST DUP2 EQ PUSH3 0x54A JUMPI PUSH0 DUP1 REVERT JUMPDEST POP JUMP JUMPDEST PUSH0 DUP2 MLOAD SWAP1 POP PUSH3 0x55D DUP2 PUSH3 0x534 JUMP JUMPDEST SWAP3 SWAP2 POP POP JUMP JUMPDEST PUSH0 DUP1 PUSH0 DUP1 PUSH0 PUSH1 0xA0 DUP7 DUP9 SUB SLT ISZERO PUSH3 0x57F JUMPI PUSH3 0x57E PUSH3 0x3AF JUMP JUMPDEST JUMPDEST PUSH0 DUP7 ADD MLOAD PUSH8 0xFFFFFFFFFFFFFFFF DUP2 GT ISZERO PUSH3 0x59F JUMPI PUSH3 0x59E PUSH3 0x3B3 JUMP JUMPDEST JUMPDEST PUSH3 0x5AD DUP9 DUP3 DUP10 ADD PUSH3 0x4F9 JUMP JUMPDEST SWAP6 POP POP PUSH1 0x20 DUP7 ADD MLOAD PUSH8 0xFFFFFFFFFFFFFFFF DUP2 GT ISZERO PUSH3 0x5D1 JUMPI PUSH3 0x5D0 PUSH3 0x3B3 JUMP JUMPDEST JUMPDEST PUSH3 0x5DF DUP9 DUP3 DUP10 ADD PUSH3 0x4F9 JUMP JUMPDEST SWAP5 POP POP PUSH1 0x40 PUSH3 0x5F2 DUP9 DUP3 DUP10 ADD PUSH3 0x54D JUMP JUMPDEST SWAP4 POP POP PUSH1 0x60 PUSH3 0x605 DUP9 DUP3 DUP10 ADD PUSH3 0x54D JUMP JUMPDEST SWAP3 POP POP PUSH1 0x80 PUSH3 0x618 DUP9 DUP3 DUP10 ADD PUSH3 0x54D JUMP JUMPDEST SWAP2 POP POP SWAP3 SWAP6 POP SWAP3 SWAP6 SWAP1 SWAP4 POP JUMP JUMPDEST PUSH0 DUP2 MLOAD SWAP1 POP SWAP2 SWAP1 POP JUMP JUMPDEST PUSH32 0x4E487B7100000000000000000000000000000000000000000000000000000000 PUSH0 MSTORE PUSH1 0x22 PUSH1 0x4 MSTORE PUSH1 0x24 PUSH0 REVERT JUMPDEST PUSH0 PUSH1 0x2 DUP3 DIV SWAP1 POP PUSH1 0x1 DUP3 AND DUP1 PUSH3 0x674 JUMPI PUSH1 0x7F DUP3 AND SWAP2 POP JUMPDEST PUSH1 0x20 DUP3 LT DUP2 SUB PUSH3 0x68A JUMPI PUSH3 0x689 PUSH3 0x62F JUMP JUMPDEST JUMPDEST POP SWAP2 SWAP1 POP JUMP JUMPDEST PUSH0 DUP2 SWAP1 POP DUP2 PUSH0 MSTORE PUSH1 0x20 PUSH0 KECCAK256 SWAP1 POP SWAP2 SWAP1 POP JUMP JUMPDEST PUSH0 PUSH1 0x20 PUSH1 0x1F DUP4 ADD DIV SWAP1 POP SWAP2 SWAP1 POP JUMP JUMPDEST PUSH0 DUP3 DUP3 SHL SWAP1 POP SWAP3 SWAP2 POP POP JUMP JUMPDEST PUSH0 PUSH1 0x8 DUP4 MUL PUSH3 0x6EE PUSH32 0xFFFFFFFFFFFFFFFFFFFFFFFFFFFFFFFFFFFFFFFFFFFFFFFFFFFFFFFFFFFFFFFF DUP3 PUSH3 0x6B1 JUMP JUMPDEST PUSH3 0x6FA DUP7 DUP4 PUSH3 0x6B1 JUMP JUMPDEST SWAP6 POP DUP1 NOT DUP5 AND SWAP4 POP DUP1 DUP7 AND DUP5 OR SWAP3 POP POP POP SWAP4 SWAP3 POP POP POP JUMP JUMPDEST PUSH0 DUP2 SWAP1 POP SWAP2 SWAP1 POP JUMP JUMPDEST PUSH0 PUSH3 0x73B PUSH3 0x735 PUSH3 0x72F DUP5 PUSH3 0x52B JUMP JUMPDEST PUSH3 0x712 JUMP JUMPDEST PUSH3 0x52B JUMP JUMPDEST SWAP1 POP SWAP2 SWAP1 POP JUMP JUMPDEST PUSH0 DUP2 SWAP1 POP SWAP2 SWAP1 POP JUMP JUMPDEST PUSH3 0x756 DUP4 PUSH3 0x71B JUMP JUMPDEST PUSH3 0x76E PUSH3 0x765 DUP3 PUSH3 0x742 JUMP JUMPDEST DUP5 DUP5 SLOAD PUSH3 0x6BD JUMP JUMPDEST DUP3 SSTORE POP POP POP POP JUMP JUMPDEST PUSH0 SWAP1 JUMP JUMPDEST PUSH3 0x784 PUSH3 0x776 JUMP JUMPDEST PUSH3 0x791 DUP2 DUP5 DUP5 PUSH3 0x74B JUMP JUMPDEST POP POP POP JUMP JUMPDEST JUMPDEST DUP2 DUP2 LT ISZERO PUSH3 0x7B8 JUMPI PUSH3 0x7AC PUSH0 DUP3 PUSH3 0x77A JUMP JUMPDEST PUSH1 0x1 DUP2 ADD SWAP1 POP PUSH3 0x797 JUMP JUMPDEST POP POP JUMP JUMPDEST PUSH1 0x1F DUP3 GT ISZERO PUSH3 0x807 JUMPI PUSH3 0x7D1 DUP2 PUSH3 0x690 JUMP JUMPDEST PUSH3 0x7DC DUP5 PUSH3 0x6A2 JUMP JUMPDEST DUP2 ADD PUSH1 0x20 DUP6 LT ISZERO PUSH3 0x7EC JUMPI DUP2 SWAP1 POP JUMPDEST PUSH3 0x804 PUSH3 0x7FB DUP6 PUSH3 0x6A2 JUMP JUMPDEST DUP4 ADD DUP3 PUSH3 0x796 JUMP JUMPDEST POP POP JUMPDEST POP POP POP JUMP JUMPDEST PUSH0 DUP3 DUP3 SHR SWAP1 POP SWAP3 SWAP2 POP POP JUMP JUMPDEST PUSH0 PUSH3 0x829 PUSH0 NOT DUP5 PUSH1 0x8 MUL PUSH3 0x80C JUMP JUMPDEST NOT DUP1 DUP4 AND SWAP2 POP POP SWAP3 SWAP2 POP POP JUMP JUMPDEST PUSH0 PUSH3 0x843 DUP4 DUP4 PUSH3 0x818 JUMP JUMPDEST SWAP2 POP DUP3 PUSH1 0x2 MUL DUP3 OR SWAP1 POP SWAP3 SWAP2 POP POP JUMP JUMPDEST PUSH3 0x85E DUP3 PUSH3 0x625 JUMP JUMPDEST PUSH8 0xFFFFFFFFFFFFFFFF DUP2 GT ISZERO PUSH3 0x87A JUMPI PUSH3 0x879 PUSH3 0x3CF JUMP JUMPDEST JUMPDEST PUSH3 0x886 DUP3 SLOAD PUSH3 0x65C JUMP JUMPDEST PUSH3 0x893 DUP3 DUP3 DUP6 PUSH3 0x7BC JUMP JUMPDEST PUSH0 PUSH1 0x20 SWAP1 POP PUSH1 0x1F DUP4 GT PUSH1 0x1 DUP2 EQ PUSH3 0x8C9 JUMPI PUSH0 DUP5 ISZERO PUSH3 0x8B4 JUMPI DUP3 DUP8 ADD MLOAD SWAP1 POP JUMPDEST PUSH3 0x8C0 DUP6 DUP3 PUSH3 0x836 JUMP JUMPDEST DUP7 SSTORE POP PUSH3 0x92F JUMP JUMPDEST PUSH1 0x1F NOT DUP5 AND PUSH3 0x8D9 DUP7 PUSH3 0x690 JUMP JUMPDEST PUSH0 JUMPDEST DUP3 DUP2 LT ISZERO PUSH3 0x902 JUMPI DUP5 DUP10 ADD MLOAD DUP3 SSTORE PUSH1 0x1 DUP3 ADD SWAP2 POP PUSH1 0x20 DUP6 ADD SWAP5 POP PUSH1 0x20 DUP2 ADD SWAP1 POP PUSH3 0x8DB JUMP JUMPDEST DUP7 DUP4 LT ISZERO PUSH3 0x922 JUMPI DUP5 DUP10 ADD MLOAD PUSH3 0x91E PUSH1 0x1F DUP10 AND DUP3 PUSH3 0x818 JUMP JUMPDEST DUP4 SSTORE POP JUMPDEST PUSH1 0x1 PUSH1 0x2 DUP9 MUL ADD DUP9 SSTORE POP POP POP JUMPDEST POP POP POP POP POP POP JUMP JUMPDEST PUSH0 PUSH20 0xFFFFFFFFFFFFFFFFFFFFFFFFFFFFFFFFFFFFFFFF DUP3 AND SWAP1 POP SWAP2 SWAP1 POP JUMP JUMPDEST PUSH0 PUSH3 0x962 DUP3 PUSH3 0x937 JUMP JUMPDEST SWAP1 POP SWAP2 SWAP1 POP JUMP JUMPDEST PUSH3 0x974 DUP2 PUSH3 0x956 JUMP JUMPDEST DUP3 MSTORE POP POP JUMP JUMPDEST PUSH0 PUSH1 0x20 DUP3 ADD SWAP1 POP PUSH3 0x98F PUSH0 DUP4 ADD DUP5 PUSH3 0x969 JUMP JUMPDEST SWAP3 SWAP2 POP POP JUMP JUMPDEST PUSH32 0x4E487B7100000000000000000000000000000000000000000000000000000000 PUSH0 MSTORE PUSH1 0x11 PUSH1 0x4 MSTORE PUSH1 0x24 PUSH0 REVERT JUMPDEST PUSH0 PUSH3 0x9CE DUP3 PUSH3 0x52B JUMP JUMPDEST SWAP2 POP PUSH3 0x9DB DUP4 PUSH3 0x52B JUMP JUMPDEST SWAP3 POP DUP3 DUP3 ADD SWAP1 POP DUP1 DUP3 GT ISZERO PUSH3 0x9F6 JUMPI PUSH3 0x9F5 PUSH3 0x995 JUMP JUMPDEST JUMPDEST SWAP3 SWAP2 POP POP JUMP JUMPDEST PUSH3 0xA07 DUP2 PUSH3 0x52B JUMP JUMPDEST DUP3 MSTORE POP POP JUMP JUMPDEST PUSH0 PUSH1 0x60 DUP3 ADD SWAP1 POP PUSH3 0xA22 PUSH0 DUP4 ADD DUP7 PUSH3 0x969 JUMP JUMPDEST PUSH3 0xA31 PUSH1 0x20 DUP4 ADD DUP6 PUSH3 0x9FC JUMP JUMPDEST PUSH3 0xA40 PUSH1 0x40 DUP4 ADD DUP5 PUSH3 0x9FC JUMP JUMPDEST SWAP5 SWAP4 POP POP POP POP JUMP JUMPDEST PUSH0 PUSH1 0x20 DUP3 ADD SWAP1 POP PUSH3 0xA5D PUSH0 DUP4 ADD DUP5 PUSH3 0x9FC JUMP JUMPDEST SWAP3 SWAP2 POP POP JUMP JUMPDEST PUSH2 0x2A63 DUP1 PUSH3 0xA71 PUSH0 CODECOPY PUSH0 RETURN INVALID PUSH1 0x80 PUSH1 0x40 MSTORE PUSH1 0x4 CALLDATASIZE LT PUSH2 0x1C1 JUMPI PUSH0 CALLDATALOAD PUSH1 0xE0 SHR DUP1 PUSH4 0x70A08231 GT PUSH2 0xF6 JUMPI DUP1 PUSH4 0xA9059CBB GT PUSH2 0x94 JUMPI DUP1 PUSH4 0xC8A39541 GT PUSH2 0x63 JUMPI DUP1 PUSH4 0xC8A39541 EQ PUSH2 0x672 JUMPI DUP1 PUSH4 0xDD62ED3E EQ PUSH2 0x69A JUMPI DUP1 PUSH4 0xE34FC531 EQ PUSH2 0x6D6 JUMPI DUP1 PUSH4 0xF7B10808 EQ PUSH2 0x712 JUMPI PUSH2 0x1C1 JUMP JUMPDEST DUP1 PUSH4 0xA9059CBB EQ PUSH2 0x5B6 JUMPI DUP1 PUSH4 0xB9A2DE3A EQ PUSH2 0x5F2 JUMPI DUP1 PUSH4 0xBEEBC5DA EQ PUSH2 0x61A JUMPI DUP1 PUSH4 0xC0AFBE89 EQ PUSH2 0x636 JUMPI PUSH2 0x1C1 JUMP JUMPDEST DUP1 PUSH4 0x890B7775 GT PUSH2 0xD0 JUMPI DUP1 PUSH4 0x890B7775 EQ PUSH2 0x50A JUMPI DUP1 PUSH4 0x8DA5CB5B EQ PUSH2 0x546 JUMPI DUP1 PUSH4 0x95D89B41 EQ PUSH2 0x570 JUMPI DUP1 PUSH4 0x9979EF45 EQ PUSH2 0x59A JUMPI PUSH2 0x1C1 JUMP JUMPDEST DUP1 PUSH4 0x70A08231 EQ PUSH2 0x468 JUMPI DUP1 PUSH4 0x808D3315 EQ PUSH2 0x4A4 JUMPI DUP1 PUSH4 0x87269729 EQ PUSH2 0x4E0 JUMPI PUSH2 0x1C1 JUMP JUMPDEST DUP1 PUSH4 0x18160DDD GT PUSH2 0x163 JUMPI DUP1 PUSH4 0x2F2D28BA GT PUSH2 0x13D JUMPI DUP1 PUSH4 0x2F2D28BA EQ PUSH2 0x399 JUMPI DUP1 PUSH4 0x313CE567 EQ PUSH2 0x3D5 JUMPI DUP1 PUSH4 0x3A98EF39 EQ PUSH2 0x3FF JUMPI DUP1 PUSH4 0x571A26A0 EQ PUSH2 0x429 JUMPI PUSH2 0x1C1 JUMP JUMPDEST DUP1 PUSH4 0x18160DDD EQ PUSH2 0x30B JUMPI DUP1 PUSH4 0x1FD5419D EQ PUSH2 0x335 JUMPI DUP1 PUSH4 0x23B872DD EQ PUSH2 0x35D JUMPI PUSH2 0x1C1 JUMP JUMPDEST DUP1 PUSH4 0xB3BCE20 GT PUSH2 0x19F JUMPI DUP1 PUSH4 0xB3BCE20 EQ PUSH2 0x253 JUMPI DUP1 PUSH4 0xFC57E6C EQ PUSH2 0x27D JUMPI DUP1 PUSH4 0x16002F4A EQ PUSH2 0x2B9 JUMPI DUP1 PUSH4 0x16B60249 EQ PUSH2 0x2E3 JUMPI PUSH2 0x1C1 JUMP JUMPDEST DUP1 PUSH4 0x65DE74C EQ PUSH2 0x1C5 JUMPI DUP1 PUSH4 0x6FDDE03 EQ PUSH2 0x1ED JUMPI DUP1 PUSH4 0x95EA7B3 EQ PUSH2 0x217 JUMPI JUMPDEST PUSH0 DUP1 REVERT JUMPDEST CALLVALUE DUP1 ISZERO PUSH2 0x1D0 JUMPI PUSH0 DUP1 REVERT JUMPDEST POP PUSH2 0x1EB PUSH1 0x4 DUP1 CALLDATASIZE SUB DUP2 ADD SWAP1 PUSH2 0x1E6 SWAP2 SWAP1 PUSH2 0x1F32 JUMP JUMPDEST PUSH2 0x753 JUMP JUMPDEST STOP JUMPDEST CALLVALUE DUP1 ISZERO PUSH2 0x1F8 JUMPI PUSH0 DUP1 REVERT JUMPDEST POP PUSH2 0x201 PUSH2 0x9B0 JUMP JUMPDEST PUSH1 0x40 MLOAD PUSH2 0x20E SWAP2 SWAP1 PUSH2 0x1FE7 JUMP JUMPDEST PUSH1 0x40 MLOAD DUP1 SWAP2 SUB SWAP1 RETURN JUMPDEST CALLVALUE DUP1 ISZERO PUSH2 0x222 JUMPI PUSH0 DUP1 REVERT JUMPDEST POP PUSH2 0x23D PUSH1 0x4 DUP1 CALLDATASIZE SUB DUP2 ADD SWAP1 PUSH2 0x238 SWAP2 SWAP1 PUSH2 0x2061 JUMP JUMPDEST PUSH2 0xA40 JUMP JUMPDEST PUSH1 0x40 MLOAD PUSH2 0x24A SWAP2 SWAP1 PUSH2 0x20B9 JUMP JUMPDEST PUSH1 0x40 MLOAD DUP1 SWAP2 SUB SWAP1 RETURN JUMPDEST CALLVALUE DUP1 ISZERO PUSH2 0x25E JUMPI PUSH0 DUP1 REVERT JUMPDEST POP PUSH2 0x267 PUSH2 0xA62 JUMP JUMPDEST PUSH1 0x40 MLOAD PUSH2 0x274 SWAP2 SWAP1 PUSH2 0x20E1 JUMP JUMPDEST PUSH1 0x40 MLOAD DUP1 SWAP2 SUB SWAP1 RETURN JUMPDEST CALLVALUE DUP1 ISZERO PUSH2 0x288 JUMPI PUSH0 DUP1 REVERT JUMPDEST POP PUSH2 0x2A3 PUSH1 0x4 DUP1 CALLDATASIZE SUB DUP2 ADD SWAP1 PUSH2 0x29E SWAP2 SWAP1 PUSH2 0x1F32 JUMP JUMPDEST PUSH2 0xA68 JUMP JUMPDEST PUSH1 0x40 MLOAD PUSH2 0x2B0 SWAP2 SWAP1 PUSH2 0x20B9 JUMP JUMPDEST PUSH1 0x40 MLOAD DUP1 SWAP2 SUB SWAP1 RETURN JUMPDEST CALLVALUE DUP1 ISZERO PUSH2 0x2C4 JUMPI PUSH0 DUP1 REVERT JUMPDEST POP PUSH2 0x2CD PUSH2 0xA91 JUMP JUMPDEST PUSH1 0x40 MLOAD PUSH2 0x2DA SWAP2 SWAP1 PUSH2 0x20E1 JUMP JUMPDEST PUSH1 0x40 MLOAD DUP1 SWAP2 SUB SWAP1 RETURN JUMPDEST CALLVALUE DUP1 ISZERO PUSH2 0x2EE JUMPI PUSH0 DUP1 REVERT JUMPDEST POP PUSH2 0x309 PUSH1 0x4 DUP1 CALLDATASIZE SUB DUP2 ADD SWAP1 PUSH2 0x304 SWAP2 SWAP1 PUSH2 0x1F32 JUMP JUMPDEST PUSH2 0xA97 JUMP JUMPDEST STOP JUMPDEST CALLVALUE DUP1 ISZERO PUSH2 0x316 JUMPI PUSH0 DUP1 REVERT JUMPDEST POP PUSH2 0x31F PUSH2 0xB30 JUMP JUMPDEST PUSH1 0x40 MLOAD PUSH2 0x32C SWAP2 SWAP1 PUSH2 0x20E1 JUMP JUMPDEST PUSH1 0x40 MLOAD DUP1 SWAP2 SUB SWAP1 RETURN JUMPDEST CALLVALUE DUP1 ISZERO PUSH2 0x340 JUMPI PUSH0 DUP1 REVERT JUMPDEST POP PUSH2 0x35B PUSH1 0x4 DUP1 CALLDATASIZE SUB DUP2 ADD SWAP1 PUSH2 0x356 SWAP2 SWAP1 PUSH2 0x20FA JUMP JUMPDEST PUSH2 0xB39 JUMP JUMPDEST STOP JUMPDEST CALLVALUE DUP1 ISZERO PUSH2 0x368 JUMPI PUSH0 DUP1 REVERT JUMPDEST POP PUSH2 0x383 PUSH1 0x4 DUP1 CALLDATASIZE SUB DUP2 ADD SWAP1 PUSH2 0x37E SWAP2 SWAP1 PUSH2 0x214A JUMP JUMPDEST PUSH2 0xBFF JUMP JUMPDEST PUSH1 0x40 MLOAD PUSH2 0x390 SWAP2 SWAP1 PUSH2 0x20B9 JUMP JUMPDEST PUSH1 0x40 MLOAD DUP1 SWAP2 SUB SWAP1 RETURN JUMPDEST CALLVALUE DUP1 ISZERO PUSH2 0x3A4 JUMPI PUSH0 DUP1 REVERT JUMPDEST POP PUSH2 0x3BF PUSH1 0x4 DUP1 CALLDATASIZE SUB DUP2 ADD SWAP1 PUSH2 0x3BA SWAP2 SWAP1 PUSH2 0x1F32 JUMP JUMPDEST PUSH2 0xC2D JUMP JUMPDEST PUSH1 0x40 MLOAD PUSH2 0x3CC SWAP2 SWAP1 PUSH2 0x20E1 JUMP JUMPDEST PUSH1 0x40 MLOAD DUP1 SWAP2 SUB SWAP1 RETURN JUMPDEST CALLVALUE DUP1 ISZERO PUSH2 0x3E0 JUMPI PUSH0 DUP1 REVERT JUMPDEST POP PUSH2 0x3E9 PUSH2 0xC4A JUMP JUMPDEST PUSH1 0x40 MLOAD PUSH2 0x3F6 SWAP2 SWAP1 PUSH2 0x21B5 JUMP JUMPDEST PUSH1 0x40 MLOAD DUP1 SWAP2 SUB SWAP1 RETURN JUMPDEST CALLVALUE DUP1 ISZERO PUSH2 0x40A JUMPI PUSH0 DUP1 REVERT JUMPDEST POP PUSH2 0x413 PUSH2 0xC52 JUMP JUMPDEST PUSH1 0x40 MLOAD PUSH2 0x420 SWAP2 SWAP1 PUSH2 0x20E1 JUMP JUMPDEST PUSH1 0x40 MLOAD DUP1 SWAP2 SUB SWAP1 RETURN JUMPDEST CALLVALUE DUP1 ISZERO PUSH2 0x434 JUMPI PUSH0 DUP1 REVERT JUMPDEST POP PUSH2 0x44F PUSH1 0x4 DUP1 CALLDATASIZE SUB DUP2 ADD SWAP1 PUSH2 0x44A SWAP2 SWAP1 PUSH2 0x1F32 JUMP JUMPDEST PUSH2 0xC58 JUMP JUMPDEST PUSH1 0x40 MLOAD PUSH2 0x45F SWAP5 SWAP4 SWAP3 SWAP2 SWAP1 PUSH2 0x21DD JUMP JUMPDEST PUSH1 0x40 MLOAD DUP1 SWAP2 SUB SWAP1 RETURN JUMPDEST CALLVALUE DUP1 ISZERO PUSH2 0x473 JUMPI PUSH0 DUP1 REVERT JUMPDEST POP PUSH2 0x48E PUSH1 0x4 DUP1 CALLDATASIZE SUB DUP2 ADD SWAP1 PUSH2 0x489 SWAP2 SWAP1 PUSH2 0x2220 JUMP JUMPDEST PUSH2 0xCAF JUMP JUMPDEST PUSH1 0x40 MLOAD PUSH2 0x49B SWAP2 SWAP1 PUSH2 0x20E1 JUMP JUMPDEST PUSH1 0x40 MLOAD DUP1 SWAP2 SUB SWAP1 RETURN JUMPDEST CALLVALUE DUP1 ISZERO PUSH2 0x4AF JUMPI PUSH0 DUP1 REVERT JUMPDEST POP PUSH2 0x4CA PUSH1 0x4 DUP1 CALLDATASIZE SUB DUP2 ADD SWAP1 PUSH2 0x4C5 SWAP2 SWAP1 PUSH2 0x1F32 JUMP JUMPDEST PUSH2 0xCF4 JUMP JUMPDEST PUSH1 0x40 MLOAD PUSH2 0x4D7 SWAP2 SWAP1 PUSH2 0x20E1 JUMP JUMPDEST PUSH1 0x40 MLOAD DUP1 SWAP2 SUB SWAP1 RETURN JUMPDEST CALLVALUE DUP1 ISZERO PUSH2 0x4EB JUMPI PUSH0 DUP1 REVERT JUMPDEST POP PUSH2 0x4F4 PUSH2 0xD11 JUMP JUMPDEST PUSH1 0x40 MLOAD PUSH2 0x501 SWAP2 SWAP1 PUSH2 0x20E1 JUMP JUMPDEST PUSH1 0x40 MLOAD DUP1 SWAP2 SUB SWAP1 RETURN JUMPDEST CALLVALUE DUP1 ISZERO PUSH2 0x515 JUMPI PUSH0 DUP1 REVERT JUMPDEST POP PUSH2 0x530 PUSH1 0x4 DUP1 CALLDATASIZE SUB DUP2 ADD SWAP1 PUSH2 0x52B SWAP2 SWAP1 PUSH2 0x1F32 JUMP JUMPDEST PUSH2 0xD17 JUMP JUMPDEST PUSH1 0x40 MLOAD PUSH2 0x53D SWAP2 SWAP1 PUSH2 0x20E1 JUMP JUMPDEST PUSH1 0x40 MLOAD DUP1 SWAP2 SUB SWAP1 RETURN JUMPDEST CALLVALUE DUP1 ISZERO PUSH2 0x551 JUMPI PUSH0 DUP1 REVERT JUMPDEST POP PUSH2 0x55A PUSH2 0xD34 JUMP JUMPDEST PUSH1 0x40 MLOAD PUSH2 0x567 SWAP2 SWAP1 PUSH2 0x224B JUMP JUMPDEST PUSH1 0x40 MLOAD DUP1 SWAP2 SUB SWAP1 RETURN JUMPDEST CALLVALUE DUP1 ISZERO PUSH2 0x57B JUMPI PUSH0 DUP1 REVERT JUMPDEST POP PUSH2 0x584 PUSH2 0xD59 JUMP JUMPDEST PUSH1 0x40 MLOAD PUSH2 0x591 SWAP2 SWAP1 PUSH2 0x1FE7 JUMP JUMPDEST PUSH1 0x40 MLOAD DUP1 SWAP2 SUB SWAP1 RETURN JUMPDEST PUSH2 0x5B4 PUSH1 0x4 DUP1 CALLDATASIZE SUB DUP2 ADD SWAP1 PUSH2 0x5AF SWAP2 SWAP1 PUSH2 0x1F32 JUMP JUMPDEST PUSH2 0xDE9 JUMP JUMPDEST STOP JUMPDEST CALLVALUE DUP1 ISZERO PUSH2 0x5C1 JUMPI PUSH0 DUP1 REVERT JUMPDEST POP PUSH2 0x5DC PUSH1 0x4 DUP1 CALLDATASIZE SUB DUP2 ADD SWAP1 PUSH2 0x5D7 SWAP2 SWAP1 PUSH2 0x2061 JUMP JUMPDEST PUSH2 0x1000 JUMP JUMPDEST PUSH1 0x40 MLOAD PUSH2 0x5E9 SWAP2 SWAP1 PUSH2 0x20B9 JUMP JUMPDEST PUSH1 0x40 MLOAD DUP1 SWAP2 SUB SWAP1 RETURN JUMPDEST CALLVALUE DUP1 ISZERO PUSH2 0x5FD JUMPI PUSH0 DUP1 REVERT JUMPDEST POP PUSH2 0x618 PUSH1 0x4 DUP1 CALLDATASIZE SUB DUP2 ADD SWAP1 PUSH2 0x613 SWAP2 SWAP1 PUSH2 0x1F32 JUMP JUMPDEST PUSH2 0x1022 JUMP JUMPDEST STOP JUMPDEST PUSH2 0x634 PUSH1 0x4 DUP1 CALLDATASIZE SUB DUP2 ADD SWAP1 PUSH2 0x62F SWAP2 SWAP1 PUSH2 0x2264 JUMP JUMPDEST PUSH2 0x149B JUMP JUMPDEST STOP JUMPDEST CALLVALUE DUP1 ISZERO PUSH2 0x641 JUMPI PUSH0 DUP1 REVERT JUMPDEST POP PUSH2 0x65C PUSH1 0x4 DUP1 CALLDATASIZE SUB DUP2 ADD SWAP1 PUSH2 0x657 SWAP2 SWAP1 PUSH2 0x1F32 JUMP JUMPDEST PUSH2 0x16CB JUMP JUMPDEST PUSH1 0x40 MLOAD PUSH2 0x669 SWAP2 SWAP1 PUSH2 0x20B9 JUMP JUMPDEST PUSH1 0x40 MLOAD DUP1 SWAP2 SUB SWAP1 RETURN JUMPDEST CALLVALUE DUP1 ISZERO PUSH2 0x67D JUMPI PUSH0 DUP1 REVERT JUMPDEST POP PUSH2 0x698 PUSH1 0x4 DUP1 CALLDATASIZE SUB DUP2 ADD SWAP1 PUSH2 0x693 SWAP2 SWAP1 PUSH2 0x22CC JUMP JUMPDEST PUSH2 0x16F5 JUMP JUMPDEST STOP JUMPDEST CALLVALUE DUP1 ISZERO PUSH2 0x6A5 JUMPI PUSH0 DUP1 REVERT JUMPDEST POP PUSH2 0x6C0 PUSH1 0x4 DUP1 CALLDATASIZE SUB DUP2 ADD SWAP1 PUSH2 0x6BB SWAP2 SWAP1 PUSH2 0x2330 JUMP JUMPDEST PUSH2 0x184B JUMP JUMPDEST PUSH1 0x40 MLOAD PUSH2 0x6CD SWAP2 SWAP1 PUSH2 0x20E1 JUMP JUMPDEST PUSH1 0x40 MLOAD DUP1 SWAP2 SUB SWAP1 RETURN JUMPDEST CALLVALUE DUP1 ISZERO PUSH2 0x6E1 JUMPI PUSH0 DUP1 REVERT JUMPDEST POP PUSH2 0x6FC PUSH1 0x4 DUP1 CALLDATASIZE SUB DUP2 ADD SWAP1 PUSH2 0x6F7 SWAP2 SWAP1 PUSH2 0x1F32 JUMP JUMPDEST PUSH2 0x18CD JUMP JUMPDEST PUSH1 0x40 MLOAD PUSH2 0x709 SWAP2 SWAP1 PUSH2 0x224B JUMP JUMPDEST PUSH1 0x40 MLOAD DUP1 SWAP2 SUB SWAP1 RETURN JUMPDEST CALLVALUE DUP1 ISZERO PUSH2 0x71D JUMPI PUSH0 DUP1 REVERT JUMPDEST POP PUSH2 0x738 PUSH1 0x4 DUP1 CALLDATASIZE SUB DUP2 ADD SWAP1 PUSH2 0x733 SWAP2 SWAP1 PUSH2 0x1F32 JUMP JUMPDEST PUSH2 0x1908 JUMP JUMPDEST PUSH1 0x40 MLOAD PUSH2 0x74A SWAP7 SWAP6 SWAP5 SWAP4 SWAP3 SWAP2 SWAP1 PUSH2 0x236E JUMP JUMPDEST PUSH1 0x40 MLOAD DUP1 SWAP2 SUB SWAP1 RETURN JUMPDEST CALLER PUSH20 0xFFFFFFFFFFFFFFFFFFFFFFFFFFFFFFFFFFFFFFFF AND PUSH1 0xA PUSH0 DUP4 DUP2 MSTORE PUSH1 0x20 ADD SWAP1 DUP2 MSTORE PUSH1 0x20 ADD PUSH0 KECCAK256 PUSH0 ADD PUSH0 SWAP1 SLOAD SWAP1 PUSH2 0x100 EXP SWAP1 DIV PUSH20 0xFFFFFFFFFFFFFFFFFFFFFFFFFFFFFFFFFFFFFFFF AND PUSH20 0xFFFFFFFFFFFFFFFFFFFFFFFFFFFFFFFFFFFFFFFF AND EQ PUSH2 0x7F3 JUMPI PUSH1 0x40 MLOAD PUSH32 0x8C379A000000000000000000000000000000000000000000000000000000000 DUP2 MSTORE PUSH1 0x4 ADD PUSH2 0x7EA SWAP1 PUSH2 0x243D JUMP JUMPDEST PUSH1 0x40 MLOAD DUP1 SWAP2 SUB SWAP1 REVERT JUMPDEST PUSH1 0xA PUSH0 DUP3 DUP2 MSTORE PUSH1 0x20 ADD SWAP1 DUP2 MSTORE PUSH1 0x20 ADD PUSH0 KECCAK256 PUSH1 0x5 ADD PUSH1 0x1 SWAP1 SLOAD SWAP1 PUSH2 0x100 EXP SWAP1 DIV PUSH1 0xFF AND ISZERO PUSH2 0x855 JUMPI PUSH1 0x40 MLOAD PUSH32 0x8C379A000000000000000000000000000000000000000000000000000000000 DUP2 MSTORE PUSH1 0x4 ADD PUSH2 0x84C SWAP1 PUSH2 0x24CB JUMP JUMPDEST PUSH1 0x40 MLOAD DUP1 SWAP2 SUB SWAP1 REVERT JUMPDEST PUSH1 0x9 PUSH0 DUP2 SLOAD DUP1 SWAP3 SWAP2 SWAP1 PUSH2 0x867 SWAP1 PUSH2 0x2516 JUMP JUMPDEST SWAP2 SWAP1 POP SSTORE POP PUSH1 0x40 MLOAD DUP1 PUSH1 0x80 ADD PUSH1 0x40 MSTORE DUP1 DUP3 DUP2 MSTORE PUSH1 0x20 ADD PUSH0 PUSH20 0xFFFFFFFFFFFFFFFFFFFFFFFFFFFFFFFFFFFFFFFF AND DUP2 MSTORE PUSH1 0x20 ADD PUSH0 DUP2 MSTORE PUSH1 0x20 ADD PUSH0 ISZERO ISZERO DUP2 MSTORE POP PUSH1 0xB PUSH0 PUSH1 0x9 SLOAD DUP2 MSTORE PUSH1 0x20 ADD SWAP1 DUP2 MSTORE PUSH1 0x20 ADD PUSH0 KECCAK256 PUSH0 DUP3 ADD MLOAD DUP2 PUSH0 ADD SSTORE PUSH1 0x20 DUP3 ADD MLOAD DUP2 PUSH1 0x1 ADD PUSH0 PUSH2 0x100 EXP DUP2 SLOAD DUP2 PUSH20 0xFFFFFFFFFFFFFFFFFFFFFFFFFFFFFFFFFFFFFFFF MUL NOT AND SWAP1 DUP4 PUSH20 0xFFFFFFFFFFFFFFFFFFFFFFFFFFFFFFFFFFFFFFFF AND MUL OR SWAP1 SSTORE POP PUSH1 0x40 DUP3 ADD MLOAD DUP2 PUSH1 0x2 ADD SSTORE PUSH1 0x60 DUP3 ADD MLOAD DUP2 PUSH1 0x3 ADD PUSH0 PUSH2 0x100 EXP DUP2 SLOAD DUP2 PUSH1 0xFF MUL NOT AND SWAP1 DUP4 ISZERO ISZERO MUL OR SWAP1 SSTORE POP SWAP1 POP POP PUSH1 0x1 PUSH1 0xA PUSH0 DUP4 DUP2 MSTORE PUSH1 0x20 ADD SWAP1 DUP2 MSTORE PUSH1 0x20 ADD PUSH0 KECCAK256 PUSH1 0x5 ADD PUSH1 0x1 PUSH2 0x100 EXP DUP2 SLOAD DUP2 PUSH1 0xFF MUL NOT AND SWAP1 DUP4 ISZERO ISZERO MUL OR SWAP1 SSTORE POP CALLER PUSH20 0xFFFFFFFFFFFFFFFFFFFFFFFFFFFFFFFFFFFFFFFF AND PUSH32 0x3B328B90A88EECC6CE6D1031BB1C779DD4E5E28E810018CA19F8CCD27691380 DUP3 PUSH1 0x40 MLOAD PUSH2 0x9A5 SWAP2 SWAP1 PUSH2 0x20E1 JUMP JUMPDEST PUSH1 0x40 MLOAD DUP1 SWAP2 SUB SWAP1 LOG2 POP JUMP JUMPDEST PUSH1 0x60 PUSH1 0x3 DUP1 SLOAD PUSH2 0x9BF SWAP1 PUSH2 0x258A JUMP JUMPDEST DUP1 PUSH1 0x1F ADD PUSH1 0x20 DUP1 SWAP2 DIV MUL PUSH1 0x20 ADD PUSH1 0x40 MLOAD SWAP1 DUP2 ADD PUSH1 0x40 MSTORE DUP1 SWAP3 SWAP2 SWAP1 DUP2 DUP2 MSTORE PUSH1 0x20 ADD DUP3 DUP1 SLOAD PUSH2 0x9EB SWAP1 PUSH2 0x258A JUMP JUMPDEST DUP1 ISZERO PUSH2 0xA36 JUMPI DUP1 PUSH1 0x1F LT PUSH2 0xA0D JUMPI PUSH2 0x100 DUP1 DUP4 SLOAD DIV MUL DUP4 MSTORE SWAP2 PUSH1 0x20 ADD SWAP2 PUSH2 0xA36 JUMP JUMPDEST DUP3 ADD SWAP2 SWAP1 PUSH0 MSTORE PUSH1 0x20 PUSH0 KECCAK256 SWAP1 JUMPDEST DUP2 SLOAD DUP2 MSTORE SWAP1 PUSH1 0x1 ADD SWAP1 PUSH1 0x20 ADD DUP1 DUP4 GT PUSH2 0xA19 JUMPI DUP3 SWAP1 SUB PUSH1 0x1F AND DUP3 ADD SWAP2 JUMPDEST POP POP POP POP POP SWAP1 POP SWAP1 JUMP JUMPDEST PUSH0 DUP1 PUSH2 0xA4A PUSH2 0x1978 JUMP JUMPDEST SWAP1 POP PUSH2 0xA57 DUP2 DUP6 DUP6 PUSH2 0x197F JUMP JUMPDEST PUSH1 0x1 SWAP2 POP POP SWAP3 SWAP2 POP POP JUMP JUMPDEST PUSH1 0x8 SLOAD DUP2 JUMP JUMPDEST PUSH0 PUSH1 0xA PUSH0 DUP4 DUP2 MSTORE PUSH1 0x20 ADD SWAP1 DUP2 MSTORE PUSH1 0x20 ADD PUSH0 KECCAK256 PUSH1 0x5 ADD PUSH0 SWAP1 SLOAD SWAP1 PUSH2 0x100 EXP SWAP1 DIV PUSH1 0xFF AND SWAP1 POP SWAP2 SWAP1 POP JUMP JUMPDEST PUSH1 0x9 SLOAD DUP2 JUMP JUMPDEST PUSH1 0x5 PUSH0 SWAP1 SLOAD SWAP1 PUSH2 0x100 EXP SWAP1 DIV PUSH20 0xFFFFFFFFFFFFFFFFFFFFFFFFFFFFFFFFFFFFFFFF AND PUSH20 0xFFFFFFFFFFFFFFFFFFFFFFFFFFFFFFFFFFFFFFFF AND CALLER PUSH20 0xFFFFFFFFFFFFFFFFFFFFFFFFFFFFFFFFFFFFFFFF AND EQ PUSH2 0xB26 JUMPI PUSH1 0x40 MLOAD PUSH32 0x8C379A000000000000000000000000000000000000000000000000000000000 DUP2 MSTORE PUSH1 0x4 ADD PUSH2 0xB1D SWAP1 PUSH2 0x262A JUMP JUMPDEST PUSH1 0x40 MLOAD DUP1 SWAP2 SUB SWAP1 REVERT JUMPDEST DUP1 PUSH1 0x7 DUP2 SWAP1 SSTORE POP POP JUMP JUMPDEST PUSH0 PUSH1 0x2 SLOAD SWAP1 POP SWAP1 JUMP JUMPDEST PUSH1 0x5 PUSH0 SWAP1 SLOAD SWAP1 PUSH2 0x100 EXP SWAP1 DIV PUSH20 0xFFFFFFFFFFFFFFFFFFFFFFFFFFFFFFFFFFFFFFFF AND PUSH20 0xFFFFFFFFFFFFFFFFFFFFFFFFFFFFFFFFFFFFFFFF AND CALLER PUSH20 0xFFFFFFFFFFFFFFFFFFFFFFFFFFFFFFFFFFFFFFFF AND EQ PUSH2 0xBC8 JUMPI PUSH1 0x40 MLOAD PUSH32 0x8C379A000000000000000000000000000000000000000000000000000000000 DUP2 MSTORE PUSH1 0x4 ADD PUSH2 0xBBF SWAP1 PUSH2 0x262A JUMP JUMPDEST PUSH1 0x40 MLOAD DUP1 SWAP2 SUB SWAP1 REVERT JUMPDEST DUP2 PUSH1 0xA PUSH0 DUP6 DUP2 MSTORE PUSH1 0x20 ADD SWAP1 DUP2 MSTORE PUSH1 0x20 ADD PUSH0 KECCAK256 PUSH1 0x2 ADD DUP2 SWAP1 SSTORE POP DUP1 PUSH1 0xA PUSH0 DUP6 DUP2 MSTORE PUSH1 0x20 ADD SWAP1 DUP2 MSTORE PUSH1 0x20 ADD PUSH0 KECCAK256 PUSH1 0x3 ADD DUP2 SWAP1 SSTORE POP POP POP POP JUMP JUMPDEST PUSH0 DUP1 PUSH2 0xC09 PUSH2 0x1978 JUMP JUMPDEST SWAP1 POP PUSH2 0xC16 DUP6 DUP3 DUP6 PUSH2 0x1991 JUMP JUMPDEST PUSH2 0xC21 DUP6 DUP6 DUP6 PUSH2 0x1A23 JUMP JUMPDEST PUSH1 0x1 SWAP2 POP POP SWAP4 SWAP3 POP POP POP JUMP JUMPDEST PUSH0 PUSH1 0xA PUSH0 DUP4 DUP2 MSTORE PUSH1 0x20 ADD SWAP1 DUP2 MSTORE PUSH1 0x20 ADD PUSH0 KECCAK256 PUSH1 0x2 ADD SLOAD SWAP1 POP SWAP2 SWAP1 POP JUMP JUMPDEST PUSH0 PUSH1 0x12 SWAP1 POP SWAP1 JUMP JUMPDEST PUSH1 0x6 SLOAD DUP2 JUMP JUMPDEST PUSH1 0xB PUSH1 0x20 MSTORE DUP1 PUSH0 MSTORE PUSH1 0x40 PUSH0 KECCAK256 PUSH0 SWAP2 POP SWAP1 POP DUP1 PUSH0 ADD SLOAD SWAP1 DUP1 PUSH1 0x1 ADD PUSH0 SWAP1 SLOAD SWAP1 PUSH2 0x100 EXP SWAP1 DIV PUSH20 0xFFFFFFFFFFFFFFFFFFFFFFFFFFFFFFFFFFFFFFFF AND SWAP1 DUP1 PUSH1 0x2 ADD SLOAD SWAP1 DUP1 PUSH1 0x3 ADD PUSH0 SWAP1 SLOAD SWAP1 PUSH2 0x100 EXP SWAP1 DIV PUSH1 0xFF AND SWAP1 POP DUP5 JUMP JUMPDEST PUSH0 DUP1 PUSH0 DUP4 PUSH20 0xFFFFFFFFFFFFFFFFFFFFFFFFFFFFFFFFFFFFFFFF AND PUSH20 0xFFFFFFFFFFFFFFFFFFFFFFFFFFFFFFFFFFFFFFFF AND DUP2 MSTORE PUSH1 0x20 ADD SWAP1 DUP2 MSTORE PUSH1 0x20 ADD PUSH0 KECCAK256 SLOAD SWAP1 POP SWAP2 SWAP1 POP JUMP JUMPDEST PUSH0 PUSH1 0xA PUSH0 DUP4 DUP2 MSTORE PUSH1 0x20 ADD SWAP1 DUP2 MSTORE PUSH1 0x20 ADD PUSH0 KECCAK256 PUSH1 0x1 ADD SLOAD SWAP1 POP SWAP2 SWAP1 POP JUMP JUMPDEST PUSH1 0x7 SLOAD DUP2 JUMP JUMPDEST PUSH0 PUSH1 0xA PUSH0 DUP4 DUP2 MSTORE PUSH1 0x20 ADD SWAP1 DUP2 MSTORE PUSH1 0x20 ADD PUSH0 KECCAK256 PUSH1 0x3 ADD SLOAD SWAP1 POP SWAP2 SWAP1 POP JUMP JUMPDEST PUSH1 0x5 PUSH0 SWAP1 SLOAD SWAP1 PUSH2 0x100 EXP SWAP1 DIV PUSH20 0xFFFFFFFFFFFFFFFFFFFFFFFFFFFFFFFFFFFFFFFF AND DUP2 JUMP JUMPDEST PUSH1 0x60 PUSH1 0x4 DUP1 SLOAD PUSH2 0xD68 SWAP1 PUSH2 0x258A JUMP JUMPDEST DUP1 PUSH1 0x1F ADD PUSH1 0x20 DUP1 SWAP2 DIV MUL PUSH1 0x20 ADD PUSH1 0x40 MLOAD SWAP1 DUP2 ADD PUSH1 0x40 MSTORE DUP1 SWAP3 SWAP2 SWAP1 DUP2 DUP2 MSTORE PUSH1 0x20 ADD DUP3 DUP1 SLOAD PUSH2 0xD94 SWAP1 PUSH2 0x258A JUMP JUMPDEST DUP1 ISZERO PUSH2 0xDDF JUMPI DUP1 PUSH1 0x1F LT PUSH2 0xDB6 JUMPI PUSH2 0x100 DUP1 DUP4 SLOAD DIV MUL DUP4 MSTORE SWAP2 PUSH1 0x20 ADD SWAP2 PUSH2 0xDDF JUMP JUMPDEST DUP3 ADD SWAP2 SWAP1 PUSH0 MSTORE PUSH1 0x20 PUSH0 KECCAK256 SWAP1 JUMPDEST DUP2 SLOAD DUP2 MSTORE SWAP1 PUSH1 0x1 ADD SWAP1 PUSH1 0x20 ADD DUP1 DUP4 GT PUSH2 0xDC2 JUMPI DUP3 SWAP1 SUB PUSH1 0x1F AND DUP3 ADD SWAP2 JUMPDEST POP POP POP POP POP SWAP1 POP SWAP1 JUMP JUMPDEST PUSH1 0xB PUSH0 DUP3 DUP2 MSTORE PUSH1 0x20 ADD SWAP1 DUP2 MSTORE PUSH1 0x20 ADD PUSH0 KECCAK256 PUSH1 0x3 ADD PUSH0 SWAP1 SLOAD SWAP1 PUSH2 0x100 EXP SWAP1 DIV PUSH1 0xFF AND ISZERO PUSH2 0xE4A JUMPI PUSH1 0x40 MLOAD PUSH32 0x8C379A000000000000000000000000000000000000000000000000000000000 DUP2 MSTORE PUSH1 0x4 ADD PUSH2 0xE41 SWAP1 PUSH2 0x2692 JUMP JUMPDEST PUSH1 0x40 MLOAD DUP1 SWAP2 SUB SWAP1 REVERT JUMPDEST PUSH1 0xB PUSH0 DUP3 DUP2 MSTORE PUSH1 0x20 ADD SWAP1 DUP2 MSTORE PUSH1 0x20 ADD PUSH0 KECCAK256 PUSH1 0x2 ADD SLOAD CALLVALUE GT PUSH2 0xEA0 JUMPI PUSH1 0x40 MLOAD PUSH32 0x8C379A000000000000000000000000000000000000000000000000000000000 DUP2 MSTORE PUSH1 0x4 ADD PUSH2 0xE97 SWAP1 PUSH2 0x2720 JUMP JUMPDEST PUSH1 0x40 MLOAD DUP1 SWAP2 SUB SWAP1 REVERT JUMPDEST PUSH0 PUSH20 0xFFFFFFFFFFFFFFFFFFFFFFFFFFFFFFFFFFFFFFFF AND PUSH1 0xB PUSH0 DUP4 DUP2 MSTORE PUSH1 0x20 ADD SWAP1 DUP2 MSTORE PUSH1 0x20 ADD PUSH0 KECCAK256 PUSH1 0x1 ADD PUSH0 SWAP1 SLOAD SWAP1 PUSH2 0x100 EXP SWAP1 DIV PUSH20 0xFFFFFFFFFFFFFFFFFFFFFFFFFFFFFFFFFFFFFFFF AND PUSH20 0xFFFFFFFFFFFFFFFFFFFFFFFFFFFFFFFFFFFFFFFF AND EQ PUSH2 0xF92 JUMPI PUSH1 0xB PUSH0 DUP3 DUP2 MSTORE PUSH1 0x20 ADD SWAP1 DUP2 MSTORE PUSH1 0x20 ADD PUSH0 KECCAK256 PUSH1 0x1 ADD PUSH0 SWAP1 SLOAD SWAP1 PUSH2 0x100 EXP SWAP1 DIV PUSH20 0xFFFFFFFFFFFFFFFFFFFFFFFFFFFFFFFFFFFFFFFF AND PUSH20 0xFFFFFFFFFFFFFFFFFFFFFFFFFFFFFFFFFFFFFFFF AND PUSH2 0x8FC PUSH1 0xB PUSH0 DUP5 DUP2 MSTORE PUSH1 0x20 ADD SWAP1 DUP2 MSTORE PUSH1 0x20 ADD PUSH0 KECCAK256 PUSH1 0x2 ADD SLOAD SWAP1 DUP2 ISZERO MUL SWAP1 PUSH1 0x40 MLOAD PUSH0 PUSH1 0x40 MLOAD DUP1 DUP4 SUB DUP2 DUP6 DUP9 DUP9 CALL SWAP4 POP POP POP POP ISZERO DUP1 ISZERO PUSH2 0xF90 JUMPI RETURNDATASIZE PUSH0 DUP1 RETURNDATACOPY RETURNDATASIZE PUSH0 REVERT JUMPDEST POP JUMPDEST CALLER PUSH1 0xB PUSH0 DUP4 DUP2 MSTORE PUSH1 0x20 ADD SWAP1 DUP2 MSTORE PUSH1 0x20 ADD PUSH0 KECCAK256 PUSH1 0x1 ADD PUSH0 PUSH2 0x100 EXP DUP2 SLOAD DUP2 PUSH20 0xFFFFFFFFFFFFFFFFFFFFFFFFFFFFFFFFFFFFFFFF MUL NOT AND SWAP1 DUP4 PUSH20 0xFFFFFFFFFFFFFFFFFFFFFFFFFFFFFFFFFFFFFFFF AND MUL OR SWAP1 SSTORE POP CALLVALUE PUSH1 0xB PUSH0 DUP4 DUP2 MSTORE PUSH1 0x20 ADD SWAP1 DUP2 MSTORE PUSH1 0x20 ADD PUSH0 KECCAK256 PUSH1 0x2 ADD DUP2 SWAP1 SSTORE POP POP JUMP JUMPDEST PUSH0 DUP1 PUSH2 0x100A PUSH2 0x1978 JUMP JUMPDEST SWAP1 POP PUSH2 0x1017 DUP2 DUP6 DUP6 PUSH2 0x1A23 JUMP JUMPDEST PUSH1 0x1 SWAP2 POP POP SWAP3 SWAP2 POP POP JUMP JUMPDEST CALLER PUSH20 0xFFFFFFFFFFFFFFFFFFFFFFFFFFFFFFFFFFFFFFFF AND PUSH1 0xA PUSH0 PUSH1 0xB PUSH0 DUP6 DUP2 MSTORE PUSH1 0x20 ADD SWAP1 DUP2 MSTORE PUSH1 0x20 ADD PUSH0 KECCAK256 PUSH0 ADD SLOAD DUP2 MSTORE PUSH1 0x20 ADD SWAP1 DUP2 MSTORE PUSH1 0x20 ADD PUSH0 KECCAK256 PUSH0 ADD PUSH0 SWAP1 SLOAD SWAP1 PUSH2 0x100 EXP SWAP1 DIV PUSH20 0xFFFFFFFFFFFFFFFFFFFFFFFFFFFFFFFFFFFFFFFF AND PUSH20 0xFFFFFFFFFFFFFFFFFFFFFFFFFFFFFFFFFFFFFFFF AND EQ PUSH2 0x10D5 JUMPI PUSH1 0x40 MLOAD PUSH32 0x8C379A000000000000000000000000000000000000000000000000000000000 DUP2 MSTORE PUSH1 0x4 ADD PUSH2 0x10CC SWAP1 PUSH2 0x27AE JUMP JUMPDEST PUSH1 0x40 MLOAD DUP1 SWAP2 SUB SWAP1 REVERT JUMPDEST PUSH1 0xB PUSH0 DUP3 DUP2 MSTORE PUSH1 0x20 ADD SWAP1 DUP2 MSTORE PUSH1 0x20 ADD PUSH0 KECCAK256 PUSH1 0x3 ADD PUSH0 SWAP1 SLOAD SWAP1 PUSH2 0x100 EXP SWAP1 DIV PUSH1 0xFF AND ISZERO PUSH2 0x1136 JUMPI PUSH1 0x40 MLOAD PUSH32 0x8C379A000000000000000000000000000000000000000000000000000000000 DUP2 MSTORE PUSH1 0x4 ADD PUSH2 0x112D SWAP1 PUSH2 0x2692 JUMP JUMPDEST PUSH1 0x40 MLOAD DUP1 SWAP2 SUB SWAP1 REVERT JUMPDEST PUSH1 0x1 PUSH1 0xB PUSH0 DUP4 DUP2 MSTORE PUSH1 0x20 ADD SWAP1 DUP2 MSTORE PUSH1 0x20 ADD PUSH0 KECCAK256 PUSH1 0x3 ADD PUSH0 PUSH2 0x100 EXP DUP2 SLOAD DUP2 PUSH1 0xFF MUL NOT AND SWAP1 DUP4 ISZERO ISZERO MUL OR SWAP1 SSTORE POP PUSH1 0xB PUSH0 DUP3 DUP2 MSTORE PUSH1 0x20 ADD SWAP1 DUP2 MSTORE PUSH1 0x20 ADD PUSH0 KECCAK256 PUSH1 0x1 ADD PUSH0 SWAP1 SLOAD SWAP1 PUSH2 0x100 EXP SWAP1 DIV PUSH20 0xFFFFFFFFFFFFFFFFFFFFFFFFFFFFFFFFFFFFFFFF AND PUSH1 0xA PUSH0 PUSH1 0xB PUSH0 DUP6 DUP2 MSTORE PUSH1 0x20 ADD SWAP1 DUP2 MSTORE PUSH1 0x20 ADD PUSH0 KECCAK256 PUSH0 ADD SLOAD DUP2 MSTORE PUSH1 0x20 ADD SWAP1 DUP2 MSTORE PUSH1 0x20 ADD PUSH0 KECCAK256 PUSH0 ADD PUSH0 PUSH2 0x100 EXP DUP2 SLOAD DUP2 PUSH20 0xFFFFFFFFFFFFFFFFFFFFFFFFFFFFFFFFFFFFFFFF MUL NOT AND SWAP1 DUP4 PUSH20 0xFFFFFFFFFFFFFFFFFFFFFFFFFFFFFFFFFFFFFFFF AND MUL OR SWAP1 SSTORE POP PUSH0 PUSH1 0xA PUSH0 PUSH1 0xB PUSH0 DUP6 DUP2 MSTORE PUSH1 0x20 ADD SWAP1 DUP2 MSTORE PUSH1 0x20 ADD PUSH0 KECCAK256 PUSH0 ADD SLOAD DUP2 MSTORE PUSH1 0x20 ADD SWAP1 DUP2 MSTORE PUSH1 0x20 ADD PUSH0 KECCAK256 PUSH1 0x5 ADD PUSH1 0x1 PUSH2 0x100 EXP DUP2 SLOAD DUP2 PUSH1 0xFF MUL NOT AND SWAP1 DUP4 ISZERO ISZERO MUL OR SWAP1 SSTORE POP PUSH2 0x132C PUSH1 0x5 PUSH0 SWAP1 SLOAD SWAP1 PUSH2 0x100 EXP SWAP1 DIV PUSH20 0xFFFFFFFFFFFFFFFFFFFFFFFFFFFFFFFFFFFFFFFF AND PUSH1 0xB PUSH0 DUP5 DUP2 MSTORE PUSH1 0x20 ADD SWAP1 DUP2 MSTORE PUSH1 0x20 ADD PUSH0 KECCAK256 PUSH1 0x1 ADD PUSH0 SWAP1 SLOAD SWAP1 PUSH2 0x100 EXP SWAP1 DIV PUSH20 0xFFFFFFFFFFFFFFFFFFFFFFFFFFFFFFFFFFFFFFFF AND PUSH1 0xA PUSH0 PUSH1 0xB PUSH0 DUP8 DUP2 MSTORE PUSH1 0x20 ADD SWAP1 DUP2 MSTORE PUSH1 0x20 ADD PUSH0 KECCAK256 PUSH0 ADD SLOAD DUP2 MSTORE PUSH1 0x20 ADD SWAP1 DUP2 MSTORE PUSH1 0x20 ADD PUSH0 KECCAK256 PUSH1 0x4 ADD PUSH0 PUSH1 0xB PUSH0 DUP8 DUP2 MSTORE PUSH1 0x20 ADD SWAP1 DUP2 MSTORE PUSH1 0x20 ADD PUSH0 KECCAK256 PUSH1 0x1 ADD PUSH0 SWAP1 SLOAD SWAP1 PUSH2 0x100 EXP SWAP1 DIV PUSH20 0xFFFFFFFFFFFFFFFFFFFFFFFFFFFFFFFFFFFFFFFF AND PUSH20 0xFFFFFFFFFFFFFFFFFFFFFFFFFFFFFFFFFFFFFFFF AND PUSH20 0xFFFFFFFFFFFFFFFFFFFFFFFFFFFFFFFFFFFFFFFF AND DUP2 MSTORE PUSH1 0x20 ADD SWAP1 DUP2 MSTORE PUSH1 0x20 ADD PUSH0 KECCAK256 SLOAD PUSH2 0x1A23 JUMP JUMPDEST PUSH1 0xB PUSH0 DUP3 DUP2 MSTORE PUSH1 0x20 ADD SWAP1 DUP2 MSTORE PUSH1 0x20 ADD PUSH0 KECCAK256 PUSH1 0x1 ADD PUSH0 SWAP1 SLOAD SWAP1 PUSH2 0x100 EXP SWAP1 DIV PUSH20 0xFFFFFFFFFFFFFFFFFFFFFFFFFFFFFFFFFFFFFFFF AND PUSH20 0xFFFFFFFFFFFFFFFFFFFFFFFFFFFFFFFFFFFFFFFF AND CALLER PUSH20 0xFFFFFFFFFFFFFFFFFFFFFFFFFFFFFFFFFFFFFFFF AND PUSH32 0x4D31A5599CDB48031C1F03259ADBD513BE468C5735012719A1A9850869B558B1 PUSH1 0xB PUSH0 DUP6 DUP2 MSTORE PUSH1 0x20 ADD SWAP1 DUP2 MSTORE PUSH1 0x20 ADD PUSH0 KECCAK256 PUSH0 ADD SLOAD PUSH1 0xB PUSH0 DUP7 DUP2 MSTORE PUSH1 0x20 ADD SWAP1 DUP2 MSTORE PUSH1 0x20 ADD PUSH0 KECCAK256 PUSH1 0x2 ADD SLOAD PUSH1 0x40 MLOAD PUSH2 0x13E5 SWAP3 SWAP2 SWAP1 PUSH2 0x27CC JUMP JUMPDEST PUSH1 0x40 MLOAD DUP1 SWAP2 SUB SWAP1 LOG3 PUSH1 0xB PUSH0 DUP3 DUP2 MSTORE PUSH1 0x20 ADD SWAP1 DUP2 MSTORE PUSH1 0x20 ADD PUSH0 KECCAK256 PUSH1 0x1 ADD PUSH0 SWAP1 SLOAD SWAP1 PUSH2 0x100 EXP SWAP1 DIV PUSH20 0xFFFFFFFFFFFFFFFFFFFFFFFFFFFFFFFFFFFFFFFF AND PUSH20 0xFFFFFFFFFFFFFFFFFFFFFFFFFFFFFFFFFFFFFFFF AND CALLER PUSH20 0xFFFFFFFFFFFFFFFFFFFFFFFFFFFFFFFFFFFFFFFF AND PUSH32 0xA5C64C8204A6A698B47E944C0C3E6D9699F44CF150C89378D697FBF682D5B6E4 PUSH1 0xB PUSH0 DUP6 DUP2 MSTORE PUSH1 0x20 ADD SWAP1 DUP2 MSTORE PUSH1 0x20 ADD PUSH0 KECCAK256 PUSH0 ADD SLOAD PUSH1 0x40 MLOAD PUSH2 0x1490 SWAP2 SWAP1 PUSH2 0x20E1 JUMP JUMPDEST PUSH1 0x40 MLOAD DUP1 SWAP2 SUB SWAP1 LOG3 POP JUMP JUMPDEST PUSH0 DUP2 GT PUSH2 0x14DD JUMPI PUSH1 0x40 MLOAD PUSH32 0x8C379A000000000000000000000000000000000000000000000000000000000 DUP2 MSTORE PUSH1 0x4 ADD PUSH2 0x14D4 SWAP1 PUSH2 0x2863 JUMP JUMPDEST PUSH1 0x40 MLOAD DUP1 SWAP2 SUB SWAP1 REVERT JUMPDEST PUSH1 0x7 SLOAD DUP2 PUSH2 0x14EB SWAP2 SWAP1 PUSH2 0x2881 JUMP JUMPDEST CALLVALUE LT ISZERO PUSH2 0x152D JUMPI PUSH1 0x40 MLOAD PUSH32 0x8C379A000000000000000000000000000000000000000000000000000000000 DUP2 MSTORE PUSH1 0x4 ADD PUSH2 0x1524 SWAP1 PUSH2 0x290C JUMP JUMPDEST PUSH1 0x40 MLOAD DUP1 SWAP2 SUB SWAP1 REVERT JUMPDEST DUP1 PUSH1 0xA PUSH0 DUP5 DUP2 MSTORE PUSH1 0x20 ADD SWAP1 DUP2 MSTORE PUSH1 0x20 ADD PUSH0 KECCAK256 PUSH1 0x1 ADD SLOAD LT ISZERO PUSH2 0x1584 JUMPI PUSH1 0x40 MLOAD PUSH32 0x8C379A000000000000000000000000000000000000000000000000000000000 DUP2 MSTORE PUSH1 0x4 ADD PUSH2 0x157B SWAP1 PUSH2 0x2974 JUMP JUMPDEST PUSH1 0x40 MLOAD DUP1 SWAP2 SUB SWAP1 REVERT JUMPDEST PUSH0 PUSH1 0x7 SLOAD DUP3 PUSH2 0x1593 SWAP2 SWAP1 PUSH2 0x2881 JUMP JUMPDEST SWAP1 POP DUP2 PUSH1 0xA PUSH0 DUP6 DUP2 MSTORE PUSH1 0x20 ADD SWAP1 DUP2 MSTORE PUSH1 0x20 ADD PUSH0 KECCAK256 PUSH1 0x4 ADD PUSH0 CALLER PUSH20 0xFFFFFFFFFFFFFFFFFFFFFFFFFFFFFFFFFFFFFFFF AND PUSH20 0xFFFFFFFFFFFFFFFFFFFFFFFFFFFFFFFFFFFFFFFF AND DUP2 MSTORE PUSH1 0x20 ADD SWAP1 DUP2 MSTORE PUSH1 0x20 ADD PUSH0 KECCAK256 PUSH0 DUP3 DUP3 SLOAD PUSH2 0x15F3 SWAP2 SWAP1 PUSH2 0x2992 JUMP JUMPDEST SWAP3 POP POP DUP2 SWAP1 SSTORE POP DUP2 PUSH1 0xA PUSH0 DUP6 DUP2 MSTORE PUSH1 0x20 ADD SWAP1 DUP2 MSTORE PUSH1 0x20 ADD PUSH0 KECCAK256 PUSH1 0x1 ADD PUSH0 DUP3 DUP3 SLOAD PUSH2 0x161D SWAP2 SWAP1 PUSH2 0x29C5 JUMP JUMPDEST SWAP3 POP POP DUP2 SWAP1 SSTORE POP PUSH2 0x1650 PUSH1 0x5 PUSH0 SWAP1 SLOAD SWAP1 PUSH2 0x100 EXP SWAP1 DIV PUSH20 0xFFFFFFFFFFFFFFFFFFFFFFFFFFFFFFFFFFFFFFFF AND CALLER DUP5 PUSH2 0x1A23 JUMP JUMPDEST PUSH1 0xA PUSH0 DUP5 DUP2 MSTORE PUSH1 0x20 ADD SWAP1 DUP2 MSTORE PUSH1 0x20 ADD PUSH0 KECCAK256 PUSH0 ADD PUSH0 SWAP1 SLOAD SWAP1 PUSH2 0x100 EXP SWAP1 DIV PUSH20 0xFFFFFFFFFFFFFFFFFFFFFFFFFFFFFFFFFFFFFFFF AND PUSH20 0xFFFFFFFFFFFFFFFFFFFFFFFFFFFFFFFFFFFFFFFF AND PUSH2 0x8FC DUP3 SWAP1 DUP2 ISZERO MUL SWAP1 PUSH1 0x40 MLOAD PUSH0 PUSH1 0x40 MLOAD DUP1 DUP4 SUB DUP2 DUP6 DUP9 DUP9 CALL SWAP4 POP POP POP POP ISZERO DUP1 ISZERO PUSH2 0x16C5 JUMPI RETURNDATASIZE PUSH0 DUP1 RETURNDATACOPY RETURNDATASIZE PUSH0 REVERT JUMPDEST POP POP POP POP JUMP JUMPDEST PUSH0 PUSH1 0xA PUSH0 DUP4 DUP2 MSTORE PUSH1 0x20 ADD SWAP1 DUP2 MSTORE PUSH1 0x20 ADD PUSH0 KECCAK256 PUSH1 0x5 ADD PUSH1 0x1 SWAP1 SLOAD SWAP1 PUSH2 0x100 EXP SWAP1 DIV PUSH1 0xFF AND SWAP1 POP SWAP2 SWAP1 POP JUMP JUMPDEST PUSH1 0x5 PUSH0 SWAP1 SLOAD SWAP1 PUSH2 0x100 EXP SWAP1 DIV PUSH20 0xFFFFFFFFFFFFFFFFFFFFFFFFFFFFFFFFFFFFFFFF AND PUSH20 0xFFFFFFFFFFFFFFFFFFFFFFFFFFFFFFFFFFFFFFFF AND CALLER PUSH20 0xFFFFFFFFFFFFFFFFFFFFFFFFFFFFFFFFFFFFFFFF AND EQ PUSH2 0x1784 JUMPI PUSH1 0x40 MLOAD PUSH32 0x8C379A000000000000000000000000000000000000000000000000000000000 DUP2 MSTORE PUSH1 0x4 ADD PUSH2 0x177B SWAP1 PUSH2 0x262A JUMP JUMPDEST PUSH1 0x40 MLOAD DUP1 SWAP2 SUB SWAP1 REVERT JUMPDEST PUSH1 0x8 PUSH0 DUP2 SLOAD DUP1 SWAP3 SWAP2 SWAP1 PUSH2 0x1796 SWAP1 PUSH2 0x2516 JUMP JUMPDEST SWAP2 SWAP1 POP SSTORE POP PUSH0 PUSH1 0xA PUSH0 PUSH1 0x8 SLOAD DUP2 MSTORE PUSH1 0x20 ADD SWAP1 DUP2 MSTORE PUSH1 0x20 ADD PUSH0 KECCAK256 SWAP1 POP CALLER DUP2 PUSH0 ADD PUSH0 PUSH2 0x100 EXP DUP2 SLOAD DUP2 PUSH20 0xFFFFFFFFFFFFFFFFFFFFFFFFFFFFFFFFFFFFFFFF MUL NOT AND SWAP1 DUP4 PUSH20 0xFFFFFFFFFFFFFFFFFFFFFFFFFFFFFFFFFFFFFFFF AND MUL OR SWAP1 SSTORE POP DUP3 DUP2 PUSH1 0x1 ADD DUP2 SWAP1 SSTORE POP DUP5 DUP2 PUSH1 0x2 ADD DUP2 SWAP1 SSTORE POP DUP4 DUP2 PUSH1 0x3 ADD DUP2 SWAP1 SSTORE POP DUP2 DUP2 PUSH1 0x5 ADD PUSH0 PUSH2 0x100 EXP DUP2 SLOAD DUP2 PUSH1 0xFF MUL NOT AND SWAP1 DUP4 ISZERO ISZERO MUL OR SWAP1 SSTORE POP PUSH0 DUP2 PUSH1 0x5 ADD PUSH1 0x1 PUSH2 0x100 EXP DUP2 SLOAD DUP2 PUSH1 0xFF MUL NOT AND SWAP1 DUP4 ISZERO ISZERO MUL OR SWAP1 SSTORE POP POP POP POP POP POP JUMP JUMPDEST PUSH0 PUSH1 0x1 PUSH0 DUP5 PUSH20 0xFFFFFFFFFFFFFFFFFFFFFFFFFFFFFFFFFFFFFFFF AND PUSH20 0xFFFFFFFFFFFFFFFFFFFFFFFFFFFFFFFFFFFFFFFF AND DUP2 MSTORE PUSH1 0x20 ADD SWAP1 DUP2 MSTORE PUSH1 0x20 ADD PUSH0 KECCAK256 PUSH0 DUP4 PUSH20 0xFFFFFFFFFFFFFFFFFFFFFFFFFFFFFFFFFFFFFFFF AND PUSH20 0xFFFFFFFFFFFFFFFFFFFFFFFFFFFFFFFFFFFFFFFF AND DUP2 MSTORE PUSH1 0x20 ADD SWAP1 DUP2 MSTORE PUSH1 0x20 ADD PUSH0 KECCAK256 SLOAD SWAP1 POP SWAP3 SWAP2 POP POP JUMP JUMPDEST PUSH0 PUSH1 0xA PUSH0 DUP4 DUP2 MSTORE PUSH1 0x20 ADD SWAP1 DUP2 MSTORE PUSH1 0x20 ADD PUSH0 KECCAK256 PUSH0 ADD PUSH0 SWAP1 SLOAD SWAP1 PUSH2 0x100 EXP SWAP1 DIV PUSH20 0xFFFFFFFFFFFFFFFFFFFFFFFFFFFFFFFFFFFFFFFF AND SWAP1 POP SWAP2 SWAP1 POP JUMP JUMPDEST PUSH1 0xA PUSH1 0x20 MSTORE DUP1 PUSH0 MSTORE PUSH1 0x40 PUSH0 KECCAK256 PUSH0 SWAP2 POP SWAP1 POP DUP1 PUSH0 ADD PUSH0 SWAP1 SLOAD SWAP1 PUSH2 0x100 EXP SWAP1 DIV PUSH20 0xFFFFFFFFFFFFFFFFFFFFFFFFFFFFFFFFFFFFFFFF AND SWAP1 DUP1 PUSH1 0x1 ADD SLOAD SWAP1 DUP1 PUSH1 0x2 ADD SLOAD SWAP1 DUP1 PUSH1 0x3 ADD SLOAD SWAP1 DUP1 PUSH1 0x5 ADD PUSH0 SWAP1 SLOAD SWAP1 PUSH2 0x100 EXP SWAP1 DIV PUSH1 0xFF AND SWAP1 DUP1 PUSH1 0x5 ADD PUSH1 0x1 SWAP1 SLOAD SWAP1 PUSH2 0x100 EXP SWAP1 DIV PUSH1 0xFF AND SWAP1 POP DUP7 JUMP JUMPDEST PUSH0 CALLER SWAP1 POP SWAP1 JUMP JUMPDEST PUSH2 0x198C DUP4 DUP4 DUP4 PUSH1 0x1 PUSH2 0x1B13 JUMP JUMPDEST POP POP POP JUMP JUMPDEST PUSH0 PUSH2 0x199C DUP5 DUP5 PUSH2 0x184B JUMP JUMPDEST SWAP1 POP PUSH32 0xFFFFFFFFFFFFFFFFFFFFFFFFFFFFFFFFFFFFFFFFFFFFFFFFFFFFFFFFFFFFFFFF DUP2 EQ PUSH2 0x1A1D JUMPI DUP2 DUP2 LT ISZERO PUSH2 0x1A0E JUMPI DUP3 DUP2 DUP4 PUSH1 0x40 MLOAD PUSH32 0xFB8F41B200000000000000000000000000000000000000000000000000000000 DUP2 MSTORE PUSH1 0x4 ADD PUSH2 0x1A05 SWAP4 SWAP3 SWAP2 SWAP1 PUSH2 0x29F8 JUMP JUMPDEST PUSH1 0x40 MLOAD DUP1 SWAP2 SUB SWAP1 REVERT JUMPDEST PUSH2 0x1A1C DUP5 DUP5 DUP5 DUP5 SUB PUSH0 PUSH2 0x1B13 JUMP JUMPDEST JUMPDEST POP POP POP POP JUMP JUMPDEST PUSH0 PUSH20 0xFFFFFFFFFFFFFFFFFFFFFFFFFFFFFFFFFFFFFFFF AND DUP4 PUSH20 0xFFFFFFFFFFFFFFFFFFFFFFFFFFFFFFFFFFFFFFFF AND SUB PUSH2 0x1A93 JUMPI PUSH0 PUSH1 0x40 MLOAD PUSH32 0x96C6FD1E00000000000000000000000000000000000000000000000000000000 DUP2 MSTORE PUSH1 0x4 ADD PUSH2 0x1A8A SWAP2 SWAP1 PUSH2 0x224B JUMP JUMPDEST PUSH1 0x40 MLOAD DUP1 SWAP2 SUB SWAP1 REVERT JUMPDEST PUSH0 PUSH20 0xFFFFFFFFFFFFFFFFFFFFFFFFFFFFFFFFFFFFFFFF AND DUP3 PUSH20 0xFFFFFFFFFFFFFFFFFFFFFFFFFFFFFFFFFFFFFFFF AND SUB PUSH2 0x1B03 JUMPI PUSH0 PUSH1 0x40 MLOAD PUSH32 0xEC442F0500000000000000000000000000000000000000000000000000000000 DUP2 MSTORE PUSH1 0x4 ADD PUSH2 0x1AFA SWAP2 SWAP1 PUSH2 0x224B JUMP JUMPDEST PUSH1 0x40 MLOAD DUP1 SWAP2 SUB SWAP1 REVERT JUMPDEST PUSH2 0x1B0E DUP4 DUP4 DUP4 PUSH2 0x1CE2 JUMP JUMPDEST POP POP POP JUMP JUMPDEST PUSH0 PUSH20 0xFFFFFFFFFFFFFFFFFFFFFFFFFFFFFFFFFFFFFFFF AND DUP5 PUSH20 0xFFFFFFFFFFFFFFFFFFFFFFFFFFFFFFFFFFFFFFFF AND SUB PUSH2 0x1B83 JUMPI PUSH0 PUSH1 0x40 MLOAD PUSH32 0xE602DF0500000000000000000000000000000000000000000000000000000000 DUP2 MSTORE PUSH1 0x4 ADD PUSH2 0x1B7A SWAP2 SWAP1 PUSH2 0x224B JUMP JUMPDEST PUSH1 0x40 MLOAD DUP1 SWAP2 SUB SWAP1 REVERT JUMPDEST PUSH0 PUSH20 0xFFFFFFFFFFFFFFFFFFFFFFFFFFFFFFFFFFFFFFFF AND DUP4 PUSH20 0xFFFFFFFFFFFFFFFFFFFFFFFFFFFFFFFFFFFFFFFF AND SUB PUSH2 0x1BF3 JUMPI PUSH0 PUSH1 0x40 MLOAD PUSH32 0x94280D6200000000000000000000000000000000000000000000000000000000 DUP2 MSTORE PUSH1 0x4 ADD PUSH2 0x1BEA SWAP2 SWAP1 PUSH2 0x224B JUMP JUMPDEST PUSH1 0x40 MLOAD DUP1 SWAP2 SUB SWAP1 REVERT JUMPDEST DUP2 PUSH1 0x1 PUSH0 DUP7 PUSH20 0xFFFFFFFFFFFFFFFFFFFFFFFFFFFFFFFFFFFFFFFF AND PUSH20 0xFFFFFFFFFFFFFFFFFFFFFFFFFFFFFFFFFFFFFFFF AND DUP2 MSTORE PUSH1 0x20 ADD SWAP1 DUP2 MSTORE PUSH1 0x20 ADD PUSH0 KECCAK256 PUSH0 DUP6 PUSH20 0xFFFFFFFFFFFFFFFFFFFFFFFFFFFFFFFFFFFFFFFF AND PUSH20 0xFFFFFFFFFFFFFFFFFFFFFFFFFFFFFFFFFFFFFFFF AND DUP2 MSTORE PUSH1 0x20 ADD SWAP1 DUP2 MSTORE PUSH1 0x20 ADD PUSH0 KECCAK256 DUP2 SWAP1 SSTORE POP DUP1 ISZERO PUSH2 0x1CDC JUMPI DUP3 PUSH20 0xFFFFFFFFFFFFFFFFFFFFFFFFFFFFFFFFFFFFFFFF AND DUP5 PUSH20 0xFFFFFFFFFFFFFFFFFFFFFFFFFFFFFFFFFFFFFFFF AND PUSH32 0x8C5BE1E5EBEC7D5BD14F71427D1E84F3DD0314C0F7B2291E5B200AC8C7C3B925 DUP5 PUSH1 0x40 MLOAD PUSH2 0x1CD3 SWAP2 SWAP1 PUSH2 0x20E1 JUMP JUMPDEST PUSH1 0x40 MLOAD DUP1 SWAP2 SUB SWAP1 LOG3 JUMPDEST POP POP POP POP JUMP JUMPDEST PUSH0 PUSH20 0xFFFFFFFFFFFFFFFFFFFFFFFFFFFFFFFFFFFFFFFF AND DUP4 PUSH20 0xFFFFFFFFFFFFFFFFFFFFFFFFFFFFFFFFFFFFFFFF AND SUB PUSH2 0x1D32 JUMPI DUP1 PUSH1 0x2 PUSH0 DUP3 DUP3 SLOAD PUSH2 0x1D26 SWAP2 SWAP1 PUSH2 0x2992 JUMP JUMPDEST SWAP3 POP POP DUP2 SWAP1 SSTORE POP PUSH2 0x1E00 JUMP JUMPDEST PUSH0 DUP1 PUSH0 DUP6 PUSH20 0xFFFFFFFFFFFFFFFFFFFFFFFFFFFFFFFFFFFFFFFF AND PUSH20 0xFFFFFFFFFFFFFFFFFFFFFFFFFFFFFFFFFFFFFFFF AND DUP2 MSTORE PUSH1 0x20 ADD SWAP1 DUP2 MSTORE PUSH1 0x20 ADD PUSH0 KECCAK256 SLOAD SWAP1 POP DUP2 DUP2 LT ISZERO PUSH2 0x1DBB JUMPI DUP4 DUP2 DUP4 PUSH1 0x40 MLOAD PUSH32 0xE450D38C00000000000000000000000000000000000000000000000000000000 DUP2 MSTORE PUSH1 0x4 ADD PUSH2 0x1DB2 SWAP4 SWAP3 SWAP2 SWAP1 PUSH2 0x29F8 JUMP JUMPDEST PUSH1 0x40 MLOAD DUP1 SWAP2 SUB SWAP1 REVERT JUMPDEST DUP2 DUP2 SUB PUSH0 DUP1 DUP7 PUSH20 0xFFFFFFFFFFFFFFFFFFFFFFFFFFFFFFFFFFFFFFFF AND PUSH20 0xFFFFFFFFFFFFFFFFFFFFFFFFFFFFFFFFFFFFFFFF AND DUP2 MSTORE PUSH1 0x20 ADD SWAP1 DUP2 MSTORE PUSH1 0x20 ADD PUSH0 KECCAK256 DUP2 SWAP1 SSTORE POP POP JUMPDEST PUSH0 PUSH20 0xFFFFFFFFFFFFFFFFFFFFFFFFFFFFFFFFFFFFFFFF AND DUP3 PUSH20 0xFFFFFFFFFFFFFFFFFFFFFFFFFFFFFFFFFFFFFFFF AND SUB PUSH2 0x1E47 JUMPI DUP1 PUSH1 0x2 PUSH0 DUP3 DUP3 SLOAD SUB SWAP3 POP POP DUP2 SWAP1 SSTORE POP PUSH2 0x1E91 JUMP JUMPDEST DUP1 PUSH0 DUP1 DUP5 PUSH20 0xFFFFFFFFFFFFFFFFFFFFFFFFFFFFFFFFFFFFFFFF AND PUSH20 0xFFFFFFFFFFFFFFFFFFFFFFFFFFFFFFFFFFFFFFFF AND DUP2 MSTORE PUSH1 0x20 ADD SWAP1 DUP2 MSTORE PUSH1 0x20 ADD PUSH0 KECCAK256 PUSH0 DUP3 DUP3 SLOAD ADD SWAP3 POP POP DUP2 SWAP1 SSTORE POP JUMPDEST DUP2 PUSH20 0xFFFFFFFFFFFFFFFFFFFFFFFFFFFFFFFFFFFFFFFF AND DUP4 PUSH20 0xFFFFFFFFFFFFFFFFFFFFFFFFFFFFFFFFFFFFFFFF AND PUSH32 0xDDF252AD1BE2C89B69C2B068FC378DAA952BA7F163C4A11628F55A4DF523B3EF DUP4 PUSH1 0x40 MLOAD PUSH2 0x1EEE SWAP2 SWAP1 PUSH2 0x20E1 JUMP JUMPDEST PUSH1 0x40 MLOAD DUP1 SWAP2 SUB SWAP1 LOG3 POP POP POP JUMP JUMPDEST PUSH0 DUP1 REVERT JUMPDEST PUSH0 DUP2 SWAP1 POP SWAP2 SWAP1 POP JUMP JUMPDEST PUSH2 0x1F11 DUP2 PUSH2 0x1EFF JUMP JUMPDEST DUP2 EQ PUSH2 0x1F1B JUMPI PUSH0 DUP1 REVERT JUMPDEST POP JUMP JUMPDEST PUSH0 DUP2 CALLDATALOAD SWAP1 POP PUSH2 0x1F2C DUP2 PUSH2 0x1F08 JUMP JUMPDEST SWAP3 SWAP2 POP POP JUMP JUMPDEST PUSH0 PUSH1 0x20 DUP3 DUP5 SUB SLT ISZERO PUSH2 0x1F47 JUMPI PUSH2 0x1F46 PUSH2 0x1EFB JUMP JUMPDEST JUMPDEST PUSH0 PUSH2 0x1F54 DUP5 DUP3 DUP6 ADD PUSH2 0x1F1E JUMP JUMPDEST SWAP2 POP POP SWAP3 SWAP2 POP POP JUMP JUMPDEST PUSH0 DUP2 MLOAD SWAP1 POP SWAP2 SWAP1 POP JUMP JUMPDEST PUSH0 DUP3 DUP3 MSTORE PUSH1 0x20 DUP3 ADD SWAP1 POP SWAP3 SWAP2 POP POP JUMP JUMPDEST PUSH0 JUMPDEST DUP4 DUP2 LT ISZERO PUSH2 0x1F94 JUMPI DUP1 DUP3 ADD MLOAD DUP2 DUP5 ADD MSTORE PUSH1 0x20 DUP2 ADD SWAP1 POP PUSH2 0x1F79 JUMP JUMPDEST PUSH0 DUP5 DUP5 ADD MSTORE POP POP POP POP JUMP JUMPDEST PUSH0 PUSH1 0x1F NOT PUSH1 0x1F DUP4 ADD AND SWAP1 POP SWAP2 SWAP1 POP JUMP JUMPDEST PUSH0 PUSH2 0x1FB9 DUP3 PUSH2 0x1F5D JUMP JUMPDEST PUSH2 0x1FC3 DUP2 DUP6 PUSH2 0x1F67 JUMP JUMPDEST SWAP4 POP PUSH2 0x1FD3 DUP2 DUP6 PUSH1 0x20 DUP7 ADD PUSH2 0x1F77 JUMP JUMPDEST PUSH2 0x1FDC DUP2 PUSH2 0x1F9F JUMP JUMPDEST DUP5 ADD SWAP2 POP POP SWAP3 SWAP2 POP POP JUMP JUMPDEST PUSH0 PUSH1 0x20 DUP3 ADD SWAP1 POP DUP2 DUP2 SUB PUSH0 DUP4 ADD MSTORE PUSH2 0x1FFF DUP2 DUP5 PUSH2 0x1FAF JUMP JUMPDEST SWAP1 POP SWAP3 SWAP2 POP POP JUMP JUMPDEST PUSH0 PUSH20 0xFFFFFFFFFFFFFFFFFFFFFFFFFFFFFFFFFFFFFFFF DUP3 AND SWAP1 POP SWAP2 SWAP1 POP JUMP JUMPDEST PUSH0 PUSH2 0x2030 DUP3 PUSH2 0x2007 JUMP JUMPDEST SWAP1 POP SWAP2 SWAP1 POP JUMP JUMPDEST PUSH2 0x2040 DUP2 PUSH2 0x2026 JUMP JUMPDEST DUP2 EQ PUSH2 0x204A JUMPI PUSH0 DUP1 REVERT JUMPDEST POP JUMP JUMPDEST PUSH0 DUP2 CALLDATALOAD SWAP1 POP PUSH2 0x205B DUP2 PUSH2 0x2037 JUMP JUMPDEST SWAP3 SWAP2 POP POP JUMP JUMPDEST PUSH0 DUP1 PUSH1 0x40 DUP4 DUP6 SUB SLT ISZERO PUSH2 0x2077 JUMPI PUSH2 0x2076 PUSH2 0x1EFB JUMP JUMPDEST JUMPDEST PUSH0 PUSH2 0x2084 DUP6 DUP3 DUP7 ADD PUSH2 0x204D JUMP JUMPDEST SWAP3 POP POP PUSH1 0x20 PUSH2 0x2095 DUP6 DUP3 DUP7 ADD PUSH2 0x1F1E JUMP JUMPDEST SWAP2 POP POP SWAP3 POP SWAP3 SWAP1 POP JUMP JUMPDEST PUSH0 DUP2 ISZERO ISZERO SWAP1 POP SWAP2 SWAP1 POP JUMP JUMPDEST PUSH2 0x20B3 DUP2 PUSH2 0x209F JUMP JUMPDEST DUP3 MSTORE POP POP JUMP JUMPDEST PUSH0 PUSH1 0x20 DUP3 ADD SWAP1 POP PUSH2 0x20CC PUSH0 DUP4 ADD DUP5 PUSH2 0x20AA JUMP JUMPDEST SWAP3 SWAP2 POP POP JUMP JUMPDEST PUSH2 0x20DB DUP2 PUSH2 0x1EFF JUMP JUMPDEST DUP3 MSTORE POP POP JUMP JUMPDEST PUSH0 PUSH1 0x20 DUP3 ADD SWAP1 POP PUSH2 0x20F4 PUSH0 DUP4 ADD DUP5 PUSH2 0x20D2 JUMP JUMPDEST SWAP3 SWAP2 POP POP JUMP JUMPDEST PUSH0 DUP1 PUSH0 PUSH1 0x60 DUP5 DUP7 SUB SLT ISZERO PUSH2 0x2111 JUMPI PUSH2 0x2110 PUSH2 0x1EFB JUMP JUMPDEST JUMPDEST PUSH0 PUSH2 0x211E DUP7 DUP3 DUP8 ADD PUSH2 0x1F1E JUMP JUMPDEST SWAP4 POP POP PUSH1 0x20 PUSH2 0x212F DUP7 DUP3 DUP8 ADD PUSH2 0x1F1E JUMP JUMPDEST SWAP3 POP POP PUSH1 0x40 PUSH2 0x2140 DUP7 DUP3 DUP8 ADD PUSH2 0x1F1E JUMP JUMPDEST SWAP2 POP POP SWAP3 POP SWAP3 POP SWAP3 JUMP JUMPDEST PUSH0 DUP1 PUSH0 PUSH1 0x60 DUP5 DUP7 SUB SLT ISZERO PUSH2 0x2161 JUMPI PUSH2 0x2160 PUSH2 0x1EFB JUMP JUMPDEST JUMPDEST PUSH0 PUSH2 0x216E DUP7 DUP3 DUP8 ADD PUSH2 0x204D JUMP JUMPDEST SWAP4 POP POP PUSH1 0x20 PUSH2 0x217F DUP7 DUP3 DUP8 ADD PUSH2 0x204D JUMP JUMPDEST SWAP3 POP POP PUSH1 0x40 PUSH2 0x2190 DUP7 DUP3 DUP8 ADD PUSH2 0x1F1E JUMP JUMPDEST SWAP2 POP POP SWAP3 POP SWAP3 POP SWAP3 JUMP JUMPDEST PUSH0 PUSH1 0xFF DUP3 AND SWAP1 POP SWAP2 SWAP1 POP JUMP JUMPDEST PUSH2 0x21AF DUP2 PUSH2 0x219A JUMP JUMPDEST DUP3 MSTORE POP POP JUMP JUMPDEST PUSH0 PUSH1 0x20 DUP3 ADD SWAP1 POP PUSH2 0x21C8 PUSH0 DUP4 ADD DUP5 PUSH2 0x21A6 JUMP JUMPDEST SWAP3 SWAP2 POP POP JUMP JUMPDEST PUSH2 0x21D7 DUP2 PUSH2 0x2026 JUMP JUMPDEST DUP3 MSTORE POP POP JUMP JUMPDEST PUSH0 PUSH1 0x80 DUP3 ADD SWAP1 POP PUSH2 0x21F0 PUSH0 DUP4 ADD DUP8 PUSH2 0x20D2 JUMP JUMPDEST PUSH2 0x21FD PUSH1 0x20 DUP4 ADD DUP7 PUSH2 0x21CE JUMP JUMPDEST PUSH2 0x220A PUSH1 0x40 DUP4 ADD DUP6 PUSH2 0x20D2 JUMP JUMPDEST PUSH2 0x2217 PUSH1 0x60 DUP4 ADD DUP5 PUSH2 0x20AA JUMP JUMPDEST SWAP6 SWAP5 POP POP POP POP POP JUMP JUMPDEST PUSH0 PUSH1 0x20 DUP3 DUP5 SUB SLT ISZERO PUSH2 0x2235 JUMPI PUSH2 0x2234 PUSH2 0x1EFB JUMP JUMPDEST JUMPDEST PUSH0 PUSH2 0x2242 DUP5 DUP3 DUP6 ADD PUSH2 0x204D JUMP JUMPDEST SWAP2 POP POP SWAP3 SWAP2 POP POP JUMP JUMPDEST PUSH0 PUSH1 0x20 DUP3 ADD SWAP1 POP PUSH2 0x225E PUSH0 DUP4 ADD DUP5 PUSH2 0x21CE JUMP JUMPDEST SWAP3 SWAP2 POP POP JUMP JUMPDEST PUSH0 DUP1 PUSH1 0x40 DUP4 DUP6 SUB SLT ISZERO PUSH2 0x227A JUMPI PUSH2 0x2279 PUSH2 0x1EFB JUMP JUMPDEST JUMPDEST PUSH0 PUSH2 0x2287 DUP6 DUP3 DUP7 ADD PUSH2 0x1F1E JUMP JUMPDEST SWAP3 POP POP PUSH1 0x20 PUSH2 0x2298 DUP6 DUP3 DUP7 ADD PUSH2 0x1F1E JUMP JUMPDEST SWAP2 POP POP SWAP3 POP SWAP3 SWAP1 POP JUMP JUMPDEST PUSH2 0x22AB DUP2 PUSH2 0x209F JUMP JUMPDEST DUP2 EQ PUSH2 0x22B5 JUMPI PUSH0 DUP1 REVERT JUMPDEST POP JUMP JUMPDEST PUSH0 DUP2 CALLDATALOAD SWAP1 POP PUSH2 0x22C6 DUP2 PUSH2 0x22A2 JUMP JUMPDEST SWAP3 SWAP2 POP POP JUMP JUMPDEST PUSH0 DUP1 PUSH0 DUP1 PUSH1 0x80 DUP6 DUP8 SUB SLT ISZERO PUSH2 0x22E4 JUMPI PUSH2 0x22E3 PUSH2 0x1EFB JUMP JUMPDEST JUMPDEST PUSH0 PUSH2 0x22F1 DUP8 DUP3 DUP9 ADD PUSH2 0x1F1E JUMP JUMPDEST SWAP5 POP POP PUSH1 0x20 PUSH2 0x2302 DUP8 DUP3 DUP9 ADD PUSH2 0x1F1E JUMP JUMPDEST SWAP4 POP POP PUSH1 0x40 PUSH2 0x2313 DUP8 DUP3 DUP9 ADD PUSH2 0x1F1E JUMP JUMPDEST SWAP3 POP POP PUSH1 0x60 PUSH2 0x2324 DUP8 DUP3 DUP9 ADD PUSH2 0x22B8 JUMP JUMPDEST SWAP2 POP POP SWAP3 SWAP6 SWAP2 SWAP5 POP SWAP3 POP JUMP JUMPDEST PUSH0 DUP1 PUSH1 0x40 DUP4 DUP6 SUB SLT ISZERO PUSH2 0x2346 JUMPI PUSH2 0x2345 PUSH2 0x1EFB JUMP JUMPDEST JUMPDEST PUSH0 PUSH2 0x2353 DUP6 DUP3 DUP7 ADD PUSH2 0x204D JUMP JUMPDEST SWAP3 POP POP PUSH1 0x20 PUSH2 0x2364 DUP6 DUP3 DUP7 ADD PUSH2 0x204D JUMP JUMPDEST SWAP2 POP POP SWAP3 POP SWAP3 SWAP1 POP JUMP JUMPDEST PUSH0 PUSH1 0xC0 DUP3 ADD SWAP1 POP PUSH2 0x2381 PUSH0 DUP4 ADD DUP10 PUSH2 0x21CE JUMP JUMPDEST PUSH2 0x238E PUSH1 0x20 DUP4 ADD DUP9 PUSH2 0x20D2 JUMP JUMPDEST PUSH2 0x239B PUSH1 0x40 DUP4 ADD DUP8 PUSH2 0x20D2 JUMP JUMPDEST PUSH2 0x23A8 PUSH1 0x60 DUP4 ADD DUP7 PUSH2 0x20D2 JUMP JUMPDEST PUSH2 0x23B5 PUSH1 0x80 DUP4 ADD DUP6 PUSH2 0x20AA JUMP JUMPDEST PUSH2 0x23C2 PUSH1 0xA0 DUP4 ADD DUP5 PUSH2 0x20AA JUMP JUMPDEST SWAP8 SWAP7 POP POP POP POP POP POP POP JUMP JUMPDEST PUSH32 0x4F6E6C79207468652070726F7065727479206F776E65722063616E2073746172 PUSH0 DUP3 ADD MSTORE PUSH32 0x7420616E2061756374696F6E0000000000000000000000000000000000000000 PUSH1 0x20 DUP3 ADD MSTORE POP JUMP JUMPDEST PUSH0 PUSH2 0x2427 PUSH1 0x2C DUP4 PUSH2 0x1F67 JUMP JUMPDEST SWAP2 POP PUSH2 0x2432 DUP3 PUSH2 0x23CD JUMP JUMPDEST PUSH1 0x40 DUP3 ADD SWAP1 POP SWAP2 SWAP1 POP JUMP JUMPDEST PUSH0 PUSH1 0x20 DUP3 ADD SWAP1 POP DUP2 DUP2 SUB PUSH0 DUP4 ADD MSTORE PUSH2 0x2454 DUP2 PUSH2 0x241B JUMP JUMPDEST SWAP1 POP SWAP2 SWAP1 POP JUMP JUMPDEST PUSH32 0x41756374696F6E20666F7220746869732070726F70657274792068617320616C PUSH0 DUP3 ADD MSTORE PUSH32 0x7265616479207374617274656400000000000000000000000000000000000000 PUSH1 0x20 DUP3 ADD MSTORE POP JUMP JUMPDEST PUSH0 PUSH2 0x24B5 PUSH1 0x2D DUP4 PUSH2 0x1F67 JUMP JUMPDEST SWAP2 POP PUSH2 0x24C0 DUP3 PUSH2 0x245B JUMP JUMPDEST PUSH1 0x40 DUP3 ADD SWAP1 POP SWAP2 SWAP1 POP JUMP JUMPDEST PUSH0 PUSH1 0x20 DUP3 ADD SWAP1 POP DUP2 DUP2 SUB PUSH0 DUP4 ADD MSTORE PUSH2 0x24E2 DUP2 PUSH2 0x24A9 JUMP JUMPDEST SWAP1 POP SWAP2 SWAP1 POP JUMP JUMPDEST PUSH32 0x4E487B7100000000000000000000000000000000000000000000000000000000 PUSH0 MSTORE PUSH1 0x11 PUSH1 0x4 MSTORE PUSH1 0x24 PUSH0 REVERT JUMPDEST PUSH0 PUSH2 0x2520 DUP3 PUSH2 0x1EFF JUMP JUMPDEST SWAP2 POP PUSH32 0xFFFFFFFFFFFFFFFFFFFFFFFFFFFFFFFFFFFFFFFFFFFFFFFFFFFFFFFFFFFFFFFF DUP3 SUB PUSH2 0x2552 JUMPI PUSH2 0x2551 PUSH2 0x24E9 JUMP JUMPDEST JUMPDEST PUSH1 0x1 DUP3 ADD SWAP1 POP SWAP2 SWAP1 POP JUMP JUMPDEST PUSH32 0x4E487B7100000000000000000000000000000000000000000000000000000000 PUSH0 MSTORE PUSH1 0x22 PUSH1 0x4 MSTORE PUSH1 0x24 PUSH0 REVERT JUMPDEST PUSH0 PUSH1 0x2 DUP3 DIV SWAP1 POP PUSH1 0x1 DUP3 AND DUP1 PUSH2 0x25A1 JUMPI PUSH1 0x7F DUP3 AND SWAP2 POP JUMPDEST PUSH1 0x20 DUP3 LT DUP2 SUB PUSH2 0x25B4 JUMPI PUSH2 0x25B3 PUSH2 0x255D JUMP JUMPDEST JUMPDEST POP SWAP2 SWAP1 POP JUMP JUMPDEST PUSH32 0x4F6E6C7920746865206F776E65722063616E20706572666F726D207468697320 PUSH0 DUP3 ADD MSTORE PUSH32 0x616374696F6E0000000000000000000000000000000000000000000000000000 PUSH1 0x20 DUP3 ADD MSTORE POP JUMP JUMPDEST PUSH0 PUSH2 0x2614 PUSH1 0x26 DUP4 PUSH2 0x1F67 JUMP JUMPDEST SWAP2 POP PUSH2 0x261F DUP3 PUSH2 0x25BA JUMP JUMPDEST PUSH1 0x40 DUP3 ADD SWAP1 POP SWAP2 SWAP1 POP JUMP JUMPDEST PUSH0 PUSH1 0x20 DUP3 ADD SWAP1 POP DUP2 DUP2 SUB PUSH0 DUP4 ADD MSTORE PUSH2 0x2641 DUP2 PUSH2 0x2608 JUMP JUMPDEST SWAP1 POP SWAP2 SWAP1 POP JUMP JUMPDEST PUSH32 0x41756374696F6E20616C726561647920656E6465640000000000000000000000 PUSH0 DUP3 ADD MSTORE POP JUMP JUMPDEST PUSH0 PUSH2 0x267C PUSH1 0x15 DUP4 PUSH2 0x1F67 JUMP JUMPDEST SWAP2 POP PUSH2 0x2687 DUP3 PUSH2 0x2648 JUMP JUMPDEST PUSH1 0x20 DUP3 ADD SWAP1 POP SWAP2 SWAP1 POP JUMP JUMPDEST PUSH0 PUSH1 0x20 DUP3 ADD SWAP1 POP DUP2 DUP2 SUB PUSH0 DUP4 ADD MSTORE PUSH2 0x26A9 DUP2 PUSH2 0x2670 JUMP JUMPDEST SWAP1 POP SWAP2 SWAP1 POP JUMP JUMPDEST PUSH32 0x426964206D75737420626520686967686572207468616E207468652063757272 PUSH0 DUP3 ADD MSTORE PUSH32 0x656E742068696768657374206269640000000000000000000000000000000000 PUSH1 0x20 DUP3 ADD MSTORE POP JUMP JUMPDEST PUSH0 PUSH2 0x270A PUSH1 0x2F DUP4 PUSH2 0x1F67 JUMP JUMPDEST SWAP2 POP PUSH2 0x2715 DUP3 PUSH2 0x26B0 JUMP JUMPDEST PUSH1 0x40 DUP3 ADD SWAP1 POP SWAP2 SWAP1 POP JUMP JUMPDEST PUSH0 PUSH1 0x20 DUP3 ADD SWAP1 POP DUP2 DUP2 SUB PUSH0 DUP4 ADD MSTORE PUSH2 0x2737 DUP2 PUSH2 0x26FE JUMP JUMPDEST SWAP1 POP SWAP2 SWAP1 POP JUMP JUMPDEST PUSH32 0x4F6E6C79207468652070726F7065727479206F776E65722063616E20656E6420 PUSH0 DUP3 ADD MSTORE PUSH32 0x7468652061756374696F6E000000000000000000000000000000000000000000 PUSH1 0x20 DUP3 ADD MSTORE POP JUMP JUMPDEST PUSH0 PUSH2 0x2798 PUSH1 0x2B DUP4 PUSH2 0x1F67 JUMP JUMPDEST SWAP2 POP PUSH2 0x27A3 DUP3 PUSH2 0x273E JUMP JUMPDEST PUSH1 0x40 DUP3 ADD SWAP1 POP SWAP2 SWAP1 POP JUMP JUMPDEST PUSH0 PUSH1 0x20 DUP3 ADD SWAP1 POP DUP2 DUP2 SUB PUSH0 DUP4 ADD MSTORE PUSH2 0x27C5 DUP2 PUSH2 0x278C JUMP JUMPDEST SWAP1 POP SWAP2 SWAP1 POP JUMP JUMPDEST PUSH0 PUSH1 0x40 DUP3 ADD SWAP1 POP PUSH2 0x27DF PUSH0 DUP4 ADD DUP6 PUSH2 0x20D2 JUMP JUMPDEST PUSH2 0x27EC PUSH1 0x20 DUP4 ADD DUP5 PUSH2 0x20D2 JUMP JUMPDEST SWAP4 SWAP3 POP POP POP JUMP JUMPDEST PUSH32 0x4E756D626572206F6620736861726573206D7573742062652067726561746572 PUSH0 DUP3 ADD MSTORE PUSH32 0x207468616E207A65726F00000000000000000000000000000000000000000000 PUSH1 0x20 DUP3 ADD MSTORE POP JUMP JUMPDEST PUSH0 PUSH2 0x284D PUSH1 0x2A DUP4 PUSH2 0x1F67 JUMP JUMPDEST SWAP2 POP PUSH2 0x2858 DUP3 PUSH2 0x27F3 JUMP JUMPDEST PUSH1 0x40 DUP3 ADD SWAP1 POP SWAP2 SWAP1 POP JUMP JUMPDEST PUSH0 PUSH1 0x20 DUP3 ADD SWAP1 POP DUP2 DUP2 SUB PUSH0 DUP4 ADD MSTORE PUSH2 0x287A DUP2 PUSH2 0x2841 JUMP JUMPDEST SWAP1 POP SWAP2 SWAP1 POP JUMP JUMPDEST PUSH0 PUSH2 0x288B DUP3 PUSH2 0x1EFF JUMP JUMPDEST SWAP2 POP PUSH2 0x2896 DUP4 PUSH2 0x1EFF JUMP JUMPDEST SWAP3 POP DUP3 DUP3 MUL PUSH2 0x28A4 DUP2 PUSH2 0x1EFF JUMP JUMPDEST SWAP2 POP DUP3 DUP3 DIV DUP5 EQ DUP4 ISZERO OR PUSH2 0x28BB JUMPI PUSH2 0x28BA PUSH2 0x24E9 JUMP JUMPDEST JUMPDEST POP SWAP3 SWAP2 POP POP JUMP JUMPDEST PUSH32 0x496E73756666696369656E742066756E64730000000000000000000000000000 PUSH0 DUP3 ADD MSTORE POP JUMP JUMPDEST PUSH0 PUSH2 0x28F6 PUSH1 0x12 DUP4 PUSH2 0x1F67 JUMP JUMPDEST SWAP2 POP PUSH2 0x2901 DUP3 PUSH2 0x28C2 JUMP JUMPDEST PUSH1 0x20 DUP3 ADD SWAP1 POP SWAP2 SWAP1 POP JUMP JUMPDEST PUSH0 PUSH1 0x20 DUP3 ADD SWAP1 POP DUP2 DUP2 SUB PUSH0 DUP4 ADD MSTORE PUSH2 0x2923 DUP2 PUSH2 0x28EA JUMP JUMPDEST SWAP1 POP SWAP2 SWAP1 POP JUMP JUMPDEST PUSH32 0x4E6F7420656E6F7567682073686172657320617661696C61626C650000000000 PUSH0 DUP3 ADD MSTORE POP JUMP JUMPDEST PUSH0 PUSH2 0x295E PUSH1 0x1B DUP4 PUSH2 0x1F67 JUMP JUMPDEST SWAP2 POP PUSH2 0x2969 DUP3 PUSH2 0x292A JUMP JUMPDEST PUSH1 0x20 DUP3 ADD SWAP1 POP SWAP2 SWAP1 POP JUMP JUMPDEST PUSH0 PUSH1 0x20 DUP3 ADD SWAP1 POP DUP2 DUP2 SUB PUSH0 DUP4 ADD MSTORE PUSH2 0x298B DUP2 PUSH2 0x2952 JUMP JUMPDEST SWAP1 POP SWAP2 SWAP1 POP JUMP JUMPDEST PUSH0 PUSH2 0x299C DUP3 PUSH2 0x1EFF JUMP JUMPDEST SWAP2 POP PUSH2 0x29A7 DUP4 PUSH2 0x1EFF JUMP JUMPDEST SWAP3 POP DUP3 DUP3 ADD SWAP1 POP DUP1 DUP3 GT ISZERO PUSH2 0x29BF JUMPI PUSH2 0x29BE PUSH2 0x24E9 JUMP JUMPDEST JUMPDEST SWAP3 SWAP2 POP POP JUMP JUMPDEST PUSH0 PUSH2 0x29CF DUP3 PUSH2 0x1EFF JUMP JUMPDEST SWAP2 POP PUSH2 0x29DA DUP4 PUSH2 0x1EFF JUMP JUMPDEST SWAP3 POP DUP3 DUP3 SUB SWAP1 POP DUP2 DUP2 GT ISZERO PUSH2 0x29F2 JUMPI PUSH2 0x29F1 PUSH2 0x24E9 JUMP JUMPDEST JUMPDEST SWAP3 SWAP2 POP POP JUMP JUMPDEST PUSH0 PUSH1 0x60 DUP3 ADD SWAP1 POP PUSH2 0x2A0B PUSH0 DUP4 ADD DUP7 PUSH2 0x21CE JUMP JUMPDEST PUSH2 0x2A18 PUSH1 0x20 DUP4 ADD DUP6 PUSH2 0x20D2 JUMP JUMPDEST PUSH2 0x2A25 PUSH1 0x40 DUP4 ADD DUP5 PUSH2 0x20D2 JUMP JUMPDEST SWAP5 SWAP4 POP POP POP POP JUMP INVALID LOG2 PUSH5 0x6970667358 0x22 SLT KECCAK256 DUP4 0xCA GASPRICE 0x1E SDIV CALLER REVERT JUMPI SWAP5 0xE3 0xDE MOD 0xC1 DUP8 DUP16 0xC0 0x25 0xDB 0x28 0xA5 PUSH2 0x11B0 0x1E DUP7 LOG3 PUSH0 DUP13 XOR 0xCD 0xC8 0xCC PUSH5 0x736F6C6343 STOP ADDMOD AND STOP CALLER "
				},
				"gasEstimates": {
					"creation": {
						"codeDepositCost": "2170200",
						"executionCost": "infinite",
						"totalCost": "infinite"
					},
					"external": {
						"addProperty(uint256,uint256,uint256,bool)": "infinite",
						"allowance(address,address)": "infinite",
						"approve(address,uint256)": "infinite",
						"auctions(uint256)": "infinite",
						"balanceOf(address)": "2875",
						"buyShares(uint256,uint256)": "infinite",
						"decimals()": "405",
						"endAuction(uint256)": "infinite",
						"getPropertyEstimatedPrice(uint256)": "infinite",
						"getPropertyListPrice(uint256)": "infinite",
						"getPropertyOwner(uint256)": "2945",
						"getPropertySharesAvailable(uint256)": "infinite",
						"isPropertyAuctioned(uint256)": "2978",
						"isPropertyPublic(uint256)": "2884",
						"name()": "infinite",
						"owner()": "2575",
						"placeBid(uint256)": "infinite",
						"properties(uint256)": "infinite",
						"setSharePrice(uint256)": "24796",
						"sharePrice()": "2515",
						"startAuction(uint256)": "infinite",
						"symbol()": "infinite",
						"totalAuctions()": "2515",
						"totalProperties()": "2471",
						"totalShares()": "2514",
						"totalSupply()": "2478",
						"transfer(address,uint256)": "infinite",
						"transferFrom(address,address,uint256)": "infinite",
						"updatePropertyDetails(uint256,uint256,uint256)": "infinite"
					}
				},
				"methodIdentifiers": {
					"addProperty(uint256,uint256,uint256,bool)": "c8a39541",
					"allowance(address,address)": "dd62ed3e",
					"approve(address,uint256)": "095ea7b3",
					"auctions(uint256)": "571a26a0",
					"balanceOf(address)": "70a08231",
					"buyShares(uint256,uint256)": "beebc5da",
					"decimals()": "313ce567",
					"endAuction(uint256)": "b9a2de3a",
					"getPropertyEstimatedPrice(uint256)": "890b7775",
					"getPropertyListPrice(uint256)": "2f2d28ba",
					"getPropertyOwner(uint256)": "e34fc531",
					"getPropertySharesAvailable(uint256)": "808d3315",
					"isPropertyAuctioned(uint256)": "c0afbe89",
					"isPropertyPublic(uint256)": "0fc57e6c",
					"name()": "06fdde03",
					"owner()": "8da5cb5b",
					"placeBid(uint256)": "9979ef45",
					"properties(uint256)": "f7b10808",
					"setSharePrice(uint256)": "16b60249",
					"sharePrice()": "87269729",
					"startAuction(uint256)": "065de74c",
					"symbol()": "95d89b41",
					"totalAuctions()": "16002f4a",
					"totalProperties()": "0b3bce20",
					"totalShares()": "3a98ef39",
					"totalSupply()": "18160ddd",
					"transfer(address,uint256)": "a9059cbb",
					"transferFrom(address,address,uint256)": "23b872dd",
					"updatePropertyDetails(uint256,uint256,uint256)": "1fd5419d"
				}
			},
			"storageLayout": {
				"storage": [
					{
						"astId": 159,
						"contract": "RealEstateToken.sol:RealEstateToken",
						"label": "_balances",
						"offset": 0,
						"slot": "0",
						"type": "t_mapping(t_address,t_uint256)"
					},
					{
						"astId": 165,
						"contract": "RealEstateToken.sol:RealEstateToken",
						"label": "_allowances",
						"offset": 0,
						"slot": "1",
						"type": "t_mapping(t_address,t_mapping(t_address,t_uint256))"
					},
					{
						"astId": 167,
						"contract": "RealEstateToken.sol:RealEstateToken",
						"label": "_totalSupply",
						"offset": 0,
						"slot": "2",
						"type": "t_uint256"
					},
					{
						"astId": 169,
						"contract": "RealEstateToken.sol:RealEstateToken",
						"label": "_name",
						"offset": 0,
						"slot": "3",
						"type": "t_string_storage"
					},
					{
						"astId": 171,
						"contract": "RealEstateToken.sol:RealEstateToken",
						"label": "_symbol",
						"offset": 0,
						"slot": "4",
						"type": "t_string_storage"
					},
					{
						"astId": 784,
						"contract": "RealEstateToken.sol:RealEstateToken",
						"label": "owner",
						"offset": 0,
						"slot": "5",
						"type": "t_address"
					},
					{
						"astId": 786,
						"contract": "RealEstateToken.sol:RealEstateToken",
						"label": "totalShares",
						"offset": 0,
						"slot": "6",
						"type": "t_uint256"
					},
					{
						"astId": 788,
						"contract": "RealEstateToken.sol:RealEstateToken",
						"label": "sharePrice",
						"offset": 0,
						"slot": "7",
						"type": "t_uint256"
					},
					{
						"astId": 790,
						"contract": "RealEstateToken.sol:RealEstateToken",
						"label": "totalProperties",
						"offset": 0,
						"slot": "8",
						"type": "t_uint256"
					},
					{
						"astId": 792,
						"contract": "RealEstateToken.sol:RealEstateToken",
						"label": "totalAuctions",
						"offset": 0,
						"slot": "9",
						"type": "t_uint256"
					},
					{
						"astId": 847,
						"contract": "RealEstateToken.sol:RealEstateToken",
						"label": "properties",
						"offset": 0,
						"slot": "10",
						"type": "t_mapping(t_uint256,t_struct(Property)833_storage)"
					},
					{
						"astId": 852,
						"contract": "RealEstateToken.sol:RealEstateToken",
						"label": "auctions",
						"offset": 0,
						"slot": "11",
						"type": "t_mapping(t_uint256,t_struct(Auction)842_storage)"
					}
				],
				"types": {
					"t_address": {
						"encoding": "inplace",
						"label": "address",
						"numberOfBytes": "20"
					},
					"t_bool": {
						"encoding": "inplace",
						"label": "bool",
						"numberOfBytes": "1"
					},
					"t_mapping(t_address,t_mapping(t_address,t_uint256))": {
						"encoding": "mapping",
						"key": "t_address",
						"label": "mapping(address => mapping(address => uint256))",
						"numberOfBytes": "32",
						"value": "t_mapping(t_address,t_uint256)"
					},
					"t_mapping(t_address,t_uint256)": {
						"encoding": "mapping",
						"key": "t_address",
						"label": "mapping(address => uint256)",
						"numberOfBytes": "32",
						"value": "t_uint256"
					},
					"t_mapping(t_uint256,t_struct(Auction)842_storage)": {
						"encoding": "mapping",
						"key": "t_uint256",
						"label": "mapping(uint256 => struct RealEstateToken.Auction)",
						"numberOfBytes": "32",
						"value": "t_struct(Auction)842_storage"
					},
					"t_mapping(t_uint256,t_struct(Property)833_storage)": {
						"encoding": "mapping",
						"key": "t_uint256",
						"label": "mapping(uint256 => struct RealEstateToken.Property)",
						"numberOfBytes": "32",
						"value": "t_struct(Property)833_storage"
					},
					"t_string_storage": {
						"encoding": "bytes",
						"label": "string",
						"numberOfBytes": "32"
					},
					"t_struct(Auction)842_storage": {
						"encoding": "inplace",
						"label": "struct RealEstateToken.Auction",
						"members": [
							{
								"astId": 835,
								"contract": "RealEstateToken.sol:RealEstateToken",
								"label": "propertyId",
								"offset": 0,
								"slot": "0",
								"type": "t_uint256"
							},
							{
								"astId": 837,
								"contract": "RealEstateToken.sol:RealEstateToken",
								"label": "highestBidder",
								"offset": 0,
								"slot": "1",
								"type": "t_address"
							},
							{
								"astId": 839,
								"contract": "RealEstateToken.sol:RealEstateToken",
								"label": "highestBid",
								"offset": 0,
								"slot": "2",
								"type": "t_uint256"
							},
							{
								"astId": 841,
								"contract": "RealEstateToken.sol:RealEstateToken",
								"label": "ended",
								"offset": 0,
								"slot": "3",
								"type": "t_bool"
							}
						],
						"numberOfBytes": "128"
					},
					"t_struct(Property)833_storage": {
						"encoding": "inplace",
						"label": "struct RealEstateToken.Property",
						"members": [
							{
								"astId": 818,
								"contract": "RealEstateToken.sol:RealEstateToken",
								"label": "owner",
								"offset": 0,
								"slot": "0",
								"type": "t_address"
							},
							{
								"astId": 820,
								"contract": "RealEstateToken.sol:RealEstateToken",
								"label": "sharesAvailable",
								"offset": 0,
								"slot": "1",
								"type": "t_uint256"
							},
							{
								"astId": 822,
								"contract": "RealEstateToken.sol:RealEstateToken",
								"label": "listPrice",
								"offset": 0,
								"slot": "2",
								"type": "t_uint256"
							},
							{
								"astId": 824,
								"contract": "RealEstateToken.sol:RealEstateToken",
								"label": "estimatedPrice",
								"offset": 0,
								"slot": "3",
								"type": "t_uint256"
							},
							{
								"astId": 828,
								"contract": "RealEstateToken.sol:RealEstateToken",
								"label": "investorShares",
								"offset": 0,
								"slot": "4",
								"type": "t_mapping(t_address,t_uint256)"
							},
							{
								"astId": 830,
								"contract": "RealEstateToken.sol:RealEstateToken",
								"label": "isPublic",
								"offset": 0,
								"slot": "5",
								"type": "t_bool"
							},
							{
								"astId": 832,
								"contract": "RealEstateToken.sol:RealEstateToken",
								"label": "isAuctioned",
								"offset": 1,
								"slot": "5",
								"type": "t_bool"
							}
						],
						"numberOfBytes": "192"
					},
					"t_uint256": {
						"encoding": "inplace",
						"label": "uint256",
						"numberOfBytes": "32"
					}
				}
			},
			"userdoc": {
				"kind": "user",
				"methods": {},
				"version": 1
			}
		}
	}
}